:020000040800F2
:10000000B04000209D010008670F0008A90E0008FD
:10001000650F0008290200084510000800000000D4
:100020000000000000000000000000008B0F00082E
:100030002B02000800000000890F00088D0F000847
:10004000B7010008B7010008B7010008B7010008B0
:10005000B7010008B7010008B7010008B7010008A0
:10006000B7010008B7010008B7010008B701000890
:10007000B7010008B7010008B7010008B701000880
:10008000B7010008B7010008B7010008B701000870
:10009000B7010008B7010008B7010008B701000860
:1000A000B7010008B7010008B7010008B701000850
:1000B000B7010008B7010008B7010008B701000840
:1000C000B7010008B7010008B7010008B701000830
:1000D000B7010008B7010008B7010008B701000820
:1000E000B7010008B7010008B7010008B701000810
:1000F000B7010008B7010008B7010008B701000800
:10010000000000000000000000000000B70100082F
:10011000B7010008B7010008B7010008B7010008DF
:10012000B7010008B7010008B7010008B7010008CF
:10013000B7010008B701000800000000000000003F
:10014000B7010008B7010008B7010008000000006F
:10015000000000000000000000000000000000009F
:100160000000000000000000B7010008B70100080F
:10017000B7010008000000000000000000000000BF
:1001800000000000B7010008DFF80CD000F03AF8DA
:100190000048004765100008B0400020064880472E
:1001A00006480047FEE7FEE7FEE7FEE7FEE7FEE75C
:1001B000FEE7FEE7FEE7FEE7DD0F00088901000825
:1001C000202A04DB203A21FA02F00021704721FAAC
:1001D00002F3D040C2F12002914008431946704713
:1001E000D2B201E000F8012B491EFBD27047002279
:1001F000F6E710B513460A4604461946FFF7F0FF26
:10020000204610BD064C074D06E0E06840F00103B3
:1002100094E8070098471034AC42F6D3FFF7B8FFD4
:10022000A4110008C4110008FEE770470649002029
:10023000C8610648016941F004010161016941F0AA
:100240004001016170470000900000200020024042
:10025000064A0021D16106490A6942F002020A6198
:100260004861086940F04000086170479000002034
:1002700000200240044B0022DA61044A136943F073
:1002800001031361018070479000002000200240AC
:100290000A490020CA68D306094A04D5D06940F04B
:1002A0000200D0611020CB685B0705D5D36943F00D
:1002B0000103D36140F00400C86070470020024091
:1002C0009000002070B5054600F0B6F90646104CC7
:1002D00009E0681C07D025B100F0AEF9801BA842E8
:1002E00001D9032070BDE068C007F2D1E068800644
:1002F00001D52020E060E068C00602D4E068400735
:1003000003D5FFF7C5FF012070BD002070BD0000C0
:100310000020024070B5044600F08EF90546601CCE
:1003200002D004480078044400F086F9401BA04243
:10033000FAD370BD200000202DE9F047054626487D
:100340000F460126017E01290FD001218146017649
:100350002868DFF888804CF25034012808D0A24683
:100360002046FFF7AFFFA0B130E00220BDE8F087E4
:100370002046FFF7A7FF00BBFFF758FF2046FFF717
:10038000A1FFD8F81010064621F00401C8F810109B
:100390001CE04FF0FF3038606C6811E02046FFF73A
:1003A00057FF5046FFF78EFFD8F81010060021F0D7
:1003B0000201C8F8101001D03C6007E004F50064A9
:1003C000D5E9010100EBC120A042E7D8002189F85E
:1003D00018103046CAE700009000002000200240BC
:1003E0000348016941F0800101610020704700006D
:1003F000002002402DE9F05F07461C488846002493
:10040000017E15461E46012909D00121814601764B
:100410004CF2503A5046FFF755FF18B122E0022047
:10042000BDE8F09F012F02D0022F00D00427D34651
:10043000DFF83CA0220128463146FFF7C1FE81B219
:1004400008EB4400FFF716FF5846FFF73BFFDAF8CA
:10045000102022F00102CAF8102018B9641CE4B27E
:10046000BC42E7D3002289F81820D9E79000002089
:1004700000200240064900200A69120607D5054AF5
:100480004A60054A4A600969090600D5012070479B
:100490000020024023016745AB89EFCD2DE9F84FDD
:1004A000DFF864B100234FF0010C4FF0030A4FF066
:1004B0000F090BF1040EA0E00CFA03F6324072D0E3
:1004C0004C68022C01D0122C0ED1DC0800EB840801
:1004D000D8F820405D07EF0E09FA07F5AC430D6927
:1004E000BD402543C8F8205007685D0091F804809E
:1004F0000AFA05F408F00308A74308FA05F848EAE1
:100500000708C0F800804F68012F05D0022F03D0E4
:10051000112F01D0122F11D18768D1F80C80A74379
:1005200008FA05F848EA0708C0F808804768B743A2
:100530000E79C6F300169E403E434660C668A64349
:100540008C68AC403443C4604C68E40054D52F4CF4
:10055000A56945F00105A561A46923F0030504F030
:10056000010400942A4C2E19B4689D072F0F09FA34
:1005700007F5AC43B0F1904F04D0264DA84203D10B
:10058000012512E0002510E0234DA84201D10225EB
:100590000BE0224DA84201D1032506E0204DA842E0
:1005A00002D1042501E027E00525BD402543B560C3
:1005B000DBF800405D464E689443F60300D51443D3
:1005C0002C60DEF8004075464E689443B60300D5B3
:1005D00014432C600C4D08352C684E689443F60289
:1005E00000D514432C60084D0C352C684E6894439C
:1005F000B60200D514432C605B1C0A6832FA03F47F
:100600007FF45AAFBDE8F88F0004014000100240AB
:10061000000001400004004800080048000C0048A9
:100620000010004842694A40426170470AB1816146
:100630007047816270470000014880687047000081
:1006400020000020024881680278114481607047D0
:1006500020000020074810B5016841F0100101603A
:10066000032000F05FF8002000F006F800F024F806
:10067000002010BD0020024070B50D4D04464FF41F
:100680007A712878B1FBF0F00A490968B1FBF0F003
:1006900000F0F6FB48B9102C07D200222146501E6C
:1006A00000F020F800206C6070BD012070BD0000DB
:1006B000200000202C000020094808B5816941F085
:1006C00001018161816901F001010091C16941F07D
:1006D0008051C161C06900F08050009008BD0000E9
:1006E00000100240F0B40E4B1B680C46C3F302230B
:1006F000C3F10705042D00D90425191D072901D2CE
:10070000002300E0DB1E012606FA05F1491E214008
:1007100099409E40761E16403143F0BC00F024BC48
:100720000CED00E0064900F0070208684FF6FF03F1
:10073000184040EA0220034A104308607047000056
:100740000CED00E00000FA052DE9F0470F4605002A
:1007500069D04A4E306800F00700B84209D23068CC
:1007600020F0070038433060306800F00700B842DE
:1007700059D12878424C800705D56068A96820F0D7
:10078000F000084360602878C0073DD06968012008
:1007900001290DD0022923D05FF0020393FAA3F2BE
:1007A000B2FA82F242F02002520904D0226803E039
:1007B0004FF40033F2E7626A93FAA3F3B3FA83F3D8
:1007C00003F01F03984002422DD0606820F0030020
:1007D00008436060FFF730FF804641F288390CE043
:1007E0004FF00073DAE700BFFFF726FFA0EB080128
:1007F000494502D90320BDE8F0876068696800F0C8
:100800000C00B0EB810FEFD1306800F00700B84268
:100810000BD9306820F0070038433060306800F0B2
:100820000700B84201D00120E5E72878400705D548
:100830006068E96820F4E060084360602878000799
:1008400006D56068296920F4605040EAC100606004
:1008500000F01CF86168F02292FAA2F201F0F001B7
:10086000B2FA82F2D140074A515CC840064908609A
:100870000020FFF701FF0020BDE70000002002403C
:1008800000100240941100082C000020144B10B5F9
:100890005A68144802F00C0104291DD008291BD104
:1008A0004FF4701494FAA4F402F47011B4FA84F4BE
:1008B000E1400D4CDB6A615C0F2494FAA4F403F070
:1008C0000F03B4FA84F4E340074C1034D203E35C22
:1008D00003D5B0FBF3F0484310BD0448484310BDB6
:1008E0000010024000127A007411000800093D0057
:1008F0002DE9F84F040071D02078FB4DC0074FF070
:10090000010625D068687704C0F38100012807D06C
:100910006868C0F3810002281BD16868C00318D53D
:1009200097FAA7F0B0FA80F040F02000400901D01B
:10093000286800E0686A97FAA7F1B1FA81F101F03E
:100940001F0106FA01F1084265D060680028D2D084
:1009500061E06068B0F5803F0BD010B1B0F5A02F1A
:1009600017D0286820F480302860286820F4802080
:1009700002E0286840F480302860E86AA16820F02E
:100980000F000843E862606820B3FFF755FE804619
:100990000AE0286840F480202860EAE7FFF74CFE70
:1009A000A0EB0800642872D897FAA7F0B0FA80F09C
:1009B00040F02000400901D0286800E0686A97FAFA
:1009C000A7F1B1FA81F101F01F0106FA01F1084225
:1009D000E4D020E0FFF730FE804607E0C7E000BF2C
:1009E000FFF72AFEA0EB08006428DCD897FAA7F0EE
:1009F000B0FA80F040F02000400901D0286800E003
:100A0000686A97FAA7F1B1FA81F101F01F0106FABD
:100A100001F10842E4D12078DFF8D08280074FF05E
:100A2000000A4FF0020759D568684FF0F80B10F034
:100A30000C0F07D06868C0F3810002281BD16868DA
:100A4000C00318D497FAA7F0B0FA80F040F0200065
:100A5000400901D0286800E0686A97FAA7F1B1FA66
:100A600081F101F01F0106FA01F108422BD0206943
:100A700001287CD127E0206988B396FAA6F0B0FA65
:100A800080F048F82060FFF7D7FD814606E055E189
:100A9000FFF7D2FDA0EB0900022884D897FAA7F04F
:100AA000B0FA80F040F02000400901D0286800E052
:100AB000686A97FAA7F1B1FA81F101F01F0106FA0D
:100AC00001F10842E4D028689BFAABF26169B2FAFE
:100AD00082F220F0F80091400843286025E0FFE70B
:100AE00096FAA6F1B1FA81F148F821A0FFF7A4FD2A
:100AF000814605E0FFF7A0FDA0EB09000228CCD855
:100B000097FAA7F0B0FA80F040F02000400901D039
:100B1000286800E0686A97FAA7F1B1FA81F101F05C
:100B20001F0106FA01F10842E4D1207800076AD5D6
:100B3000A069A0B396FAA6F0B0FA80F008EB8000A6
:100B4000C0F88064FFF778FD814605E0FFF774FD8B
:100B5000A0EB09000228A0D897FAA7F0B0FA80F01D
:100B600040F06000B6EB501F02D128680CE077E13E
:100B700097FAA7F0B0FA80F040F06000B7EB501F92
:100B800001D1286A00E0686A97FAA7F1B1FA81F109
:100B900001F01F0106FA01F21042D7D033E0FFE75F
:100BA00096FAA6F0B0FA80F008EB8000C0F880A4B6
:100BB000FFF742FD814605E0FFF73EFDA0EB09008F
:100BC00002289CD897FAA7F0B0FA80F040F06000B5
:100BD000B6EB501F01D128680BE097FAA7F0B0FAE6
:100BE00080F040F06000B7EB501F01D1286A00E0B0
:100BF000686A97FAA7F1B1FA81F101F01F0106FACC
:100C000001F21042D8D12078400774D5E8694FF03E
:100C10000009C00009D4E86940F08050E861E86943
:100C20004FF0010900F08050009031480168C9057B
:100C300012D4016841F480710160FFF7FDFC834626
:100C400006E000BFFFF7F8FCA0EB0B00642875D8A6
:100C500027480068C005F5D5E06801280AD008B12A
:100C6000052811D0286A20F001002862286A20F0A7
:100C7000040002E0286A40F001002862E068C8B37E
:100C8000FFF7DAFC83460DE0286A40F00400286292
:100C9000F0E700BFFFF7D0FCA0EB0B0141F288307A
:100CA00081424BD897FAA7F0B0FA80F040F04000AC
:100CB000B6EB501F01D128680BE097FAA7F0B0FA05
:100CC00080F040F04000B7EB501F01D1286A00E0EF
:100CD000686A97FAA7F1B1FA81F101F01F0106FAEB
:100CE00001F21042D6D035E000100240000042422E
:100CF0000070004000E034E0FFF79EFC834607E010
:100D0000FFF79AFCA0EB0B0141F28830814215D825
:100D100097FAA7F0B0FA80F040F04000B6EB501F11
:100D200001D128680CE097FAA7F0B0FA80F040F003
:100D30004000B7EB501F02D1286A01E083E0686AE7
:100D400097FAA7F1B1FA81F101F01F0106FA01F259
:100D50001042D5D1B9F1000F03D0E86920F08050DE
:100D6000E861E06980B36968C1F38101022977D045
:100D70004FF080714F00022809D091FAA1F0B0FA2B
:100D800080F048F820A0FFF757FC04465EE050468C
:100D90008A4691FAA1F1B1FA81F1C14648F82100E1
:100DA000FFF74AFC804605E0FFF746FCA0EB080091
:100DB000022848D897FAA7F0B0FA80F040F0200057
:100DC000400902D0286801E056E0686A97FAA7F166
:100DD000B1FA81F101F01F0106FA01F10842E3D1F5
:100DE000D4E908100843696821F474110843686065
:100DF0009AFAAAF0B0FA80F049F82060FFF71CFCDC
:100E0000044604E0FFF718FC001B02281BD897FAE1
:100E1000A7F0B0FA80F040F02000400901D0286827
:100E200000E0686A97FAA7F1B1FA81F101F01F01B9
:100E300006FA01F10842E5D01EE000BFFFF7FCFB17
:100E4000001B022802D90320BDE8F88F97FAA7F00B
:100E5000B0FA80F040F02000400902D0286801E09C
:100E60000CE0686A97FAA7F1B1FA81F101F01F016D
:100E700006FA01F10842E1D10020E5E70120E3E7AD
:100E800010B5401EB0F1807F01D3012010BD4FF09E
:100E9000E02460610F21601700F066F80020A06177
:100EA00007202061002010BDFEE700002DE9F0437F
:100EB00087B014216846FFF79AF92748416941F441
:100EC00000214161416901F400210591416941F42A
:100ED00000314161416901F400310591416941F4FA
:100EE0008001416140691D4F00F480004FF470742F
:100EF0000590002221463846FFF798FB4FF4F8563C
:100F00004FF09048002231464046FFF78FFBDFF854
:100F10005090002240214846FFF788FB0125CDE98B
:100F2000004500240294694638460394FFF7B6FA58
:100F30000096CDE90154694640460394FFF7AEFAA6
:100F400040200090CDE90154694648460394FFF7DC
:100F5000A5FA07B0BDE8F083001002400008004881
:100F600000140048FEE770470907090E002806DA5A
:100F700000F00F0000F1E02080F8141D704700F130
:100F8000E02080F80014704770477047FFF75ABBA5
:100F900030B58FB028216846FFF729F914210AA837
:100FA000FFF725F9022401200490009410200590F9
:100FB00000254FF46010CDE9085007946846FFF70C
:100FC00097FC0AA90F2081E831006002CDE90D05E8
:100FD00002210AA8FFF7B8FB0FB030BD1448016822
:100FE00041F4700101601348016841F001010160A2
:100FF0004168114A114041600168104A1140016086
:10100000016821F480210160416821F4FE01416002
:10101000C16A21F00F01C162016B094A11400163ED
:10102000002181600249C0038039086070470000D8
:1010300088ED00E0001002400CC07FF8FFFFF6FED4
:10104000CCFC00FFFEE702E008C8121F08C1002A1E
:10105000FAD170477047002001E001C1121F002A39
:10106000FBD17047FFF7F6FAFFF792FFFFF71EFF7D
:10107000184E012240213046FFF7D8FA164C0025C1
:1010800080213046FFF7CEFA20693C28F8D24FF491
:101090007A70FFF73FF922691049521C0120226142
:1010A00000F01EF8012000F045F80068E0612069BA
:1010B0003C2803D16069401CC4E9045060693C28A5
:1010C000DED1A069401CA0610C2800D1A56165613A
:1010D000D6E700000008004800000020006000087B
:1010E000F8B5002514460F4606460095FFF7C2F9ED
:1010F0000E4A3046156000F01DF8506001209060E7
:1011000069460A48FFF718F930B9224600233946E4
:101110000220FFF76FF918B1FFF762F90020F8BD60
:10112000FFF75EF90248C460F8BD000030000020FF
:1011300000000020072806D2DFE800F005040608BA
:101140000A0C0E000548704705487047054870476F
:10115000054870470548704705487047006000081B
:10116000006800080070000800780008008000088F
:101170000088000802030405060708090A0B0C0D85
:101180000E0F10100102030405060708090A0B0CD4
:101190000D0E0F100000000000000000010203040B
:1011A00006070809C41100080000002030000000F4
:1011B00046100008F41100083000002080400000B4
:1011C00056100008000000000000000000000000B1
:1011D000000000000000000000000000000000000F
:1011E00000000000010000001000000000000000EE
:0411F00000127A006F
:040000050800018965
:00000001FF
