:020000040800F2
:10000000B80B0020290200086B2A0008812700088D
:10001000692A00085D05000813330008000000008D
:100020000000000000000000000000006F2A00082F
:10003000B5050008000000006D2A0008712A0008BC
:10004000430200084302000843020008430200087C
:10005000430200084302000843020008430200086C
:10006000430200084302000843020008610500083B
:1000700043020008430200086D050008430200081F
:10008000430200084302000843020008430200083C
:10009000430200084302000843020008430200082C
:1000A000430200084302000843020008430200081C
:1000B000430200084302000843020008430200080C
:1000C00043020008430200084302000843020008FC
:1000D00043020008430200084302000843020008EC
:1000E00043020008430200084302000843020008DC
:1000F00043020008430200084302000843020008CC
:1001000000000000000000000000000043020008A2
:1001100043020008430200084302000843020008AB
:10012000430200084302000843020008430200089B
:100130004302000843020008000000000000000025
:1001400043020008430200084302000800000000C8
:10015000000000000000000000000000000000009F
:1001600000000000000000004302000843020008F5
:100170004302000800000000000000000000000032
:10018000000000004302000800F002F800F03CF814
:100190000AA090E8000C82448344AAF10107DA45E2
:1001A00001D100F031F8AFF2090EBAE80F0013F0F8
:1001B000010F18BFFB1A43F0010318477C320000FF
:1001C0009C320000103A24BF78C878C1FAD8520790
:1001D00024BF30C830C144BF04680C6070470000C1
:1001E0000023002400250026103A28BF78C1FBD840
:1001F000520728BF30C148BF0B6070471FB503F0DE
:10020000F9F81FBD10B510BD00F001F91146FFF758
:10021000F5FF03F08FF800F01FF903B4FFF7F2FFCA
:1002200003BC00F027F9000009488047094800474F
:10023000FEE7FEE7FEE7FEE7FEE7FEE7FEE7FEE796
:10024000FEE7FEE704480549054A064B70470000F3
:10025000052B000889010008B8050020B80B002014
:10026000B8070020B807002053EA020C00F06980AC
:100270002DE9F04B4FF00006002B1FBFB3FA83F5BA
:1002800003FA05F424FA05F65E4012BF1643B2FAEB
:1002900082F502FA05F4C5F120051EBF22FA05FC1D
:1002A00044EA0C04203556EA044C4FEA144418BFC3
:1002B000641C4FF000084FF00009904271EB030CF2
:1002C00039D3002919BFB1FA81F701FA07F6B0FA5C
:1002D00080F700FA07F6C7F120071EBF20FA07FCD7
:1002E00046EA0C062037B6FBF4FCA7EB0507103FE7
:1002F00007F01F0BCBF120060CFA0BFB2CFA06F6CD
:1003000044BFB3460026202FA4BF5E464FF0000B2B
:100310005BEA060C08BF4FF0010B19EB0B09ABFBB6
:10032000027C48EB0608C01B06FB02CC0BFB03CC8F
:1003300071EB0C01C1E70B46024641464846BDE859
:10034000F08B13B54FF000004FF00001AFF30080C9
:10035000BDE81C40704710B5203AC0F00B80B1E8F2
:100360001850203AA0E81850B1E81850A0E81850EA
:10037000BFF4F5AF5FEA027C24BFB1E81850A0E8F3
:10038000185044BF18C918C0BDE810405FEA827C0D
:1003900024BF51F8043B40F8043B08BF7047D20724
:1003A00028BF31F8023B48BF11F8012B28BF20F8C5
:1003B000023B48BF00F8012B70474FF0000200B528
:1003C000134694469646203922BFA0E80C50A0E878
:1003D0000C50B1F12001BFF4F7AF090728BFA0E826
:1003E0000C5048BF0CC05DF804EB890028BF40F8F2
:1003F000042B08BF704748BF20F8022B11F0804F34
:1004000018BF00F8012B704770477047704775465A
:1004100000F02CF8AE4605006946534620F0070070
:10042000854618B020B5FFF70DFFBDE820404FF01E
:1004300000064FF000074FF000084FF0000B21F0CE
:100440000701AC46ACE8C009ACE8C009ACE8C0099B
:10045000ACE8C0098D46704710B50446AFF3008084
:100460002046BDE81040FFF7D8BE000000487047A6
:100470005405002001491820ABBEFEE7260002000B
:100480007047000070B504460068816801F0030100
:1004900001292AD10168C90727D0816801F00D011F
:1004A000012914D1816841F0020181602168032093
:1004B000086000F0FDFE054613E000BF00F0F8FE06
:1004C000401B02280DD920688068C00709D0206C25
:1004D00040F010002064606C40F001006064012076
:1004E00070BD20688068C007E8D1002070BD0000A2
:1004F00070B504460068816801F00301012902D14A
:100500000168C90725D18168134A114212D1816857
:1005100041F00101816000F0CBFE054614E000BF10
:1005200000F0C6FE401B02280ED920680068C043B8
:10053000C00709D0206C40F010002064606C40F0CF
:1005400001006064012070BD20680068C043C007DE
:10055000E6D1002070BD00003F000080FEE70000F3
:10056000014800F029BD0000CC040020014800F043
:1005700023BD0000100500200B4B01681422994296
:1005800007D20A4B1944B1FBF2F189000164084912
:1005900008E0054B5B421944B1FBF2F189000164AC
:1005A00001490839C163704708040240F8FFFDBFE4
:1005B00000000240704772B6FEE70000F0B500236D
:1005C00002684FF0A04C3E4C94B01F46624501D1EA
:1005D00000940DE0A24202D1CDF800C008E0394DF0
:1005E000394EAA4201D1009602E0B24214D10095E0
:1005F00090F83C50012D12D0012580F83C509568B0
:100600006D0753D4009DAD686D074FD4624501D08E
:10061000A24206D12D4A05E0012014B0F0BD02200F
:10062000FBE72B4A0D6840F61F7425B3956890F8D8
:10063000306025F4604545EA46354E68354395609F
:100640000568AE6806F00306012E02D12D68ED079D
:1006500031D1009DAD6805F00305012D03D1009D4A
:100660002D68ED0727D10D6889680D439168A14376
:100670000D4395601FE0916821F46041916001682D
:100680008D6805F00305012D02D10968C90712D153
:100690000099896801F00301012903D100990968D3
:1006A000C90708D19168A143916004E0016C41F051
:1006B00020010164012380F83C701846ADE700007A
:1006C00000010050000400500005005000030050DD
:1006D00000070050F0B594B00024009490F83C203E
:1006E0002546012A19D0012780F83C7003689A68D2
:1006F00052077CD44A681F26052A11D2D3F830C08D
:1007000002EB4202520096402CEA060C0E6896401C
:100710004CEA060CC3F830C035E0022014B0F0BD3E
:100720000A2A0FD2D3F834C0521F02EB4202520001
:1007300096402CEA060C0E6896404CEA060CC3F86C
:1007400034C020E00F2A0FD2D3F838C00A3A02EBA7
:100750004202520096402CEA060C0E6896404CEA83
:10076000060CC3F838C00EE0D3F83CC00F3A02EBD9
:100770004202520096402CEA060C0E6896404CEA63
:10078000060CC3F83CC00268936813F00C0F4FF0DE
:10079000070374D1D1F800E0BEF10A0F10D39669B7
:1007A000AEF10A0E0EEB4E0C03FA0CFE26EA0E0614
:1007B000D1F808E00EFA0CFE46EA0E0696610FE04C
:1007C000D2F814C00EEB4E0603FA06FE2CEA0E0C0D
:1007D000D1F808E00EFA06FE4CEA0E0CC2F814C07E
:1007E00002684E69D2F80CC0CCF3C10C00E0FDE009
:1007F0004FEA4C0C06FA0CF6D1F810E0DFF848C2CC
:10080000BEF1010F42D0BEF1020F4DD0BEF1030F79
:1008100058D0BEF1040F63D0166E91F800C006F0F8
:10082000F846B6EB8C6F03D1166E26F000461666BE
:100830000268566E91F800C006F0F846B6EB8C6F71
:1008400003D1566E26F0004656660268966E91F801
:1008500000C006F0F846B6EB8C6F03D1966E26F01A
:10086000004696660268D66E91F800C006F0F8461B
:10087000B6EB8C6F03D1D66E26F00046D6660268C2
:10088000966806F00306012E3AD136E0D2F860E011
:100890000EEA0C0E91F800C046EA8C664EEA060E8F
:1008A0004EF000461666EAE7D2F864E00EEA0C0E57
:1008B00091F800C046EA8C664EEA060E4EF00046FD
:1008C0005666DCE7D2F868E00EEA0C0E91F800C03C
:1008D00046EA8C664EEA060E4EF000469666CEE775
:1008E000D2F86CE00EEA0C0E91F800C046EA8C6675
:1008F0004EEA060E4EF00046C0E71668F6077AD1BB
:10090000CE68012E06D052F8B03F0E78B740BB43F8
:10091000136021E052F8B06F91F800C007FA0CF7AD
:100920003E4316600A680A2A0BD30668B769093A7B
:1009300002EB420293409F438B6893401F43B76191
:100940000AE007687E69521C02EB420293409E4314
:100950008B6893401E437E6103684FF0A0473B4E77
:10096000BB4201D0B34201D1394A00E0394A09689B
:10097000102904D0112907D012290AD03BE0D2F85F
:1009800008C04FEA0C2C08E0D2F808C04FEACC1C93
:1009900003E0D2F808C04FEA4C2CBCF1000F2ADB70
:1009A000BB420DD0B34201D100970CE02A4EDFF8D4
:1009B000ACC0B34202D1CDF800C004E0634501D120
:1009C000009600E000959E6806F00306012E02D115
:1009D0001E68F6070AD1009E8EB1B66806F00306BF
:1009E000012E0CD1009E3668F60708D0016C41F04C
:1009F00020010164012480F83C5020468EE6102935
:100A000008D011291AD01229F5D1916841F480013A
:100A10009160F0E7BB42EED1916841F40001916032
:100A20000F49104A0968B1FBF2F101EB810149005D
:100A300000E0491E00910029FBD1DCE7BB42DAD17E
:100A4000916841F08071E3E700F0FF8300010050FE
:100A50000003005000070050000400500005005043
:100A60000C00002040420F000068006C704700003E
:100A7000F0B54FF0000695B00400374635460096B5
:100A800005D0206CC00648D4206C18B133E001209A
:100A900015B0F0BD6564E564A56484F83C5020465B
:100AA00000F00CF920688068C00024D42046FFF7CD
:100AB000E9FC0646206CC0061DD4E6B9206C20F483
:100AC000885040F0020020642068816821F0405185
:100AD00081602068816841F0805181606E486F4973
:100AE0000068B0FBF1F000EB8000400000E0401E29
:100AF00000900028FBD120688168C90002D5806879
:100B000080000AD5206C20F0020040F01000206424
:100B1000606C40F0010060640126206CC00676D451
:100B2000002E74D120688168490770D4216C21F4AB
:100B3000807141F0020121644FF0A04E584B704586
:100B400001D0984201D1574A00E0574ADFF85CC112
:100B50005749704501D100930EE0984202D1CDF87B
:100B600000E009E0884202D1CDF800C004E0604511
:100B700001D1009100E00095836803F00303012B8D
:100B800002D10068C00710D1009840B1806800F021
:100B90000300012803D100980068C00705D19068C0
:100BA000636820F4403018439060D4E90220104379
:100BB000626B012A02D04FF4805300E00023627E72
:100BC00043EA4233184394F820303843012B0AD1CA
:100BD000F2B1226C22F0020242F020022264626C26
:100BE00042F001026264A26A012A21D023688B428A
:100BF00001D0634518D14FF430774FF4E071BA4219
:100C000013D04FF480739A420AD139460DE039E08F
:100C1000A28C284B03EB4242024342F48030E2E7CD
:100C20008A4201D1194600E011460143E06A0843B7
:100C300021688A6812F00C0F0BD1CA6844F20203D3
:100C40009A43CA60217E94F83020890341EA420128
:100C500008432268D168184B19400143D1602069CC
:100C600001282068016B21F00F0102D1E269521EB8
:100C7000114301636564206C20F0020040F0010024
:100C8000206406E0206C20F0020040F01000206498
:100C900001263046FCE600000C00002040420F0018
:100CA00000010050000300500007005000050050F4
:100CB000000400500000FEFF07C0F0FF70B586B0D2
:100CC000054614216846FFF778FB2868B0F1A04F6D
:100CD00031D11A49486940F080504861486900F0B4
:100CE00080500590486940F400304861486900260A
:100CF00000F400300590022000900320CDE90106A9
:100D000069464FF0904000F0E5F90E4C0C48C4E9FC
:100D100000068020C4E902608000206180006061DC
:100D20002020C4E90606204600F09AF908B1FFF732
:100D300042FCAC63656206B070BD0000001002406A
:100D400008000240CC0400202DE9F0470E4604467E
:100D50004169414A00684FF000084FF0A04308295C
:100D600005D0984201D0904203D13C4902E00825C9
:100D700014E03B498D68ED060CD0896801F44041D0
:100D800059B1206C40F02000206484F83C800120A0
:100D9000BDE8F087C168C907F2E70C25984201D089
:100DA000904202D1D3F8081302E02D4908310968B6
:100DB00011F01F0F04D0984202D02A49884201D175
:100DC000C76803E0904200D11946CF6800F070FA7E
:100DD000814614E0701C12D02EB100F069FAA0EB2D
:100DE0000900B0420BD920680068284207D1206C66
:100DF00040F00400206484F83C800320C8E72068A9
:100E000000682842E6D0206C40F40070206420681E
:100E1000C16811F4406F1AD1B90418D401680907E8
:100E200015D581684907216C0AD421F480712164A9
:100E3000216CC9040BD4216C41F00101216406E04E
:100E400041F020012164616C41F001016164790489
:100E500000D4056000209BE7000100500003005013
:100E600000070050000400502DE9F04104460068DE
:100E70008068400770D494F83C0001280CD0012011
:100E800084F83C002046FFF733FB03004FF00006D8
:100E900005D084F83C6086E00220BDE8F081206C3B
:100EA00040F60161884340F48070206420684FF070
:100EB000A0413E4A3E4D884201D0904202D1D1F835
:100EC000087300E02F6817F01F0F3A4F03D08842D5
:100ED00001D0B8420BD1D4F840C02CF4801CC4F827
:100EE00040C0D0F80CC05FEA8C1C14D41BE0D4F8CE
:100EF00040C04CF4801CC4F840C0904202D1D1F8EC
:100F00000CC005E0DFF8ACC00CF10C0CDCF800C044
:100F10001CF0007F07D0D4F840C02CF4005C4CF4E7
:100F2000805CC4F840C0D4F840C05FEACC4C06D521
:100F3000D4F844C02CF0060CC4F844C000E0666449
:100F400084F83C601C2606602068884201D09042EC
:100F500003D1D1F8084301E024E02C6814F01F0FFE
:100F60001BD0884201D0904202D1D1F8084300E062
:100F70002C6804F01F04052C0FD0884201D0904249
:100F800002D1D1F8082300E02A6802F01F02092AE2
:100F900003D0884201D0B84205D1816841F00401F4
:100FA000816000E00223184677E70000000100504E
:100FB0000807005000040050F0B4C16B0D680168D0
:100FC0000C68066C042202FA06F32B420FD063076A
:100FD0000DD50B689B0603D40B6823F004030B604C
:100FE00090F840108A40C16B4A60C16A1BE002233E
:100FF00003FA06F72F424FF0000C4FF0010216D013
:10100000A70714D50C68A40605D40C6824F00A04BC
:101010000C6080F8212090F840108B40C16B4B6031
:1010200080F820C0816A002918D0F0BC0847082346
:10103000B3402B4212D0230710D50B6823F00E03C8
:101040000B6090F84010C36B02FA01F159608263A3
:1010500080F8212080F820C0016BE4E7F0BC7047E5
:1010600070B5040021D0022084F8210022681168A4
:1010700043F6F0708143D4E901031843D4E9033502
:101080002B43184363691843A3691843E369184362
:10109000084310602046FFF76FFA0020A06301218B
:1010A00084F8211084F8200070BD012070BD00007C
:1010B00070B5044600F0FCF80546601C02D00448F8
:1010C0000078044400F0F4F8401BA042FAD370BD4D
:1010D000000000202DE9F04FDFF8AC91002309F16A
:1010E000040A03250AF1040B85B04FF0010C0F2709
:1010F0000BF1040EBFE000BF0CFA03F6324075D0CE
:101100000C7904F00304012C01D0022C1BD184685B
:1011100000945C0005FA04F80494009C24EA080496
:101120000094D1F80C80049C08FA04F8009C48EA6A
:101130000408C0F808804468B4430E79C6F300166A
:101140009E40264346600C79E443A4070AD0C46855
:101150004FEA430805FA08F6B4438E6806FA08F623
:101160002643C6600C7904F00304022C10D1DC087D
:1011700000EB84040294246A5E074FEAD66807FAFB
:1011800008F6B4430E6906FA08F62643029C266266
:1011900004684FEA430805FA08F6B4430E7906F0EE
:1011A000030606FA08F6264306604C6814F4403F2E
:1011B00060D0364CA66946F00106A661A46923F00A
:1011C000030604F001040094314C34440294A468F2
:1011D0009E074FEA167807FA08F6B443B0F1904F2D
:1011E00005D02C4EB04204D1012612E042E0002688
:1011F0000FE0294EB04201D102260AE0274EB0424C
:1012000001D1032605E0264EB04201D1042600E0BC
:10121000052606FA08F62643029CA660D9F8006067
:101220004C46D1F8048096435FEAC83800D516438F
:101230002660DAF800405646D1F8048094435FEA0D
:10124000883800D514433460DBF800405E46D1F89E
:10125000048094435FEAC82800D514433460DEF864
:1012600000407646D1F8048094435FEA882800D590
:10127000144334605B1C0A6832FA03F47FF43CAF19
:1012800005B0BDE8F08F00000004014000100240EE
:10129000000001400004004800080048000C00481D
:1012A000001000480AB181617047816270470000F8
:1012B00001488068704700000000002090F841203D
:1012C000202A24D190F84020012A20D0012280F841
:1012D0004020242280F841200268136823F0010393
:1012E00013600268136823F4805313600268136864
:1012F0000B43136001680A6842F001020A60202172
:1013000080F84110002180F8401008467047022004
:10131000704790F84120202A22D190F84020012ADD
:101320001ED0012280F84020242280F8412002684B
:10133000136823F0010313600268136823F47063D9
:1013400043EA0121116001680A6842F001020A6063
:10135000202180F84110002180F840100846704795
:101360000220704770B5040004D094F841000025B5
:1013700010B106E0012070BD84F84050204600F016
:101380004DF8242084F841002068016821F0010113
:1013900001606068216820F07060086120688168E1
:1013A00021F400418160E0680128A06807D040F482
:1013B000044021688860E068022803D006E040F419
:1013C0000040F6E721684FF40060486020684168FB
:1013D000114A114341602068C16821F40041C16095
:1013E000D4E904010843A16940EA01202168C860EA
:1013F000D4E907010843216808602068016841F0CA
:10140000010101606564202084F84100256384F8AF
:101410004250002070BD00000080000210B586B070
:10142000044614216846FEF7C8FF12492068884226
:101430001ED1114C606940F480206061606969468A
:1014400000F480200590C02000901220019001201F
:10145000029003200390042004900848FFF73AFE0E
:10146000E06940F40010E061E06900F400100590CC
:1014700006B010BD005400400010024000040048B7
:1014800002488168027811448160704700000020A2
:10149000074810B5016841F010010160032000F019
:1014A0006FF8002000F006F800F024F8002010BDCE
:1014B0000020024070B50D4D04464FF47A71287833
:1014C000B1FBF0F00A490968B1FBF0F000F092FEC0
:1014D00048B9102C07D200222146501E00F030F8E7
:1014E00000206C6070BD012070BD00000000002075
:1014F0000C0000200A4882B0816941F0010181613D
:10150000816901F001010091C16941F08051C1611F
:10151000C06900F080500090072002B000F030B8A1
:1015200000100240002809DB00F01F020121914059
:101530004009800000F1E020C0F800117047000071
:10154000F0B40E4B1B680C46C3F30223C3F107052E
:10155000042D00D90425191D072901D2002300E01C
:10156000DB1E012606FA05F1491E214099409E40E6
:10157000761E16403143F0BC01F0CCBE0CED00E00D
:10158000064900F0070208684FF6FF03184040EADA
:101590000220034A10430860704700000CED00E091
:1015A0000000FA0570B586B0040004D094F8A902D2
:1015B000002518B107E0012006B070BD84F8A852DC
:1015C000204600F043F8032084F8A902206801F0C7
:1015D00099FE002001260EE000EB800104EBC10122
:1015E00081F8296001F8280FC881CD700D614D6127
:1015F000401CC0B28D6161688142EDD8002011E0CD
:1016000000EB800104EBC10181F8695181F86801A8
:1016100081F86B51C1F87851C1F87C51401CC0B2BF
:10162000C1F8805161688142EAD8142204F11001A6
:101630006846FEF790FE94E80F0001F05AFE84F829
:10164000245084F8A9620020B6E7000010B586B0E7
:10165000044614216846FEF7B0FE1349206888420C
:1016600020D1124C606940F40030606160696946C5
:1016700000F4003005904FF4C0500090022001901B
:1016800000200290032003900E2004904FF0904021
:10169000FFF720FDE06940F40000E061E06900F43C
:1016A0000000059006B010BD005C00400010024034
:1016B0002DE9F84F044600680026804DC0036ED522
:1016C000E869C00008D4E86940F08050E861E86942
:1016D000012600F08050009079480168C90512D4B5
:1016E0000168804641F480710160FFF7E1FD074623
:1016F00005E000BFFFF7DCFDC01B642835D8D8F833
:101700000000C005F6D5286A10F4407053D0A188B7
:1017100001F4407181424ED0286A4FF4803191FA31
:10172000A1F2B2FA82F29700664A4FF0010817441C
:1017300020F44070C7F8008491FAA1F1B1FA81F168
:1017400002EB81010023C1F800342862C00732D0C7
:10175000FFF7AEFD074641F2883A4FF0020907E075
:10176000FFF7A6FDC11B514502D90320BDE8F88F44
:1017700099FAA9F0B0FA80F040F040024946B8EB7F
:10178000521F01D12A680CE091FAA1F2B2FA82F25A
:1017900042F04002B1EB521F02D12A6A01E015E08B
:1017A0006A6A99FAA9F1B1FA81F101F01F0108FA08
:1017B00001F00242D4D0286A616820F440700843E6
:1017C00028621EB1E86920F08050E8612078C007E7
:1017D00005D0286BA16820F0030008432863207817
:1017E000800705D5286BE16820F440300843286362
:1017F0002078400705D5286B216920F44020084354
:1018000028632078800605D5286BE16920F0100058
:10181000084328632068800305D56868A16B20F41D
:101820008000084368602078400605D5286B216A4F
:1018300020F02000084328632078000705D5286B96
:10184000616920F44010084328632078C00605D55C
:10185000286BA16920F44000084328632088800594
:1018600005D56868E16A20F40000084368602078C4
:10187000000605D5E86A616A20F4F8700843E8625A
:101880002088C00505D5E86AA16A20F4785008438D
:10189000E8622088C00405D5286B216B20F4807095
:1018A000084328632088800405D5286B616B20F4E9
:1018B000007008432863002058E700000010024031
:1018C00000700040000042422DE9F0470F4605003D
:1018D00069D04A4E306800F00700B84209D230683B
:1018E00020F0070038433060306800F00700B8424D
:1018F00059D12878424C800705D56068A96820F046
:10190000F000084360602878C0073DD06968012076
:1019100001290DD0022923D05FF0020393FAA3F22C
:10192000B2FA82F242F02002520904D0226803E0A7
:101930004FF40033F2E7626A93FAA3F3B3FA83F346
:1019400003F01F03984002422DD0606820F003008E
:1019500008436060FFF7ACFC804641F288390CE038
:101960004FF00073DAE700BFFFF7A2FCA0EB08011D
:10197000494502D90320BDE8F0876068696800F036
:101980000C00B0EB810FEFD1306800F00700B842D7
:101990000BD9306820F0070038433060306800F021
:1019A0000700B84201D00120E5E72878400705D5B7
:1019B0006068E96820F4E060084360602878000708
:1019C00006D56068296920F4605040EAC100606073
:1019D00000F04EF86168F02292FAA2F201F0F001F4
:1019E000B2FA82F2D140074A515CC8400649086009
:1019F00006480068FFF75EFD0020BCE700200240BB
:101A0000001002401E3400080C00002004000020DA
:101A100008480949006849684FF4E06292FAA2F266
:101A200001F4E061B2FA82F2D140044A515CC8404C
:101A3000704700000C000020001002402E34000807
:101A400008480949006849684FF4605292FAA2F2C6
:101A500001F46051B2FA82F2D140044A515CC840AC
:101A6000704700000C000020001002402E340008D7
:101A7000164A10B55168164801F00C03042B20D00B
:101A8000082B1ED14FF4701494FAA4F401F47013CF
:101A9000B4FA84F4E3400F4CD26AE45C0F2393FA67
:101AA000A3F302F00F02B3FA83F3DA40094B1033C9
:101AB000C9039A5C06D500231946FEF7D5FBA0FBA7
:101AC000040110BD0448A4FB000110BD0010024039
:101AD00000127A00FE33000800093D002DE9F84F9E
:101AE000050071D02878FC4EC0074FF0010425D0C6
:101AF00070686704C0F38100012807D07068C0F3E4
:101B0000810002281BD17068C00318D597FAA7F08E
:101B1000B0FA80F040F02000400901D0306800E0C9
:101B2000706A97FAA7F1B1FA81F101F01F0104FA86
:101B300001F1084265D068680028D2D061E0686889
:101B4000B0F5803F0BD010B1B0F5A02F17D03068A2
:101B500020F480303060306820F4802002E030686B
:101B600040F480303060F06AA96820F00F0008432C
:101B7000F062686820B3FFF79BFB80460AE030689C
:101B800040F480203060EAE7FFF792FBA0EB08000A
:101B9000642871D897FAA7F0B0FA80F040F02000DE
:101BA000400901D0306800E0706A97FAA7F1B1FAF5
:101BB00081F101F01F0104FA01F10842E4D020E0B4
:101BC000FFF776FB804607E0C2E000BFFFF770FB3F
:101BD000A0EB08006428DCD897FAA7F0B0FA80F0F0
:101BE00040F02000400901D0306800E0706A97FAA8
:101BF000A7F1B1FA81F101F01F0104FA01F10842E5
:101C0000E4D12878DFF8D48280074FF0000A4FF043
:101C1000020730D570684FF0F80B10F00C0F07D0AA
:101C20007068C0F38100022827D17068C00324D4F3
:101C300097FAA7F0B0FA80F040F02000400901D0F8
:101C4000306800E0706A97FAA7F1B1FA81F101F00B
:101C50001F0104FA01F1084202D02869012877D156
:101C600030689BFAABF220F0F8016869B2FA82F2B0
:101C70009040014331605AE064E1286988B394FAE6
:101C8000A4F0B0FA80F048F82040FFF711FB81463D
:101C900006E000BFFFF70CFBA0EB090002289AD872
:101CA00097FAA7F0B0FA80F040F02000400901D088
:101CB000306800E0706A97FAA7F1B1FA81F101F09B
:101CC0001F0104FA01F10842E4D030689BFAABF23C
:101CD0006969B2FA82F220F0F8009140084330605E
:101CE00025E0FFE794FAA4F0B0FA80F048F820A0CD
:101CF000FFF7DEFA814605E0FFF7DAFAA0EB09000C
:101D00000228CCD897FAA7F0B0FA80F040F0200073
:101D1000400901D0306800E0706A97FAA7F1B1FA83
:101D200081F101F01F0104FA01F10842E4D12878A1
:101D300000076CD5A869A8B394FAA4F0B0FA80F0B3
:101D400008EB8000C0F88044FFF7B2FA814607E054
:101D5000A4E100BFFFF7ACFAA0EB090002289ED86F
:101D600097FAA7F0B0FA80F040F06000B4EB501F93
:101D700001D130680BE097FAA7F0B0FA80F040F09C
:101D80006000B7EB501F01D1306A00E0706A97FA2B
:101D9000A7F1B1FA81F101F01F0104FA01F210423A
:101DA000D8D034E0FFE794FAA4F1B1FA81F108EB5E
:101DB0008101C1F880A4FFF77BFA814606E000BFED
:101DC000FFF776FAA0EB090002289AD897FAA7F055
:101DD000B0FA80F040F06000B4EB501F01D13068E1
:101DE0000BE097FAA7F0B0FA80F040F06000B7EB94
:101DF000501F01D1306A00E0706A97FAA7F1B1FA7A
:101E000081F101F01F0104FA01F21042D8D12878C3
:101E1000400768D5F0694FF00009C00009D4F069A7
:101E200040F08050F061F0694FF0010900F08050FF
:101E300000902B480168C90512D4016841F48071F3
:101E40000160FFF735FA834606E000BFFFF730FA7E
:101E5000A0EB0B00642875D821480068C005F5D5B3
:101E6000E86801280AD008B1052811D0306A20F0AE
:101E700001003062306A20F0040002E0306A40F075
:101E800001003062E86868B3FFF712FA83460DE09C
:101E9000306A40F004003062F0E700BFFFF708FA54
:101EA000A0EB0B0141F2883081424BD897FAA7F0A2
:101EB000B0FA80F040F04000B4EB501F01D1306820
:101EC00013E097FAA7F0B0FA80F040F04000B7EBCB
:101ED000501F09D1306A08E0001002400000424261
:101EE000007000400CE040E0706A97FAA7F1B1FA88
:101EF00081F101F01F0104FA01F21042CED02DE071
:101F0000FFF7D6F9834607E0FFF7D2F9A0EB0B0104
:101F100041F28830814215D897FAA7F0B0FA80F0E4
:101F200040F04000B4EB501F01D130680CE097FA4C
:101F3000A7F0B0FA80F040F04000B7EB501F02D19C
:101F4000306A01E083E0706A97FAA7F1B1FA81F193
:101F500001F01F0104FA01F21042D5D1B9F1000FCE
:101F600003D0F06920F08050F061E86980B37168B7
:101F7000C1F38101022977D04FF080714F00022810
:101F8000504609D091FAA1F1B1FA81F148F8210047
:101F9000FFF78EF905465DE0894691FAA1F1B1FAA5
:101FA00081F1C24648F82100FFF782F9804605E03A
:101FB000FFF77EF9A0EB0800022848D897FAA7F0AF
:101FC000B0FA80F040F02000400902D0306801E013
:101FD00066E0706A97FAA7F1B1FA81F101F01F018A
:101FE00004FA01F10842E3D1D5E908100843716809
:101FF00021F474110843706099FAA9F0B0FA80F0E6
:102000004AF82040FFF754F9054604E0FFF750F97D
:10201000401B02281BD897FAA7F0B0FA80F040F0D6
:102020002000400901D0306800E0706A97FAA7F1FB
:10203000B1FA81F101F01F0104FA01F10842E5D083
:102040002EE000BFFFF734F9401B022802D903201D
:10205000BDE8F88F97FAA7F0B0FA80F040F02000C2
:10206000400902D0306801E00BE0706A97FAA7F1EE
:10207000B1FA81F101F01F0104FA01F10842E1D146
:102080000EE00128E4D070682A6A00F480319142A1
:1020900004D1696A00F47010884201D00120D7E7AA
:1020A0000020D5E770B5040009D0606A002540B172
:1020B00025616561A56294F85D0040B10CE00120E6
:1020C00070BD6068B0F5827FF4D0E561F2E784F816
:1020D0005C50204600F05CF8022084F85D00206827
:1020E000016821F040010160E1684FF4E062914233
:1020F00001D9002001E04FF48050B1F5706F02D09B
:10210000914200D0A562A188228901F4827102F473
:1021100004421143227C02F002021143227D02F0AC
:1021200001021143228B02F400721143227F02F05C
:102130003802114394F8202002F080021143228DCE
:1021400002F40052114322681160A169042202EADC
:10215000114194F8242000F4805002F01002114341
:1021600094F8342002F008021143A28902F470624C
:1021700011430143206841602068C16921F4006176
:10218000C1612566012084F85D00002070BD00005B
:1021900010B586B0044614216846FEF70EF91349BF
:1021A000206888421FD11248816941F480518161C1
:1021B000816901F480510591416941F40031416127
:1021C0004069694600F400300590E020009002204C
:1021D00001900020029003200390052004904FF00E
:1021E0009040FEF777FF06B010BD000000300140C0
:1021F0000010024010B5401EB0F1807F01D30120D5
:1022000010BD4FF0E02460610F21601701F082F8EB
:102210000020A06107202061002010BD30B590F89B
:102220003C20012A3AD0012280F83C20CA688B6801
:1022300022F440721A434B6822F480621A430B68FE
:1022400022F400621A430B6922F480521A434B694C
:1022500022F400521A438B6A22F480421A430B8BF9
:1022600022F4702242EA03420D4D03680024AB427F
:1022700002D00C4DAB420CD18D8C22F4700242EA9C
:102280000552CD6922F080722A43096A22F0007259
:102290000A435A6480F83C40002030BD022030BD23
:1022A000002C014000340140F0B590F83C20012A98
:1022B00036D0012480F83C40022280F83D2002689C
:1022C00053689568174E184FB24201D0BA4204D1F4
:1022D00023F4700C4B6843EA0C0323F0700C0B687A
:1022E00043EA0C0353600268B2420DD0B2F1804F52
:1022F0000AD00E4B9A4207D00D4B9A4204D0BA42F4
:1023000002D00C4B9A4204D1896825F0800319430E
:10231000916080F83D40002180F83C100846F0BDF7
:102320000220F0BD002C01400034014000040040B8
:10233000000800400040014010B5040003D094F8AC
:102340003D0010B107E0012010BD002084F83C00E2
:10235000204600F023F8022084F83D00211D20686B
:1023600000F0D8FB012084F8480084F83E0084F88F
:102370003F0084F8400084F8410084F8420084F86B
:10238000430084F8440084F8450084F8460084F84B
:10239000470084F83D00002010BD000008B500682B
:1023A0000649884208D10648816941F4006181618B
:1023B000806900F40060009008BD0000002C01401E
:1023C0000010024070B5044690F83C00002501283A
:1023D00017D0012684F83C60022084F83D00226872
:1023E00090682F4B184020F47F4090600868502878
:1023F00038D00DDC20284FD005DC90B3102811D147
:102400004AE0022070BD302846D040280AD13BE087
:1024100060282FD070280DD0B0F5805F03D0B0F5C4
:10242000005F12D0012584F83D60002084F83C0054
:10243000284670BDCB68D1E90121206800F0C2FBBD
:102440002068816841F0770109E0CB68D1E901217A
:10245000206800F0B7FB2068816841F4804181600A
:10246000E1E719E0CA684968206800F045FD50219D
:10247000206806E0CA684968206800F04EFD6021C7
:10248000206800F0A9FBCEE7CA684968206800F020
:1024900033FD40212068F4E7226801461046F0E74A
:1024A00088FFFEFF10B586B0044614216846FDF78C
:1024B00084FF0F492068884217D10E48416941F4D2
:1024C000003141614069694600F4003005904FF4E5
:1024D000807000900220019000200290039006205E
:1024E00004904FF09040FEF7F5FD06B010BD0000DF
:1024F000002C01400010024070B5044690F83C00EA
:1025000000260D4601280BD0012084F83C000C2A3F
:102510004AD007DC82B1042A20D0082A06D131E053
:10252000022070BD102A53D0142A63D00126002047
:1025300084F83C00304670BD206800F055FB2068F0
:10254000816941F0080181612068816921F00401FD
:102550008161206881692A69114311E0206800F0D7
:1025600091FB2068816941F4006181612068816983
:1025700021F480618161206881692A6941EA022130
:102580008161D4E7206800F0C5FB2068C16941F093
:102590000801C1612068C16921F00401C16120689E
:1025A000C1692A69114311E0206800F0FBFB206833
:1025B000C16941F40061C1612068C16921F4806191
:1025C000C1612068C1692A6941EA0221C161AEE79F
:1025D000206800F021FC2068416D41F00801416550
:1025E0002068416D21F0040141652068416D2A6930
:1025F000114311E0206800F047FC2068416D41F470
:10260000006141652068416D21F480614165206869
:10261000416D2A6941EA0221416588E710B504004D
:1026200003D094F83D0010B107E0012010BD002058
:1026300084F83C00204600F022F8022084F83D0097
:10264000211D206800F066FA012084F8480084F813
:102650003E0084F83F0084F8400084F8410084F88C
:10266000420084F8430084F8440084F8450084F86C
:10267000460084F8470084F83D00002010BD7047F4
:1026800010B5040002D0A06F10B107E0012010BD0A
:10269000002084F87400204600F026F82420A0676B
:1026A0002068016821F001010160204600F0DAFC99
:1026B0000128ECD0606A10B1204600F040FC206890
:1026C000416821F4904141602068816821F02A012D
:1026D00081602068016841F0010101602046BDE889
:1026E000104000F090BC000070B586B00546142183
:1026F0006846FDF762FE1D492868884234D11C49AE
:10270000886940F480408861886900F480400590C1
:10271000486940F4002048614869002600F4002020
:102720000590302000900220CDE90106032003909F
:102730000720049069460F48FEF7CCFC0F4C0E486A
:1027400020601020C4E901068020E0608000206144
:102750008000C4E905062046E661FEF781FC08B169
:10276000FDF729FFEC66656206B070BD00380140D8
:1027700000100240000800484400024010050020FC
:10278000FEE7000030B589B00024069407941821B4
:1027900068460894FDF711FE19484FF0A041012545
:1027A000C0E9001484600461457680F82040C0E9E7
:1027B0000A54C561C46080F8304004214161047648
:1027C0004463FEF755F908B172B6FEE706A90C4856
:1027D0000694FDF7F3FE08B172B6FEE70220009002
:1027E0000394CDE901540494694605480594FDF726
:1027F00071FF002801D072B6FEE709B030BD0000BD
:102800001000002070B586B014216846FDF7D5FD94
:102810002748416941F400114161416901F4001107
:102820000591416941F400214161416901F40021B0
:102830000591416941F480014161416901F48001E0
:102840000591416941F400314161416901F4003170
:102850000591416941F4802141614069154E00F4C0
:1028600080204FF608750590002229463046FEF775
:1028700019FD372000904FF490100024CDE9010499
:1028800069463046FEF726FC00950125CDE9015446
:10289000694630460394FEF71DFCCDE900546946B5
:1028A0004FF090400294FEF715FC06B070BD00009A
:1028B0000010024000100048124810B51049016095
:1028C0001149416000210122C0E902120161416108
:1028D0008161C1610162FEF745FD08B172B6FEE794
:1028E00000210848FEF7EAFC08B172B6FEE70021B5
:1028F0000448FEF70EFD002801D072B6FEE710BDB9
:1029000000540040600000200E090020114810B55E
:102910000F4901604FF48271416000214FF4407211
:10292000C0E902124FF400720161C0E905120822E9
:10293000C0E9072107234162C0E90A13C0E90C126C
:10294000FFF7B0FB002801D072B6FEE710BD000013
:1029500000300140AC00002010B59AB0002417945C
:10296000189415941694129413941C210BA8149483
:10297000FDF723FD2C216846FDF71FFD2B482A4952
:1029800001604721C0E901146321C0E903148021DB
:10299000C0E90541FFF7D0FC08B172B6FEE74FF47D
:1029A0008050159015A92148FFF70CFD08B172B6AB
:1029B000FEE71E48FFF732FE08B172B6FEE712943A
:1029C000139412A919481494FFF76EFC08B172B65B
:1029D000FEE76020CDE90B040D940E940F94109443
:1029E00000220BA911481194FFF786FD08B172B6B9
:1029F000FEE700944FF40050CDE9044001940294A6
:102A0000039400030694CDE90740099469460748FA
:102A10000A94FFF703FC08B172B6FEE70348FFF71C
:102A200041FD1AB010BD0000002C01401001002033
:102A30000C4810B50A4901604FF41651416000215D
:102A400081600C22C160C0E904128161C161016230
:102A50004162FFF715FE002801D072B6FEE710BDF7
:102A6000003801405C010020FEE7FEE77047704738
:102A7000FEF706BD30B59FB028210FA8FDF79DFCDD
:102A8000142119A8FDF799FC3C216846FDF795FC37
:102A900003200F904FF480300024CDE9100402256C
:102AA0000121CDE9165013914FF4E0101021189038
:102AB00014910FA8FFF712F808B172B6FEE70F20C5
:102AC000CDE919054FF48060CDE91B40022119A81A
:102AD0001D94FEF7F9FE08B172B6FEE708480090B3
:102AE00002944FF480700E94079409900C946846F9
:102AF000FEF7DEFD002801D072B6FEE71FB030BD44
:102B0000A11002000248016841F4700101607047A1
:102B100088ED00E02DE9F0430268234B234D244E5D
:102B2000244C4FF08049984207D0484505D0A84230
:102B300003D0B04201D0A04203D122F070074A680E
:102B40003A431D4FDFF874C0DFF8748098420DD00F
:102B500048450BD0A84209D0B04207D0A04205D0CA
:102B6000B84203D0604501D0404503D122F44075FE
:102B7000CA682A434D6922F080022A4302608A68AB
:102B8000C2620A688262984207D0A04205D0B84269
:102B900003D0604501D0404501D10969016301219D
:102BA0004161BDE8F0830000002C014000040040BA
:102BB0000008004000340140004001400044014052
:102BC0000048014010B5846842EA032224F47F449F
:102BD0000A432243826010BD826822F070020A43D9
:102BE00042F00701816070472DE9F043026A22F04C
:102BF00001020262056A436882691C4C25F00205E5
:102C000022400C6822F0030214438A68194E2A43BA
:102C1000174D194FDFF864C0DFF86490A84207D061
:102C2000B04205D0B84203D0604501D0484506D136
:102C300022F00808CA6842EA080222F00402A84208
:102C400007D0B04205D0B84203D0604501D0484516
:102C500005D14D6923F440731D438B692B434360B9
:102C60008461496841630262BDE8F0838FFFFEFF23
:102C7000002C01400034014000400140004401406C
:102C800000480140F0B5026A22F010020262056AB3
:102C900042688369194C1B4E23400C6823F440732F
:102CA00043EA042425F020038D6843EA0513144DFC
:102CB000A84201D0B04206D1CF6823F0800343EA96
:102CC000071323F04003A8420AD0B04208D00E4DAB
:102CD000A84205D00D4DA84202D00D4DA84207D103
:102CE0004D6922F4406242EA85028D6942EA85021A
:102CF00042608461496881630362F0BDFF8FFFFE1B
:102D0000002C0140003401400040014000440140DB
:102D100000480140F0B5026A22F480720262056A3E
:102D20004368C269194C1B4E22400C6822F0030212
:102D3000144325F400728D6842EA0522144DA8421E
:102D400001D0B04206D1CF6822F4006242EA0722E5
:102D500022F48062A8420AD0B04208D00E4DA842A8
:102D600005D00E4DA84202D00D4DA84207D14D69A5
:102D700023F4405343EA05138D6943EA0513436086
:102D8000C4614968C1630262F0BD00008FFFFEFFAD
:102D9000002C01400034014000400140004401404B
:102DA0000048014030B5026A22F480520262046A8F
:102DB0004268C369124D24F400542B400D6823F47B
:102DC000407343EA05238D6844EA05340D4DA8425B
:102DD0000BD00D4DA84208D00C4DA84205D00C4D8B
:102DE000A84202D00B4DA84204D14D6922F4804282
:102DF00042EA85124260C36149680164046230BDE1
:102E0000FF8FFFFE002C01400034014000400140D4
:102E1000004401400048014030B5026A22F480328B
:102E20000262046A4268436D114D2B400D681D43D8
:102E300024F400330C8943EA04430E4CA0420BD027
:102E40000D4CA04208D00D4CA04205D00C4CA04225
:102E500002D00C4CA04204D14C6922F4803242EAE8
:102E600004224260456549688165036230BD000007
:102E70008FFFFEFF002C0140003401400040014064
:102E8000004401400048014030B5026A22F480123B
:102E90000262046A4268436D114D24F400142B4011
:102EA0000D6843EA05230D8944EA05540D4DA842F7
:102EB0000BD00D4DA84208D00C4DA84205D00C4DAA
:102EC000A84202D00B4DA84204D14D6922F48022C1
:102ED00042EA8522426043654968C165046230BDAB
:102EE000FF8FFFFE002C01400034014000400140F4
:102EF000004401400048014010B5036A046A24F010
:102F000001040462846924F0F00444EA021423F00A
:102F10000A020A438461026210BD10B5036A23F0FD
:102F2000100303628369046A23F4704343EA0232A4
:102F300024F0A00343EA01118261016210BD90F800
:102F40002410C90706D001684A68836A22F4003257
:102F50001A434A6090F82410890706D501684A6828
:102F6000C36A22F480321A434A6090F82410490759
:102F700006D501684A68036B22F480221A434A602E
:102F800090F82410090706D501684A68436B22F4BB
:102F900000421A434A6090F82410C90606D5016819
:102FA0008A68836B22F480521A438A6090F8241056
:102FB000890606D501688A68C36B22F400521A4359
:102FC0008A6090F82410490611D501684A68036C9C
:102FD00022F480121A434A60016CB1F5801F06D1B9
:102FE00001684A68436C22F4C0021A434A6090F8B0
:102FF0002410090606D501684A68806C22F4002274
:1030000002434A607047F8B500260446C0F8806065
:10301000FEF74EF90546206800686FF07E4700070E
:1030200008D52B4600224FF400112046009700F0EF
:10303000FDF860B92068006840070AD52B460022D9
:103040004FF480012046009700F0F0F808B103200B
:10305000F8BD2020A067E067266684F87460002031
:10306000F8BD000070B5044680682169E269084334
:1030700061690025114322680843116849F20C6315
:1030800099430143116020684168E26821F440518E
:1030900011434160216AA06901432068826822F4DB
:1030A00030620A4382605A4A20685A4990420CD1E1
:1030B000086B10F0030006D001285FD002285FD013
:1030C000032845D158E0012143E0534A90420DD1F5
:1030D000086B10F440304DD0B0F5803F4ED0B0F5C5
:1030E000003F4DD0B0F5403F32D145E04B4A9042D1
:1030F0000DD1086B10F440203CD0B0F5802F3DD0AE
:10310000B0F5002F3CD0B0F5402F21D134E0444A37
:1031100090420DD1086B10F440102BD0B0F5801FF9
:103120002CD0B0F5001F2BD0B0F5401F10D123E0FC
:103130003C4A90420CD1086B10F440001AD0B0F514
:10314000800F1BD0B0F5000F1AD0B0F5400F13D090
:103150001021E3694FF40040334A4FF6EF76834283
:103160002ED109294AD2DFE801F00D101349154983
:10317000494918000021ECE70221EAE70421E8E7C9
:103180000821E6E7FEF744FC06E0FEF759FC03E001
:10319000104602E0FEF76CFC88B34100606801EB6A
:1031A0005001B1FBF0F081B2A1F11000B04225D87E
:1031B0004FF6F07201EA0200C1F3420108431FE03A
:1031C00009291BD2DFE801F005080B1A0D1A1A1A9B
:1031D0001000FEF71DFC06E0FEF732FC03E010468F
:1031E00002E0FEF745FC50B1616800EB5100B0FB16
:1031F000F1F080B2A0F11001B14201D9012501E046
:103200002168C86000206066A066284670BD000086
:1032100000380140001002400044004000480040D7
:10322000004C00400050004000127A002DE9F047A9
:103230009A4617460E4604464FF000094FF0200804
:10324000089D4AE0681C48D0FEF732F8A0EB0A005F
:10325000A8422AD84DB32068016849073DD5C06906
:10326000C043000539D421684FF40060086220682B
:1032700050E8001F21F4D07140E80012002AF6D176
:103280002068083050E8001F21F0010140E80012DA
:10329000002AF5D1C4F87880C4F87C80C4F8808016
:1032A00084F874900320BDE8F087216851E8000F8E
:1032B00020F4D07041E80002002AF6D120680830DE
:1032C00050E8001F21F0010140E80012002AF5D16A
:1032D000C4F87880C4F87C80E2E72068C06936EAE8
:1032E000000004D00020B842ACD00020DBE7012071
:1032F000F9E7012120F8401F00210180818001822F
:103300000846704730F8401F21F43F4101800020FB
:103310007047FEE70907090E002804DB00F1E020F2
:1033200080F80014704700F00F0000F1E02080F8F2
:10333000141D704708B5FEF7ABF8FFF79BFBFFF7CE
:1033400061FA2848416941F0010141614069002268
:1033500000F00100009011460B20FEF7F1F80B2061
:10336000FEF7E0F8002211460E20FEF7E9F80E20E5
:10337000FEF7D8F8FFF706FAFFF79EFAFFF7C6FA4E
:103380001A481949016008214160022181600161E8
:10339000002181610162FEF705F908B172B6FEE70E
:1033A000FFF7DAFAFFF744FB4FF480644FF09045E3
:1033B0004FF0FF36012221462846FDF773FF0C48E7
:1033C000FDF752FD31460A48FDF7BEFC0848FDF7FF
:1033D0004BFB002221462846FDF764FF0120FDF744
:1033E00067FEE7E700100240005C0040E0010020BB
:1033F000100000204FF04070E1EE100A7047020309
:103400000405060708090A0B0C0D0E0F1010010227
:10341000030405060708090A0B0C0D0E0F10000027
:103420000000000000000102030406070809000074
:1034300000000102030400005834000800000020CE
:1034400010000000C40100086834000810000020CB
:10345000A80B0000E00100080100000010000000BF
:083460000000000000127A00D8
:040000050800018965
:00000001FF
