:020000040800F2
:10000000B0070020290200089F1A00080319000801
:100010009D1A00081F0400080120000800000000CD
:10002000000000000000000000000000A31A00080B
:100030002104000800000000A11A0008A51A000809
:10004000430200084302000843020008430200087C
:10005000430200084302000843020008430200086C
:10006000430200084302000843020008430200085C
:10007000430200084302000843020008430200084C
:10008000430200084302000843020008430200083C
:10009000430200084302000843020008430200082C
:1000A000430200084302000843020008430200081C
:1000B000430200084302000843020008430200080C
:1000C00043020008430200084302000843020008FC
:1000D0004302000843020008F51F0008430200081D
:1000E00043020008430200084302000843020008DC
:1000F00043020008430200084302000843020008CC
:1001000000000000000000000000000043020008A2
:1001100043020008430200084302000843020008AB
:10012000430200084302000843020008430200089B
:100130004302000843020008000000000000000025
:1001400043020008430200084302000800000000C8
:10015000000000000000000000000000000000009F
:1001600000000000000000004302000843020008F5
:100170004302000800000000000000000000000032
:10018000000000004302000800F002F800F03CF814
:100190000AA090E8000C82448344AAF10107DA45E2
:1001A00001D100F031F8AFF2090EBAE80F0013F0F8
:1001B000010F18BFFB1A43F001031847E41E0000AB
:1001C000041F0000103A24BF78C878C1FAD852073B
:1001D00024BF30C830C144BF04680C6070470000C1
:1001E0000023002400250026103A28BF78C1FBD840
:1001F000520728BF30C148BF0B6070471FB501F0E0
:100200002DFF1FBD10B510BD00F0CFF81146FFF750
:10021000F5FF01F007FF00F0EDF803B4FFF7F2FF80
:1002200003BC00F0F5F80000094880470948004782
:10023000FEE7FEE7FEE7FEE7FEE7FEE7FEE7FEE796
:10024000FEE7FEE704480549054A064B70470000F3
:10025000351B000889010008B0010020B00700200C
:10026000B0030020B003002053EA020C00F06980C4
:100270002DE9F04B4FF00006002B1FBFB3FA83F5BA
:1002800003FA05F424FA05F65E4012BF1643B2FAEB
:1002900082F502FA05F4C5F120051EBF22FA05FC1D
:1002A00044EA0C04203556EA044C4FEA144418BFC3
:1002B000641C4FF000084FF00009904271EB030CF2
:1002C00039D3002919BFB1FA81F701FA07F6B0FA5C
:1002D00080F700FA07F6C7F120071EBF20FA07FCD7
:1002E00046EA0C062037B6FBF4FCA7EB0507103FE7
:1002F00007F01F0BCBF120060CFA0BFB2CFA06F6CD
:1003000044BFB3460026202FA4BF5E464FF0000B2B
:100310005BEA060C08BF4FF0010B19EB0B09ABFBB6
:10032000027C48EB0608C01B06FB02CC0BFB03CC8F
:1003300071EB0C01C1E70B46024641464846BDE859
:10034000F08B13B54FF000004FF00001AFF30080C9
:10035000BDE81C4070474FF0000200B513469446BC
:100360009646203922BFA0E80C50A0E80C50B1F10D
:100370002001BFF4F7AF090728BFA0E80C5048BF21
:100380000CC05DF804EB890028BF40F8042B08BFBF
:10039000704748BF20F8022B11F0804F18BF00F8BB
:1003A000012B7047704770477047754600F02CF876
:1003B000AE4605006946534620F00700854618B052
:1003C00020B5FFF73FFFBDE820404FF000064FF09B
:1003D00000074FF000084FF0000B21F00701AC467A
:1003E000ACE8C009ACE8C009ACE8C009ACE8C00999
:1003F0008D46704710B50446AFF300802046BDE837
:100400001040FFF70ABF000000487047500100206D
:1004100001491820ABBEFEE7260002007047FEE748
:10042000704772B6FEE710B590F82110002202293D
:1004300005D00421816380F82020012010BD0168CF
:100440000B6823F00E030B6001680B6823F00103B7
:100450000B6090F84030C46B012101FA03F3636034
:1004600080F8211080F82020002010BD10B590F8F1
:1004700021100024022903D004218163012418E003
:1004800001680A6822F00E020A6001680A6822F018
:1004900001020A6090F84020C36B012101FA02F2C8
:1004A0005A6080F82110002180F82010416B01B1C2
:1004B0008847204610BD000070B5044600F0FCF8E7
:1004C0000546601C02D004480078044400F0F4F8AB
:1004D000401BA042FAD370BD0C0000202DE9F04F64
:1004E000DFF8AC91002309F1040A03250AF1040B9B
:1004F00085B04FF0010C0F270BF1040EBFE000BFD9
:100500000CFA03F6324075D00C7904F00304012C88
:1005100001D0022C1BD1846800945C0005FA04F819
:100520000494009C24EA08040094D1F80C80049CF4
:1005300008FA04F8009C48EA0408C0F808804468F7
:10054000B4430E79C6F300169E40264346600C79EC
:10055000E443A4070AD0C4684FEA430805FA08F642
:10056000B4438E6806FA08F62643C6600C7904F098
:100570000304022C10D1DC0800EB84040294246AEA
:100580005E074FEAD66807FA08F6B4430E6906FA22
:1005900008F62643029C266204684FEA430805FADF
:1005A00008F6B4430E7906F0030606FA08F6264369
:1005B00006604C6814F4403F60D0364CA66946F0A3
:1005C0000106A661A46923F0030604F00104009467
:1005D000314C34440294A4689E074FEA167807FA17
:1005E00008F6B443B0F1904F05D02C4EB04204D180
:1005F000012612E042E000260FE0294EB04201D170
:1006000002260AE0274EB04201D1032605E0264E1D
:10061000B04201D1042600E0052606FA08F626437A
:10062000029CA660D9F800604C46D1F8048096433D
:100630005FEAC83800D516432660DAF8004056460F
:10064000D1F8048094435FEA883800D514433460BD
:10065000DBF800405E46D1F8048094435FEAC82886
:1006600000D514433460DEF800407646D1F80480AB
:1006700094435FEA882800D5144334605B1C0A6801
:1006800032FA03F47FF43CAF05B0BDE8F08F000010
:100690000004014000100240000001400004004836
:1006A00000080048000C0048001000480AB18161B1
:1006B0007047816270470000014880687047000001
:1006C0000C00002090F84120202A24D190F84020EE
:1006D000012A20D0012280F84020242280F84120E5
:1006E0000268136823F0010313600268136823F49F
:1006F00080531360026813680B43136001680A6833
:1007000042F001020A60202180F84110002180F8A7
:100710004010084670470220704790F84120202A78
:1007200022D190F84020012A1ED0012280F84020DA
:10073000242280F841200268136823F0010313602B
:100740000268136823F4706343EA012111600168B1
:100750000A6842F001020A60202180F8411000215D
:1007600080F84010084670470220704770B50400BA
:1007700004D094F84100002510B106E0012070BDBE
:1007800084F84050204600F04DF8242084F84100C1
:100790002068016821F0010101606068216820F093
:1007A000706008612068816821F400418160E06820
:1007B0000128A06807D040F4044021688860E06800
:1007C000022803D006E040F40040F6E721684FF429
:1007D0000060486020684168114A11434160206808
:1007E000C16821F40041C160D4E904010843A16952
:1007F00040EA01202168C860D4E907010843216864
:1008000008602068016841F00101016065642020F2
:1008100084F84100256384F84250002070BD000038
:100820000080000210B586B0044614216846FFF728
:1008300092FD1249206888421ED1114C606940F433
:10084000802060616069694600F480200590C020C6
:1008500000901220019001200290032003900420B8
:1008600004900848FFF73AFEE06940F40010E061A8
:10087000E06900F40010059006B010BD005400407F
:1008800000100240000400480248816802781144C8
:10089000816070470C000020074810B5016841F0E6
:1008A00010010160032000F06FF8002000F006F84E
:1008B00000F024F8002010BD0020024070B50D4D5E
:1008C00004464FF47A712878B1FBF0F00A490968C0
:1008D000B1FBF0F000F00CFE48B9102C07D200225A
:1008E0002146501E00F030F800206C6070BD0120E1
:1008F00070BD00000C000020180000200A4882B0E3
:10090000816941F001018161816901F0010100917A
:10091000C16941F08051C161C06900F08050009010
:10092000072002B000F030B800100240002809DBB8
:1009300000F01F02012191404009800000F1E020F9
:10094000C0F8001170470000F0B40E4B1B680C4655
:10095000C3F30223C3F10705042D00D90425191D93
:10096000072901D2002300E0DB1E012606FA05F16B
:10097000491E214099409E40761E16403143F0BCEE
:1009800001F03FBB0CED00E0064900F007020868EB
:100990004FF6FF03184040EA0220034A1043086064
:1009A000704700000CED00E00000FA052DE9F84F5B
:1009B000044600680026804DC0036ED5E869C0007B
:1009C00008D4E86940F08050E861E869012600F049
:1009D0008050009079480168C90512D401688046AA
:1009E00041F480710160FFF767FE074605E000BF34
:1009F000FFF762FEC01B642835D8D8F80000C00598
:100A0000F6D5286A10F4407053D0A18801F44071E3
:100A100081424ED0286A4FF4803191FAA1F2B2FAA5
:100A200082F29700664A4FF00108174420F44070A4
:100A3000C7F8008491FAA1F1B1FA81F102EB8101CA
:100A40000023C1F800342862C00732D0FFF734FE1B
:100A5000074641F2883A4FF0020907E0FFF72CFE03
:100A6000C11B514502D90320BDE8F88F99FAA9F0BE
:100A7000B0FA80F040F040024946B8EB521F01D175
:100A80002A680CE091FAA1F2B2FA82F242F0400236
:100A9000B1EB521F02D12A6A01E015E06A6A99FAA5
:100AA000A9F1B1FA81F101F01F0108FA01F0024247
:100AB000D4D0286A616820F44070084328621EB1CF
:100AC000E86920F08050E8612078C00705D0286BE5
:100AD000A16820F00300084328632078800705D52B
:100AE000286BE16820F440300843286320784007F1
:100AF00005D5286B216920F440200843286320781D
:100B0000800605D5286BE16920F0100008432863B2
:100B10002068800305D56868A16B20F48000084335
:100B200068602078400605D5286B216A20F02000F7
:100B3000084328632078000705D5286B616920F4F5
:100B40004010084328632078C00605D5286BA169AA
:100B500020F44000084328632088800505D5686894
:100B6000E16A20F40000084368602078000605D59B
:100B7000E86A616A20F4F8700843E8622088C005DA
:100B800005D5E86AA16A20F478500843E862208815
:100B9000C00405D5286B216B20F4807008432863BE
:100BA0002088800405D5286B616B20F40070084311
:100BB0002863002058E70000001002400070004049
:100BC000000042422DE9F0470F46050069D04A4E29
:100BD000306800F00700B84209D2306820F0070002
:100BE00038433060306800F00700B84259D12878A7
:100BF000424C800705D56068A96820F0F0000843E2
:100C000060602878C0073DD06968012001290DD0B7
:100C1000022923D05FF0020393FAA3F2B2FA82F220
:100C200042F02002520904D0226803E04FF400335E
:100C3000F2E7626A93FAA3F3B3FA83F303F01F03B4
:100C4000984002422DD0606820F0030008436060A5
:100C5000FFF732FD804641F288390CE04FF0007317
:100C6000DAE700BFFFF728FDA0EB0801494502D9EC
:100C70000320BDE8F0876068696800F00C00B0EB05
:100C8000810FEFD1306800F00700B8420BD930680F
:100C900020F0070038433060306800F00700B842A9
:100CA00001D00120E5E72878400705D56068E968AC
:100CB00020F4E060084360602878000706D560688B
:100CC000296920F4605040EAC100606000F04EF8ED
:100CD0006168F02292FAA2F201F0F001B2FA82F217
:100CE000D140074A515CC840064908600648006880
:100CF000FFF7E4FD0020BCE70020024000100240A6
:100D0000862000081800002010000020084809492B
:100D1000006849684FF4E06292FAA2F201F4E061DF
:100D2000B2FA82F2D140044A515CC84070470000D8
:100D300018000020001002409620000808480949C9
:100D4000006849684FF4605292FAA2F201F46051CF
:100D5000B2FA82F2D140044A515CC84070470000A8
:100D6000180000200010024096200008164A10B516
:100D70005168164801F00C03042B20D0082B1ED11B
:100D80004FF4701494FAA4F401F47013B4FA84F4D8
:100D9000E3400F4CD26AE45C0F2393FAA3F302F012
:100DA0000F02B3FA83F3DA40094B1033C9039A5C9C
:100DB00006D500231946FFF757FAA0FB040110BD22
:100DC0000448A4FB000110BD0010024000127A008C
:100DD0006620000800093D002DE9F84F050071D09C
:100DE0002878FC4EC0074FF0010425D070686704D6
:100DF000C0F38100012807D07068C0F38100022889
:100E00001BD17068C00318D597FAA7F0B0FA80F02C
:100E100040F02000400901D0306800E0706A97FA85
:100E2000A7F1B1FA81F101F01F0104FA01F10842C2
:100E300065D068680028D2D061E06868B0F5803F6E
:100E40000BD010B1B0F5A02F17D0306820F480304F
:100E50003060306820F4802002E0306840F4803058
:100E60003060F06AA96820F00F000843F0626868FB
:100E700020B3FFF721FC80460AE0306840F4802070
:100E80003060EAE7FFF718FCA0EB0800642871D88F
:100E900097FAA7F0B0FA80F040F02000400901D0A6
:100EA000306800E0706A97FAA7F1B1FA81F101F0B9
:100EB0001F0104FA01F10842E4D020E0FFF7FCFB37
:100EC000804607E0C2E000BFFFF7F6FBA0EB08009A
:100ED0006428DCD897FAA7F0B0FA80F040F0200040
:100EE000400901D0306800E0706A97FAA7F1B1FAC2
:100EF00081F101F01F0104FA01F10842E4D12878E0
:100F0000DFF8D48280074FF0000A4FF0020730D597
:100F100070684FF0F80B10F00C0F07D07068C0F33A
:100F20008100022827D17068C00324D497FAA7F063
:100F3000B0FA80F040F02000400901D0306800E0B5
:100F4000706A97FAA7F1B1FA81F101F01F0104FA72
:100F500001F1084202D02869012877D130689BFA54
:100F6000ABF220F0F8016869B2FA82F290400143D6
:100F700031605AE064E1286988B394FAA4F0B0FAC9
:100F800080F048F82040FFF797FB814606E000BF5D
:100F9000FFF792FBA0EB090002289AD897FAA7F076
:100FA000B0FA80F040F02000400901D0306800E045
:100FB000706A97FAA7F1B1FA81F101F01F0104FA02
:100FC00001F10842E4D030689BFAABF26969B2FAE9
:100FD00082F220F0F80091400843306025E0FFE7FE
:100FE00094FAA4F0B0FA80F048F820A0FFF764FB70
:100FF000814605E0FFF760FBA0EB09000228CCD892
:1010000097FAA7F0B0FA80F040F02000400901D034
:10101000306800E0706A97FAA7F1B1FA81F101F047
:101020001F0104FA01F10842E4D1287800076CD5C9
:10103000A869A8B394FAA4F0B0FA80F008EB800095
:10104000C0F88044FFF738FB814607E0A4E100BF09
:10105000FFF732FBA0EB090002289ED897FAA7F011
:10106000B0FA80F040F06000B4EB501F01D130685E
:101070000BE097FAA7F0B0FA80F040F06000B7EB11
:10108000501F01D1306A00E0706A97FAA7F1B1FAF7
:1010900081F101F01F0104FA01F21042D8D034E0CE
:1010A000FFE794FAA4F1B1FA81F108EB8101C1F8EC
:1010B00080A4FFF701FB814606E000BFFFF7FCFAC2
:1010C000A0EB090002289AD897FAA7F0B0FA80F0AE
:1010D00040F06000B4EB501F01D130680BE097FA8C
:1010E000A7F0B0FA80F040F06000B7EB501F01D1DC
:1010F000306A00E0706A97FAA7F1B1FA81F101F065
:101100001F0104FA01F21042D8D12878400768D5AF
:10111000F0694FF00009C00009D4F06940F0805038
:10112000F061F0694FF0010900F0805000902B4809
:101130000168C90512D4016841F480710160FFF7AC
:10114000BBFA834606E000BFFFF7B6FAA0EB0B0040
:10115000642875D821480068C005F5D5E8680128DD
:101160000AD008B1052811D0306A20F001003062A1
:10117000306A20F0040002E0306A40F00100306282
:10118000E86868B3FFF798FA83460DE0306A40F0EC
:1011900004003062F0E700BFFFF78EFAA0EB0B010E
:1011A00041F2883081424BD897FAA7F0B0FA80F02C
:1011B00040F04000B4EB501F01D1306813E097FAC3
:1011C000A7F0B0FA80F040F04000B7EB501F09D113
:1011D000306A08E000100240000042420070004007
:1011E0000CE040E0706A97FAA7F1B1FA81F101F0E2
:1011F0001F0104FA01F21042CED02DE0FFF75CFA95
:10120000834607E0FFF758FAA0EB0B0141F2883064
:10121000814215D897FAA7F0B0FA80F040F040006C
:10122000B4EB501F01D130680CE097FAA7F0B0FA88
:1012300080F040F04000B7EB501F02D1306A01E06F
:1012400083E0706A97FAA7F1B1FA81F101F01F010A
:1012500004FA01F21042D5D1B9F1000F03D0F069C0
:1012600020F08050F061E86980B37168C1F38101BA
:10127000022977D04FF080714F000228504609D0E4
:1012800091FAA1F1B1FA81F148F82100FFF714FABF
:1012900005465DE0894691FAA1F1B1FA81F1C246B5
:1012A00048F82100FFF708FA804605E0FFF704FA46
:1012B000A0EB0800022848D897FAA7F0B0FA80F00F
:1012C00040F02000400902D0306801E066E0706A1A
:1012D00097FAA7F1B1FA81F101F01F0104FA01F1C7
:1012E0000842E3D1D5E908100843716821F474116C
:1012F0000843706099FAA9F0B0FA80F04AF82040EB
:10130000FFF7DAF9054604E0FFF7D6F9401B02289B
:101310001BD897FAA7F0B0FA80F040F020004009FF
:1013200001D0306800E0706A97FAA7F1B1FA81F154
:1013300001F01F0104FA01F10842E5D02EE000BFE0
:10134000FFF7BAF9401B022802D90320BDE8F88F45
:1013500097FAA7F0B0FA80F040F02000400902D0E0
:10136000306801E00BE0706A97FAA7F1B1FA81F1F9
:1013700001F01F0104FA01F10842E1D10EE0012859
:10138000E4D070682A6A00F48031914204D1696A1D
:1013900000F47010884201D00120D7E70020D5E783
:1013A00070B5040009D0606A002540B1256165610F
:1013B000A56294F85D0040B10CE0012070BD60684A
:1013C000B0F5827FF4D0E561F2E784F85C50204606
:1013D00000F05CF8022084F85D002068016821F0CC
:1013E00040010160E1684FF4E062914201D90020C0
:1013F00001E04FF48050B1F5706F02D0914200D0FF
:10140000A562A188228901F4827102F40442114389
:10141000227C02F002021143227D02F001021143FC
:10142000228B02F400721143227F02F03802114332
:1014300094F8202002F080021143228D02F4005221
:10144000114322681160A169042202EA114194F853
:10145000242000F4805002F01002114394F834204C
:1014600002F008021143A28902F4706211430143A1
:10147000206841602068C16921F40061C16125666E
:10148000012084F85D00002070BD000010B586B01A
:10149000044614216846FEF75EFF1349206888421F
:1014A0001FD11248816941F480518161816901F441
:1014B00080510591416941F40031416140696946BB
:1014C00000F400300590E020009002200190002000
:1014D000029003200390052004904FF09040FEF707
:1014E000FDFF06B010BD00000030014000100240BA
:1014F00010B5401EB0F1807F01D3012010BD4FF028
:10150000E02460610F21601700F07BFD0020A061E6
:1015100007202061002010BD704770477047000011
:101520002DE9F04102680446D0691168936840F6DD
:101530000F0528424FF0000505D186067ED58E06A0
:101540007CD5616E1AE1994F03F001060F403743D5
:1015500074D0C70709D0CF0507D501271762D4F883
:10156000802042F00102C4F8802082070AD5DA0701
:1015700008D0276802223A62D4F8802042F00402A0
:10158000C4F8802042070AD5DA0708D0236804226D
:101590001A62D4F8802042F00202C4F880200207C8
:1015A0000CD501F02002324308D0236808221A62C9
:1015B000D4F8802042F00802C4F8802002050BD540
:1015C0004A0109D523684FF400621A62D4F88020DA
:1015D00042F02002C4F88020D4F88020002A35D0C0
:1015E000800605D5880603D5616E09B12046884777
:1015F000D4F8800021688968490602D410F0280FC9
:1016000026D0204600F03AFB2068806840061AD5B4
:101610002068083050E8001F21F0400140E8001227
:10162000002AF5D1206F70B161494163206FFEF748
:101630001DFF00280AD0206F416B01E00EE020461C
:10164000BDE8F04108472046FFF768FFBDE8F0819C
:101650002046FFF763FFC4F88050F7E7276E202687
:10166000012F7AD1C70678D5CF0676D51020106223
:1016700020688068400640D5216F086840680004F3
:10168000000CE3D0B4F858208242DFD9A4F85A0005
:10169000886920282AD0216851E8000F20F4807042
:1016A00041E80002002AF6D12068083050E8001F07
:1016B00021F0010140E80012002AF5D1206808302D
:1016C00050E8001F21F0400140E80012002AF5D147
:1016D000E6672566216851E8000F20F0100041E818
:1016E0000002002AF6D1206FFEF79DFEB4F85800E4
:1016F000B4F85A10401A81B22AE0B4F85800B4F88D
:101700005A10401A81B2B4F85A0000289ED000291D
:101710009CD0226852E8000F20F4907042E8000349
:10172000002BF6D12068083050E8002F22F001028B
:1017300040E80023002BF5D1E66725666566226840
:1017400052E8000F20F0100042E80003002BF6D111
:101750002046FFF7E1FE79E7FFE7C70209D55B0204
:1017600007D54FF4801010622046BDE8F041FFF726
:10177000D4BE020606D50A0604D5A16E00297FF460
:101780005EAF63E74006E6D54806E4D5204601682B
:1017900051E8002F22F0400241E80023002BF6D14F
:1017A0008667856600F0ACF850E700002001000471
:1017B000691C000810B5040002D0A06F10B107E04A
:1017C000012010BD002084F87400204600F026F8A7
:1017D0002420A0672068016821F0010101602046F3
:1017E00000F072FA0128ECD0606A10B1204600F0D7
:1017F000A9F92068416821F490414160206881681E
:1018000021F02A0181602068016841F00101016036
:101810002046BDE8104000F0F9B9000010B586B0D0
:10182000044614216846FEF796FD17492068884251
:1018300027D11648C16941F40031C161C16901F481
:1018400000310591416941F40031416140696946C7
:1018500000F4003005900C20009002200190002040
:10186000029003200390072004904FF09040FEF771
:1018700035FE002211462620FFF766F82620FFF7E6
:1018800055F806B010BD00000044004000100240B2
:10189000836F202B2DD1B9B1B2B190F87430012BE8
:1018A00027D0012380F87430C164A0F85020A0F83C
:1018B000522000218166C0F8801021228267826850
:1018C000B2F5805F02D003E001207047026972B177
:1018D000094A826680F87410026852E8001F41F0DD
:1018E000800142E80013002BF6D100207047034A24
:1018F000EFE7022070470000E11E0008911E00087B
:101900007047FEE770B586B014216846FEF723FDE8
:101910002748416941F400114161416901F4001116
:101920000591416941F400214161416901F40021BF
:101930000591416941F480014161416901F48001EF
:101940000591416941F400314161416901F400317F
:101950000591416941F4802141614069154E00F4CF
:1019600080204FF608650590002229463046FEF794
:101970009DFE372000904FF490100024CDE9010423
:1019800069463046FEF7AAFD00950125CDE90154D0
:10199000694630460394FEF7A1FDCDE9005469463F
:1019A0004FF090400294FEF799FD06B070BD000024
:1019B0000010024000100048134810B511490160A2
:1019C0001249416000210122C0E902120161416116
:1019D0008161C1610162FEF7C9FE08B1FEF721FD18
:1019E00000210948FEF76EFE08B1FEF71AFD00213E
:1019F0000548FEF792FE002803D0BDE81040FEF730
:101A000010BD10BD005400401C0000200E09002035
:101A1000124810B5104901604FF4827141600021F5
:101A20004FF44072C0E902124FF400720161C0E944
:101A300005120822C0E9072107234162C0E90A1301
:101A4000C0E90C12FFF7ACFC002803D0BDE8104041
:101A5000FEF7E7BC10BD0000003001406800002028
:101A60000D4810B50B4901604FF4E1314160002190
:101A700081600C22C160C0E904128161C161016210
:101A80004162FFF797FE002803D0BDE81040FEF743
:101A9000C8BC10BD00440040CC000020FEE7FEE7BB
:101AA00070477047FEF7F0BE30B59FB028210FA8F1
:101AB000FEF751FC142119A8FEF74DFC3C216846A5
:101AC000FEF749FC03200F904FF4A0200024CDE93D
:101AD0001004012013901020149002250003CDE97A
:101AE0001650000118900FA8FFF776F908B172B6EA
:101AF000FEE70F20CDE919054FF48060CDE91B40CA
:101B0000012119A81D94FFF75DF808B172B6FEE730
:101B1000074800904FF480000E90039407946846A5
:101B2000FEF744FF002801D072B6FEE71FB030BDBB
:101B3000220002000248016841F470010160704710
:101B400088ED00E090F82410C90706D001684A68C3
:101B5000836A22F400321A434A6090F824108907FD
:101B600006D501684A68C36A22F480321A434A6083
:101B700090F82410490706D501684A68036B22F4DF
:101B800080221A434A6090F82410090706D501689C
:101B90004A68436B22F400421A434A6090F82410CA
:101BA000C90606D501688A68836B22F480521A43FD
:101BB0008A6090F82410890606D501688A68C36B8C
:101BC00022F400521A438A6090F82410490611D575
:101BD00001684A68036C22F480121A434A60016C5F
:101BE000B1F5801F06D101684A68436C22F4C00237
:101BF0001A434A6090F82410090606D501684A681D
:101C0000806C22F4002202434A607047F8B5002637
:101C10000446C0F88060FEF74FFD05462068006866
:101C20006FF07E47000708D52B4600224FF40011C5
:101C30002046009700F07AF960B9206800684007F4
:101C40000AD52B4600224FF480012046009700F071
:101C50006DF908B10320F8BD2020A067E067266673
:101C600084F874600020F8BD10B5406A0021A0F827
:101C70005A10A0F85210FFF751FC10BD016851E84E
:101C8000002F22F4907241E80023002BF6D1016866
:101C9000083151E8002F22F0010241E80023002B17
:101CA000F5D1016E012908D1026852E8001F21F028
:101CB000100142E80013002BF6D12021C16700215A
:101CC000016641667047000070B50446806821696E
:101CD000E2690843616900251143226808431168DD
:101CE00049F20C6399430143116020684168E2683E
:101CF00021F4405111434160216AA06901432068E9
:101D0000826822F430620A4382605A4A20685A4943
:101D100090420CD1086B10F0030006D001285FD070
:101D200002285FD0032845D158E0012143E0534AFF
:101D300090420DD1086B10F440304DD0B0F5803F8B
:101D40004ED0B0F5003F4DD0B0F5403F32D145E028
:101D50004B4A90420DD1086B10F440203CD0B0F5B6
:101D6000802F3DD0B0F5002F3CD0B0F5402F21D1D1
:101D700034E0444A90420DD1086B10F440102BD04F
:101D8000B0F5801F2CD0B0F5001F2BD0B0F5401F50
:101D900010D123E03C4A90420CD1086B10F4400073
:101DA0001AD0B0F5800F1BD0B0F5000F1AD0B0F5E7
:101DB000400F13D01021E3694FF40040334A4FF62F
:101DC000EF7683422ED109294AD2DFE801F00D10C7
:101DD00013491549494918000021ECE70221EAE7B7
:101DE0000421E8E70821E6E7FEF790FF06E0FEF7AA
:101DF000A5FF03E0104602E0FEF7B8FF88B34100FC
:101E0000606801EB5001B1FBF0F081B2A1F110006C
:101E1000B04225D84FF6F07201EA0200C1F3420148
:101E200008431FE009291BD2DFE801F005080B1A5F
:101E30000D1A1A1A1000FEF769FF06E0FEF77EFF82
:101E400003E0104602E0FEF791FF50B1616800EB3D
:101E50005100B0FBF1F080B2A0F11001B14201D904
:101E6000012501E02168C86000206066A066284660
:101E700070BD0000003801400010024000440040E6
:101E800000480040004C00400050004000127A0022
:101E9000816F212910D1B0F8521071B1C16C026864
:101EA0000988C1F308011185C16C891CC164B0F8AF
:101EB0005210491EA0F852107047026852E8001FE5
:101EC00021F0800142E80013002BF6D1026852E8AD
:101ED000001F41F0400142E80013002BF6D170478B
:101EE000816F21290ED1B0F8521061B1C16C026826
:101EF00009781185C16C491CC164B0F85210491EA3
:101F0000A0F852107047016851E8002F22F08002BB
:101F100041E80023002BF6D1026852E8001F41F08F
:101F2000400142E80013002BF6D170472DE9F0473D
:101F30009A4617460E4604464FF000094FF0200817
:101F4000089D4AE0681C48D0FEF7B6FBA0EB0A00EB
:101F5000A8422AD84DB32068016849073DD5C06919
:101F6000C043000539D421684FF40060086220683E
:101F700050E8001F21F4D07140E80012002AF6D189
:101F80002068083050E8001F21F0010140E80012ED
:101F9000002AF5D1C4F87880C4F87C80C4F8808029
:101FA00084F874900320BDE8F087216851E8000FA1
:101FB00020F4D07041E80002002AF6D120680830F1
:101FC00050E8001F21F0010140E80012002AF5D17D
:101FD000C4F87880C4F87C80E2E72068C06936EAFB
:101FE000000004D00020B842ACD00020DBE7012084
:101FF000F9E700000148FFF793BA0000CC00002089
:10200000FEE70907090E002804DB00F1E02080F854
:102010000014704700F00F0000F1E02080F8141D5C
:1020200070470000FEF738FCFFF73EFDFFF76AFC43
:10203000FFF7C2FCFFF7ECFCFFF712FD4FF4FA7458
:102040000A2204490448FFF723FC2046FEF734FA2D
:10205000F6E7000000000020CC0000204FF04070A8
:10206000E1EE100A704702030405060708090A0B8F
:102070000C0D0E0F10100102030405060708090AD3
:102080000B0C0D0E0F1000000000000000000102FC
:102090000304060708090000000001020304000011
:1020A000C0200008000000201C000000C40100083F
:1020B000DC2000081C00002094070000E00100085C
:1020C00048456C6C4F57200D0A00000001000000CD
:0C20D000100000000000000000127A0068
:040000050800018965
:00000001FF
