:020000040800F2
:10000000D0460020290200085B390008B1330008FF
:10001000593900088B040008B145000800000000B1
:100020000000000000000000000000005F39000830
:1000300063050008000000005D3900086139000810
:10004000430200084302000843020008430200087C
:10005000430200084302000843020008430200086C
:10006000430200084302000843020008430200085C
:1000700043020008B504000843020008C104000858
:10008000CD040008D9040008430200084302000818
:10009000430200084302000843020008430200082C
:1000A00043020008013A0008430200084302000826
:1000B000430200084302000843020008430200080C
:1000C00043020008430200084302000843020008FC
:1000D00043020008714500087D45000843020008FE
:1000E00065050008430200084302000843020008B7
:1000F00043020008430200084302000843020008CC
:1001000000000000000000000000000043020008A2
:1001100043020008430200080D3A000843020008A9
:100120004302000843020008E504000843020008F7
:10013000F104000843020008000000000000000075
:1001400043020008430200084302000800000000C8
:10015000000000000000000000000000000000009F
:1001600000000000000000004302000843020008F5
:100170004302000800000000000000000000000032
:10018000000000004302000800F002F800F03CF814
:100190000AA090E8000C82448344AAF10107DA45E2
:1001A00001D100F031F8AFF2090EBAE80F0013F0F8
:1001B000010F18BFFB1A43F001031847CC4E000093
:1001C000EC4E0000103A24BF78C878C1FAD8520724
:1001D00024BF30C830C144BF04680C6070470000C1
:1001E0000023002400250026103A28BF78C1FBD840
:1001F000520728BF30C148BF0B6070471FB504F0DD
:1002000021FE1FBD10B510BD00F0CFF81146FFF75D
:10021000F5FF04F005FA00F0EDF803B4FFF7F2FF84
:1002200003BC00F0F5F80000094880470948004782
:10023000FEE7FEE7FEE7FEE7FEE7FEE7FEE7FEE796
:10024000FEE7FEE704480549054A064B70470000F3
:10025000F139000889010008D03A0020D04600207A
:10026000D03E0020D03E002053EA020C00F069800E
:100270002DE9F04B4FF00006002B1FBFB3FA83F5BA
:1002800003FA05F424FA05F65E4012BF1643B2FAEB
:1002900082F502FA05F4C5F120051EBF22FA05FC1D
:1002A00044EA0C04203556EA044C4FEA144418BFC3
:1002B000641C4FF000084FF00009904271EB030CF2
:1002C00039D3002919BFB1FA81F701FA07F6B0FA5C
:1002D00080F700FA07F6C7F120071EBF20FA07FCD7
:1002E00046EA0C062037B6FBF4FCA7EB0507103FE7
:1002F00007F01F0BCBF120060CFA0BFB2CFA06F6CD
:1003000044BFB3460026202FA4BF5E464FF0000B2B
:100310005BEA060C08BF4FF0010B19EB0B09ABFBB6
:10032000027C48EB0608C01B06FB02CC0BFB03CC8F
:1003300071EB0C01C1E70B46024641464846BDE859
:10034000F08B13B54FF000004FF00001AFF30080C9
:10035000BDE81C4070474FF0000200B513469446BC
:100360009646203922BFA0E80C50A0E80C50B1F10D
:100370002001BFF4F7AF090728BFA0E80C5048BF21
:100380000CC05DF804EB890028BF40F8042B08BFBF
:10039000704748BF20F8022B11F0804F18BF00F8BB
:1003A000012B7047704770477047754600F02CF876
:1003B000AE4605006946534620F00700854618B052
:1003C00020B5FFF73FFFBDE820404FF000064FF09B
:1003D00000074FF000084FF0000B21F00701AC467A
:1003E000ACE8C009ACE8C009ACE8C009ACE8C00999
:1003F0008D46704710B50446AFF300802046BDE837
:100400001040FFF70ABF000000487047703A002014
:1004100001491820ABBEFEE726000200704700002D
:1004200070B504460068816801F0030101292AD1F2
:100430000168C90727D0816801F00D01012914D195
:10044000816841F00201816021680320086000F0AA
:1004500027FF054613E000BF00F022FF401B0228E3
:100460000DD920688068C00709D0206C40F01000CA
:100470002064606C40F001006064012070BD206861
:100480008068C007E8D1002070BDFEE730B50246A5
:100490004FF6FF70064D07E012F8013B040A434097
:1004A000DBB235F813006040491EC9B2F4D230BD4A
:1004B0004E4E0008014800F025BD00000C3700201A
:1004C000014800F01FBD0000C8360020014800F0C0
:1004D00019BD0000E8390020014800F013BD0000FC
:1004E0002C3A0020014800F00DBD000060390020CA
:1004F000014800F007BD0000A43900200B4B016843
:100500001422994207D20A4B1944B1FBF2F1890037
:100510000164084908E0054B5B421944B1FBF2F164
:100520008900016401490839C16370470804024029
:10053000F8FFFDBF0000024030B590F840500124A4
:10054000AC40C56B6C60046863604368102B036843
:1005500003D099600068C26030BD9A600068C160D5
:1005600030BD704710B54FF4806000F093FD4FF43C
:10057000006000F08FFD4FF4805000F08BFD4FF4D1
:10058000005000F087FD4FF4804000F083FDBDE88F
:1005900010404FF4004000F07DBD72B6FEE7000051
:1005A000F0B5002302684FF0A04C3E4C94B01F46BB
:1005B000624501D100940DE0A24202D1CDF800C005
:1005C00008E0394D394EAA4201D1009602E0B2420C
:1005D00014D1009590F83C50012D12D0012580F8DF
:1005E0003C5095686D0753D4009DAD686D074FD49E
:1005F000624501D0A24206D12D4A05E0012014B087
:10060000F0BD0220FBE72B4A0D6840F61F7425B3AE
:10061000956890F8306025F4604545EA46354E68A7
:10062000354395600568AE6806F00306012E02D1D9
:100630002D68ED0731D1009DAD6805F00305012D52
:1006400003D1009D2D68ED0727D10D6889680D4302
:100650009168A1430D4395601FE0916821F46041CA
:10066000916001688D6805F00305012D02D10968CC
:10067000C90712D10099896801F00301012903D14A
:1006800000990968C90708D19168A143916004E005
:10069000016C41F020010164012380F83C70184690
:1006A000ADE70000000100500004005000050050BC
:1006B0000003005000070050F0B594B000240094EF
:1006C00090F83C202546012A19D0012780F83C707B
:1006D00003689A6852077CD44A681F26052A11D2FB
:1006E000D3F830C002EB4202520096402CEA060CCE
:1006F0000E6896404CEA060CC3F830C035E0022084
:1007000014B0F0BD0A2A0FD2D3F834C0521F02EB46
:100710004202520096402CEA060C0E6896404CEAC3
:10072000060CC3F834C020E00F2A0FD2D3F838C02B
:100730000A3A02EB4202520096402CEA060C0E687E
:1007400096404CEA060CC3F838C00EE0D3F83CC023
:100750000F3A02EB4202520096402CEA060C0E6859
:1007600096404CEA060CC3F83CC00268936813F04C
:100770000C0F4FF0070374D1D1F800E0BEF10A0F5F
:1007800010D39669AEF10A0E0EEB4E0C03FA0CFE76
:1007900026EA0E06D1F808E00EFA0CFE46EA0E062E
:1007A00096610FE0D2F814C00EEB4E0603FA06FE77
:1007B0002CEA0E0CD1F808E00EFA06FE4CEA0E0CFC
:1007C000C2F814C002684E69D2F80CC0CCF3C10C58
:1007D00000E0FDE04FEA4C0C06FA0CF6D1F810E010
:1007E000DFF848C2BEF1010F42D0BEF1020F4DD07A
:1007F000BEF1030F58D0BEF1040F63D0166E91F80E
:1008000000C006F0F846B6EB8C6F03D1166E26F0EA
:10081000004616660268566E91F800C006F0F8466B
:10082000B6EB8C6F03D1566E26F000465666026812
:10083000966E91F800C006F0F846B6EB8C6F03D1C7
:10084000966E26F0004696660268D66E91F800C055
:1008500006F0F846B6EB8C6F03D1D66E26F0004654
:10086000D6660268966806F00306012E3AD136E095
:10087000D2F860E00EEA0C0E91F800C046EA8C66F1
:100880004EEA060E4EF000461666EAE7D2F864E03D
:100890000EEA0C0E91F800C046EA8C664EEA060E8F
:1008A0004EF000465666DCE7D2F868E00EEA0C0E21
:1008B00091F800C046EA8C664EEA060E4EF00046FD
:1008C0009666CEE7D2F86CE00EEA0C0E91F800C006
:1008D00046EA8C664EEA060E4EF00046C0E7166801
:1008E000F6077AD1CE68012E06D052F8B03F0E78C6
:1008F000B740BB43136021E052F8B06F91F800C0DD
:1009000007FA0CF73E4316600A680A2A0BD30668FA
:10091000B769093A02EB420293409F438B689340C8
:100920001F43B7610AE007687E69521C02EB42026E
:1009300093409E438B6893401E437E6103684FF053
:10094000A0473B4EBB4201D0B34201D1394A00E03F
:10095000394A0968102904D0112907D012290AD070
:100960003BE0D2F808C04FEA0C2C08E0D2F808C0EF
:100970004FEACC1C03E0D2F808C04FEA4C2CBCF183
:10098000000F2ADBBB420DD0B34201D100970CE02F
:100990002A4EDFF8ACC0B34202D1CDF800C004E06B
:1009A000634501D1009600E000959E6806F00306BD
:1009B000012E02D11E68F6070AD1009E8EB1B668DC
:1009C00006F00306012E0CD1009E3668F60708D00B
:1009D000016C41F020010164012480F83C50204664
:1009E0008EE6102908D011291AD01229F5D1916864
:1009F00041F480019160F0E7BB42EED1916841F48F
:100A0000000191600F49104A0968B1FBF2F101EB56
:100A10008101490000E0491E00910029FBD1DCE77B
:100A2000BB42DAD1916841F08071E3E700F0FF83C7
:100A30000001005000030050000700500004005067
:100A4000000500502800002040420F00F0B54FF094
:100A5000000695B0040037463546009605D0206C58
:100A6000C00648D4206C18B133E0012015B0F0BDA9
:100A70006564E564A56484F83C50204600F00CF9F8
:100A800020688068C00024D42046FFF7C9FC0646D1
:100A9000206CC0061DD4E6B9206C20F4885040F0CC
:100AA000020020642068816821F040518160206844
:100AB000816841F0805181606E486F490068B0FBE9
:100AC000F1F000EB8000400000E0401E00900028A4
:100AD000FBD120688168C90002D5806880000AD5F2
:100AE000206C20F0020040F010002064606C40F0A8
:100AF000010060640126206CC00676D4002E74D1FB
:100B000020688168490770D4216C21F4807141F01C
:100B1000020121644FF0A04E584B704501D098421D
:100B200001D1574A00E0574ADFF85CC15749704588
:100B300001D100930EE0984202D1CDF800E009E027
:100B4000884202D1CDF800C004E0604501D1009197
:100B500000E00095836803F00303012B02D10068D5
:100B6000C00710D1009840B1806800F00300012850
:100B700003D100980068C00705D19068636820F42D
:100B8000403018439060D4E902201043626B012A80
:100B900002D04FF4805300E00023627E43EA4233E8
:100BA000184394F820303843012B0AD1F2B1226C5B
:100BB00022F0020242F020022264626C42F0010242
:100BC0006264A26A012A21D023688B4201D0634566
:100BD00018D14FF430774FF4E071BA4213D04FF48C
:100BE00080739A420AD139460DE039E0A28C284B35
:100BF00003EB4242024342F48030E2E78A4201D1F1
:100C0000194600E011460143E06A084321688A68FA
:100C100012F00C0F0BD1CA6844F202039A43CA6067
:100C2000217E94F83020890341EA4201084322687A
:100C3000D168184B19400143D16020690128206810
:100C4000016B21F00F0102D1E269521E11430163D1
:100C50006564206C20F0020040F00100206406E092
:100C6000206C20F0020040F0100020640126304685
:100C7000FCE600002800002040420F000001005068
:100C80000003005000070050000500500004005011
:100C90000000FEFF07C0F0FF10B586B00446142127
:100CA0006846FFF758FB2068B0F1A04F1BD10F48F2
:100CB000416941F080514161416901F080510591E4
:100CC000416941F4003141614069694600F40030F6
:100CD00005900220009003200190002002904FF028
:100CE000904000F0E3F906B010BD00000010024093
:100CF00070B5040003D094F8200010B104E0012086
:100D000070BD204600F082F82068016841F00101C2
:100D1000016000F0C5FA0546052604E000F0C0FABF
:100D2000401B0A2811D820684068C007F6D0206808
:100D3000016821F00201016000F0B2FA05460BE003
:100D400000F0AEFA401B0A2806D9606A40F4003071
:100D5000606284F82060D2E7206840688007EFD4A2
:100D6000207E0128206801683DD021F080010160CB
:100D7000607E01282068016838D021F040010160C0
:100D8000A07E01282068016833D021F02001016095
:100D9000E07E0128206801682ED041F0100101603A
:100DA000207F01282068016829D021F00801016016
:100DB000607F01282068016824D021F004010160CF
:100DC000D4E902010843D4E90412114308436168DD
:100DD000491E08432168C86100206062012084F830
:100DE0002000002070BD41F08001C0E741F04001CB
:100DF000C5E741F02001CAE721F01001CFE741F03B
:100E00000801D4E741F00401D9E7000010B586B02D
:100E1000044614216846FFF79EFA13492068884269
:100E20001FD11248C16941F00071C161C16901F06F
:100E300000710591416941F4802141614069694631
:100E400000F4802005904FF4407000900220019043
:100E5000002002900320039009200490044800F031
:100E600025F906B010BD00000064004000100240EB
:100E70000004004810B590F821100022022905D086
:100E80000421816380F82020012010BD01680B68D7
:100E900023F00E030B6001680B6823F001030B6065
:100EA00090F84030C46B012101FA03F3636080F8CD
:100EB000211080F82020002010BD10B590F82110DE
:100EC0000024022903D004218163012418E0016871
:100ED0000A6822F00E020A6001680A6822F0010224
:100EE0000A6090F84020C36B012101FA02F25A60B7
:100EF00080F82110002180F82010416B01B1884753
:100F0000204610BDF0B4C16B0D6801680C68066C1A
:100F1000042202FA06F32B420FD063070DD50B68AB
:100F20009B0603D40B6823F004030B6090F8401079
:100F30008A40C16B4A60C16A1BE0022303FA06F7CC
:100F40002F424FF0000C4FF0010216D0A70714D526
:100F50000C68A40605D40C6824F00A040C6080F820
:100F6000212090F840108B40C16B4B6080F820C06E
:100F7000816A002918D0F0BC08470823B3402B42EF
:100F800012D0230710D50B6823F00E030B6090F8E6
:100F90004010C36B02FA01F15960826380F821208E
:100FA00080F820C0016BE4E7F0BC704770B5040026
:100FB00021D0022084F821002268116843F6F070E5
:100FC0008143D4E901031843D4E903352B43184383
:100FD00063691843A3691843E36918430843106021
:100FE0002046FFF78BFA0020A063012184F821102E
:100FF00084F8200070BD012070BD70B5044690F8E3
:101000002000002501280CD0012084F8200094F84D
:1010100021600020012E06D084F8200002252846F9
:1010200070BD022070BD022684F82160A063206894
:10103000066826F0010606602046FFF77DFAE06AA2
:1010400000282068016802D041F00E0106E041F05E
:101050000A0101602068016821F004010160206834
:10106000016841F001010160D9E7000070B5044654
:1010700000F016F90546601C02D0044800780444CC
:1010800000F00EF9401BA042FAD370BD1C000020F6
:1010900070470000044910B50A68024202D0086097
:1010A000FFF7F6FF10BD0000140401402DE9F04FDA
:1010B000DFF8AC91002309F1040A03250AF1040BBF
:1010C00085B04FF0010C0F270BF1040EBFE000BFFD
:1010D0000CFA03F6324075D00C7904F00304012CAD
:1010E00001D0022C1BD1846800945C0005FA04F83E
:1010F0000494009C24EA08040094D1F80C80049C19
:1011000008FA04F8009C48EA0408C0F8088044681B
:10111000B4430E79C6F300169E40264346600C7910
:10112000E443A4070AD0C4684FEA430805FA08F666
:10113000B4438E6806FA08F62643C6600C7904F0BC
:101140000304022C10D1DC0800EB84040294246A0E
:101150005E074FEAD66807FA08F6B4430E6906FA46
:1011600008F62643029C266204684FEA430805FA03
:1011700008F6B4430E7906F0030606FA08F626438D
:1011800006604C6814F4403F60D0364CA66946F0C7
:101190000106A661A46923F0030604F0010400948B
:1011A000314C34440294A4689E074FEA167807FA3B
:1011B00008F6B443B0F1904F05D02C4EB04204D1A4
:1011C000012612E042E000260FE0294EB04201D194
:1011D00002260AE0274EB04201D1032605E0264E42
:1011E000B04201D1042600E0052606FA08F626439F
:1011F000029CA660D9F800604C46D1F80480964362
:101200005FEAC83800D516432660DAF80040564633
:10121000D1F8048094435FEA883800D514433460E1
:10122000DBF800405E46D1F8048094435FEAC828AA
:1012300000D514433460DEF800407646D1F80480CF
:1012400094435FEA882800D5144334605B1C0A6825
:1012500032FA03F47FF43CAF05B0BDE8F08F000034
:10126000000401400010024000000140000400485A
:1012700000080048000C00480010004800690840C1
:1012800000D001207047426921EA02030A4043EA84
:101290000241816170470AB1816170478162704784
:1012A00001488068704700001C00002070B50400F1
:1012B00011D021684CF6CC400860216845F25550A9
:1012C0000860D4E9000141602168A0688860FFF7E8
:1012D000E7FF05460DE0012070BD00BFFFF7E0FF0E
:1012E000401B272805D92068C068400701D003208B
:1012F00070BD2068C0684007F0D120680269E168CD
:101300008A4201D0016102E04AF6AA210160002070
:1013100070BD00684AF6AA210160002070470000F5
:101320000248816802781144816070471C000020E7
:10133000074810B5016841F010010160032000F07A
:101340006DF80F2000F006F800F024F8002010BD22
:101350000020024070B50D4D04464FF47A71287894
:10136000B1FBF0F00A490968B1FBF0F000F04EFE65
:1013700048B9102C07D200222146501E00F02EF84A
:1013800000206C6070BD012070BD00001C000020BA
:1013900028000020094808B5816941F001018161F8
:1013A000816901F001010091C16941F08051C16181
:1013B000C06900F08050009008BD0000001002409D
:1013C000002809DB00F01F02012191404009800044
:1013D00000F1E020C0F8001170470000F0B40E4B9F
:1013E0001B680C46C3F30223C3F10705042D00D983
:1013F0000425191D072901D2002300E0DB1E012668
:1014000006FA05F1491E214099409E40761E16407D
:101410003143F0BC03F0CDB80CED00E0064900F01C
:10142000070208684FF6FF03184040EA0220034A0B
:1014300010430860704700000CED00E00000FA0562
:101440002DE9F84F044600680026804DC0036ED594
:10145000E869C00008D4E86940F08050E861E869B4
:10146000012600F08050009079480168C90512D427
:101470000168804641F480710160FFF711FF074663
:1014800005E000BFFFF70CFFC01B642835D8D8F873
:101490000000C005F6D5286A10F4407053D0A1882A
:1014A00001F4407181424ED0286A4FF4803191FAA4
:1014B000A1F2B2FA82F29700664A4FF0010817448F
:1014C00020F44070C7F8008491FAA1F1B1FA81F1DB
:1014D00002EB81010023C1F800342862C00732D03A
:1014E000FFF7DEFE074641F2883A4FF0020907E0B7
:1014F000FFF7D6FEC11B514502D90320BDE8F88F86
:1015000099FAA9F0B0FA80F040F040024946B8EBF1
:10151000521F01D12A680CE091FAA1F2B2FA82F2CC
:1015200042F04002B1EB521F02D12A6A01E015E0FD
:101530006A6A99FAA9F1B1FA81F101F01F0108FA7A
:1015400001F00242D4D0286A616820F44070084358
:1015500028621EB1E86920F08050E8612078C00759
:1015600005D0286BA16820F0030008432863207889
:10157000800705D5286BE16820F4403008432863D4
:101580002078400705D5286B216920F440200843C6
:1015900028632078800605D5286BE16920F01000CB
:1015A000084328632068800305D56868A16B20F490
:1015B0008000084368602078400605D5286B216AC2
:1015C00020F02000084328632078000705D5286B09
:1015D000616920F44010084328632078C00605D5CF
:1015E000286BA16920F44000084328632088800507
:1015F00005D56868E16A20F4000008436860207837
:10160000000605D5E86A616A20F4F8700843E862CC
:101610002088C00505D5E86AA16A20F478500843FF
:10162000E8622088C00405D5286B216B20F4807007
:10163000084328632088800405D5286B616B20F45B
:10164000007008432863002058E7000000100240A3
:1016500000700040000042422DE9F0470F460500AF
:1016600069D04A4E306800F00700B84209D23068AD
:1016700020F0070038433060306800F00700B842BF
:1016800059D12878424C800705D56068A96820F0B8
:10169000F000084360602878C0073DD069680120E9
:1016A00001290DD0022923D05FF0020393FAA3F29F
:1016B000B2FA82F242F02002520904D0226803E01A
:1016C0004FF40033F2E7626A93FAA3F3B3FA83F3B9
:1016D00003F01F03984002422DD0606820F0030001
:1016E00008436060FFF7DCFD804641F288390CE07A
:1016F0004FF00073DAE700BFFFF7D2FDA0EB08015F
:10170000494502D90320BDE8F0876068696800F0A8
:101710000C00B0EB810FEFD1306800F00700B84249
:101720000BD9306820F0070038433060306800F093
:101730000700B84201D00120E5E72878400705D529
:101740006068E96820F4E06008436060287800077A
:1017500006D56068296920F4605040EAC1006060E5
:1017600000F04EF86168F02292FAA2F201F0F00166
:10177000B2FA82F2D140074A515CC840064908607B
:1017800006480068FFF7E6FD0020BCE700200240A5
:10179000001002406E5000082800002020000020A9
:1017A00008480949006849684FF4E06292FAA2F2D9
:1017B00001F4E061B2FA82F2D140044A515CC840BF
:1017C0007047000028000020001002407E500008F2
:1017D00008480949006849684FF4605292FAA2F239
:1017E00001F46051B2FA82F2D140044A515CC8401F
:1017F0007047000028000020001002407E500008C2
:10180000164A10B55168164801F00C03042B20D07D
:10181000082B1ED14FF4701494FAA4F401F4701341
:10182000B4FA84F4E3400F4CD26AE45C0F2393FAD9
:10183000A3F302F00F02B3FA83F3DA40094B10333B
:10184000C9039A5C06D500231946FEF70DFDA0FBDF
:10185000040110BD0448A4FB000110BD00100240AB
:1018600000127A004E50000800093D002DE9F84FA3
:10187000050071D02878FC4EC0074FF0010425D038
:1018800070686704C0F38100012807D07068C0F356
:10189000810002281BD17068C00318D597FAA7F001
:1018A000B0FA80F040F02000400901D0306800E03C
:1018B000706A97FAA7F1B1FA81F101F01F0104FAF9
:1018C00001F1084265D068680028D2D061E06868FC
:1018D000B0F5803F0BD010B1B0F5A02F17D0306815
:1018E00020F480303060306820F4802002E03068DE
:1018F00040F480303060F06AA96820F00F0008439F
:10190000F062686820B3FFF7CBFC80460AE03068DD
:1019100040F480203060EAE7FFF7C2FCA0EB08004B
:10192000642871D897FAA7F0B0FA80F040F0200050
:10193000400901D0306800E0706A97FAA7F1B1FA67
:1019400081F101F01F0104FA01F10842E4D020E026
:10195000FFF7A6FC804607E0C2E000BFFFF7A0FC4F
:10196000A0EB08006428DCD897FAA7F0B0FA80F062
:1019700040F02000400901D0306800E0706A97FA1A
:10198000A7F1B1FA81F101F01F0104FA01F1084257
:10199000E4D12878DFF8D48280074FF0000A4FF0B6
:1019A000020730D570684FF0F80B10F00C0F07D01D
:1019B0007068C0F38100022827D17068C00324D466
:1019C00097FAA7F0B0FA80F040F02000400901D06B
:1019D000306800E0706A97FAA7F1B1FA81F101F07E
:1019E0001F0104FA01F1084202D02869012877D1C9
:1019F00030689BFAABF220F0F8016869B2FA82F223
:101A00009040014331605AE064E1286988B394FA58
:101A1000A4F0B0FA80F048F82040FFF741FC81467E
:101A200006E000BFFFF73CFCA0EB090002289AD8B3
:101A300097FAA7F0B0FA80F040F02000400901D0FA
:101A4000306800E0706A97FAA7F1B1FA81F101F00D
:101A50001F0104FA01F10842E4D030689BFAABF2AE
:101A60006969B2FA82F220F0F800914008433060D0
:101A700025E0FFE794FAA4F0B0FA80F048F820A03F
:101A8000FFF70EFC814605E0FFF70AFCA0EB09001A
:101A90000228CCD897FAA7F0B0FA80F040F02000E6
:101AA000400901D0306800E0706A97FAA7F1B1FAF6
:101AB00081F101F01F0104FA01F10842E4D1287814
:101AC00000076CD5A869A8B394FAA4F0B0FA80F026
:101AD00008EB8000C0F88044FFF7E2FB814607E096
:101AE000A4E100BFFFF7DCFBA0EB090002289ED8B1
:101AF00097FAA7F0B0FA80F040F06000B4EB501F06
:101B000001D130680BE097FAA7F0B0FA80F040F00E
:101B10006000B7EB501F01D1306A00E0706A97FA9D
:101B2000A7F1B1FA81F101F01F0104FA01F21042AC
:101B3000D8D034E0FFE794FAA4F1B1FA81F108EBD0
:101B40008101C1F880A4FFF7ABFB814606E000BF2E
:101B5000FFF7A6FBA0EB090002289AD897FAA7F096
:101B6000B0FA80F040F06000B4EB501F01D1306853
:101B70000BE097FAA7F0B0FA80F040F06000B7EB06
:101B8000501F01D1306A00E0706A97FAA7F1B1FAEC
:101B900081F101F01F0104FA01F21042D8D1287836
:101BA000400768D5F0694FF00009C00009D4F0691A
:101BB00040F08050F061F0694FF0010900F0805072
:101BC00000902B480168C90512D4016841F4807166
:101BD0000160FFF765FB834606E000BFFFF760FB8F
:101BE000A0EB0B00642875D821480068C005F5D526
:101BF000E86801280AD008B1052811D0306A20F021
:101C000001003062306A20F0040002E0306A40F0E7
:101C100001003062E86868B3FFF742FB83460DE0DD
:101C2000306A40F004003062F0E700BFFFF738FB95
:101C3000A0EB0B0141F2883081424BD897FAA7F014
:101C4000B0FA80F040F04000B4EB501F01D1306892
:101C500013E097FAA7F0B0FA80F040F04000B7EB3D
:101C6000501F09D1306A08E00010024000004242D3
:101C7000007000400CE040E0706A97FAA7F1B1FAFA
:101C800081F101F01F0104FA01F21042CED02DE0E3
:101C9000FFF706FB834607E0FFF702FBA0EB0B0113
:101CA00041F28830814215D897FAA7F0B0FA80F057
:101CB00040F04000B4EB501F01D130680CE097FABF
:101CC000A7F0B0FA80F040F04000B7EB501F02D10F
:101CD000306A01E083E0706A97FAA7F1B1FA81F106
:101CE00001F01F0104FA01F21042D5D1B9F1000F41
:101CF00003D0F06920F08050F061E86980B371682A
:101D0000C1F38101022977D04FF080714F00022882
:101D1000504609D091FAA1F1B1FA81F148F82100B9
:101D2000FFF7BEFA05465DE0894691FAA1F1B1FAE6
:101D300081F1C24648F82100FFF7B2FA804605E07B
:101D4000FFF7AEFAA0EB0800022848D897FAA7F0F0
:101D5000B0FA80F040F02000400902D0306801E085
:101D600066E0706A97FAA7F1B1FA81F101F01F01FC
:101D700004FA01F10842E3D1D5E90810084371687B
:101D800021F474110843706099FAA9F0B0FA80F058
:101D90004AF82040FFF784FA054604E0FFF780FA8E
:101DA000401B02281BD897FAA7F0B0FA80F040F049
:101DB0002000400901D0306800E0706A97FAA7F16E
:101DC000B1FA81F101F01F0104FA01F10842E5D0F6
:101DD0002EE000BFFFF764FA401B022802D903205F
:101DE000BDE8F88F97FAA7F0B0FA80F040F0200035
:101DF000400902D0306801E00BE0706A97FAA7F161
:101E0000B1FA81F101F01F0104FA01F10842E1D1B8
:101E10000EE00128E4D070682A6A00F48031914213
:101E200004D1696A00F47010884201D00120D7E71C
:101E30000020D5E72DE9F0411D4616460F46040067
:101E400002D0A06F18B108E00120BDE8F0810020A9
:101E500084F87400204601F043F92420A06720682C
:101E6000016821F001010160204602F039FA0128E1
:101E7000EBD0606A10B1204602F019F92068816841
:101E800041F4804181602068816821F40041394338
:101E90008160700540EA054120680268064B1A40DF
:101EA0000A4302602068016841F001010160204698
:101EB000BDE8F04102F05FB9FFFF00FC70B504001F
:101EC00009D0606A002540B125616561A56294F87A
:101ED0005D0040B10CE0012070BD6068B0F5827F0C
:101EE000F4D0E561F2E784F85C50204600F05CF83D
:101EF000022084F85D002068016821F04001016043
:101F0000E1684FF4E062914201D9002001E04FF412
:101F10008050B1F5706F02D0914200D0A562A188C7
:101F2000228901F4827102F404421143227C02F0FE
:101F300002021143227D02F001021143228B02F4BE
:101F400000721143227F02F03802114394F82020DE
:101F500002F080021143228D02F4005211432268E4
:101F60001160A169042202EA114194F8242000F4CE
:101F7000805002F01002114394F8342002F008025D
:101F80001143A28902F47062114301432068416049
:101F90002068C16921F40061C1612566012084F8CF
:101FA0005D00002070BD000010B586B0044614210D
:101FB0006846FEF7D0F91349206888421FD11248BD
:101FC000816941F480518161816901F480510591F9
:101FD000416941F4003141614069694600F40030D3
:101FE0000590F02000900220019000200290032034
:101FF0000390052004904FF09040FFF757F806B08B
:1020000010BD0000003001400010024010B5401E1D
:10201000B0F1807F01D3012010BD4FF0E02460615A
:102020000F21601702F0C5FA0020A061072020618F
:10203000002010BD704770477047000030B590F821
:102040003C20012A3AD0012280F83C20CA688B68E3
:1020500022F440721A434B6822F480621A430B68E0
:1020600022F400621A430B6922F480521A434B692E
:1020700022F400521A438B6A22F480421A430B8BDB
:1020800022F4702242EA03420D4D03680024AB4261
:1020900002D00C4DAB420CD18D8C22F4700242EA7E
:1020A0000552CD6922F080722A43096A22F000723B
:1020B0000A435A6480F83C40002030BD022030BD05
:1020C000002C014000340140F0B590F83C20012A7A
:1020D00036D0012480F83C40022280F83D2002687E
:1020E00053689568174E184FB24201D0BA4204D1D6
:1020F00023F4700C4B6843EA0C0323F0700C0B685C
:1021000043EA0C0353600268B2420DD0B2F1804F33
:102110000AD00E4B9A4207D00D4B9A4204D0BA42D5
:1021200002D00C4B9A4204D1896825F080031943F0
:10213000916080F83D40002180F83C100846F0BDD9
:102140000220F0BD002C014000340140000400409A
:10215000000800400040014010B5040003D094F88E
:102160003D0010B107E0012010BD002084F83C00C4
:10217000204600F023F8022084F83D00211D20684D
:1021800001F058FC012084F8480084F83E0084F8EF
:102190003F0084F8400084F8410084F8420084F84D
:1021A000430084F8440084F8450084F8460084F82D
:1021B000470084F83D00002010BD00002DE9F043E9
:1021C00087B0044614216846FEF7C5F83D4A2068EA
:1021D0003D4990420ED1C86940F01000C861C869FD
:1021E000002200F01000059011463620FFF7F6F8A7
:1021F000362064E0354B0025102280264FF480788D
:102200004FF4006998421CD1886940F4803088619D
:102210008869304F00F4803005902D4887E86503C9
:102220005002C7E906503846FEF7C0FE08B1FEF777
:10223000B4F967622762A76367637C6207B0BDE891
:10224000F083254B9842F9D1886940F400308861C9
:10225000886900F400300590486940F480204861A6
:102260004869694600F4802005900220CDE90020ED
:102270000320CDE90250012004901848FEF716FF14
:10228000144F134844372838C7E900052020C7E910
:1022900005904FF44050F86107F10803384683E891
:1022A0006001FEF783FE08B1FEF777F967622762E7
:1022B0000022114619207C62FFF790F81920FFF7E1
:1022C0007FF8BBE7001000400010024000400140D2
:1022D00058000240C8360020004401400004004875
:1022E00090F83D10012901D001207047022180F8AB
:1022F0003D100168CA6842F00102CA6000681049D6
:1023000088420ED0B0F1804F0BD00E49884208D0E1
:102310000D49884205D00D49884202D00C498842B7
:1023200007D181680B4A1140062906D0B1F5803FDC
:1023300003D0016841F001010160002070470000F6
:10234000002C01400004004000080040003401401F
:10235000004001400700010070B5044690F83C00C1
:102360000025012817D0012684F83C60022084F85B
:102370003D00226890682F4B184020F47F40906009
:102380000868502838D00DDC20284FD005DC90B3E9
:10239000102811D14AE0022070BD302846D04028D4
:1023A0000AD13BE060282FD070280DD0B0F5805FB7
:1023B00003D0B0F5005F12D0012584F83D60002005
:1023C00084F83C00284670BDCB68D1E90121206823
:1023D00001F05DFC2068816841F0770109E0CB687D
:1023E000D1E90121206801F052FC2068816841F4A4
:1023F00080418160E1E719E0CA684968206801F01E
:10240000E1FD5021206806E0CA684968206801F0B3
:1024100021FE6021206801F044FCCEE7CA684968CB
:10242000206801F0CFFD40212068F4E722680146D2
:102430001046F0E788FFFEFF7047000001490120C9
:10244000087070470000002070472DE9F0410546F4
:1024500090F83C0000260C46012810D0012085F899
:102460003C0072B1042A1CD0082A2CD00C2A50D06F
:102470000126002085F83C003046BDE8F0810220AE
:10248000FBE7D4E90012E368286801F0ADFD286895
:10249000816921F00C01816128688169A26811437A
:1024A0000FE0D4E90012E368286801F0E5FD286830
:1024B000816921F44061816128688169A26841EAEB
:1024C00002218161D5E72868D4E9002C277B016AC5
:1024D00021F480710162C169036A21F0030141EABC
:1024E0000C0121F0F00C39074FF420674CEA116120
:1024F00023F4206307EA02221A43C16102622868BA
:10250000C16921F00C01C1612868C169A268114349
:1025100028E02868D4E90027E168036A23F480539F
:102520000362D0F81CC0036A2CF4407C4CEA0727F5
:102530004FF6FF7C27F470470CEA013139434FF422
:10254000204723F4204307EA02321A43C1610262A2
:102550002868C16921F44061C1612868C169A26825
:1025600041EA0221C16184E710B5040003D094F868
:102570003D0010B107E0012010BD002084F83C00B0
:10258000204600F022F8022084F83D00211D20683A
:1025900001F050FA012084F8480084F83E0084F8E5
:1025A0003F0084F8400084F8410084F8420084F839
:1025B000430084F8440084F8450084F8460084F819
:1025C000470084F83D00002010BD70472DE9F04120
:1025D0001F4690460D0004464FF0000613D0042D10
:1025E00016D0082D19D00C2D1CD0102D1DD094F80C
:1025F000430000BF94F84710022819D0022917D0D1
:10260000012818D0BFE094F83E0094F84410F3E796
:1026100094F83F0094F84510EEE794F8400094F8E1
:102620004610E9E794F84100E4E794F84200E1E756
:102630000220BDE8F08101297ED1B8F1000F01D15F
:10264000002F79D10220E5B3042D41D0082D44D0CC
:102650000C2D47D0102D48D084F8430084F8470053
:1026600001222946206801F03DFA4A484A494B4A6E
:1026700045B3042D4FD0082D63D00C2D75D0012605
:102680004749206888420ED0B0F1804F0BD04549B1
:10269000884208D04449884205D04449884202D043
:1026A0004349884207D18168424A1140062906D031
:1026B000B1F5803F03D0016841F00101016030466F
:1026C000B7E700E014E084F83E0084F84400C7E770
:1026D00084F83F0084F84500C2E784F8400084F89D
:1026E0004600BDE784F84100B8E784F84200B5E74A
:1026F000636A9862606A3B46C162606A02632168ED
:1027000042463431606AFEF778FCA8B92068C16897
:1027100041F4007113E0A36A9862A06A3B46C1626B
:10272000A06A0263216842463831A06AFEF765FC60
:1027300010B92068C16800E025E041F48061C16003
:102740009EE7E36A9862E06A3B46C162E06A026320
:10275000216842463C31E06AFEF74FFC98B9206898
:10276000C16841F40061EAE7FFE7236B9862206BE0
:102770003B46C162206B0263216842464031206BB8
:10278000FEF73BFC08B1012053E72068C16841F423
:102790008051D4E7FF3A00086D3B00083B3C00083D
:1027A000002C0140000400400008004000340140BB
:1027B000004001400700010070B5044600260D46A8
:1027C0000068324601F08EF93DB1042D0CD0082D81
:1027D00011D00C2D16D0012638E02068C16821F4F4
:1027E0000071C160606A13E02068C16821F48061F3
:1027F000C160A06A0CE02068C16821F40061C1607A
:10280000E06A05E02068C16821F48051C160206B56
:10281000FEF753FB2068016A41F21112114207D101
:10282000016A9210114203D1016821F00101016097
:1028300001206DB1042D0ED0082D0FD00C2D11D01C
:10284000102D12D084F8430084F84700304670BD44
:1028500004F83E0F04E004F83F0F01E004F8400FD5
:10286000A071F3E784F84100EEE784F84200EBE75B
:1028700070B50446006801694FF00005C943890737
:1028800015D4C168C943890711D4E91E016101202B
:102890002077206880698007204602D0FFF7CEFDB0
:1028A00004E000F0D3F8204600F095F92577206881
:1028B0000169C943490717D4C168C943490713D4FB
:1028C0006FF004010161022020772068806910F414
:1028D000407F204602D0FFF7B1FD04E000F0B6F8DB
:1028E000204600F078F9257720680169C943090777
:1028F00016D4C168C943090712D46FF008010161F9
:10290000042020772068C0698007204602D0FFF7A6
:1029100095FD04E000F09AF8204600F05CF9257778
:1029200020680169C943C90617D4C168C943C906EB
:1029300013D46FF010010161082020772068C0696E
:1029400010F4407F204602D0FFF778FD04E000F04D
:102950007DF8204600F03FF9257720680169C943DA
:10296000C90708D1C168C943C90704D1891E0161DB
:10297000204600F031FA20680169C943090609D4EC
:10298000C168C943090605D46FF080010161204682
:10299000FFF751FB20680169C943C90509D4C16823
:1029A000C943090605D46FF4807101612046FFF721
:1029B00041FB20680169C943490609D4C168C9437C
:1029C000490605D46FF040010161204600F005FA88
:1029D00020680169C94389060BD4C168C9438906C7
:1029E00007D46FF0200101612046BDE87040FFF779
:1029F00023BB70BD10B586B0044614216846FDF7B0
:102A0000AAFC0F492068884217D10E48416941F459
:102A1000800141614069694600F4800005904FF4EF
:102A2000007000900220019001200290002003908D
:102A3000032004900448FEF739FB06B010BD0000E7
:102A4000004001400010024000140048704770B57B
:102A5000044690F83C0000260D4601280BD00120CA
:102A600084F83C000C2A4AD007DC82B1042A20D02A
:102A7000082A06D131E0022070BD102A53D0142A52
:102A800063D00126002084F83C00304670BD2068E9
:102A900001F010F92068816941F008018161206826
:102AA000816921F004018161206881692A691143EB
:102AB00011E0206801F04CF92068816941F400615F
:102AC00081612068816921F4806181612068816968
:102AD0002A6941EA02218161D4E7206801F080F986
:102AE0002068C16941F00801C1612068C16921F015
:102AF0000401C1612068C1692A69114311E020689D
:102B000001F0B6F92068C16941F40061C161206833
:102B1000C16921F48061C1612068C1692A6941EA03
:102B20000221C161AEE7206801F0DCF92068416D47
:102B300041F0080141652068416D21F004014165C3
:102B40002068416D2A69114311E0206801F002FA02
:102B50002068416D41F4006141652068416D21F4B8
:102B6000806141652068416D2A6941EA0221416521
:102B700088E710B5040003D094F83D0010B107E0D9
:102B8000012010BD002084F83C00204600F022F80F
:102B9000022084F83D00211D206800F04BFF012039
:102BA00084F8480084F83E0084F83F0084F8400030
:102BB00084F8410084F8420084F8430084F844001B
:102BC00084F8450084F8460084F8470084F83D0006
:102BD000002010BD70477047704700002DE9F0419C
:102BE00017460D0004464FF0000610D0042D15D0F6
:102BF000082D1AD00C2D1FD0102D24D094F843008E
:102C0000022827D094F84300012826D07CE094F8CD
:102C10003E0002281ED094F83E00F5E794F83F00ED
:102C2000022817D094F83F00EEE794F840000228FD
:102C300010D094F84000E7E794F84100022809D04A
:102C400094F84100E0E794F84200022802D094F89A
:102C50004200D9E70220BDE8F08107B993BB534990
:102C6000534ADFF850C1022055B1042D19D0082D68
:102C700029D00C2D38D0102D48D084F8430047E0DF
:102C800084F83E00606A8162606A3946C262606AA6
:102C9000C0F830C02268606A3432FEF7AEF988B9F5
:102CA00038E084F83F00A06A8162A06A3946C262B7
:102CB000A06AC0F830C02268A06A3832FEF79DF9D9
:102CC00000B92CE020E084F84000E06A8162E06A0C
:102CD0003946C262E06AC0F830C02268E06A3C321D
:102CE000FEF78BF980B91FE084F84100206B816208
:102CF000206B3946C262206BC0F830C02268206B5E
:102D00004032FEF77AF9A0B10120A4E784F842002E
:102D1000012648E02068C16841F400710DE0206898
:102D2000C16841F4806108E02068C16841F4006135
:102D300003E02068C16841F48051C1600122294646
:102D4000206800F0CFFE1C4920681C4A1C4B8842BA
:102D500009D0904207D0984205D01A4DA84202D01F
:102D6000194DA84203D1456C45F4004545642068DF
:102D700088420CD0B0F1804F09D01449884206D067
:102D80001349884203D0904201D0984207D181680C
:102D9000104A1140062906D0B1F5803F03D00168E2
:102DA00041F001010160304655E70000A53B0008F5
:102DB000033C00083B3C0008002C0140003401406B
:102DC0000040014000440140004801400004004030
:102DD00000080040070001007047704770477047C7
:102DE000704700002DE9F04102680446D06911687F
:102DF000936840F60F0528424FF0000505D186067E
:102E00007ED58E067CD5616E1AE1994F03F00106DE
:102E10000F40374374D0C70709D0CF0507D5012726
:102E20001762D4F8802042F00102C4F880208207A3
:102E30000AD5DA0708D0276802223A62D4F880203F
:102E400042F00402C4F8802042070AD5DA0708D00D
:102E5000236804221A62D4F8802042F00202C4F8E7
:102E6000802002070CD501F02002324308D02368ED
:102E700008221A62D4F8802042F00802C4F88020A8
:102E800002050BD54A0109D523684FF400621A6286
:102E9000D4F8802042F02002C4F88020D4F88020AA
:102EA000002A35D0800605D5880603D5616E09B1A4
:102EB00020468847D4F8800021688968490602D4F2
:102EC00010F0280F26D0204601F0D8F9206880683D
:102ED00040061AD52068083050E8001F21F0400154
:102EE00040E80012002AF5D1206F70B161494163BA
:102EF000206FFDF7E2FF00280AD0206F416B01E050
:102F00000EE02046BDE8F04108472046FFF768FF85
:102F1000BDE8F0812046FFF763FFC4F88050F7E773
:102F2000276E2026012F7AD1C70678D5CF0676D511
:102F30001020106220688068400640D5216F086824
:102F400040680004000CE3D0B4F858208242DFD976
:102F5000A4F85A00886920282AD0216851E8000F77
:102F600020F4807041E80002002AF6D12068083081
:102F700050E8001F21F0010140E80012002AF5D1BD
:102F80002068083050E8001F21F0400140E800129E
:102F9000002AF5D1E6672566216851E8000F20F088
:102FA000100041E80002002AF6D1206FFDF762FF11
:102FB000B4F85800B4F85A10401A81B22AE0B4F8B4
:102FC0005800B4F85A10401A81B2B4F85A000028D8
:102FD0009ED000299CD0226852E8000F20F4907007
:102FE00042E80003002BF6D12068083050E8002F9B
:102FF00022F0010240E80023002BF5D1E6672566A8
:103000006566226852E8000F20F0100042E80003D5
:10301000002BF6D12046FFF7E1FE79E7FFE7C70274
:1030200009D55B0207D54FF4801010622046BDE839
:10303000F041FFF7D4BE020606D50A0604D5A16EFC
:1030400000297FF45EAF63E74006E6D54806E4D585
:103050002046016851E8002F22F0400241E8002399
:10306000002BF6D18667856600F0A0F950E70000D6
:1030700020010004D341000810B5040002D0A06F65
:1030800010B107E0012010BD002084F87400204634
:1030900000F026F82420A0672068016821F00101D3
:1030A0000160204601F01CF90128ECD0606A10B1E3
:1030B000204600F0FCFF2068416821F49041416007
:1030C0002068816821F02A0181602068016841F050
:1030D000010101602046BDE8104001F04CB800003D
:1030E0002DE9F04F87B0044614216846FDF733F907
:1030F0007D497C4B226803277C488E1400254FF0C5
:1031000002084FF005094FF0100B4FF0800A9A4269
:1031100043D1CA6942F40022CA61CA6902F400229A
:1031200005924A6942F400224A61496902AA01F4FF
:1031300000210591B902CDE9001882E8A002694694
:10314000FDF7B4FF6B4F6A48D046C7E90005C7E9F1
:10315000025A3D6170007D61C7E906503846FDF7AF
:1031600025FF08B1FDF719FA27677C62614F6048B7
:1031700044372830C7E902583D617D61C7E9000B3B
:10318000C7E906563846FDF711FF08B1FDF705FA05
:10319000E7667C6207B0BDE8F08F574B9A422AD1B0
:1031A000CA6942F48012CA61CA6902F480120592A7
:1031B0004A6942F400224A614A6902F400220592F7
:1031C0004A6942F480124A614969CDE9025701F423
:1031D0008011CDE90491CDE900686946FDF766FFED
:1031E0000420CDE9000802AA694682E8A00243480B
:1031F000FDF75CFFCEE7424B07209A4222D18A6955
:1032000042F480428A618A6902F4804205924A69E6
:1032100042F400324A614969029501F40031059196
:103220004FF4C061CDE90018CDE9037069464FF055
:103230009040FDF73BFF002211462520FEF7CEF817
:1032400025204CE02F4B9A42A4D1CA6942F40032A7
:10325000CA61CA6902F4003205924A6942F48012D6
:103260004A614969029501F4801105917021CDE907
:103270000018CDE9037069462048FDF717FF1D4F80
:1032800021488837D046C7E90005C7E9025A3D61A1
:103290007D61C7E906563846FDF788FE08B1FDF79F
:1032A0007CF9144E2767CC367C62C6E90258164872
:1032B000356114307561C6E9000B4FF44050C6E922
:1032C00006503046FDF772FE08B1FDF766F9E66676
:1032D0000022114626207462FEF780F82620FEF7B1
:1032E0006FF857E7004C004000100240000800480B
:1032F000300402406039002000500040000C0048BB
:1033000000380140004400406C00024070B50446A3
:10331000806F202841D169B362B394F8740001280A
:103320003BD0012084F87400E164A4F85020A4F894
:1033300052200025C4F880502120A067E06ED8B14B
:1033400017498162E16E17481346C862E16E16485C
:103350000863E06E45632668E16C06F12802E06EC2
:10336000FDF74BFE40B11020C4F8800004F8745FF4
:1033700020206060012070BD21684020086284F830
:1033800074502068083050E8001F41F0800140E888
:103390000012002AF5D1002070BD022070BD00008F
:1033A0003342000873420008E74100087047704745
:1033B000FEE7000030B589B0002406940794182178
:1033C00068460894FCF7C7FF19484FF0A041012553
:1033D000C0E9001484600461447680F82040C0E9AC
:1033E0000A54C561C46080F830400421416104760C
:1033F0004463FDF72BFB08B1FDF7CFF806A90C4895
:103400000694FDF7CDF808B1FDF7C7F8022000904B
:103410000394CDE901540494694605480594FDF7E9
:103420004BF9002801D0FDF7B8F809B030BD000015
:10343000F83400200D4810B50B490160102141609F
:1034400000218160C1600161416101764176817630
:10345000C17601774177FDF74BFC002803D0BDE82A
:103460001040FDF79AB810BD0064004048350020B8
:10347000214808B5416941F002014161416901F00B
:1034800002010091416941F001014161406900225E
:1034900000F00100009011460D20FDF79FFF0D2068
:1034A000FDF78EFF002211460F20FDF797FF0F203A
:1034B000FDF786FF002211461020FDF78FFF102038
:1034C000FDF77EFF002211461120FDF787FF112036
:1034D000FDF776FF002211463A20FDF77FFF3A20E4
:1034E000FDF76EFF002211463C20FDF777FFBDE897
:1034F00008403C20FDF764BF001002402DE9F04F6A
:1035000087B014216846FCF726FF5548416941F40D
:1035100000214161416901F400210591416941F4B3
:1035200080014161416901F480010591416941F4E3
:1035300000314161416901F400310591416941F473
:1035400080214161416901F480210591416941F483
:1035500000114161416901F400110591416941F493
:10356000801141614069DFF8FC9000F4801042F264
:1035700020240590002221464846FDF78CFEDFF806
:10358000E8A04FF47066002231465046FDF783FEF6
:103590004FF400474FF0904B002239465846FDF754
:1035A0007AFE0125CDE9004500240294694648468B
:1035B0000394FDF77BFD102000904FF48810CDE9B7
:1035C000010469464846FDF771FD4CF20700CDE95C
:1035D0000004DFF89880694640460294FDF766FDD6
:1035E0008020CDE90004694650460294FDF75EFD57
:1035F0000096CDE90154694650460394FDF756FD07
:103600004FF440404FF44416CDE900066946029459
:103610005046FDF74BFD4FF47050CDE9000669466A
:1036200002944046FDF742FD2802CDE900046946B8
:1036300048460294FDF73AFD0097CDE901546946EA
:1036400058460394FDF732FD002201212820FDF7A2
:10365000C5FE2820FDF7B4FE07B0BDE8F08F0000DE
:103660000010024000080048001000480004004814
:103670000A4810B5084901600321416040F6FF7116
:10368000C1608160FDF712FE002803D0BDE8104044
:10369000FCF783BF10BD00000030004070350020F3
:1036A000124810B5104901604FF482714160002149
:1036B0004FF4E062C0E902124FF480220161C0E9D8
:1036C00005120822C0E9072107234162C0E90A1355
:1036D000C0E90C12FEF7F2FB002803D0BDE8104051
:1036E000FCF75BBF10BD00000030014080350020BA
:1036F00010B59AB00024129413941494159416944F
:1037000017941C210BA81894FCF725FE2C21684661
:10371000FCF721FE27482649C0E900145921C0E9D9
:103720000241046144618461FEF716FD08B1FCF7B3
:1037300034FF4FF48050129012A91E48FEF70CFE81
:1037400008B1FCF72AFF1B48FFF713FA08B1FCF792
:1037500024FF169416A917481894FEF7B5FC08B173
:10376000FCF71BFF6020CDE90B040D940E940F9421
:10377000109400220BA90F481194FFF768F908B1C3
:10378000FCF70BFF00944FF40050CDE90440019486
:10379000029403940694694606480A94FEF74EFC88
:1037A00008B1FCF7FAFE0348FFF724F91AB010BD80
:1037B00000400140303600201FB500241648009418
:1037C000019402941349039401604721C0E9011454
:1037D0004FF6FF71C0E9031444618461FEF7BCFC3D
:1037E00008B1FCF7DAFE0C48FEF7BEFE08B1FCF7A4
:1037F000D4FE0A2000900120CDE901040022694690
:1038000005480394FEF721FE002801D0FCF7C5FE11
:103810001FBD0000004401407C3600203EB500245E
:103820000F48009401940D49029401604FF4E15156
:10383000C0E9011440F2E7318461C160FEF78CFCFD
:1038400008B1FCF7AAFE0094694605480294FEF709
:103850003BFC002801D0FCF7A0FE3EBD001000405C
:10386000E43500200D4810B50B4901604FF4E131FB
:103870004160002181600C22C160C0E904128161B5
:10388000C16101624162FFF7F7FB002803D0BDE888
:103890001040FCF782BE10BD004C004050370020A5
:1038A0000D4810B50B4901604FF4E1314160002132
:1038B00081600C22C160C0E904128161C1610162B2
:1038C0004162FFF7D9FB002803D0BDE81040FCF7A8
:1038D00064BE10BD00500040D43700200D4810B524
:1038E0000B4901604FF416514160002181600C22A8
:1038F000C160C0E904128161C16101624162FFF7E8
:10390000BBFB002803D0BDE81040FCF746BE10BD4D
:1039100000380140583800200E4810B50C490160AD
:103920004FF4E1314160002181600C22C160C0E9A7
:1039300004128161C16101620B460A464162FEF7D1
:1039400079FA002803D0BDE81040FCF726BE10BD70
:1039500000440040DC380020FEE7FEE77047704777
:10396000FDF7DEBC30B59FB028210FA8FCF7F3FCB3
:10397000142119A8FCF7EFFC3C216846FCF7EBFC8E
:10398000092001210F904FF4803000241591CDE9DA
:1039900010040225CDE9165013914FF4E010189051
:1039A0000FA8FDF763FF08B172B6FEE70F20CDE95F
:1039B00019054FF48060CDE91B40022119A81D9420
:1039C000FDF74AFE08B172B6FEE79B200594009011
:1039D0004FF4807009900294039406946846FDF7B2
:1039E0002FFD002801D072B6FEE71FB030BD0000E9
:1039F0000248016841F470010160704788ED00E001
:103A00000148FEF735BF00007C36002010B506489F
:103A1000FEF72EFF0549012008700102BDE81040A5
:103A20000348FDF730BC0000E4350020080000200A
:103A3000001000482DE9F0430268234B234D244E2B
:103A4000244C4FF08049984207D0484505D0A84201
:103A500003D0B04201D0A04203D122F070074A68DF
:103A60003A431D4FDFF874C0DFF8748098420DD0E0
:103A700048450BD0A84209D0B04207D0A04205D09B
:103A8000B84203D0604501D0404503D122F44075CF
:103A9000CA682A434D6922F080022A4302608A687C
:103AA000C2620A688262984207D0A04205D0B8423A
:103AB00003D0604501D0404501D10969016301216E
:103AC0004161BDE8F0830000002C0140000400408B
:103AD0000008004000340140004001400044014023
:103AE0000048014010B501F01F030121046A99400C
:103AF0008C430462016A9A401143016210BD10B503
:103B0000446A0121626A824207D12177806938BB09
:103B100084F83E1084F8441022E0A26A824208D160
:103B2000022222778069D8B984F83F1084F84510C2
:103B300016E0E26A824208D104222277806978B9CD
:103B400084F8401084F846100AE0226B824207D1C4
:103B500008222277806918B984F8411084F8471048
:103B60002046FEF76BFC0020207710BD10B5446A9C
:103B7000616A814201D101200DE0A16A814201D137
:103B8000022008E0E16A814201D1042003E0216BB8
:103B9000814201D1082020772046FEF755FC002005
:103BA000207710BD10B5446A0121626A824205D1B6
:103BB00021778069F8B984F83E101CE0A26A82423D
:103BC00006D1022222778069A8B984F83F1012E05A
:103BD000E26A824206D104222277806958B984F8C9
:103BE000401008E0226B824205D1082222778069CA
:103BF00008B984F841102046FEF7EDFF0020207739
:103C000010BD10B5446A616A814201D101200DE006
:103C1000A16A814201D1022008E0E16A814201D11A
:103C2000042003E0216B814201D108202077204647
:103C3000FEF7D2FF0020207710BD10B5446A0121A5
:103C4000626A824203D1217784F83E1019E0A26AA9
:103C5000824204D10220207784F83F1011E0E26A0A
:103C6000824204D10420207784F8401009E0226BBE
:103C7000824204D10820207784F8411001E084F8C2
:103C80003D102046FEF7D8FB0020207710BD10B570
:103C9000846842EA032224F47F440A432243826078
:103CA00010BD826822F070020A4342F00701816071
:103CB000704700002DE9F043026A22F0010202621F
:103CC000056A436882691C4C25F0020522400C6895
:103CD00022F0030214438A68194E2A43174D194FE4
:103CE000DFF864C0DFF86490A84207D0B04205D086
:103CF000B84203D0604501D0484506D122F00808FB
:103D0000CA6842EA080222F00402A84207D0B04280
:103D100005D0B84203D0604501D0484505D14D6972
:103D200023F440731D438B692B43436084614968CE
:103D300041630262BDE8F0838FFFFEFF002C01406B
:103D4000003401400040014000440140004801406F
:103D5000F0B5026A22F010020262056A42688369C5
:103D6000194C1B4E23400C6823F4407343EA04248F
:103D700025F020038D6843EA0513144DA84201D0B5
:103D8000B04206D1CF6823F0800343EA071323F043
:103D90004003A8420AD0B04208D00E4DA84205D038
:103DA0000D4DA84202D00D4DA84207D14D6922F415
:103DB000406242EA85028D6942EA8502426084617E
:103DC000496881630362F0BDFF8FFFFE002C014054
:103DD00000340140004001400044014000480140DF
:103DE000F0B5026A22F480720262056A4368C26911
:103DF000194C1B4E22400C6822F00302144325F498
:103E000000728D6842EA0522144DA84201D0B042EA
:103E100006D1CF6822F4006242EA072222F48062CF
:103E2000A8420AD0B04208D00E4DA84205D00E4D8F
:103E3000A84202D00D4DA84207D14D6923F440534A
:103E400043EA05138D6943EA05134360C461496879
:103E5000C1630262F0BD00008FFFFEFF002C014035
:103E6000003401400040014000440140004801404E
:103E700030B5026A22F480520262046A4268C36961
:103E8000124D24F400542B400D6823F4407343EA90
:103E900005238D6844EA05340D4DA8420BD00D4D25
:103EA000A84208D00C4DA84205D00C4DA84202D023
:103EB0000B4DA84204D14D6922F4804242EA85129A
:103EC0004260C36149680164046230BDFF8FFFFE38
:103ED000002C0140003401400040014000440140FA
:103EE0000048014030B5026A22F480320262046A5E
:103EF0004268436D114D2B400D681D4324F400337F
:103F00000C8943EA04430E4CA0420BD00D4CA04256
:103F100008D00D4CA04205D00C4CA04202D00C4C55
:103F2000A04204D14C6922F4803242EA0422426069
:103F3000456549688165036230BD00008FFFFEFF63
:103F4000002C014000340140004001400044014089
:103F50000048014030B5026A22F480120262046A0D
:103F60004268436D114D24F400142B400D6843EA60
:103F700005230D8944EA05540D4DA8420BD00D4D83
:103F8000A84208D00C4DA84205D00C4DA84202D042
:103F90000B4DA84204D14D6922F4802242EA8522C9
:103FA000426043654968C165046230BDFF8FFFFE12
:103FB000002C014000340140004001400044014019
:103FC0000048014010B5036A046A24F00104046249
:103FD000846924F0F00444EA021423F00A020A433C
:103FE0008461026210BD000070B5046A24F001040F
:103FF00004628469056A124EB0420ED0B0F1804F5F
:104000000BD0104EB04208D00F4EB04205D00F4E2C
:10401000B04202D00E4EB04203D124F00304144348
:1040200001E044F001041A0724F0F00444EA1262AB
:1040300025F00A0301F00A0119438261016270BD93
:10404000002C014000040040000800400034014002
:104050000040014010B5036A23F010030362836936
:10406000046A23F4704343EA023224F0A00343EAD3
:1040700001118261016210BD30B5046A24F01004A0
:1040800004628469056A24F4407444EA022222F43A
:1040900070444FF6FF7202EA03322243A02425F057
:1040A000A00304EA011119438261016230BD90F856
:1040B0002410C90706D001684A68836A22F40032D6
:1040C0001A434A6090F82410890706D501684A68A7
:1040D000C36A22F480321A434A6090F824104907D8
:1040E00006D501684A68036B22F480221A434A60AD
:1040F00090F82410090706D501684A68436B22F43A
:1041000000421A434A6090F82410C90606D5016897
:104110008A68836B22F480521A438A6090F82410D4
:10412000890606D501688A68C36B22F400521A43D7
:104130008A6090F82410490611D501684A68036C1A
:1041400022F480121A434A60016CB1F5801F06D137
:1041500001684A68436C22F4C0021A434A6090F82E
:104160002410090606D501684A68806C22F40022F2
:1041700002434A607047F8B500260446C0F88060E4
:10418000FDF78EF80546206800686FF07E4700074F
:1041900008D52B4600224FF400112046009700F06E
:1041A00083F960B92068006840070AD52B460022D1
:1041B0004FF480012046009700F076F908B1032003
:1041C000F8BD2020A067E067266684F874600020B0
:1041D000F8BD10B5406A0021A0F85A10A0F852109E
:1041E000FEF7FEFD10BD70B5446AA06FE56F216853
:1041F00089684FF00006090606D5212804D1A4F8E5
:104200005260204600F05FF820688068400606D5BE
:10421000222D04D1A4F85A60204600F02FF8D4F8DB
:10422000800040F01000C4F880002046FEF7D8FD62
:1042300070BD10B50146406A8969202916D0002159
:10424000A0F852100168083151E8002F22F08002D6
:1042500041E80023002BF5D1026852E8001F41F02D
:10426000400142E80013002BF6D110BDFFF79EF885
:1042700010BD10B5406AFFF79AF810BD016851E80B
:10428000002F22F4907241E80023002BF6D1016840
:10429000083151E8002F22F0010241E80023002BF1
:1042A000F5D1016E012908D1026852E8001F21F002
:1042B000100142E80013002BF6D12021C167002134
:1042C000016641667047026852E8001F21F0C00194
:1042D00042E80013002BF6D12021816770470000CF
:1042E00070B5044680682169E26908436169002568
:1042F000114322680843116849F20C639943014352
:10430000116020684168E26821F440511143416026
:10431000216AA06901432068826822F430620A435E
:1043200082605A4A20685A4990420CD1086B10F0BA
:10433000030006D001285FD002285FD0032845D1B2
:1043400058E0012143E0534A90420DD1086B10F42C
:1043500040304DD0B0F5803F4ED0B0F5003F4DD04D
:10436000B0F5403F32D145E04B4A90420DD1086B49
:1043700010F440203CD0B0F5802F3DD0B0F5002F98
:104380003CD0B0F5402F21D134E0444A90420DD1C9
:10439000086B10F440102BD0B0F5801F2CD0B0F576
:1043A000001F2BD0B0F5401F10D123E03C4A9042B3
:1043B0000CD1086B10F440001AD0B0F5800F1BD060
:1043C000B0F5000F1AD0B0F5400F13D01021E369FB
:1043D0004FF40040334A4FF6EF7683422ED109293D
:1043E0004AD2DFE801F00D10134915494949180078
:1043F0000021ECE70221EAE70421E8E70821E6E7EB
:10440000FDF7CEF906E0FDF7E3F903E0104602E020
:10441000FDF7F6F988B34100606801EB5001B1FB8C
:10442000F0F081B2A1F11000B04225D84FF6F07241
:1044300001EA0200C1F3420108431FE009291BD22F
:10444000DFE801F005080B1A0D1A1A1A1000FDF723
:10445000A7F906E0FDF7BCF903E0104602E0FDF71E
:10446000CFF950B1616800EB5100B0FBF1F080B2C0
:10447000A0F11001B14201D9012501E02168C86015
:1044800000206066A066284670BD0000003801402C
:10449000001002400044004000480040004C004032
:1044A0000050004000127A002DE9F0479A46174666
:1044B0000E4604464FF000094FF02008089D4AE0E0
:1044C000681C48D0FCF7ECFEA0EB0A00A8422AD8F2
:1044D0004DB32068016849073DD5C069C043000558
:1044E00039D421684FF400600862206850E8001F4A
:1044F00021F4D07140E80012002AF6D1206808307B
:1045000050E8001F21F0010140E80012002AF5D117
:10451000C4F87880C4F87C80C4F8808084F87490F3
:104520000320BDE8F087216851E8000F20F4D07027
:1045300041E80002002AF6D12068083050E8001F48
:1045400021F0010140E80012002AF5D1C4F878807A
:10455000C4F87C80E2E72068C06936EA000004D035
:104560000020B842ACD00020DBE70120F9E70000D2
:104570000148FEF737BC00005838002010B5094844
:10458000FEF730FC08480178002909D000210170AD
:104590000A46BDE810404FF400710448FCF77BBEAA
:1045A00010BD0000DC38002015000020001000487D
:1045B000FEE70907090E002804DB00F1E02080F87F
:1045C0000014704700F00F0000F1E02080F8141D87
:1045D000704700000148FDF783BE0000E43500206D
:1045E00010B50E4C03000C48A2794FF4005107D0CF
:1045F00012B90122FCF74FFEA079401CA07110BD3A
:1046000022B1521E12F0FF02A271F8D1BDE8104093
:104610000022FCF740BE000000080048080000200F
:10462000FCF786FEFFF79EF9FEF768FFFEF720FF16
:10463000FFF736F8FFF752F9FEF7FCFEFFF7EEF84A
:10464000FFF7BAF8FFF70EF9FFF72AF9FEF7B2FE07
:10465000FFF762F9FFF74CF8FFF70AF8FFF7BAFF28
:1046600000F0BEF80C494BF6E3400C4E0C4C0D4DDF
:104670000860307808B100F0E5F9207808B100F062
:1046800015F8287808B100F051FB0748FCF741FE07
:104690000120FCF7EBFCECE71800002008000020EC
:1046A0000000002009000020703500202DE9F041B5
:1046B0000120FFF795FF47490024474B0C70CC8041
:1046C000D3F8842018684FF6FF76801A03F18C0225
:1046D0001060012003EB800555F8047C53F820504E
:1046E000AF4201D2ED1B01E0F71B3D4442F82050E0
:1046F000401CC0B22228EDD35068A0F2FE600B2807
:104700000ED300213548FEF757F82820FCF7AEFC01
:10471000BDE8F0412223304A00213048FDF756BF62
:1047200001204FF4C875CB8806EA4303CB8052F8CA
:104730002070AF4201D25B1CCB80801CC0B222280B
:10474000F1D398B2020A4A70C0B2FF23521E887099
:10475000E42A00D24B70401EE42800D28B704878C7
:1047600005270426032502230122FD2801D3CF704B
:1047700012E0FA2801D9CE700EE0F52801D9CD70EB
:104780000AE0F02801D9CB7006E0EB2801D9CA7005
:1047900002E0E52800D9CC708878FD2801D30F719C
:1047A00012E0FA2801D90E710EE0F52801D90D7139
:1047B0000AE0F02801D90B7106E0EB2801D90A7153
:1047C00002E0E52800D90C71BDE8F0410020FFF7B8
:1047D00007BF0000000000202C0000207C360020D5
:1047E0002223024A00210248FDF7F0BE2C000020DF
:1047F0007C36002070B50120FFF7F2FE0C4C0D4D09
:10480000207818B9287858B100F016F820780428D4
:1048100001D100F027F82078012801D100F098F8A4
:1048200020782870BDE870400020FFF7D9BE000056
:10483000130000201400002010B50120FFF7D0FE67
:10484000074A4FF02061002042F82010401C8428C5
:10485000FADB00F097F8BDE810400020FFF7C0BE7B
:10486000540100202DE9F0410120FFF7B9FE304846
:10487000304A0027007870B3022851D1A2F110000D
:1048800000210368262B42F82310456842F82510C2
:10489000846842F82410C66842F8261002DA5B1CCD
:1048A000036000E00760422C02DC6823836001E0C3
:1048B000641E8460204B224C1F78204B37B1022F9E
:1048C00004D0032F08D0042F0FD10AE01B78052B4A
:1048D0000BD9214609E01EE01B78052B05D91949A3
:1048E00003E01B78052B00D91749272342F8231032
:1048F0005B1C9BB2412BF9D914490368096841F04C
:10490000206142F8231042F82510806842F82010F8
:1049100042F8261004E042F82070401C8428FADB9C
:1049200000F030F8BDE8F0410020FFF759BE00006C
:104930000F00002054010020030000200D00002083
:10494000E3BC000A0080000A0000FF0A18000020F3
:1049500010B50120FFF744FE0848094A006840F0FE
:104960002061002042F82010401C8428FADB00F06F
:1049700009F8BDE810400020FFF732BE1800002003
:10498000540100202DE9F05F0120FFF729FE0020EF
:104990002A4C0546A4F5047B4FF0640E4FF03A0A0A
:1049A0001D2620605BF8250020F07F41000E0A0CD8
:1049B00012FB00F37246B3FBF2F9C1F3072313FBBA
:1049C00000F3B3FBFEFCC9B211FB00F0B0FBFEF735
:1049D000012005EB450100EBC10000F1080200F1E8
:1049E0001001802313EA090F02D044F822A001E04D
:1049F00044F8226013EA0C0F02D044F820A001E032
:104A000044F820603B4202D044F821A001E044F881
:104A10002160401C491C521C5B08E3D16D1C842D95
:104A2000C0DB40F66243054A00210548FEF7D6F890
:104A3000BDE8F05F0020FFF7D3BD00006403002055
:104A40003036002070B5254C002525706079401C5B
:104A5000C0B260710A2800D96571217A607A8142FA
:104A600025D002D900F101006072C0B2814201D2AA
:104A7000401E6072C2B22179022000F0FBF8627A17
:104A80002179012000F0F6F8207A617A08431FD1DD
:104A900000221146022000F023F8002211460120D6
:104AA00000F01EF82571E5710A20E07010E0E07852
:104AB00070B1401E10F0FF00E07009D100221146D5
:104AC000022000F00DF800221146012000F008F845
:104AD00001206070BDE87040FFF78CBE0800002028
:104AE0002DE9F05F054617460C460120FFF778FDDB
:104AF00000210622DFF86C81DFF86C910126F4B109
:104B000088F8005088F801208A4688F80210302181
:104B100088F80310C7EB0711C7EB07100901000164
:104B200093464942FF23102200B24FF0090C4FF088
:104B3000600E09B2022D2ED0012D31D039E088F857
:104B4000005088F8012088F802107C2088F80300C3
:104B500088F80410D82088F8050006214148FBF7A2
:104B600095FC88F80600000A88F8070001224C46E8
:104B700089F8006051023D48FCF78DFB0822394955
:104B80003B48FEF7C3FB02E00220FCF76FFA2078F7
:104B90000028F9D160E0022C2AD0052C28D003E0AF
:104BA000022C25D0042C23D088F8043088F8052066
:104BB0000846010A88F8041088F8050006212948EB
:104BC000FBF764FC88F80600000A88F807004C46EA
:104BD00089F80060254F4FF4007901224946384694
:104BE000FCF759FB08221F492148FEF78FFB07E01D
:104BF00088F804C088F805E0DBE70220FCF736FA05
:104C000020780028F9D188F8005088F801B088F899
:104C100002A07C2188F8031088F804A0962088F868
:104C2000050006210F48FBF731FC88F80600000A52
:104C300088F807002670012249463846FCF72BFB0E
:104C4000082208490A48FEF761FB02E00220FCF74F
:104C50000DFA20780028F9D1BDE8F05F0020FFF7B9
:104C6000BFBC0000EC3400201500002000100048FC
:104C7000DC3800202DE9F041064617460D4601209C
:104C8000FFF7AEFC254C0621C7EB071026706170BC
:104C90000021A1703021E170C7EB0711090100016B
:104CA000494200B209B2022E02D0012E06D012E013
:104CB000022D10D0052D0ED008460CE0022D06D096
:104CC000042D04D0FF20207110206071F4E7092129
:104CD000217160216171010A2171607106210F4803
:104CE000FBF7D4FBA071000AE07101200C4C0246D6
:104CF000410220700B48FCF7CEFA082207490A4807
:104D0000FEF704FB02E00220FCF7B0F9207800284F
:104D1000F9D1BDE8F041FFF763BC0000EC3400209E
:104D20001500002000100048DC3800202DE9F0417B
:104D30000120FFF755FC404C0025404F65700A26C6
:104D4000A67201213846FCF799FA80B34FF48051DE
:104D50003846FCF793FA50B302213846FCF78EFA36
:104D6000A0B34FF400513846FCF788FA70B3042121
:104D70003846FCF783FA50B34FF480613846FCF7AD
:104D80007DFA20B380212E48FCF778FA78B34FF4EF
:104D900000613846FCF772FA48B32079012801D93E
:104DA000A6702572BDE8F0410020FFF719BC2079FC
:104DB0000028F7D1022101220846FFF791FE0122C7
:104DC00002211046FFF78CFE02202EE000E00FE0EB
:104DD00020790028E6D1012203210220FFF780FE7E
:104DE000012203211046FFF77BFE03201DE00EE0A9
:104DF00020790028D6D1012204210220FFF770FE7D
:104E0000012204211046FFF76BFE04200DE02079FB
:104E10000028C7D1012205210220FFF761FE0122EF
:104E200005211046FFF75CFE05202071A570E57096
:104E3000A17A2172E071B5E7080000200004004863
:104E4000001000484FF04070E1EE100A704700007B
:104E5000C1C081C1400101C3C003800241C201C67B
:104E6000C006800741C70005C1C581C4400401CC0C
:104E7000C00C800D41CD000FC1CF81CE400E000A85
:104E8000C1CA81CB400B01C9C009800841C801D803
:104E9000C018801941D9001BC1DB81DA401A001EFD
:104EA000C1DE81DF401F01DDC01D801C41DC00141C
:104EB000C1D481D5401501D7C017801641D601D283
:104EC000C012801341D30011C1D181D0401001F034
:104ED000C030803141F10033C1F381F240320036FD
:104EE000C1F681F7403701F5C035803441F4003C0C
:104EF000C1FC81FD403D01FFC03F803E41FE01FA03
:104F0000C03A803B41FB0039C1F981F840380028A4
:104F1000C1E881E9402901EBC02B802A41EA01EE7A
:104F2000C02E802F41EF002DC1ED81EC402C01E41B
:104F3000C024802541E50027C1E781E64026002204
:104F4000C1E281E3402301E1C021802041E001A0D2
:104F5000C060806141A10063C1A381A2406200667C
:104F6000C1A681A7406701A5C065806441A4006C0B
:104F7000C1AC81AD406D01AFC06F806E41AE01AA82
:104F8000C06A806B41AB0069C1A981A84068007804
:104F9000C1B881B9407901BBC07B807A41BA01BEFA
:104FA000C07E807F41BF007DC1BD81BC407C01B41B
:104FB000C074807541B50077C1B781B64076007284
:104FC000C1B281B3407301B1C071807041B0005073
:104FD000C190819140510193C053805241920196FA
:104FE000C056805741970055C19581944054019C0B
:104FF000C05C805D419D005FC19F819E405E005A04
:10500000C19A819B405B0199C059805841980188A1
:10501000C04880494189004BC18B818A404A004E7B
:10502000C18E818F404F018DC04D804C418C00441A
:10503000C184818540450187C04780464186018201
:10504000C042804341830041C181818040400203CE
:105050000405060708090A0B0C0D0E0F10100102BB
:10506000030405060708090A0B0C0D0E0F100000BB
:105070000000000000000102030406070809000008
:105080000000010203040000A850000800000020F6
:105090002C000000C4010008D45000082C0000209F
:1050A000A4460000E001000800000000000000002D
:1050B000000000000000000000000A0404000000DE
:1050C00000000000010000001000000000000000CF
:0450D00000127A0050
:040000050800018965
:00000001FF
