:020000040800F2
:10000000E01A002091010008151C0008B51A00082C
:10001000111C00086D060008591D000800000000B2
:100020000000000000000000000000001D1C00088F
:100030008906000800000000191C0008211C0008A7
:10004000AB010008AB010008AB010008AB010008E0
:10005000AB010008AB010008AB010008AB010008D0
:10006000AB010008AB010008AB010008AB010008C0
:10007000AB010008AB010008710600087D0600080E
:10008000AB010008AB010008AB010008AB010008A0
:10009000AB010008AB010008AB010008AB01000890
:1000A000AB010008AB010008AB010008AB01000880
:1000B000AB010008AB01000800000000AB01000824
:1000C000AB0100080000000000000000AB010008C8
:1000D00000000000211D0008AB0100080000000026
:1000E000AB010008AB010008AB01000800F002F80A
:1000F00000F03FF80AA090E8000C82448344AAF183
:100100000107DA4501D100F034F8AFF2090EBAE880
:100110000F0013F0010F18BFFB1A43F0010318473B
:100120001C5E00003C5E0000103A24BF78C878C115
:10013000FAD8520724BF30C830C144BF04680C60ED
:10014000704700000023002400250026103A28BF35
:1001500078C1FBD8520728BF30C148BF0B60704739
:10016000752900F07180002070471FB51FBD10B5C4
:1001700010BD00F040FA1146FFF7F7FF04F0E2FD72
:1001800000F05EFA03B4FFF7F2FF03BC00F066FA7A
:100190000948804709480047FEE7FEE7FEE7FEE71B
:1001A000FEE7FEE7FEE7FEE7FEE7FEE70448054957
:1001B000054A064B70470000591C0008ED00000876
:1001C000E0140020E01A0020E0160020E0160020D5
:1001D0000FB41CB5074B06AA7B44694600900598EE
:1001E00000F0F1F90020694600F000FA1CBC5DF84F
:1001F00014FB00001104000070B504468569006816
:10020000C10601D5302600E02026C00707D070BD0A
:10021000D4E9012130469047206A401C20626D1EBF
:10022000F6D570BD70B5044685690078C00707D162
:1002300070BDD4E9012120209047206A401C206233
:100240006D1EF6D570BD00002DE9F0410646002474
:1002500010687529314616A510D0AFF3008000282C
:1002600002DA404213A507E031688A0701D512A5DA
:1002700002E0490704D511A5012401E0AFF3008095
:1002800000210A2206F1240709E0B0FBF2FCB0FBD2
:10029000F2F302FB1C00303078541846491C002849
:1002A000F3D123462A463046BDE8F04100F02CB990
:1002B000000000002D0000002B00000020000000C6
:1002C0002DE9F0474FF0000A89460446C0F820A007
:1002D0002046E1688847002876D0252806D0D4E952
:1002E00001219047206A401C2062F1E7E168204626
:1002F00000258847C4F81CA006460027C4F818A0AB
:100300002A2E09D0304605F025F938B304EB8708CA
:10031000303EC8F8186019E059F8041B204604EB79
:1003200087029161E1688847012F064618D1E0698C
:10033000002820DA25F020051DE0D8F8180000EB91
:10034000800006EB40003038C8F818002046E1680D
:100350008847064605F0FEF80028EED1012F0AD0A6
:100360002E2E08D12046E16888477F1C0646022FC2
:1003700045F02005C4DBA069002803DA404245F0BF
:100380000105A061E80701D025F01005B6B1A6F17E
:100390004100192802D8203645F400654A46314606
:1003A000204625604D46FFF7DBFE58B1012806D0F8
:1003B000ED1D25F0070000F1080989E704E005F1CB
:1003C000040985E730468AE7206ABDE8F08710B562
:1003D000431C02E010F8011B71B18107FAD14FF004
:1003E000013202C88C1A8C4314EAC211F9D0C01A27
:1003F0000A0603D0C01E10BDC01A10BD0A0401D0E9
:10040000801E10BD0902FCD0401E10BD10B5203A60
:10041000C0F00B80B1E81850A0E81850B1E81850AF
:10042000A0E81850203ABFF4F5AF5FEA027C24BF81
:10043000B1E81850A0E8185044BF18C918C0BDE86A
:1004400010405FEA827C24BF51F8043B40F8043B33
:1004500008BF7047D20728BF31F8023B48BF11F8E8
:10046000012B28BF20F8023B48BF00F8012B704742
:100470004FF000020429C0F0128010F0030C00F0CD
:100480001B80CCF1040CBCF1020F18BF00F8012B4B
:10049000A8BF20F8022BA1EB0C0100F00DB85FEA19
:1004A000C17C24BF00F8012B00F8012B48BF00F8E5
:1004B000012B70474FF0000200B513469446964654
:1004C000203922BFA0E80C50A0E80C50B1F1200167
:1004D000BFF4F7AF090728BFA0E80C5048BF0CC015
:1004E0005DF804EB890028BF40F8042B08BF704773
:1004F00048BF20F8022B11F0804F18BF00F8012BE5
:1005000070477047704770472DE9F0470D46994690
:100510009246044600F124080168880604D5E06983
:1005200021F01001216000E00120A84201DD471BFD
:1005300000E00027A1697A1902EB0900081AA061FE
:100540002078C00602D42046FFF756FE002608E0B9
:10055000D4E901211AF806009047206A401C761C55
:1005600020624E45F4DB2078C0060AD52046FFF70E
:1005700043FE06E0D4E9012130209047206A401C68
:100580002062381EA7F10107F4DC07E0D4E901215D
:1005900018F805009047206A401C2062281EA5F12B
:1005A0000105F3DC2046FFF73DFE2078000602D56A
:1005B0000220BDE8F0870120FBE7000001694A1C2A
:1005C00002610878704700B58FB0CDE90131002194
:1005D000059105497944CDE9031011466846FFF7B6
:1005E0006FFE0FB000BD0000E5FFFFFF0A6802F8D4
:1005F000010B0A607047754600F02CF8AE46050006
:100600006946534620F00700854618B020B5FFF72D
:10061000CDFDBDE820404FF000064FF000074FF041
:1006200000084FF0000BAC46ACE8C009ACE8C009CC
:10063000ACE8C009ACE8C00921F007018D4670475D
:1006400010B50446AFF300802046BDE81040FFF728
:1006500099BD00000048704728000020014918207B
:10066000ABBEFEE72600020070470000FEE7000078
:1006700041F2F830C2F2000000F0AEB841F2B430FE
:10068000C2F2000000F0A8B870470000EFF310803D
:1006900072B600BFFEE7000080B540F24C33C2F2F4
:1006A00000035A7A012A84BF012080BD93F809C053
:1006B0008646002003F80C005A7A03EB8202C2F847
:1006C00004E05A7A1A44107293F809C00CF101023E
:1006D0005A720CF130020A7042F63A72A1F8012007
:1006E000C87080BD014690F82100022816D1086824
:1006F000D1E90FC3026822F00E020260026822F004
:1007000001020260012000FA03F2CCF8042081F813
:1007100021000020002281F82020704704208863F7
:100720000120002281F820207047000080B590F859
:100730002110022924D10268116821F00E011160F4
:100740002F211368C4F202018A4240F20401C4F26C
:10075000020123F00103136016DD3023C4F202030B
:100760009A421DD04423C4F202039A421CD058235B
:10077000C4F202039A421DD14FF4803322E000BF3D
:1007800004218163012080BD0823C4F202039A4240
:100790000ED01C23C4F202039A420BD1102311E0A5
:1007A0004FF480730EE000BF4FF480530AE000BFA7
:1007B000012307E001F1680C4FF08073624508BF28
:1007C0004FF480130B60416B4FF48072028401B1CF
:1007D0008847002080BD000010B5D0E90FCE016829
:1007E000DCF800300A6823FA0EF35C072AD512F011
:1007F000040427D00A68920603D40A6822F004028F
:100800000A602F22C4F20202914240F20402C4F2B2
:10081000020259DD3023C4F20203994270D044230E
:10082000C4F20203994271D05823C4F202039942E0
:1008300078D14FF480231360C16A002940F097807B
:100840006EE000BF9C0727D512F0020424D00A688E
:10085000920606D40A6822F00A020A60012280F891
:1008600021202F22C4F20202914240F20402C4F27B
:10087000020239DD3023C4F2020399425ED04423E0
:10088000C4F2020399425DD05823C4F20203994294
:100890005ED14FF4003363E01B0741D512F008022C
:1008A00008BF10BD0A6822F00E020A60012101FA99
:1008B0000EF2CCF804208163016B4FF480720029A2
:1008C000028454D12CE000BF0823C4F202039942F1
:1008D00022D01C23C4F20203994223D14023136087
:1008E000C16A002943D11BE00823C4F202039942E4
:1008F0002CD01C23C4F20203994229D120232FE0DB
:100900004FF480631360C16A89BB09E04FF48043F0
:100910001360C16A59BB03E004231360C16A31BB91
:1009200010BD00BF02F168044FF08063A14208BF10
:100930004FF480031360C16AC9B9F1E74FF4007343
:100940000EE000BF4FF400530AE000BF022307E0AF
:1009500002F168044FF00073A14208BF4FF4001386
:100960001360816A0022002980F82020D8D0BDE8D9
:1009700010400847002804BF012070472DE9F041CE
:1009800001684FF6F872CBF6FD724CF6CD430A447F
:10099000CCF6CC43A2FB03236FF0030707EA9303D3
:1009A0000027C4F2020700F1040E00F11008C0E9AC
:1009B0000F739EE8045098E870010B6843F6F077D7
:1009C000BB431A4342EA0C0242EA0E0222432A4384
:1009D000324342EA08020A6000214FF480728163C8
:1009E0000284BDE8F041084670470000B0B50446F7
:1009F00000F018F9054640F20000C2F2000000784D
:100A0000611C18BF044400BF00F00CF9401BA04259
:100A1000FAD3B0BD2DE9F04F82B041F20002C4F22A
:100A200001020E680323904208BF0223002E0093A8
:100A300000F0EE8040F20C4C4FF6FF7EC4F2010C49
:100A400000220124C1F2100E4FF0000B4FF00009FC
:100A50004AE000BF40F60044C4F20104009DA042F9
:100A600008BF012502F00C040F27A7402AEA070758
:100A700005FA04F43C4343F82640D1F804A040F2C0
:100A80000045C4F201055FEACA332B6854BF23EA6C
:100A9000080343EA08032B606B685FEA8A3454BF9B
:100AA00023EA080343EA08036B605FEACA24AB68E1
:100AB00054BF23EA080343EA08035FEA8A24AB60D1
:100AC000DCF800304FF0010454BF23EA080343EA86
:100AD0000803CCF800300E680BF1010B36FA0BF36B
:100AE00002F1040200F0948004FA0BF816EA080FF1
:100AF000F1D04E68764511DC122E55D8DFE806F0AD
:100B0000340A44485454545454545454545454542B
:100B1000544C5000D1F80C9046E000BF4FF6FF73E4
:100B2000C1F221039E420FDC0023C1F211039E4259
:100B30001AD00023C1F212039E4215D00023C1F245
:100B400021039E4210D02FE00023C1F222039E42D7
:100B50000AD00023C1F231039E4205D00023C1F226
:100B600032039E4220D100BF8B684BB1012B14BFD2
:100B7000C0F81480C0F810804FF0080914E000BFDE
:100B80004FF0040910E000BFCB6803F108090BE047
:100B90004FF0000908E000BFCB6803F1040903E04F
:100BA000CB6803F10C0900BF13460546BBF1080FE3
:100BB00024BF203B04352E680F279F40BE4309FA0F
:100BC00003F333432B60CB79DB067FF584AF41F22F
:100BD0001804C4F2020423684FEA9B0643F00103A1
:100BE0002360236840F6000403F001030193019B96
:100BF00040F20043C4F20103A3F57E7353F826A02C
:100C0000C4F20104A0427FF425AF00252AE700BF0B
:100C100002B0BDE8F08F0000002A08BF090401619E
:100C20007047000041F2D840C2F2000000687047EF
:100C300040F2000041F2D841C2F20000C2F20001CD
:100C400000780A68104408607047000080B542F2DE
:100C50000000C4F20200016841F0100101600320AD
:100C600000F08AF80F2000F005F800F027F80020C7
:100C700080BD000070B540F20006C2F2000640F2EE
:100C80000C013278C2F200014FF47A730968B3FBA9
:100C9000F2F20446B1FBF2F1084600F0F1FB0F2C32
:100CA0004FF0010508D838B94FF0FF302146002237
:100CB000002500F035F87460284670BD82B041F21E
:100CC0001800C4F202000168022241F00101016033
:100CD000016801F0010101910199416841F08051E1
:100CE0004160406800F08050009000980420C4F2F9
:100CF0000100016862F31A61016002B070470000F0
:100D0000002848BF704700F01F01012202FA01F1DC
:100D10004EF200124009CEF2000242F82010704755
:100D200010B54EF60C5CCEF2000CDCF80030C3F3CC
:100D3000022E8EF00704042C28BF0424BEF1030306
:100D40004FF0FF3E0EFA04F438BF0023A143994050
:100D50000EFA03F39A43114300F00F02043A62447F
:100D600009010C3200F16043B0F1FF3FC8BF03F549
:100D70006442117010BD00004EF60C51CEF200011D
:100D80000A684FF6FF031A4060F30A2242F08060BF
:100D900040F0FD70086070472DE9F04381B00028F5
:100DA00000F0858042F20008C4F202080446D8F838
:100DB00000000D4600F0070088420CD2D8F8000071
:100DC00020F007002843C8F80000D8F8000000F021
:100DD0000700A8426BD1206841F204098107C4F2E0
:100DE000020917D5410705D5D9F8001041F4E06193
:100DF000C9F80010010705D5D9F8001041F4605179
:100E0000C9F80010D9F80010A26821F0F0011143D0
:100E1000C9F80010C00741D1D8F8000000F0070061
:100E2000A8420CD9D8F8000020F007002843C8F8E1
:100E30000000D8F8000000F00700A84237D1206871
:100E4000410707D5D9F80010E26821F4E0611143A9
:100E5000C9F80010000708D5D9F80000216920F46E
:100E6000605040EAC100C9F80000D9F8002002F043
:100E70000C00082841F20020C0F27A0050D145F65B
:100E80007A13C2F38341C0F60003595CD2033BD40A
:100E900040F60010C0F23D00484341E0606802287F
:100EA0000AD001282AD159F8041C890308D401204A
:100EB00001B0BDE8F08300BF59F8041C8901F6D5E4
:100EC000D9F8001021F003010843C9F80000FFF72A
:100ED000A9FE064641F28837D9F80000616800F0A3
:100EE0000C00B0EB810F97D0FFF79CFE801BB8423F
:100EF000F2D9032001B0BDE8F08300BF59F8041C0B
:100F00008907D4D5DCE700BFD9F8002045F2E073AB
:100F1000C2F34042C0F600039A5C4843B0FBF2F0D3
:100F2000D9F8001045F2E272C1F30311C0F60002D5
:100F3000515C40F20C0220FA01F140F20400C2F2CE
:100F400000000068C2F200021160FFF793FE00206B
:100F500001B0BDE8F083000040F20C0041F2040152
:100F6000C2F20000C4F202010068096845F2F272A0
:100F7000C1F30221C0F60002515CC8407047000076
:100F800040F20C0041F20401C2F20000C4F202017E
:100F90000068096845F2F272C1F3C221C0F600028E
:100FA000515CC840704700002DE9F04182B0002834
:100FB00068D00446007841F20006C007C4F2020679
:100FC00025D0706800F00C0004281BD0706800F079
:100FD0000C00082802D17068C00313D46068002890
:100FE00000F06881B0F5A02F00F07C81B0F5803F63
:100FF00000F07C81306820F480303060306820F46C
:10100000802076E13068800301D56068D0B3207815
:10101000800718D5706810F00C0F07D0706800F0CA
:101020000C0008286ED17068C0036BD4306880074C
:1010300002D52069012825D13068616920F0F800C7
:1010400040EAC1003060207800071FD420784007B4
:1010500032D4E56995B1706800F00C00082840F0C2
:101060008F80012D0ED07068216A00F480328A4290
:1010700008D1616A00F47010884203D1002002B0E8
:10108000BDE8F081012002B0BDE8F081A069002830
:1010900062D00020C4F242200121C0F88014FFF782
:1010A000C1FD0546706A800700F18C80FFF7BAFD2C
:1010B000401B0228F6D92AE1F06910F0805808D1C7
:1010C000F06940F08050F061F06900F080500090CD
:1010D000009847F20007C4F200073868C00529D419
:1010E000386840F480703860FFF79CFD054600BF0B
:1010F0003868C0051ED4FFF795FD401B6428F7D95A
:1011000005E100BF2069002840F20000C4F242203F
:1011100000F0828001210160FFF784FD054600BFD9
:10112000306880073FF588AFFFF77CFD401B022841
:10113000F6D9ECE0E068002800F08080052800F097
:101140009780012800F09880306A20F0010030621A
:10115000306A20F0040092E00020C4F24220002116
:10116000C0F88014FFF75EFD054600BF706A800777
:101170007FF56CAFFFF756FD401B0228F6D9C6E09D
:101180000027C4F2422700203866FFF74BFD022DEE
:1011900005460BD13068800140F1BE80FFF742FD6B
:1011A000401B02284FF00300F4D968E73068800143
:1011B0007FF564AFFFF736FD401B02284FF00300B8
:1011C000F4D95CE740F20C00C2F20000006844F67B
:1011D000D351C1F26201A0FB0101480A019000BF96
:1011E00000BF0198411E002801913FF42FAF00BFBE
:1011F0000198411E002801913FF428AF00BF0198DB
:10120000411E002801913FF421AF00BF0198411E0B
:1012100000280191E4D119E700210160FFF702FDE8
:10122000054600BF306880077FF50DAFFFF7FAFC79
:10123000401B02284FF00300F4D920E7306A20F069
:1012400001003062306A20F004003062FFF7EAFCEF
:10125000054641F2883700BF306A800720D5FFF786
:10126000E1FC401BB8424FF00300F5D907E700BF8F
:10127000306A40F004003062306A40F001003062B1
:10128000FFF7D0FC054641F2883700BF306A80077F
:1012900006D4FFF7C7FC401BB842F7D937E000BFC0
:1012A000B8F1000F7FF4D5AEF06920F08050F06106
:1012B000CFE600BF306820F480303060306820F422
:1012C00080203060FFF7AEFC054600BF3068800329
:1012D0007FF59DAEFFF7A6FC401B64284FF003008E
:1012E000F4D9CCE6306840F480203060306840F4B7
:1012F00080303060FFF796FC054600BF3068800301
:101300003FF585AEFFF78EFC401B6428F6D903201D
:1013100002B0BDE8F08100BF206AB0F5803F05D182
:101320007168A26821F40031114371607168626ACA
:1013300021F4741110430843706001203866FFF7F0
:1013400071FC0446306880013FF598AEFFF76AFCF7
:10135000001B02284FF00300F4D990E670B538B1B5
:101360000446406A30B10020206104F1140007E017
:10137000012070BD6068B0F5827F03D004F11C00CD
:10138000002101600026A66294F8510020B9204691
:1013900084F8506000F038F8022084F8510094E896
:1013A000071001F48271036802F4044223F0400341
:1013B0000360236911440CF40062114403F002023B
:1013C0006369114403F00102A369E569114403F460
:1013D0000072114405F03802256A114405F08002BC
:1013E000A56A114305F4005211430160042101EA8A
:1013F00013414160C16921F40061C161012066654A
:1014000084F85100304670BD70B586B040F60004D7
:10141000C4F20104006804F52051002688420496B5
:1014200002D006B070BD00BF41F21800C4F2020045
:10143000016802AD41F480510160016801F48051FE
:1014400001910199016841F0040101600068294699
:1014500000F0040001900198A02002900220039067
:10146000032005902046FFF7D5FA4020CDE902067B
:10147000204629460496FFF7CDFA06B070BD00005D
:10148000411E0020B0EB116F1CBF012070474EF2CF
:101490001002CEF2000251604EF62351CEF200014E
:1014A000F0230B70072190601160704770470000B7
:1014B00070470000B0B582B0026805461068D36876
:1014C000546900F02F01202903F0200106D129B131
:1014D000284602B0BDE8B04000F0C6BB5FEA007C21
:1014E0001EBF04F0010E03F4907414EB0E0455D1EA
:1014F000296B012905D110F0100118BF13F010015C
:1015000036D1010622D513F080011FD095F83D0099
:10151000212841D1A868B0F5805F03D1286900284F
:1015200000F0F680286A411C296200785060E88C3F
:1015300001380104E8842FD1D06820F08000D06009
:10154000D06840F04000D06002B0B0BD400623D566
:1015500013F0400020D0D068202120F04000D0605F
:10156000284685F83D1002B0BDE8B04000F0A0BAB2
:101570000020019010680190506801900198506916
:10158000400613D4A88DE98DEB8D002B1CBF401AAB
:101590005FEA004140F0A48002B0B0BDC40718BFAC
:1015A00013F480732CD1430730D436E0A86B016864
:1015B0004B689CB2002CEFD0A98D8C42ECD2EB850D
:1015C0008369202B17D0D16821F48071D1605169D3
:1015D00021F001015161516921F040015161202147
:1015E00085F83E1000212963D16821F01001D160F7
:1015F000FFF778F8A98DE88D081A81B2284682E0B5
:101600002B6C43F001032B64430706D5BEF1000F9A
:1016100003D02B6C43F002032B64830706D5BEF185
:10162000000F03D02B6C43F004032B64BCF1000FBC
:1016300006D551EA0E0303D02B6C43F008032B644C
:101640002B6C002BA8D010F0200018BF002903D06D
:10165000284600F009FB2A685069296C00F0400018
:1016600001F0080140182DD0D06820F49070D060AF
:10167000506920F001005061286B012803D1D06827
:1016800020F01000D060202085F83E000020286364
:10169000506940061ED5506920F040005061A86B8B
:1016A000C0B141F65D41C0F600014163FFF73EF86D
:1016B00000283FF471AFA86B416B02B0BDE8B040A9
:1016C000084700BF2846FFF7F3FE0020286402B059
:1016D000B0BD00BF284602B0BDE8B040FFF7E8BE8D
:1016E000D16821F49071D160516921F001015161FB
:1016F000202185F83E1000212963D16821F01003D4
:1017000081B22846D36002B0BDE8B040FFF7CEBE3C
:10171000286A30F8021B6FF35F215160286206E7E8
:10172000002804BF0120704710B5044690F83D0022
:1017300028B9002084F83C00204600F05FF82420FF
:1017400084F83D002068D4E90212C36823F40053F2
:10175000C360036923F440531A430261D4E90423AC
:101760001143C268194341F20C639A431143C160AB
:101770004169A26921F44071114343F60002C4F2A9
:1017800001029042416103D0FFF7E6FB02E000BF97
:10179000FFF7F6FB6268192148439100B0FBF1F0B6
:1017A00048F21F51C5F2EB11A0FB01235A096FF05B
:1017B000630302FB0300322303EB0010A0FB0101D3
:1017C000F02303EA5113206803EB0212C1F3431123
:1017D00011448160016921F490410161416921F066
:1017E0002A014161C16841F40051C16000202021FB
:1017F000206484F83D1084F83E1010BD2DE9F041BE
:1018000086B040F600050446C4F20105006805F5FF
:10181000405100278842049702D006B0BDE8F0810D
:1018200041F21800C4F20200016802AE41F48041A6
:101830000160016840F2440801F48041019101997E
:101840000168C4F2020841F00401016000683146F9
:1018500000F00400019001984FF400700290022003
:101860000390032005902846FFF7D4F84FF48060DA
:10187000CDE90207284631460497FFF7CBF841F23D
:10188000B43508F11400C2F2000580264FF400516F
:10189000C5E900072846C5E90276C5E90477C5E928
:1018A0000671FFF767F8002818BFFEF7EFFEA56383
:1018B0006C6241F2F835C2F20005102000214FF4AD
:1018C0004052C5E900802846C5E90216C5E9041161
:1018D000C5E90612FFF74EF8002818BFFEF7D6FE3E
:1018E00025200021002265636C62FFF719FA25208C
:1018F000FFF706FA06B0BDE8F0810000704700006F
:101900002DE9F04381B0044690F83D0020280DD128
:101910000F4600294FF0010000F092801646002A81
:1019200000F08E8094F83C00012803D1022001B021
:10193000BDE8F083012084F83C004FF0000921202D
:101940001D46C4F8409084F83D00FFF76BF9A6846B
:10195000E684A1688046B1F5805F25D12069002822
:101960001CBF38464F463E46074684F83C90E08C04
:1019700000B3681C20D0002D66D120680BE000BFAA
:1019800036F8021B00276FF35F214160E18C0139BB
:10199000E184E18C81B30168090675D5002FEFD091
:1019A00017F8011BF1E700BF002684F83C90E08C9B
:1019B0000028DED120681FE0206802E001680906E7
:1019C00009D40168090606D4016809065CBF0168EC
:1019D0005FEA0161F2D51FB117F8011B05E000BFF6
:1019E00036F8021B00276FF35F214160E18C01395B
:1019F000E184E18C0029E4D1016849061CD4002D62
:101A000042D0691C0ED10168490615D40168490607
:101A10005CBF01685FEA41610ED401684906F2D5F6
:101A20000AE000BFFFF7FEF8A0EB08012068A9421A
:101A30002AD800684006F5D5202084F83D00002013
:101A400001B0BDE8F08300BF206800BF016809064F
:101A500008D4FFF7E7F8A0EB08012068A942F5D900
:101A600012E000BF17B117F8011B04E036F8021BA3
:101A700000276FF35F214160E18C0139E184E18C43
:101A80000029E3D1B8E700BFC16821F4D071C1607B
:101A9000416921F001014161202084F83D0084F872
:101AA0003E00002084F83C00032001B0BDE8F08334
:101AB00070470000FEE7000080B582B041F21400DC
:101AC000C4F202000168002241F0010101600068D7
:101AD000002100F00100019001980E20FFF720F98D
:101AE0000E20FFF70DF90F2000210022FFF718F953
:101AF0000F2002B0BDE88040FFF702B910B540F2F8
:101B0000A704C2F2000440F21000611CC2F20000FF
:101B1000FEF7C2FD207010BD70B584B041F2180010
:101B2000C4F20200016840F6000441F010010160B7
:101B30000168C4F2010401F01001009100990168EC
:101B4000002241F0200101600168102501F0200110
:101B5000009100990168002641F0040101600068CD
:101B6000102100F00400009000982046FFF754F880
:101B70000120CDE901060220039069462046009528
:101B8000FEF748FF04B070BD80B541F23C4043F21F
:101B90000001C2F20000C4F201014FF4827200237E
:101BA00080E80E0000F114014FF4007C4FF0100E9D
:101BB00081E808500A21C0E90333C0E90833C0E9CD
:101BC0000A31FFF7CBFB002808BF80BDBDE880408D
:101BD000FEF75CBD80B541F2944043F60001C2F2CD
:101BE0000000C4F2010100234FF00C0C4FF4165218
:101BF00080E80E00C0E90333C0E905C3C361FFF705
:101C00008FFD002808BF80BDBDE88040FEF73EBDC7
:101C1000FEE70000FEE7000070470000704700008C
:101C200040F2A400C2F20000017801310170017895
:101C30000A290ED300210170417811B14178013990
:101C400041708178002908BFFEF7F2BF8178013921
:101C50008170FEF7EDBF000070470000406A002170
:101C6000C185C184FFF724BC81B090F83E102229C1
:101C700020D18368B3F5805F08D10169002941D084
:101C800000F128010A6803685B680AE0014651F820
:101C9000282F13B90369002BF5D003685B6803F0A4
:101CA0007F0313700A6801320A60C18D01390A048A
:101CB000C18501D001B070470168CA6822F02002D6
:101CC000CA60CA6822F48072CA604A6922F00102BE
:101CD0004A61202280F83E20026B012A1CD100229A
:101CE0000263CB6823F01003CB600B68DB0605D5DD
:101CF00000920A680092496800910099818D01B0B4
:101D0000FFF7D4BB0168826A49686FF35F2122F84C
:101D1000021B8262C9E700BF01B0FFF7EFBD000000
:101D200041F29440C2F20000FFF7C4BB40F2080049
:101D3000C2F2000001210170007870470120704755
:101D40000020704740F20800C2F20000012101703B
:101D50000078704700207047FEE7000010B5044689
:101D6000002084F804084FF0FF30C4F82C08204607
:101D700003F048FA00281CBF032010BDB4F8FE0190
:101D80004AF6552188421CBF022010BD94F8372026
:101D900094F8383094F83610120244F2461042EAB1
:101DA0000342C0F254001144814204BF002010BD20
:101DB00094F8532094F8543094F85210120242EAE6
:101DC00003421144081A18BF012010BDF0B581B0BC
:101DD0000D46044641B12046294602F02BFF022859
:101DE0000AD2012001B0F0BDD4F80C786FB1D4F85C
:101DF0001408874207D308E0411C1DD0D4F81418FA
:101E00002F46884231D3022F1AD2D4F8140803285F
:101E10000ED302262046314602F00CFF411C24D08E
:101E200030B3012821D0D4F8140801368642F1D30A
:101E3000002001B0F0BD00BF4FF0FF3001B0F0BD99
:101E40003E4600BFD4F814080136864228BF022659
:101E50002046314602F0EEFE411C06D040B101287A
:101E600003D0BE424FF00000ECD101B0F0BD00BF86
:101E7000204631466FF0704203F016FA014635B144
:101E800029B920462946324603F00EFA014639B1F7
:101E90000120012908BF4FF0FF3001B0F0BD00BFA5
:101EA000D4F81008C4F80C68411C08D094F8051840
:101EB0000138C4F8100841F0010084F805083046E4
:101EC00001B0F0BD2DE9F04F81B00021044600F0D3
:101ED0004FFE18B101B0BDE8F08F00BF4FF6FF7A9A
:101EE000FF274FF00D084FF0FF09A4F824A800BF0A
:101EF000D4F80008D4F8101803F084F90028E9D1C8
:101F0000D4F814683078E52809D0002800F01A8247
:101F1000F17A0A0701F03F010CD50F290AD0A4F885
:101F200024A8FF272046002100F014FA0028DFD063
:101F3000D0E700BF0F2911D1D4F820B8BBF1000FB2
:101F4000F0D0410600F18080F9B28842E9D1707B7F
:101F50005FFA89F18142E4D184E000BF390640D1C3
:101F60004108727841EAC011B3781144C9B203EB59
:101F7000C112F77802EB5101C9B207EBC1123579F2
:101F800002EB5101C9B205EBC11202EB51017279AA
:101F9000C9B202EBC11202EB5101B279C9B202EB34
:101FA000C11202EB5101F279C9B202EBC11202EB8C
:101FB0005101327AC9B202EBC11202EB5101727ABD
:101FC000C9B202EBC11202EB5101C9B24A08B37A9D
:101FD00042EAC1111944C9B25FFA89F28A4200F09B
:101FE000B581D4F81818CA7AD20798D10A78801A1D
:101FF00026D170784A78801A22D1B0788A78801AEF
:102000001ED1F078CA78801A1AD130790A79801AEC
:1020100016D170794A79801A12D1B0798A79801AEA
:102020000ED1F079CA79801A0AD1307A0A7A801AE8
:1020300006D1707A4A7A801A02D1B07A897A401A27
:1020400000287FF46CAF81E1B4F8061896F80D9083
:1020500000F0BF07A4F82418707B5FFA89F1814271
:102060007FF45FAF307800F0BF0000FB08F1B6F8F6
:1020700001000091A1F10D0502F01EF8FE2D00F205
:10208000398180463BF8150002F016F8804540F093
:102090003181B6F80300B8F1000F00F0F380009929
:1020A000A1F10C0802F008F8B8F1FE0F00F222814D
:1020B00005463BF8180001F0FFFF854240F01A8109
:1020C000B6F80500002D00F0E5800099A1F10B05A0
:1020D00001F0F2FFFE2D00F20D8180463BF8150065
:1020E00001F0EAFF804540F00581B6F80700B8F13D
:1020F000000F00F003810099A1F10A0501F0DCFF57
:10210000FE2D00F2F78080463BF8150001F0D4FF69
:10211000804540F0EF80B6F80900B8F1000F00F0FC
:10212000F3800099A1F1090501F0C6FFFE2D00F230
:10213000E18080463BF8150001F0BEFF804540F08D
:10214000D980F089B8F1000F00F0E4800099A1F186
:10215000080501F0B1FFFE2D00F2CC8080463BF86F
:10216000150001F0A9FF804540F0C480308AB8F125
:10217000000F00F0D5800099CD1F01F09DFFFE2DCE
:1021800000F2B88080463BF8150001F095FF8045CD
:1021900040F0B080708AB8F1000F00F0C78000995D
:1021A0008D1F01F089FFFE2D00F2A48080463BF8D0
:1021B000150001F081FF804540F09C80B08AB8F1A5
:1021C000000F00F0B98000994D1F01F075FFFE2D42
:1021D00000F2908080463BF8150001F06DFF8045CD
:1021E00040F08880F08AB8F1000F73D000990D1F7D
:1021F00001F062FFFE2D7DD880463BF8150001F00E
:102200005BFF804576D1308BB8F1000F65D0009927
:10221000CD1E01F051FFFE2D6CD880463BF8150015
:1022200001F04AFF804565D1B08BB8F1000F57D05F
:1022300000998D1E01F040FFFE2D5BD880463BF8D3
:10224000150001F039FF804554D1F08BB8F1000F33
:1022500049D000994D1E01F02FFFFE2D4AD880462F
:102260003BF8150001F028FF804543D13078400647
:102270003BD5B8F1000F38D000983BF81000C8BB30
:1022800033E000BF50454FF00D087FF44AAEB6F87A
:10229000050001E04FF00D0850457FF442AEB6F85E
:1022A000070050457FF43DAEB6F8090050457FF475
:1022B00038AEF08950457FF434AE308A50457FF413
:1022C00030AE708A50457FF42CAEB08A50457FF412
:1022D00028AEF08A50450DD1308B50450AD1B08BD5
:1022E000504507D1F08B504504D1013F4FF00D0808
:1022F00018E600BFFF274FF00D0813E64FF00D085A
:1023000050457FF40EAECFE74FF00D0850457FF4F7
:1023100008AECEE74FF00D0850457FF402AECCE793
:102320004FF00D0850457FF4FCADCAE74FF00D08A3
:1023300050457FF4F6ADC8E74FF00D0850457FF4E7
:10234000F0ADC6E7042001B0BDE8F08F002001B079
:10235000BDE8F08F2DE9F04381B00446B0F80608DF
:10236000471C380468D0D4F81028002A64D0D4F868
:1023700000080E46B0F80A184909B7FBF1F303FB51
:102380001171E1B9D4F80C180132C4F8102889B1E0
:1023900090F802284FF6FF75C0F201052A441A4250
:1023A0000CD102F047FC022814D20226F0B201B090
:1023B000BDE8F083B0F808188F423DD2002100EB51
:1023C0004110A4F80678C4F814080026F0B201B051
:1023D000BDE8F0830546013039D0D4F80008D0F8C4
:1023E00014188D420ED2A5F1020802398845C4F8AE
:1023F0000C586ED290F80218D0F8282808FB012259
:1024000068E000BFC6B1D4F80C18FFF7DFFC054642
:102410000130032816D24FF6F871C0F2FF0101EA2D
:10242000C00040F20171C0F2020121FA00F6F0B2E0
:1024300001B0BDE8F08300BF0426F0B201B0BDE8F2
:10244000F08300BFD4F8000803F044F820B101265F
:10245000F0B201B0BDE8F083D4F80008B0F80A1873
:1024600019B1FEF705F8D4F80008D0F81418A5F152
:1024700002088A1E90F80238904505D2D0F8282824
:1024800008FB032201E000BF00224FF00009C0F862
:102490002C28ABB1012680F8046803F01BF8002853
:1024A00094D1D4F8000809F10109D0F82C184A1C7D
:1024B00090F80218C0F82C288945ECD3D0F81418ED
:1024C000A2EB0902C0F82C2802398845C4F80C5840
:1024D00090D30022B0F80A18C4F810284909B7FBB5
:1024E000F1F303FB11716AE72DE9F04F8FB0D0F8DB
:1024F0001878D0F82088F97A8146C80704D188076F
:1025000000F1B6810125D4E1387841F2210A0C901E
:102510007878C0F2010A0B90B8784FF0010B0A905E
:10252000F8780DAE09903879009108907879079085
:10253000B8790690F8790590387A0490787A039003
:10254000B87A02900020F872C9F82008A8F10200B9
:10255000019000BF0C98BBF1060F38700B985A46DB
:1025600078700A98B8700998F870089838710798C8
:1025700078710698B8710598F871049838720398C4
:1025800078720298B872C0F08E80B8F800005A468F
:10259000002800F0888001995A4600BF00F001032E
:1025A00043EA4203120448BF83EA0A03C0F340022D
:1025B00042EA43021B0448BF82EA0A02C0F38003D6
:1025C00043EA4203120448BF83EA0A03C0F3C0028D
:1025D00042EA43021B0448BF82EA0A02C0F3001326
:1025E00043EA4203120448BF83EA0A03C0F34012DD
:1025F00042EA43021B0448BF82EA0A02C0F3801386
:1026000043EA4203120448BF83EA0A03C0F3C0123C
:1026100042EA43021B0448BF82EA0A02C0F30023D5
:1026200043EA4203120448BF83EA0A03C0F340228C
:1026300042EA43021B0448BF82EA0A02C0F3802335
:1026400043EA4203120448BF83EA0A03C0F3C022EC
:1026500042EA43021B0448BF82EA0A02C0F3003385
:1026600043EA4203120448BF83EA0A03C0F340323C
:1026700042EA43021B0448BF82EA0A02C0F38033E5
:1026800043EA4203120448BF83EA0A035A0042EABB
:10269000D0321804888848BF82EA0A02002801F173
:1026A00002017FF47BAF072002F00F0101F130033C
:1026B000392B88BF01F13703102A33544AD3C2F3B0
:1026C000031101F13005392D88BF01F137053118AB
:1026D000130A01F8015C00F0A38003F00F0303F17B
:1026E0003005392D88BF03F13705130B01F8025C63
:1026F00000F09E8003F00F0303F13005392D88BFF1
:1027000003F137050438120C01F8035CCCD14FF00B
:102710007E01315420B3424200217B5C202B20D02B
:1027200053185D1C13D07D186C78202C00F0888025
:102730009C1C0CD0AC78202C00F08480033306D095
:10274000EB78202B00F0808004315318E5D101464E
:1027500007E000BF013800284FF07E013154DAD184
:102760000021072801F101029ABF335C01302023C8
:10277000072A7B5448D8072801F102039ABF355C29
:1027800001302025072BBD543ED8072801F1030254
:102790009ABF355C01302025072AFD5434D807281C
:1027A00001F104039ABF355C01302025072BBD548D
:1027B0002AD8072801F105029ABF355C013020258F
:1027C000072AFD5420D8072801F106039ABF355C7B
:1027D00001302025072BBD5416D8072801F1070228
:1027E0009ABF355C01302025072AFD540CD80728F4
:1027F00094BF305C202011F1080FB85422BF01F1C2
:1028000008002021395400BF4846FFF75BFBE8B9B8
:102810000BF1010BBBF1640F7FF49CAE19E000BF1C
:10282000023800284FF07E0131547FF474AF97E7EF
:10283000033800284FF07E0131547FF46CAF8FE7EE
:1028400001318EE702318CE703318AE7BBF1640F77
:1028500004D107200FB0BDE8F08F00BF042840F07E
:102860004E810099F972C9F8208888077FF54AAE31
:102870000020062108EB010232F8062C8AB108EB91
:102880004002538853B1928852B138F80120043085
:10289000002A01F10801EDD1013802E0013000E029
:1028A00002304EF64F411930C4F6C461A0FB01015D
:1028B0008D084846002100F05BF938B1042808BFB4
:1028C0000720F8B1002840F01A8111E1002608E045
:1028D0000136AE4216D048460121FFF73BFD0028E5
:1028E000ECD1D9F80008D9F8101802F08BFC0028B8
:1028F000E4D1D9F814080078E528E9D00028E7D019
:102900000026E8E7013D00F0F380B9F80608411B16
:10291000484600F02DF9002840F0F180D9F8180859
:102920004FF00D0A017842784E0846EAC1118378CB
:102930001144C9B203EBC112C77802EB5101C9B20D
:1029400007EBC11202EB51010279C9B202EBC112CD
:1029500002EB51014279C9B202EBC11202EB510103
:102960008279C9B202EBC11202EB5101C279C9B23C
:1029700002EBC11202EB5101027AC9B202EBC112A1
:1029800002EB5101427AC9B202EBC11202EB5101D2
:10299000C9B24A08807A42EAC11100EB01084FF639
:1029A000FF774FF0010B00BFD9F80008D9F81018D5
:1029B00002F028FC002840F0A280D9F814080F2269
:1029C000D9F82018A0F80B2000224283EAB202FBBB
:1029D0000AF280F80D8001EB420333F81A4C661CB2
:1029E000B6B2012EA0F8014002D8A0F8037007E0AB
:1029F00033F8186C741CA4B2012CA0F803601FD823
:102A0000A0F80570A0F80770A0F80970C7810782C8
:102A100047828782C78207838783C78345F0400147
:102A20000170D9F80008002180F804B84846FFF783
:102A300091FC00287FF446AF013DB5D142E700BFCD
:102A400033F8166C741CA4B2012CA0F80560D9D917
:102A500033F8146C741CA4B2012CA0F80760D3D90D
:102A600033F8126C741CA4B2012CA0F80960CDD903
:102A700033F8106C741CA4B2012CC681C7D933F88A
:102A80000E6C741CA4B2012C0682C1D933F80C6CF4
:102A9000741CA4B2012C4682BBD933F80A6C741C96
:102AA000A4B2012C8682B5D933F8086C741CA4B288
:102AB000012CC682AFD933F8066C741CA4B2012C69
:102AC0000683A9D933F8046C741CA4B2012C868344
:102AD000A3D933F8023C5E1CB6B2022EC3839DD349
:102AE00031F812100029294608BF45F0400197E748
:102AF000D9F80008D9F8101802F084FB10B10FB013
:102B0000BDE8F08FD9F814180020C86188614861C9
:102B10000861C860886048600860D9F81818D9F85A
:102B200014280B7813704B7853708B789370CB7894
:102B3000D3700B7913714B7953718B799371CB7976
:102B4000D3710B7A13724B7A5372897A9172D9F8D6
:102B50001818D9F81428C97A01F018011173D9F896
:102B60000018012281F804280FB0BDE8F08F0000A2
:102B700070B5D0F80828A0F80618012A54D00446E9
:102B8000D0F800080D46D0F814188A424CD23AB357
:102B9000B0F80A3890F802685B095E43AE420DD97E
:102BA000931E02398B423DD290F80218D0F8286863
:102BB00003FB0161C4F80C2821BB35E0114602F08B
:102BC00039F80246013031D0022A2DD3D4F800085A
:102BD000D0F814188A4227D2AD1BB542EED2DFE7F7
:102BE00090F80028032A03D1D0F82428002ACFD156
:102BF000B0F80818A94217D9D0F824180022C4F850
:102C00000C2889B1B0F80A285209B5FBF2F303FB8E
:102C10001252194400EB4210C4F814080020C4F802
:102C2000101870BDC4F80C28022070BD012070BDC2
:102C300040F24C31C2F200010A5C002A1CBF0020A5
:102C4000704701230A180B5401EB80004168107A89
:102C50000968084740F24C3CC2F2000C0CEB8003C0
:102C60005B686044007A1B691847000080B540F239
:102C70004C3CC2F2000C0CEB800EDEF804E0604429
:102C8000007ADEF808C0BDE88040604740F24C3171
:102C9000C2F2000101EB800252680844007A5168D8
:102CA0000847000080B540F24C3CC2F2000C0CEB2F
:102CB000800EDEF804E06044007ADEF80CC0BDE867
:102CC0008040604710B5044600F022FF002818BF7E
:102CD00010BD7CB3D4F8000860B390F8001849B375
:102CE000B0F80618B4F80428914223D190F80108EE
:102CF000FFF7CCFFC0071DD1D4F828080138012800
:102D000084BF022010BD40F2AC0100EB4000C2F2D3
:102D1000000101EB8000418A21F48072002A18BF73
:102D20004A1E1104428204BF002181600020C4F8C1
:102D3000000810BD092010BD2DE9F04782B01546EE
:102D40008846019001A91046002201F001FA18B14D
:102D500002B0BDE8F08700BFD5F800A0DAF814484B
:102D6000DAF81078A01E874218D99AF800080128CE
:102D70001AD10027022605E00137DAF814080136D7
:102D8000864255D25046314601F054FF0028F3D018
:102D9000411C5BD00128F0D102204AE00020C8F895
:102DA000007002B0BDE8F087DAF82098002702280A
:102DB00018D1002000210CE0BAF80A0809F1010935
:102DC000514631F8022B0238002A08BF0137013C76
:102DD0002ED00028F5D15046494602F013FA0028BB
:102DE000EAD026E00020002118E000BFBAF80A0867
:102DF00009F10109514611F8042B043811F8026C4D
:102E000011F8015C11F8033C360465F31B6646EAD1
:102E10000323D21808BF0137013C09D00028EAD1AA
:102E20005046494602F0EEF90028DFD001E000BF2D
:102E300000209AF80518CAF8107841F001018AF8C4
:102E40000518C8F8007002B0BDE8F0870120F0E76F
:102E50002DE9F04782B08046481E154620EAE07909
:102E600000240DF106066F46C2464C451BD000BF3C
:102E70002846314601223B4600F09CFC0098012880
:102E800010D19DF806000D28F2D00AF8010B0A288F
:102E900004F10104E9D100208AF80000404602B0A4
:102EA000BDE8F087A14600208AF80000B9F1000FC4
:102EB00008BFC846404602B0BDE8F0872DE9F0479C
:102EC000D0B10446D0F80008B0B10D4690F8001813
:102ED00091B1B0F80618B4F8042891420CD190F8DA
:102EE0000108FFF7D3FEC00706D194F807683EB18A
:102EF0003046BDE8F08700BF0920BDE8F08700BF7D
:102F0000D4F82438D3B3681C48D0D4F80C08A842AD
:102F100038BF0546002DC4F8085800F08D815F6861
:102F2000D4F80008A5F101012FB3B0F80A2890F8F1
:102F30000268B1FBF2F22433B2FBF6F2BA42C0F0FF
:102F4000C58053F8186CB6B1D21BB242C0F0C08035
:102F500053F8107C7FB1921BBA42C0F0BB8053F88B
:102F6000086C46B1D21BB242C0F0B68053F8207B49
:102F7000921B002FE2D10022B1E000BFD4F80C2850
:102F8000AA423DD294F8060880073AD5D4F808182A
:102F900004F608070020C4F808083DE09A46D4F873
:102FA00010085AF8048B0226F8B181460236002731
:102FB0000546D4F80008294601F03CFE012840F2FD
:102FC000F380411C00F08080691C0137884205466F
:102FD000EFD0464598BFEAE80279D4F80018D1F856
:102FE00014188842E1D3D4F8243846451E608FBFB8
:102FF00011200026CAF800603046BDE8F08700BF07
:103000002A46D4F808180020002AC4F8080800F05E
:10301000D18004F608071546D4F8000890F8022875
:10302000B0F80A3803FB02F639B16A1E0139B2FB67
:10303000F6F2B1FBF6F39A4206D2D4F81018B9B3FF
:10304000C4F8141807E000BF70420840D4F8141800
:10305000C4F808082D1A49B3B54240F2878094F8A5
:103060000628D4F80008920704D401F0E3FD0146D5
:1030700005E000BFFEF7AAFE0146002874D0481CF8
:1030800022D00229C0F09080D4F80008D0F81408AB
:10309000814280F08980D4F80808AD1B3044B542E5
:1030A000C4F81418C4F80808D9D85FE0386881E07B
:1030B0000021FEF78BFE0146013005D0012973D0B7
:1030C000C4F81018BCE700BF01266EE01C3B04E00A
:1030D000143B02E00C3B00E0043B1B681A44D0F8B0
:1030E0001478931E023FBB42C4F814285CD290F8B7
:1030F0000228D0F8287803FB0273002B54D0B0F8D4
:103100000A78B5FBF7F606FB1756002E00F0948000
:10311000B1FBF7F1013A1140D4F81828CD189542C7
:1031200000F08A8094F8061849060FD590F8010837
:10313000214601230126FFF7B5FDB0BB94F8060830
:1031400000F0BF01D4F8000884F8061890F80108D0
:1031500021462A4601230126FFF788FD28BB0020CF
:10316000C4F81858BDE8F08700213546D4F8002887
:10317000D4F80878B2F80A08B5FBF0F303FB105650
:103180007819C4F80808AEB1D2F814780239023FB1
:10319000B94209D292F80278D2F8282801FB072117
:1031A00011B15D1807E000BF0226304684F80768B9
:1031B000BDE8F0870025D4F80018B1F80A28B0FB64
:1031C000F2F303FB120232B3D4F81828954222D04E
:1031D00094F80608400610D591F80108214601230D
:1031E0000126FFF75FFD0028DFD194F80608D4F828
:1031F000001800F0BF0084F8060891F80108214685
:103200002A4601230126FFF731FD0028CDD1D4F84D
:103210000808C4F81858D4F80C1888420CD994F847
:103220000618C4F80C0841F02000002684F80608AF
:103230003046BDE8F08700BF0020BDE8F087000001
:1032400010B582B00190009131B34FF0FF3E00BF46
:1032500001EB0E0C9CF80130202B21D33A2B1FD010
:103260009CF80230202B27D33A2B25D09CF8033032
:10327000202B39D33A2B37D09CF804400EF1040EA2
:10328000A4F13A03B3FA83F34FEA531C202C1AD368
:103290003A2CDDD117E000BF0B21084602B010BD6B
:1032A0003A3BB3FA83F34FEA531C0EF1010EBCF123
:1032B000000F0BD122E000BF3A3BB3FA83F34FEA91
:1032C000531C0EF1020EBCF1000F17D00978A1F1CA
:1032D0003003092B36D8BEF1010F4FF00B0108BFA8
:1032E000002BDAD10AE000BF3A3BB3FA83F34FEA8E
:1032F000531C0EF1030EBCF1000FE7D140F2AC03FA
:10330000C2F20003596861B19C688C4204BF00247A
:103310009C605C698C4204BF00245C61002481F8DD
:103320000048002190B1012A80F800185860B4D1FB
:1033300001A86946002200F00BFF0146084602B0D2
:1033400010BD00BF0B21084602B010BD59600846F1
:1033500002B010BD2DE9F04FADF63C0DCDF8381898
:10336000A0B104460020C4F8000804A802F01E061C
:10337000154600F500600DF63801324600F0E8FE13
:1033800050B10DF63C0DBDE8F08F00BF09200DF6E1
:103390003C0DBDE8F08F00BF01A8CDF8280840F231
:1033A000CC00C2F20000DDF83818CDF8300804A8CF
:1033B00005F01F0A01F060F9DDF82498C0B11AF099
:1033C0001C0F00F0A780002800F0DB80042868D1E3
:1033D00040F2AC00C2F200008168002950D0406980
:1033E00000284DD012204AF0080A00285ED0E9E0FB
:1033F000B9F1000F38D040F2AC0CC2F2000CDCF88E
:103400000820DDF81018DDF81878BDF816E85AB174
:103410008A4209D1DCF80C30BB4205D1BCF810302F
:10342000734501D100210FE0DCF81430002B00F0CF
:10343000A5808B422ED1DCF81810B9422AD1BCF8F5
:103440001C10714526D101213EB941EA41010CEB26
:103450008101498AB1F5807FB1D11AF01C0F4FF07C
:1034600010001ED156E000BF1AF01C0F4FF00600EE
:1034700050D04FF000094AF0080AB8B1A2E000BFEE
:1034800004A8FFF731F8DDF824984AF0080A68B17B
:1034900098E000BF002A71D01AF01C0F4FF0120004
:1034A00038D04AF0080A002840F08C801AF0080151
:1034B00000F0888001F044FCC9F80E00002089F873
:1034C0000B00C9F81C00DDF81058B9F81AB095F8CF
:1034D0000018032907D199F8151099F814204BEA20
:1034E000016141EA024BA9F81A00A9F81400012071
:1034F000BBF1000F85F8040867D0BBF1010F00F0A5
:10350000B580D5F81408584540F2B080D5F82C881D
:103510005E4612E000287FF434AF99F80B00C10634
:103520003AD45FEA8A7150D510F001002ED14CE0F8
:10353000D5F814083E4687423CD22846314601F071
:1035400079FB0746013000F0C7809FB3012F00F0E0
:103550008D8028463146002201F0A6FE00287FF427
:1035600010AFD5F810080130E2D295F80518C5F86B
:10357000100841F0010085F80508D9E71AF01C0F82
:10358000CBD099F80B0010F0110F0BD007200DF6DF
:103590003C0DBDE8F08F00BF04200DF63C0DBDE8EA
:1035A000F08F00BF082000EA450000283FF47EAFFE
:1035B00008E000BFABF10100C5F80C082846414601
:1035C00001F020FE00287FF4DCAE40F2AC00DDF814
:1035D0001018C2F200008268D1F82C388A42C4F870
:1035E0001C38C4F820980BD1C368DDF81878BB42AA
:1035F00006D1038ABDF81678BB4201D1002222E031
:1036000047698F420CD18369DDF81868B34207D14E
:10361000838BBDF81668B34202D1012213E000BFCC
:103620004FF0000312B1F7B9012200E0002242EA94
:103630004207DDF8186800EB8707FE60BDF81668E2
:10364000B9603E827B8242EA42070AF0080300EB3F
:1036500087004AEA830330F8127F022B02D2013737
:103660000CE000BF47B10020C4F8280802200DF686
:103670003C0DBDE8F08F00BF4FF480770780501CF1
:10368000C4F82808002084F8063884F8070891F860
:103690000038B9F81A20032B07D199F8153099F89A
:1036A000147042EA036242EA0742C4F81028D9F8CB
:1036B0001C20C4F80808C4F80C28C4F81808C4F87A
:1036C0002408C4F80018B1F80618A4F804180DF678
:1036D0003C0DBDE8F08F00BF01200DF63C0DBDE8AC
:1036E000F08F00002DE9F04794B004786F46002277
:1036F000002C07F10C0A0091CDE901223ED0451CB7
:1037000000224FF00D090DF14C0807E002983246F7
:1037100001300196029015F8014B6CB30A2C17D1B9
:10372000002A15D4561CB8183C2A80F80C900AD3ED
:10373000009851463246434600F056FA1398861BCD
:1037400018BF4FF0FF3602983246013001960290C2
:10375000002AE0D4561CB8183C2A0473D6D300982B
:1037600051463246434600F03FFA1398861B18BF75
:103770004FF0FF36CAE700BF002A15D4009813ABFC
:10378000514600F031FA00284FF0FF3002D014B05B
:10379000BDE8F0871399DDE901238A4208BF184686
:1037A00014B0BDE8F08700BF4FF0FF3014B0BDE8A3
:1037B000F08700002DE9F04F83B004460020186028
:1037C00034B3D4F80008E8B1894690F80018C9B1BC
:1037D0001646B0F80618B4F80428914212D190F8B1
:1037E00001081D46FFF752FAC0070BD194F807787D
:1037F0007FB994F80608C00710D10727384603B0F0
:10380000BDE8F08F0927384603B0BDE8F08F00BF50
:103810000927384603B0BDE8F08F00BFD4F8081878
:10382000D4F80C08401AB04238BF0646002E00F00B
:103830005981A01C04F1010B0290E01C01900DE0E5
:103840000020D4F808182A68814401440244361A3A
:103850004FF00007C4F808182A60DAD0D4F800083E
:10386000B0F80A38B1FBF3F707FB1312B2B1981A9C
:10387000B04288BF30460028E2D0A31810F0030100
:10388000A0F1010C16D01A4612F801EB4F4601299F
:1038900007F801EB12D161464FE000BF90F8023803
:1038A00003F1FF0202EA07085FEA086210D0D4F8C9
:1038B000141874E01A464F4601463EE05A78022931
:1038C00089F8012032D1811E9A1C09F1020734E0E7
:1038D000002947D0D4F82418002947D04A68002A84
:1038E00000F00681B7FBF3F02431904244D351F845
:1038F000183C002B00F0FC80801A98423ED351F80F
:10390000102C002A00F0F480C01A904238D351F8ED
:10391000083C002B00F0EC80801A984232D351F81A
:10392000202BC01A002AE0D1E2E000BFDA1C9B780D
:10393000C11E09F1030789F80230BCF1030FFFF43F
:1039400080AF043A3B1F00BF12F8047F043903F82C
:10395000047F57785F7097789F70D778DF70F3D1C6
:103960006FE700BFD4F810180FE000BFD4F81418A8
:1039700001F060F9014608E01C3904E0143902E066
:103980000C3900E00439096801440229C0F0B08014
:10399000481C00F0B580D4F80008C4F81418D0F81A
:1039A00014388A1E991E8A4280F0A28090F802186C
:1039B000D0F8283802FB0137002F00F09980B0F8CA
:1039C0000A385FFA88F29E4207EB020A30D2D4F836
:1039D0001828524523D094F80618490611D590F8B6
:1039E0000108214601230127FFF75CF9002840F078
:1039F000808094F8060800F0BF01D4F8000884F82D
:103A0000061890F801082146524601230127FFF7C6
:103A10002DF900286DD1D4F80008B0F80A38D4F890
:103A20000808C4F818A8B0FBF3F101FB13021EE765
:103A3000B6FBF3F890F8010808EB02038B4288BF4D
:103A4000A1EB0208494652464346FFF70FF900280A
:103A500056D194F8060840063CD5D4F81808A0EBD7
:103A60000A01414536D2D4F80008B0F80A0888B3F4
:103A700001FB009110F00303A0F1010208D02778A8
:103A8000012B01F8017B05D15B46104612E000BF17
:103A900023460FE09BF80070022B01F8017B03D155
:103AA000029B023806E000BF029B03381B7801F836
:103AB000013B019B032A0DD31A1F043912F8043F5E
:103AC000043801F8043F53784B7093788B70D378A7
:103AD000CB70F3D1D4F80008B0F80A0808FB00F066
:103AE000AFE600BF0027384603B0BDE8F08F00BF47
:103AF000022784F80778384603B0BDE8F08F00BF8E
:103B0000012784F80778384603B0BDE8F08F00003D
:103B1000B0B5B8B30446D0F8000898B390F80018D0
:103B200081B3B0F80618B4F8042891422AD190F86D
:103B30000108FFF7ABF8C00724D194F80608810606
:103B40005CBF0020B0BD400611D5D4F80008D4F801
:103B5000182890F80108214601230125FFF7A2F853
:103B600068B994F8060800F0BF0084F80608D4F895
:103B70000008D4F81C1801F045FB054620B1284682
:103B8000B0BD00BF0920B0BDD4F82058E87A40F09D
:103B90002000E872D4F80C082877D4F80C08000A42
:103BA0006877B4F80E08A87794F80F08E877D4F887
:103BB00010086883010C000E2975687501F0C0F8C3
:103BC000C5F816000020688294F80608012100F06C
:103BD000DF0084F80608D4F8000880F80418BDE86F
:103BE000B04001F0FFBB00002DE9F04F83B0044668
:103BF00000201860D4B1D4F80008B8B18B4690F812
:103C0000001899B11646B0F80618B4F80428914285
:103C10000CD190F801081D46FFF738F8C00705D110
:103C200094F8070830B103B0BDE8F08F092003B065
:103C3000BDE8F08F94F80608800703D4072003B08E
:103C4000BDE8F08FD4F808C8711E6FEA0C008142FD
:103C500080F08881A01C04F1010A0290E01C019010
:103C6000D4F80028B2F80A18BCFBF1F303FB11C02A
:103C7000C0B1091AB14288BF3146002978D004EB9F
:103C8000000E11F00300A1F1010C5B4646D013F8C1
:103C9000018B7246012802F8018B41D1964660469D
:103CA00053E000BF92F8020800F1FF0101EA0308A7
:103CB0005FEA086140F09C80BCF1000F6CD0D4F842
:103CC00024E8BEF1000F6DD0DEF80420002A00F0D9
:103CD0004981B3FBF0F10EF12403914268D353F80C
:103CE000180C002800F03E81891A814264D353F8F1
:103CF000102C002A00F03681091A914260D353F843
:103D0000080C002800F02E81891A81425CD353F8F8
:103D1000202B091A002AE0D124E100BF084614E054
:103D20009BF8012002288EF8012005D1881E0BF196
:103D300002030EF1020E08E09BF80220C81E0BF1F0
:103D400003038EF802200EF1030EBCF1030F0FD314
:103D5000043BAEF1040200BF13F8047F043802F8FC
:103D6000047F5F7857709F789770DF78D770F3D1B2
:103D700094F8060840F0400084F80608D4F80808D3
:103D80008B4400EB010C2868761A0844C4F808C874
:103D900028607FF465AFE5E0D4F81008B8B91046A4
:103DA000002102E0D4F814181046FEF70FF80EE0D8
:103DB000A3F11C0009E000BFA3F1140005E000BF5F
:103DC000A3F10C0001E000BF181F00680844411C6B
:103DD00000F0C080012800F0BB80002800F0C08007
:103DE000D4F81018C4F81408002908BFC4F8100843
:103DF00094F80608400612D5D4F80008D4F818281C
:103E000090F8010821460123FEF74CFF002840F0FE
:103E1000A18094F8060800F0BF0084F80608D4F8E2
:103E20000008D4F81418D0F814280239023A914244
:103E300080F08E8090F80228D0F8283801FB0233F9
:103E4000002B00F08580B0F80A185FFA88FC8E42DB
:103E500003EB0C0920D2D4F818284A4512D0D4F824
:103E60000828D4F80C389A420CD290F80108214660
:103E70004A460123FEF7FAFE00286BD1D4F8000869
:103E8000B0F80A18D4F80808C4F81898B0FBF1F292
:103E900002FB1100EDE600BFB6FBF1F890F8010857
:103EA00008EB0C01914288BFA2EB0C0859464A4628
:103EB0004346FEF7F7FE00284CD1D4F81808A0EBD3
:103EC000090141453DD2D4F80008B0F80A0890B382
:103ED00001FB00B110F00303A0F1010C08D011F8B0
:103EE000012B012B227005D15346604612E000BF22
:103EF00023460FE011F8012B022B8AF8002003D192
:103F0000029B023806E000BF11F8012B029B033828
:103F10001A70019BBCF1030F0DD304391A1F11F85D
:103F2000043F043802F8043F4B7853708B78937049
:103F3000CB78D370F3D194F8060800F0BF0084F872
:103F40000608D4F80008B0F80A0808FB00F115E7E5
:103F5000022000E0012084F8070803B0BDE8F08FDC
:103F6000D4F808C8D4F80C08844588BFC4F80CC835
:103F700094F8060840F0200084F80608002003B0FA
:103F8000BDE8F08F80B580280246C0F0928069B10C
:103F9000FF2884BF002080BD45F67A01C0F60001ED
:103FA00001EB40006FF0FF01405A80BD45F67A0CEE
:103FB0004FF0000E1E23C0F6000C0CEB030232F88B
:103FC0001E2C824272D00CEB4E025188814233D0BB
:103FD0009188814234D0D188814235D01189814283
:103FE00036D05189814237D09189814238D0D189E8
:103FF000814239D0118A81423AD0518A81423BD0E4
:10400000918A81423CD0D18A81423DD0118B81423C
:104010003ED0518B81423FD0918B814240D03CF8C1
:104020000310814240D00EF1100E2033BEF1800FFC
:104030004FF00002C1D13CE00EF1010E36E000BFAE
:104040000EF1020E32E000BF0EF1030E2EE000BFB3
:104050000EF1040E2AE000BF0EF1050E26E000BFAF
:104060000EF1060E22E000BF0EF1070E1EE000BFAB
:104070000EF1080E1AE000BF0EF1090E16E000BFA7
:104080000EF10A0E12E000BF0EF10B0E0EE000BFA3
:104090000EF10C0E0AE000BF0EF10D0E06E000BF9F
:1040A0000EF10E0E02E000BF0EF10F0E0EF18000B9
:1040B000C2B2104680BD000080B545F65C5C4FF092
:1040C000000E0622C0F6000C0CEB020333F8063C8F
:1040D000834218D00CEB4E03598881421AD099883C
:1040E000814221D0BEF1EC0F08BF80BD3CF8021028
:1040F000814223D00EF1040E08320CEB020333F898
:10410000063C8342E6D145F67C30C0F6000030F82C
:104110001E0080BD0EF1010E45F67C30C0F6000099
:1041200030F81E0080BD00BF0EF1020E45F67C3057
:10413000C0F6000030F81E0080BD00BF0EF1030E77
:1041400045F67C30C0F6000030F81E0080BD00004F
:104150002DE9F04F85B0002303600B6803B31546CB
:104160004FF0FF37DA195678202E1BD33A2E19D08C
:104170009678202E1ED33A2E1CD0D678202E21D30E
:104180003A2E1FD016790437A6F13A02B2FA82F21B
:104190005209202E01D33A2EE4D192B319E000BF88
:1041A0000B2221E0A6F13A02B2FA82F2520901375B
:1041B0007AB926E0A6F13A02B2FA82F2520902373F
:1041C000FAB106E0A6F13A02B2FA82F252090337D6
:1041D000BAB11A78A2F13006092E09D8012F4FF092
:1041E0000B0208BF002E09D0104605B0BDE8F08FC5
:1041F0000B22104605B0BDE8F08F00BFDA1901327E
:104200000A6040F2AC06C2F200067468B4B30460FF
:1042100094F8000880B194F80108FEF737FDC10753
:104220000AD140070A21002D18BF01EAE0752A468D
:10423000104605B0BDE8F08F0020A4F8000800206B
:10424000FEF7F6FCC1071FD1002D18BF10F00400C7
:1042500020D194F8010804F60A0502212A46FEF747
:10426000F9FC30B928886FF4C061A0F601008842DB
:1042700016D20122104605B0BDE8F08F0C22104680
:1042800005B0BDE8F08F00BF0322104605B0BDE8C1
:10429000F08F00BF0A22104605B0BDE8F08F00BFC6
:1042A000204600210025FDF759FD012840F0DB8064
:1042B00094F8C201002814BFD4F8C651002594F820
:1042C000D2010195002814BFD4F8D601002094F83B
:1042D000E2110290002914BFD4F8E601002094F8FE
:1042E000F2110390002914BFD4F8F60100200490C5
:1042F000A5B3002084F804084FF0FF30C4F82C0860
:104300002046294600F07EFF10B1032027E000BFC1
:10431000B4F8FE014AF6552188421FD194F837209F
:1043200094F8383094F83610120244F2461042EAFB
:104330000342C0F254001144814200F0B38094F86B
:10434000532094F8543094F85210120242EA034277
:104350001144081A18BF012001E000BF0220002804
:1043600000F08080029D8DB3002084F804084FF097
:10437000FF30C4F82C082046294600F043FF08B15E
:10438000032024E0B4F8FE014AF6552188421DD1ED
:1043900094F8372094F8383094F83610120244F22A
:1043A000461042EA0342C0F254001144814279D0DF
:1043B00094F8532094F8543094F85210120242EAC0
:1043C00003421144081A18BF012000E0022000280F
:1043D00048D0039D95B3002084F804084FF0FF30C7
:1043E000C4F82C082046294600F00CFF10B1032029
:1043F00025E000BFB4F8FE014AF6552188421DD1E0
:1044000094F8372094F8383094F83610120244F2B9
:10441000461042EA0342C0F254001144814241D0A6
:1044200094F8532094F8543094F85210120242EA4F
:1044300003421144081A18BF012000E0022088B18D
:10444000049D002D64D0002084F804084FF0FF3054
:10445000C4F82C082046294600F0D4FE60B10320A1
:1044600001E000BF0020E8B1032814BF0D220122A3
:10447000104605B0BDE8F08FB4F8FE014AF65521AC
:10448000884245D194F8372094F8383094F83610A3
:10449000120244F2461042EA0342C0F254001144B0
:1044A000814279D1B4F80BA0B4F80A389A4529D1E1
:1044B000B4F816B0BBF1000F08BFD4F824B0277CC5
:1044C000C4F818B87A1E012A84F803781AD8627BD7
:1044D000511EB2FA82F011404FEA501018BF01216C
:1044E000084384F802280DD1B4F811C058091FFA06
:1044F0008CF183B2B1FBF3F3A4F808C803FB10C03E
:10450000000407D00D22104605B0BDE8F08F00BFB3
:104510000220A8E7B4F81380B8F1000F08BFD4F860
:104520002080B4F80E90B9F1000FEBD00BFB07FE22
:104530000EEB0900C718B845E4D3A8EB0703934274
:10454000E0D3B3FBF2F240F6F5704FF0010882427F
:104550004FF6F57088BF4FF0020882424FF6F670B2
:1045600088BF4FF00308824202F1020005EB090305
:1045700007EB0501C4F81408C4F81C58C4F8203827
:10458000C4F8281816D35FEA0C41BBD1E16A830056
:10459000C4F824181FE000BF94F8532094F8543056
:1045A00094F85210120242EA03421144081A18BF4A
:1045B000012058E75FEA0C41A4D003EB0E01B8F1EB
:1045C000020FC4F824180FBF430000EB400002F0B4
:1045D000010101EB50030AEB03000138B0FBFAF0D4
:1045E00083458FD34FF0FF304FF6F671C4F80C08B7
:1045F000C4F8100880208A4284F8050827D3208E4A
:10460000012824D1691C204600F0FCFDF8B9B4F85B
:10461000FE114AF655220020914284F8050816D171
:10462000206845F25221C4F2611188420FD1D4F8BA
:10463000E40147F27221C6F24111884207D1D4F851
:10464000EC01D4F8E811C4F80C08C4F8101830884C
:10465000B168013084F800883080A142A4F80608CF
:1046600004BF0020B06070690022A04208BF7261E0
:10467000104605B0BDE8F08F2DE9F04F83B00D4630
:10468000097883465C2903D02F2908BF013500E053
:1046900001350026CBF808682878202808D258462B
:1046A0000021FEF765FACBF8146803B0BDE8F08F7F
:1046B00040F2011A0124C3F2005A28785C2803D181
:1046C000013528785C28FBD02F28F9D02028C0F0AD
:1046D0009B82DBF820786E1C4FF000080AE000BFD8
:1046E00027F8181016F8080008F10101C2B2202AB4
:1046F00088462DD3C0B22F2820D05C281ED0B8F118
:10470000FF0F00F081820121FFF73CFC002800F040
:104710007B8201467F28E3D8A1F122021D2A4FF0B7
:10472000060005D804FA02F212EA0A0F40F0778276
:104730007C2900F074827F29D2D170E2B8F1000F99
:1047400000F0628208F101004FF0000904E000BFB0
:10475000481C4FF004098846054407EB480004381C
:1047600006E000BFB8F10408A0F1080000F04C8298
:1047700041882E2901D0202926D1B8F1010F00F05F
:10478000438201882E2901D0202917D1B8F1020FC8
:1047900000F03A8230F8021C2E2901D0202911D1D4
:1047A000B8F1030F00F0308230F8041C2E29D9D064
:1047B0002029D7D0A8F1030806E000BFA8F101081E
:1047C00002E000BFA8F10208DBF818084FF0000A69
:1047D0004FF0203107F1040C27F818A0C0F807109B
:1047E00041600160604602E00AF1040A083030F8D6
:1047F000041C2E2901D0202918D130F8021C2E29A2
:1048000001D020290CD101882E2901D020290BD1DB
:1048100041882E29E8D02029E6D00AF1030A05E0D4
:104820000AF1010A02E000BF0AF1020A07EB4800A0
:104830000438BAF1000F18BF49F00309B8F1000FAE
:104840001ED041882E2925D0B8F1010F18D001883B
:104850002E2919D0B8F1020F12D030F8021C2E29DF
:1048600016D0B8F1030F0BD030F8041CA8F10408DF
:104870002E29A0F10800E1D108F101080AE000BFEB
:104880004FF0000806E000BFA8F1010802E000BFF9
:10489000A8F10208C8F10004A8F101064FF0000ECB
:1048A000002049F003010CEB4A02029004E000BF33
:1048B00008320AF1040A894637F81A00202804D081
:1048C0002E281FD1564500F0968007EB4A004088FD
:1048D00004EB0A03202804D02E2819D1981C00F0DC
:1048E00089801088202804D02E2817D1D81C00F0E9
:1048F000818050882028DBD02E2815D1181DD7D1D3
:1049000078E000BF002800F02F810AF1010A11E0D1
:10491000002800F06B800AF1020A0AE0002800F08B
:1049200065800AF1030A04E0002800F05F800AF1C4
:10493000040A89460299072900F21081C24500F055
:104940000D81802813D30021CDE900ECFFF71AFB7D
:1049500040B145F2FA71C0F60001084410F8800C2D
:1049600001E000BF0020DDE900EC49F00209A0F100
:104970002B01322926D8DFE801F01B1B2727272728
:10498000272727272727272727271B271B272727CF
:1049900027272727272727272727272727272727A7
:1049A000272727272727272727271B271B0000BF65
:1049B00049F003095F20DBF81818029A8854501C4C
:1049C0006FE700BF0028F3D0A0F1410189B21A2996
:1049D00002D24EF0020EEEE7A0F1610189B2192970
:1049E0009CBF4EF0010E2038E5E700BF012089464C
:1049F000BBE000BF89464FEA8E0E0820C2460290F7
:104A000049F003010CEB4A0204E000BF08320AF14E
:104A1000040A894637F81A00202804D02E281FD10E
:104A2000564500F0968007EB4A00408804EB0A03E5
:104A3000202804D02E2819D1981C00F089801088D5
:104A4000202804D02E2817D1D81C00F0818050884F
:104A50002028DBD02E2815D1181DD7D178E000BF33
:104A6000002800F078800AF1010A11E0002800F027
:104A70006B800AF1020A0AE0002800F065800AF162
:104A8000030A04E0002800F05F800AF1040A894666
:104A900002990A2900F25D80C24500F05A80802800
:104AA00013D30021CDE900ECFFF76CFA40B145F2D9
:104AB000FA71C0F60001084410F8800C01E000BF54
:104AC0000020DDE900EC49F00209A0F12B013229B8
:104AD00026D8DFE801F01B1B2727272727272727B2
:104AE0002727272727271B271B272727272727276E
:104AF0002727272727272727272727272727272746
:104B00002727272727271B271B0000BF49F003095A
:104B10005F20DBF81818029A8854501C02906FE747
:104B20000028F3D0A0F1410189B21A2902D24EF037
:104B3000020EEEE7A0F1610189B219299CBF4EF087
:104B4000010E2038E5E700BF002089460DE000BFD8
:104B5000894649F00309002007E000BFC24518BF9D
:104B600049F003097FF647AF0120DBF81818052349
:104B70000A7840F2011AE52A08BF0B70002818BF16
:104B80004FEA8E0E0EF003010EF00C00032949F0DF
:104B9000020208BF91460C284FF00104C3F2005AEC
:104BA00008BF91465FEA897207D4012908BF49F01E
:104BB0001009042808BF49F00809DBF8180880F834
:104BC0000B905846FDF77EF9DBF81818C97AF8B94A
:104BD000480727D4DBF81408C17AC90626D5DBF8C4
:104BE000001891F80028418B032A05D1427D007DF1
:104BF00041EA026141EA0041CBF8081828785C28B4
:104C00007FF462AD5CE500BF062003B0BDE8F08F25
:104C1000042804D148074FF0040058BF052003B012
:104C2000BDE8F08F002003B0BDE8F08F052003B091
:104C3000BDE8F08FF0B581B002293FD30446D0F82B
:104C400014080D46884239D994F80008032839D051
:104C5000022859D0012831D1B4F80A0805EB5506CD
:104C6000D4F82018B6FBF0F00144204600F0CAFA50
:104C7000002855D1B4F80A08771CB6FBF0F1D4F837
:104C8000202801FB1061B7FBF0F0665C811820461C
:104C900000F0B8FA002843D1B4F80A08EA07B7FBD5
:104CA000F0F101FB1070205C46EA002108466FF32A
:104CB0001F3018BF080901B0F0BD00BF012001B0CE
:104CC000F0BD00BFB4F80A08D4F820188008B5FB7E
:104CD000F0F00144204600F095FA08BBB4F80A0849
:104CE000A900B1FBF0F14843C0EB850021188B7897
:104CF0004A78C9781B04205C61F31B6343EA0221F4
:104D0000084401B0F0BD00BFB4F80A08D4F8201878
:104D10004008B5FBF0F00144204600F073FA18B1EA
:104D20004FF0FF3001B0F0BDB4F80A086900B1FBE4
:104D3000F0F14843C0EB4500205A01B0F0BD00003F
:104D40000020704790B0FBF781FF00240120CDE9DF
:104D50000B44CDE9094406900A904FF4E0104FF45B
:104D6000803102250F9006A8CDE90714CDE90D5139
:104D7000FCF71AF920B1EFF3108072B6FEE700BF1E
:104D80000F20CDE901054FF48060CDE9040401A8AE
:104D900002210394FCF700F820B1EFF3108072B603
:104DA000FEE700BFFCF7B8FEFCF786FEFCF712FF3B
:104DB000FCF7EAFEFCF7A2FE4FF4FA60FBF716FEE2
:104DC00040F68430C2F20000EDA10122FEF738FA6D
:104DD00040F2880841F29445C2F20008E9A2F2A12B
:104DE000C2F2000588F80000002808BF11462846D6
:104DF00021224FF0FF33FCF783FD45F6213008F107
:104E0000040108F10802C0F60000FDF795FFD8F88C
:104E10000800D0F8141890F802080239484300F04E
:104E2000CEFB0026C3F6E0760022334600F0DAFB24
:104E300000F098FB40F2CC24C2F200040246C8F80D
:104E40000C00E2A12046FBF7C3F92046FBF7BFFAAE
:104E5000C2B2284621464FF0FF33FCF751FD2046F1
:104E60008021FBF727FBD8E9011090F8020848439E
:104E700000F0A5FB0022334600F0B4FB00F072FB0B
:104E80000246C8F81000D8A12046FBF7A1F9204639
:104E9000FBF79DFAC2B2284621464FF0FF33FCF7DC
:104EA0002FFD20468021FBF705FB40F25835C2F26A
:104EB000000545F60E31C0F6000128461322FEF724
:104EC00049FA88F8000045F69520C0F6000029460A
:104ED000FEF708FC2846FDF7F5FE88F8000060B9EB
:104EE00041F2944045F68D11C2F20000C0F6000177
:104EF0002B224FF0FF33FCF703FD45F60E31C0F6D1
:104F0000000128460122FEF725FAD5F80C1888F88A
:104F1000000020462A46FDF79BFF41F29446C2F26C
:104F2000000645F62921C0F6000130463C224FF02C
:104F3000FF33FCF7E5FC2046FBF749FAC2B23046E6
:104F400021464FF0FF33FCF7DBFC45F68A11C0F633
:104F50000001304602224FF0FF330226FCF7D0FC5E
:104F60002846FDF7AFFE20468021FBF7A3FA45F661
:104F70001831C0F6000128460A22FEF7EBF945F683
:104F8000243188F80000C0F6000120465722FBF7C4
:104F90003DFA00BFA05D70B1A019417841B18178A0
:104FA00041B1C07804360028F4D1013E03E000BFCF
:104FB000013600E0023640F2583440F2CC25C2F20D
:104FC0000004C2F2000508F11403204629463246C7
:104FD000FEF70AFE88F8000041F2944045F6B91148
:104FE000C2F20000C0F6000126224FF0FF33FCF7AA
:104FF00087FC2046FDF766FE28468021FBF75AFA1B
:1050000045F61831C0F6000120460122FEF7A2F94C
:1050100088F8000060B941F2944045F66621C2F27A
:105020000000C0F600012E224FF0FF33FCF768FCB1
:1050300040F2CC26D4F80C2808F11805C2F200067C
:10504000204631462B46FEF7B5FB3046FBF7BFF94D
:1050500041F29447C2F20007C2B2384631464FF0DF
:10506000FF33FCF74DFC45F68A11C0F600013846C7
:1050700002224FF0FF33FCF743FC2046FDF722FEEF
:1050800030468021FBF716FA45F61831C0F60001CC
:1050900020460322FEF75EF9D4F80C1888F80000C9
:1050A0002046FDF70BFF88F8000060B941F29440FC
:1050B00045F60A21C2F20000C0F600011E224FF0A0
:1050C000FF33FCF71DFC45F6DD20C0F6000021464D
:1050D000FEF708FB88F800002046FDF7F3FD40F2DC
:1050E000CC26C2F2000630468021FBF7E3F945F6F4
:1050F0001831C0F6000120460122FEF72BF9D4F842
:105100000C2888F80000204631462B46FEF752FB5B
:1051100088F8000060B941F2944045F6E011C2F20F
:105120000000C0F6000129224FF0FF33FCF7E8FB36
:1051300040F2CC24C2F200042046FBF748F941F2C9
:105140009445C2F20005C2B2284621464FF0FF3313
:10515000FCF7D6FB45F68A11C0F60001284602226C
:105160004FF0FF33FCF7CCFB40F25830C2F20000A6
:10517000FDF7A8FD20468021FBF79CF9FEE700BF64
:105180002F00000053442043415244206D6F756E40
:10519000746564207375636365737366756C6C798D
:1051A0002E2E2E0A0A0000004552524F5221212174
:1051B00020696E206D6F756E74696E672053442090
:1051C000434152442E2E2E0A0A000000534420432D
:1051D00041524420546F74616C2053697A653A20BF
:1051E000092531750A0000005344204341524420F0
:1051F000467265652053706163653A2009253175F3
:105200000A0A0000F0B581B0D0F82C688E4203D1B4
:105210000027384601B0F0BD044690F804080D465A
:1052200078B394F801082146324601230127FDF79F
:1052300039FD0028EDD1D4F82028D4F81818B21A76
:1052400000208A4284F804081BD294F80378022FC5
:1052500017D394F801080E44214632460123FDF786
:1052600021FD013F022F0CD3D4F8181894F801083F
:105270000E44214632460123FDF714FD013F012F64
:10528000F2D894F8010821462A460123FDF7EEFCE6
:10529000074600281CBF4FF0FF350127C4F82C58E3
:1052A000384601B0F0BD0000F0B581B0022929D325
:1052B0000446D0F814080E46884223D994F8000812
:1052C0001546032822D0022844D001281AD1B4F868
:1052D0000A0806EB5607D4F82018B7FBF0F0014493
:1052E0002046FFF78FFF002864D1B4F80A0816F0B3
:1052F0000106B7FBF0F101FB107007F1010745D182
:10530000E9B248E0022001B0F0BD00BFB4F80A08DD
:10531000D4F820188008B6FBF0F001442046FFF7CF
:1053200071FF002846D1B4F80A08B100B1FBF0F1D2
:105330004843C0EB86002118CA78255402F0F002D9
:10534000280A45EA02624870280C8870100EC8705E
:1053500015E000BFB4F80A08D4F820184008B6FBDE
:10536000F0F001442046FFF74DFF18BBB4F80A08DF
:105370007100B1FBF0F14843C0EB4600255204F642
:10538000040001210170002014E000BF215C01F045
:105390000F0165F30B112154B4F80A18D4F8202832
:1053A000B7FBF1F1012084F8040811442046FFF70F
:1053B00029FF08B101B0F0BDB4F80A08B7FBF0F15D
:1053C00001FB107104F6040046B9625CC5F30323C7
:1053D00002F0F0021A446254D3E700BFC5F307128B
:1053E0006254CEE770B5044690F8040898B3D4F838
:1053F0002C5894F8010821462A4601230126FDF77E
:1054000051FC08B1304670BDD4F82028D4F81818E3
:10541000AA1A00208A4284F804081CD294F803686F
:10542000022E18D394F801080D4421462A46012380
:10543000FDF738FC013E022E0DD300BFD4F818183A
:1054400094F801080D4421462A460123FDF72AFC61
:10545000013E012EF2D894F8000803282ED194F8CA
:10546000050801282AD1B4F80A1811B12046FAF724
:10547000FFFF4AF65520A4F8FE0145F25220C4F27F
:105480006110206047F27220C6F24110C4F8E401B6
:10549000D4F81008D4F80C18C4F8E801D4F81C08A3
:1054A000C4F8EC11421C94F8010821460123C4F809
:1054B0002C28FDF7F7FB002084F8050894F8010874
:1054C00000210022FDF7C6FB0646002818BF012672
:1054D000304670BDF0B581B0044690F80408A8B31A
:1054E000D4F82C5894F8010821462A4601230126B5
:1054F000FDF7D8FB38BBD4F82008D4F81818281AC0
:105500000026884284F804681DD294F80368022EAD
:105510001CD394F801080D4421462A460123FDF7C7
:10552000C1FB771E0026022F0DD300BFD4F8181838
:1055300094F801080D4421462A460123FDF7B2FBE9
:10554000013F012FF2D8304601B0F0BD00263046B1
:1055500001B0F0BD30380A2801D201207047002088
:10556000704700004FEA1153A3F58063D3F11E0387
:10557000A8BFD3F1200C08DB4FF0004242EAC12261
:1055800052EA505232FA03F0704709420BD4102B02
:10559000C4BF0020704703F5787CBCF1FF3F05D005
:1055A0004FF0FF3070474FF00000704770B500F0CB
:1055B000C3F800BF4992248000207047F0E7B0FA9A
:1055C00080F310FA03F10AD0C3F11D0303F58063E1
:1055D0004FEA03524FEA415002EBD12170474FF09E
:1055E0000000704770B5DFF848C11CEA111E1EBFED
:1055F0001CEA13159EEA0C0F95EA0C0F00F06F8061
:1056000081EA03044EEAD47EAE4421EA4C1123EA37
:105610004C1341F4801143F48013AEF17F7EA1FB63
:10562000024CA0FB0365361955EB0C05A1FB034C9E
:105630004CF10003A0FB021C16EB0C06654153F174
:105640000003094218BF46F0010613F4007F0BD196
:105650004FEA03314FEA053041EA155140EA16504E
:1056600034036FF003020AE04FEAC3214FEAC5207A
:1056700041EA555140EA5650F4026FF0020202EB43
:105680002E4201EB025585EACE710AD05FEA440C46
:1056900018BF24F0004450F1000041F1000120EA5D
:1056A000D47040F2FE7C624500D270BDA84214BFA7
:1056B0004FF080444FF04044002E08BF0024BEF15C
:1056C000806FA8BFA1F1C041BDE8704080F2828028
:1056D00001F1C04101F000414FF0000070470CEAB9
:1056E00013159EEA0C0F18BF95EA0C0F06D081EA3D
:1056F000030E4FF000000EF0004170BD00F01CF8EA
:105700008900013E00F007B800F009B84FEA430CE9
:105710005FEA5C5C08D081EA030100F05BB84FEA05
:10572000410C5FEA5C5CF6D102494FF00000704723
:105730000000FF070000F87F0EF1020E2EF0030EAE
:105740005EF8046B364205D4012A43EB030515F5D8
:10575000001F12D8012841EB010C1CF5001F0CD8CA
:105760000ED14FEAD17C0CEB4C0C0CF1020C15F570
:10577000001F08BF4CEBD37C04E04FF0080C01E0A5
:105780004FEAD37C0CEB4C0526FA05F606F007062B
:10579000B6F1040C06D20EEB860CBDE870404CF05E
:1057A000010C6047DFE80CF0090B02024FF00041EA
:1057B000A1F500214FF0000070BD194610460128E8
:1057C00051EB010418BFD4F5001484BF002001F090
:1057D000004170BD0808A0F500114FEA3101704783
:1057E000010200000000000000000102030406079F
:1057F00008090000000001020304809A90B68EB7E9
:105800008F80D2D3D4D8D7DE8E8F909292E299E354
:10581000EAEB59999A9D9C9D9E9FB5D6E0E9A5A576
:10582000A6A7A8A9AAABAC21AEAFB0B1B2B3B4B52C
:10583000B6B7B8B9BABBBCBDBEBFC0C1C2C3C4C590
:10584000C7C7C8C9CACBCCCDCECFD0D1D2D3D4D57F
:10585000D6D7D8D9DADBDCDDDEDFE0E1E2E3E5E56F
:10586000E6E7E7E9EAEBEDEDEEEFF0F1F2F3F4F560
:10587000F6F7F8F9FAFBFCFDFEFFC700FC00E900B3
:10588000E200E400E000E500E700EA00EB00E800E9
:10589000EF00EE00EC00C400C500C900E600C60041
:1058A000F400F600F200FB00F900FF00D600DC0077
:1058B000F800A300D800D7009201E100ED00F3004A
:1058C000FA00F100D100AA00BA00BF00AE00AC009F
:1058D000BD00BC00A100AB00BB0091259225932523
:1058E00002252425C100C200C000A900632551255E
:1058F00057255D25A200A5001025142534252C254B
:105900001C2500253C25E300C3005A2554256925A4
:105910006625602550256C25A400F000D000CA0043
:10592000CB00C8003101CD00CE00CF0018250C25DA
:1059300088258425A600CC008025D300DF00D40074
:10594000D200F500D500B500FE00DE00DA00DB0075
:10595000D900FD00DD00AF00B400AD00B10017209C
:10596000BE00B600A700F700B800B000A800B7005E
:10597000B900B300B200A025A00002030405060789
:1059800008090A0B0C0D0E0F10100A0A0046696C6C
:1059900065312E747874206372656174656420616A
:1059A0006E64207468652064617461206973207777
:1059B00072697474656E200A0046696C65322E74D3
:1059C0007874206372656174656420616E6420641C
:1059D000617461206973207772697474656E0A005E
:1059E00042656C6F77206973207468652064617408
:1059F000612066726F6D20757064617465642066E5
:105A0000696C65322E7478740A0041626F75742077
:105A1000746F2075706461746520746865206669B0
:105A20006C65322E7478740A0046696C65312E7488
:105A30007874206973206F70656E656420616E6490
:105A400020697420636F6E7461696E732074686579
:105A500020646174612061732073686F776E2062C7
:105A6000656C6F770A0066696C65322E74787420F5
:105A70006973206F70656E20616E642074686520A4
:105A8000646174612069732073686F776E2062654A
:105A90006C6F770A005468697320646174612069CF
:105AA000732066726F6D207468652046494C4531DD
:105AB0002E7478742E20416E64206974207761738F
:105AC000207772697474656E207573696E67202E15
:105AD0002E2E665F707574732E2E2E20005468690A
