:020000040800F2
:10000000A00A002029020008FD1600084515000876
:10001000F9160008310300087917000800000000F5
:1000200000000000000000000000000005170008AC
:100030003503000800000000011700080917000838
:10004000430200084302000843020008430200087C
:10005000430200084302000843020008430200086C
:10006000430200084302000843020008430200085C
:10007000430200084302000843020008430200084C
:10008000430200084302000843020008430200083C
:10009000430200084302000843020008430200082C
:1000A000430200084302000843020008430200081C
:1000B000430200084302000843020008430200080C
:1000C00043020008430200084302000843020008FC
:1000D00043020008430200082117000843020008F9
:1000E00043020008430200084302000843020008DC
:1000F00043020008430200084302000843020008CC
:1001000000000000000000000000000043020008A2
:1001100043020008430200084302000843020008AB
:10012000430200084302000843020008430200089B
:100130004302000843020008000000000000000025
:1001400043020008430200084302000800000000C8
:10015000000000000000000000000000000000009F
:1001600000000000000000004302000843020008F5
:100170004302000800000000000000000000000032
:10018000000000004302000800F002F800F03CF814
:100190000AA090E8000C82448344AAF10107DA45E2
:1001A00001D100F031F8AFF2090EBAE80F0013F0F8
:1001B000010F18BFFB1A43F0010318478017000016
:1001C000A0170000103A24BF78C878C1FAD85207A7
:1001D00024BF30C830C144BF04680C6070470000C1
:1001E0000023002400250026103A28BF78C1FBD840
:1001F000520728BF30C148BF0B6070471FB501F0E0
:1002000078FB1FBD10B510BD00F058F81146FFF780
:10021000F5FF01F0B3FA00F076F803B4FFF7F2FF50
:1002200003BC00F07DF800000948804709480047FA
:10023000FEE7FEE7FEE7FEE7FEE7FEE7FEE7FEE796
:10024000FEE7FEE704480549054A064B70470000F3
:100250000D17000889010008A0040020A00A002052
:10026000A0060020A00600204FF0000200B51346B3
:1002700094469646203922BFA0E80C50A0E80C50C6
:10028000B1F12001BFF4F7AF090728BFA0E80C5077
:1002900048BF0CC05DF804EB890028BF40F8042B70
:1002A00008BF704748BF20F8022B11F0804F18BFDD
:1002B00000F8012B7047704770477047754600F093
:1002C0002BF8AE4605006946534620F007008546E8
:1002D00018B020B5FFF7B6FFBDE820404FF000068C
:1002E0004FF000074FF000084FF0000BAC46ACE8B1
:1002F000C009ACE8C009ACE8C009ACE8C00921F00D
:1003000007018D46704710B50446AFF300802046C4
:10031000BDE81040FFF781BF004870471000002083
:1003200001491820ABBEFEE726000200704700001E
:10033000FEE7000070470000EFF3108072B600BFC8
:10034000FEE7000070B542F20C060446C4F2020655
:1003500000F0A8FA3168C90718D13068800644BF98
:10036000202030603068C0065CBF30685FEA4070B3
:100370003CD5306840F27841C006C2F2000121D479
:100380000020326852072BD524E000BF64B3054635
:10039000601C0DD13068C007DFD03068C0071CBFBB
:1003A00030685FEAC070D8D03068C007F2D1D4E7B7
:1003B00000F078FA401BA04216D83068C007F7D189
:1003C000CBE700BFC86940F00200C8611020326866
:1003D000520705D5CA6940F0040042F00102CA6123
:1003E0003060012070BD00BF032070BD002070BDD3
:1003F000B0B5044600F056FA054640F20000C2F2DD
:1004000000000078611C18BF044400BF00F04AFAE5
:10041000401BA042FAD3B0BD2DE9F04381B040F2B9
:100420007846C2F20006327E012A03D1022001B0D2
:10043000BDE8F083054601202C6830764CF2503040
:100440008846FFF77FFF012C1CD100284ED10020E9
:1004500042F21004F061C4F20204206840F004008B
:100460002060206840F0400020604CF25030FFF7E0
:1004700069FF216821F0040121600021317601B07B
:10048000BDE8F08390BB4FF0FF30C8F80000D5E91D
:10049000017007EBC020874228D242F21004C4F258
:1004A00002044FF0000900BFC6F81C90206840F01D
:1004B000020020606760206840F0400020604CF23D
:1004C0005030FFF73FFF216821F00201216098B909
:1004D000D5E9010107F5006700EBC1208742E3D3AE
:1004E00000200021317601B0BDE8F0830120002119
:1004F000317601B0BDE8F083C8F800700021317694
:1005000001B0BDE8F083000042F21001C4F2020124
:10051000086840F0800200200A6070472DE9F04F23
:1005200081B0994640F27843C2F2000390461A7EA9
:10053000012A03D1022001B0BDE8F08F074642F244
:100540000C0601208A46C4F20206187600F0AAF9C9
:100550003168C9070AD005464CF2503400F0A2F9C0
:10056000401BA04230D83068C007F7D13068800601
:1005700044BF202030603068C0065CBF30685FEA4E
:1005800040702BD5306840F27844C006C2F20004B7
:1005900004D400203168490708D40DE0E06940F038
:1005A0000200E06110203168490705D5E16940F09B
:1005B000040041F00101E161306001200021217659
:1005C00001B0BDE8F08F00BF40F278440320C2F2D2
:1005D00000040021217601B0BDE8F08F3846022FDB
:1005E00018BF042040F27844012F08BF38464CF26F
:1005F00050374FF0000BC2F20004009020214FEA68
:100600000B10A1EB0B11002209FA01F128FA00F0FE
:10061000E26108436FF01F01726801EB0B110029C2
:1006200058BF29FA01F042F0010171602AF81B005D
:1006300000F038F93168C90708D0054600F032F9F2
:10064000401BB8421AD83068C007F7D1306880061E
:1006500044BF202030603068C0065CBF30685FEA6D
:10066000407015D470680BF1010B20F00100706030
:10067000009883454FF00000C0D19FE703207168C8
:1006800021F0010171600021217601B0BDE8F08FF9
:100690003068C00602D4002005E000BFE06940F0E9
:1006A0000200E06110203168490705D5E16940F09A
:1006B000040041F00101E16130600120DFE700004A
:1006C00042F20400C4F20200C16809065CBF0020C7
:1006D000704740F22311C4F26751016048F6AB1134
:1006E000CCF6EF510160C068C0B2C009704700008D
:1006F0002DE9F04F82B00D68002D00F0C98041F265
:10070000000400F13847C4F6000405224FEAB7267A
:10071000A04208BF0422042E38BF4FEAB7220024AB
:1007200001274FF0000E0026009209E00D68013607
:1007300035FA06F20EF1040E04F1020400F0A8806E
:1007400007FA06FB15EA0B08F0D0D1F804A0032243
:100750000AF0030CACF10105A240012D6FEA020979
:1007600010D88268CD6802EA0902A5402A43826057
:100770004268CAF3001522EA0B02B5402A434260E0
:1007800006E000BFBCF1030F02D14FF0030C21E0E3
:10079000C2688D6802EA0902A5402A43BCF1020F33
:1007A000C26017D16FF0030202EA560202440EF053
:1007B0001C030F25D2F820C005FA03FA0D692CEAB4
:1007C0000A0C05FA03F343EA0C031362D1F804A000
:1007D0000AF0030C02680CFA04F302EA09021A4355
:1007E0001AF4403F0260A1D041F21803C4F20203A0
:1007F0001A6840F2004942F001021A601A68C4F215
:10080000010902F001020192019A26F003024FF65B
:10081000084A4A44CFF6FF7A52F80AC00EF00C0597
:100820000F23009FAB402CEA030307FA05F52B4387
:1008300042F80A30D9F800C04B684CEA0805DA03E0
:1008400058BF2CEA0805C9F80050D9F804209F03C6
:1008500042EA080558BF22EA0805C9F80450D9F849
:100860000820DD0242EA080740F20C4558BF22EAA0
:100870000807C9F80870C4F201052A689B0242EA19
:10088000080758BF22EA08072F6001274EE700BF7C
:1008900002B0BDE8F08F00001823002A08BF28230B
:1008A000C150704740F29C40C2F20000006870479F
:1008B00090F84120202A03D190F84020012A01D14C
:1008C00002207047242280F841200268136823F038
:1008D00001031360136823F48053136013681943F2
:1008E0001160116841F001011160202180F8411070
:1008F000002180F8401008467047000090F8412021
:10090000202A03D190F84020012A01D1022070470B
:10091000242280F841200268136823F00103136049
:10092000136823F4706343EA01211160116841F0F8
:1009300001011160202180F84110002180F8401051
:1009400008467047002804BF0120704710B50446D0
:1009500090F8410028B9002084F84000204600F0BB
:1009600043F8242084F8410094E80910E268016803
:10097000012A21F00101016023F0706101618168A9
:1009800021F40041816003D14CF40041816007E013
:100990004CF40441022A816004BF4FF400614160BD
:1009A000416804F1100C41F0007141F400414160D4
:1009B000C16821F40041C1609CE80E10114341EA76
:1009C0000321C160216A41EA0C010160016841F024
:1009D0000101016000202021606484F8411020633F
:1009E00084F8420010BD000010B586B0006845F2E2
:1009F0000041C4F20001884202D006B010BD00BF21
:100A000041F21404C4F20204206801A940F48020D9
:100A10002060206800F4802001900198C02001909F
:100A200012200290012003900320049004200590DE
:100A300040F20040C4F60000FFF75AFEA06840F400
:100A40000010A060A06800F400100090009806B0AC
:100A500010BD000040F2000040F29C41C2F20000D4
:100A6000C2F2000100780A68104408607047000074
:100A700080B542F20000C4F20200016841F01001AA
:100A80000160032000F074F8002000F005F800F089
:100A900027F8002080BD000070B540F20006C2F2C9
:100AA000000640F20C013278C2F200014FF47A7372
:100AB0000968B3FBF2F20446B1FBF2F1084600F01C
:100AC0002BFD0F2C4FF0010508D838B94FF0FF303F
:100AD00021460022002500F01FF87460284670BDF2
:100AE00082B041F21800C4F20200016841F0010135
:100AF0000160016801F0010101910199416841F033
:100B000080514160406800F08050009000980720BC
:100B100002B000F02DB8000010B54EF60C5CCEF21D
:100B2000000CDCF80030C3F3022E8EF00704042C16
:100B300028BF0424BEF103034FF0FF3E0EFA04F475
:100B400038BF0023A14399400EFA03F39A4311439F
:100B500000F00F0200F160430901043A03F5644319
:100B60006244002848BF02F10C03197010BD000058
:100B70004EF60C51CEF200010A684FF6FF031A4000
:100B800060F30A2242F0806040F0FD700860704718
:100B9000002804BF01207047F0B585B0054690F8E5
:100BA000A90228B9002085F8A802284600F04CF8D0
:100BB000032085F8A902286800F0D4FD696869B3AC
:100BC00000204FF0010C0022002300BF02EB820244
:100BD00005EBC20484F82830DAB20133E286DAB2D7
:100BE000914284F829C084F82B00C4E90E002064E7
:100BF000ECD800200023002203EB830305EBC304A1
:100C000084F868210132D3B2994284F8690184F8EA
:100C10006B01C4E95E00C4F88001EDD805F1080E4F
:100C200028689EE81C50D5E907678DE81050CDE98B
:100C3000036700F089FD0020012185F8240085F874
:100C4000A91205B0F0BD000010B586B0006845F6E9
:100C50000041C4F20001884202D006B010BD00BFBE
:100C600041F21404C4F20204206801A940F40030E7
:100C70002060206800F40030019001984FF4C050CB
:100C800001900220029000200390032004900E2087
:100C900005904FF09040FFF72BFDA06840F4000056
:100CA000A060A06800F400000090009806B010BD9D
:100CB0002DE9F04182B00446807841F23006C00749
:100CC000C4F2020656D056F8140C10F080580BD11E
:100CD00056F8140C40F0805046F8140C56F8140CDA
:100CE00000F080500190019847F20007C4F200071D
:100CF0003868C00512D4386840F480703860FFF757
:100D0000D1FD05463868C00508D4FFF7CBFD401B70
:100D10006428F7D9032002B0BDE8F08156F8100C22
:100D200010F4407015D0616801F44071884210D011
:100D300056F8100C40F24042C4F24222012320F443
:100D4000407113600023C007136046F8101C40F088
:100D5000A38056F8100C616820F440700843B8F185
:100D6000000F46F8100C05D156F8140C20F08050F6
:100D700046F8140C2068C1071CD1810722D4410712
:100D800028D481062ED4810334D441063CD40107F3
:100D900042D4C10648D481054ED4010656D4C105BB
:100DA0005ED4C10466D480046CD4002002B0BDE8D7
:100DB000F08100BF3168A26821F003011143316066
:100DC0008107DCD53168E26821F44031114331609C
:100DD0004107D6D53168226921F4402111433160A1
:100DE0008106D0D53168E26921F0100111433160EC
:100DF0008103CAD556F82C1CA26B21F48001114343
:100E000046F82C1C4106C2D53168226A21F0200127
:100E1000114331600107BCD53168626921F440118A
:100E200011433160C106B6D53168A26921F4400191
:100E3000114331608105B0D556F82C1CE26A21F4CB
:100E40000001114346F82C1C0106A8D556F8041CD5
:100E5000626A21F4F871114346F8041CC105A0D55B
:100E600056F8041CA26A21F47851114346F8041C78
:100E7000C10498D53168226B21F48071114331602F
:100E8000800492D53068616B20F4007008433060B4
:100E9000002002B0BDE8F081FFF704FD054641F2F5
:100EA000883700BF56F8100C80073FF552AFFFF7A8
:100EB000F9FC401BB8424FF00300F3D9E9E700000A
:100EC0002DE9F04381B0002877D042F20008C4F247
:100ED00002080446D8F800000D4600F007008842DA
:100EE0000CD2D8F8000020F007002843C8F8000012
:100EF000D8F8000000F00700A8425ED1206841F257
:100F000004098107C4F2020907D5D9F80010A268C4
:100F100021F0F0011143C9F80010C00744D1D8F8FE
:100F2000000000F00700A8420CD9D8F8000020F01B
:100F300007002843C8F80000D8F8000000F00700B8
:100F4000A8423AD12068410707D5D9F80010E268D5
:100F500021F4E0611143C9F80010000708D5D9F861
:100F60000000216920F4605040EAC100C9F8000087
:100F7000D9F8002002F00C00082841F20020C0F24D
:100F80007A0051D141F61C13C2F38341C0F600032D
:100F9000595CD9F82830D2033CD440F60010C0F296
:100FA0003D00484340E000BF606802280AD00128A5
:100FB0002AD159F8041C890308D4012001B0BDE8E6
:100FC000F08300BF59F8041C8901F6D5D9F8001048
:100FD00021F003010843C9F80000FFF763FC06464F
:100FE00041F28837D9F80000616800F00C00B0EBDE
:100FF000810F94D0FFF756FC801BB842F2D9032032
:1010000001B0BDE8F08300BF59F8041C8907D4D5AE
:10101000DCE700BF03F00F0241F62C13C0F600031B
:101020009A5CB0FBF2F04843D9F8001041F60C127C
:10103000C1F30311C0F60002515C40F20C0220FA29
:1010400001F140F20400C2F200000068C2F20002A6
:101050001160FFF721FD002001B0BDE8F083000022
:101060002DE9F04182B0002850D00446007841F2CA
:101070000006C007C4F202060AD0706800F00C0037
:10108000042840F085803068800301D56068E8B3AB
:10109000207880071AD5706810F00C0F09D070689E
:1010A00000F00C00082840F0A5807068C00300F133
:1010B000A1803068800702D52069012826D13068D8
:1010C000616920F0F80040EAC10030602078000734
:1010D00020D42078400735D4E56995B1706800F0D8
:1010E0000C00082840F0C280012D0FD07068216AE2
:1010F00000F480328A4209D1616A00F4701088429B
:1011000004D1002002B0BDE8F08100BF012002B090
:10111000BDE8F081A069002800F094800020C4F2AE
:1011200042200121C0F88014FFF7BCFB054600BF38
:10113000706A8007CDD4FFF7B5FB401B0228F7D9B2
:101140001CE100BFF06910F0805808D1F06940F050
:101150008050F061F06900F080500190019847F2F2
:101160000007C4F200073868C00559D4386840F455
:1011700080703860FFF796FB054600BF3868C005F1
:101180004ED4FFF78FFB401B6428F7D9F6E000BF71
:10119000706800F00C00082803D17068C0033FF5A8
:1011A00072AF6068B0F5A02F00F09480B0F5803F7A
:1011B00000F09480002840F09580306820F4803062
:1011C0003060306820F480203060F06AA16820F040
:1011D0000F000843F062FFF765FB054630688003A7
:1011E0007FF556AFFFF75EFB401B64284FF003000E
:1011F000F4D987E72069002840F20000C4F24220B9
:1012000056D001210160FFF74DFB0546306880078D
:101210003FF555AFFFF746FB401B0228F6D9ADE07E
:10122000E068002800F07A80052800F0918001280D
:1012300000F09280306A20F001003062306A20F0C5
:1012400004008CE00020C4F242200021C0F8801489
:10125000FFF728FB054600BF706A80077FF539AFAE
:10126000FFF720FB401B0228F6D987E00027C4F2D5
:10127000422700203866FFF715FB022D05460BD1EB
:101280003068800140F18880FFF70CFB401B02288A
:101290004FF00300F4D935E7306880017FF531AFB6
:1012A000FFF700FB401B02284FF00300F4D929E7A9
:1012B00000210160FFF7F6FA054600BF306880079D
:1012C0007FF504AFFFF7EEFA401B02284FF0030052
:1012D000F4D917E7306840F480203060306840F47B
:1012E000803006E0306820F480303060306820F4D0
:1012F00080203060F06AA16820F00F000843F0629F
:10130000FFF7D0FA054600BF306880033FF5C0AE56
:10131000FFF7C8FA401B6428F6D92FE0306A20F0A6
:1013200001003062306A20F004003062FFF7BAFA40
:10133000054641F2883700BF306A800722D5FFF7A3
:10134000B1FA401BB8424FF00300F5D9DAE600BF0E
:10135000306A40F004003062306A40F001003062D0
:10136000FFF7A0FA054641F2883700BF306A8007D0
:1013700008D4FFF797FA401BB842F7D9032002B010
:10138000BDE8F081B8F1000F7FF4A6AEF06920F05F
:101390008050F061A0E600BF7068D4E9082120F415
:1013A000741008431043706001203866FFF77AFA22
:1013B000044600BF306880013FF5A3AEFFF772FA24
:1013C000001B02284FF00300F4D99BE6002804BF5D
:1013D00001207047B0B50446406A28B10020206162
:1013E00004F1140006E000BF6068B0F5827F03D00E
:1013F00004F11C00002101600025A56294F85D0045
:1014000020B9204684F85C5000F052F8022084F89D
:101410005D002068D4F80CE00268BEF5E06F22F0B1
:10142000400202604EF4006298BF0125B2F5706F71
:101430001CBF0023A3624FEA053CD4E90135D4E97F
:10144000042103F4827305F404452B4402F00202E4
:101450001A44A36901F00101E569114403F4007223
:10146000114405F03802256A114405F08002A56A8E
:10147000114405F40052114301600421626A0EF424
:10148000706501EA1341636B45EA0C0502F0100236
:10149000294303F00803114319434160C16921F452
:1014A0000061C16100200121206684F85D10B0BD9B
:1014B00080B586B0006843F20001C4F201018842A1
:1014C00002D006B080BD00BF41F21400C4F2020099
:1014D000416841F480514160416801F480510191BB
:1014E0000199016841F400310160006801A900F42C
:1014F000003001900198E02001900220029000202D
:10150000039003200490052005904FF09040FFF7D2
:10151000EFF806B080BD0000411E0020B0EB116F57
:101520001CBF012070474EF21002CEF20002516043
:101530004EF62351CEF20001F0230B70072190608C
:1015400011607047FEE70000F0B587B0002641F259
:101550001400CDE90566C4F20200016841F20004FE
:1015600041F4001101600168C4F6000401F40011A7
:10157000019101990168002241F400210160016894
:101580004FF6087701F4002101910199016841F4B7
:1015900080010160016801F48001019101990168F5
:1015A00041F400310160016801F4003101910199B9
:1015B000016841F48021016000684FF6087100F471
:1015C0008020019001982046FFF766F937200290AD
:1015D0004FF4901002ADCDE9030620462946FFF7EF
:1015E00087F80297012720462946CDE9037605961C
:1015F000FFF77EF84FF090402946CDE90276049639
:10160000FFF776F807B0F0BD80B540F2DC0045F298
:101610000041C2F20000C4F2000140F60E120023A5
:10162000C2F200024FF0010C80E80E10C0E9043352
:10163000C0E906330362FFF785F9002818BFFEF7FB
:101640007BFE40F2DC00C2F200000021FFF730F91F
:10165000002818BFFEF770FE40F2DC00C2F2000066
:101660000021FFF74BF9002808BF80BDBDE880408E
:10167000FEF762BE10B540F2144043F20001C2F220
:101680000000C4F201014FF4827200234FF4407C49
:101690004FF4007E082480E80E100721C0E90433CF
:1016A000C0E906E4C0E90833C0E90A31C0E90C34F6
:1016B000FFF78CFE002808BF10BDBDE81040FEF704
:1016C0003BBE000080B540F2281045F60041C2F252
:1016D0000000C4F200010822022380E80E0000216D
:1016E000036181610162FFF753FA002808BF80BDE2
:1016F000BDE88040FEF720BEFEE70000FEE70000E8
:101700007047000070470000FFF7A4B94EF68850FC
:10171000CEF20000016841F47001016070470000E2
:1017200044F20C40C4F2000050F80C1C490658BFAB
:101730007047016821F04001016040F29840C2F218
:10174000000000210160704701460120A1F840001F
:1017500000220020A1F84020A1F84420A1F8502048
:10176000704700000146B0F8400044F2FF0202401A
:101770000020A1F840207047FEE700009EB0FFF770
:1017800077F96846002404303421CDE91944CDE9C5
:101790001744FEF769FD032014904FF4A020CDE913
:1017A000150401201890102019904FF480301C90DF
:1017B0004FF4E01002251D9014A81B95FFF750FC74
:1017C00020B1EFF3108072B6FEE700BF0F20CDE925
:1017D0000F054FF48060CDE912040FA80221119487
:1017E000FFF76EFB20B1EFF3108072B6FEE700BF8B
:1017F0002020C0F202000090002007900E90684662
:10180000FFF756FA20B1EFF3108072B6FEE700BF83
:10181000FFF79AFEFFF7F8FEFFF72CFFFFF752FFE6
:1018200040F20804C2F20004216801201E2200F0E8
:1018300023F820681F22011D0120216000F01CF800
:1018400020682022011D0120216000F015F8206889
:101850002122011D0120216000F00EF820682222C3
:10186000011D0120216000F007F800BF4FF47A70DD
:10187000FEF7BEFDFAE700002DE9F04182B0002737
:1018800014460D4606460197FEF71AFF40F270080F
:10189000C2F20008B11E46F200024046C9B2C0F6CC
:1018A000000240F8107F02EBC12305294FF001012F
:1018B00038BF03F50062C0E9012101A9FEF7ACFDC4
:1018C00030B1FEF721FE002002B0BDE8F08100BF7C
:1018D0000220294622460023FEF720FE0546FEF799
:1018E00013FE002D08BFC8F80C40002002B0BDE870
:1018F000F081F1EE100A4FF6FF71C0F2C03120EA1C
:10190000010040F04070E1EE100A70470000000056
:101910000000000001020304060708090203040591
:10192000060708090A0B0C0D0E0F10100102030424
:1019300005060708090A0B0C0D0E0F1060190008A8
:101940000000002010000000C40100087019000809
:1019500010000020900A0000E001000800000000D4
:1019600001000000100000000060000800127A0072
:040000050800018965
:00000001FF
