:020000040800F2
:10000000D80F002089010008852A0008091F000870
:10001000812A0008A10200089D2B000800000000B2
:100020000000000000000000000000008D2A000811
:10003000BD02000800000000892A0008912A00087B
:10004000A3010008A3010008A3010008A301000800
:10005000A3010008A3010008A3010008A3010008F0
:10006000A3010008A3010008A3010008A3010008E0
:10007000A3010008A3010008A3010008A3010008D0
:10008000A5020008B1020008A3010008A3010008AE
:10009000A3010008A3010008A3010008A3010008B0
:1000A000A3010008A3010008A3010008A3010008A0
:1000B000A3010008A301000800000000A30100083C
:1000C000A30100080000000000000000A3010008D8
:1000D000000000005D2B0008912B000800000000CC
:1000E000A3010008A3010008A301000800F002F822
:1000F00000F03AF80AA090E8000C82448344AAF188
:100100000107DA4501D100F02FF8AFF2090EBAE885
:100110000F0013F0010F18BFFB1A43F0010318473B
:10012000642E0000842E0000103A24BF78C878C1E5
:10013000FAD8520724BF30C830C144BF04680C60ED
:10014000704700000023002400250026103A28BF35
:1001500078C1FBD8520728BF30C148BF0B60704739
:100160001FB51FBD10B510BD00F064F81146FFF7B4
:10017000F7FF02F05DFD00F082F803B4FFF7F2FF35
:1001800003BC00F085F80000094880470948004793
:10019000FEE7FEE7FEE7FEE7FEE7FEE7FEE7FEE737
:1001A000FEE7FEE704480549054A064B7047000094
:1001B000952A0008ED000008D8090020D80F00207B
:1001C000D80B0020D80B002002F0FF0343EA0322E3
:1001D00042EA024200F005B87047704770474FF09E
:1001E000000200B5134694469646203922BFA0E887
:1001F0000C50A0E80C50B1F12001BFF4F7AF090793
:1002000028BFA0E80C5048BF0CC05DF804EB890083
:1002100028BF40F8042B08BF704748BF20F8022BC6
:1002200011F0804F18BF00F8012B7047004870474D
:10023000100000207546FFF7F9FFAE46050069463D
:10024000534620F00700854618B020B5FFF7AAFFF7
:10025000BDE820404FF000064FF000074FF00008C7
:100260004FF0000BAC46ACE8C009ACE8C009ACE804
:10027000C009ACE8C00921F007018D46704710B5F0
:100280000446AFF300802046BDE81040FFF775BF7D
:1002900001491820ABBEFEE72600020070470000AF
:1002A000FEE7000040F67000C2F2000000F088B8DF
:1002B00040F6B400C2F2000000F082B870470000BF
:1002C000EFF3108072B600BFFEE70000014690F821
:1002D0002100022816D10868D1E90FC3026822F074
:1002E0000E020260026822F001020260012000FAA0
:1002F00003F2CCF8042081F821000020002281F8CC
:1003000020207047042088630120002281F82020EB
:100310007047000080B590F82110022924D10268AE
:10032000116821F00E0111602F211368C4F202013F
:100330008A4240F20401C4F2020123F00103136077
:1003400016DD3023C4F202039A421DD04423C4F2C6
:1003500002039A421CD05823C4F202039A421DD1D0
:100360004FF4803322E000BF04218163012080BD6F
:100370000823C4F202039A420ED01C23C4F20203E3
:100380009A420BD1102311E04FF480730EE000BFAE
:100390004FF480530AE000BF012307E001F1680C2D
:1003A0004FF08073624508BF4FF480130B60416BC0
:1003B0004FF48072028401B18847002080BD0000A4
:1003C00010B5D0E90FCE0168DCF800300A6823FAD6
:1003D0000EF35C072AD512F0040427D00A689206AF
:1003E00003D40A6822F004020A602F22C4F2020237
:1003F000914240F20402C4F2020259DD3023C4F2F9
:100400000203994270D04423C4F20203994271D08E
:100410005823C4F20203994278D14FF48023136029
:10042000C16A002940F097806EE000BF9C0727D585
:1004300012F0020424D00A68920606D40A6822F058
:100440000A020A60012280F821202F22C4F202024F
:10045000914240F20402C4F2020239DD3023C4F2B8
:10046000020399425ED04423C4F2020399425DD054
:100470005823C4F2020399425ED14FF4003363E083
:100480001B0741D512F0080208BF10BD0A6822F010
:100490000E020A60012101FA0EF2CCF804208163F9
:1004A000016B4FF480720029028454D12CE000BF0C
:1004B0000823C4F20203994222D01C23C4F202038F
:1004C000994223D140231360C16A002943D11BE024
:1004D0000823C4F2020399422CD01C23C4F2020365
:1004E000994229D120232FE04FF480631360C16A21
:1004F00089BB09E04FF480431360C16A59BB03E034
:1005000004231360C16A31BB10BD00BF02F168044F
:100510004FF08063A14208BF4FF480031360C16AAB
:10052000C9B9F1E74FF400730EE000BF4FF4005378
:100530000AE000BF022307E002F168044FF00073F5
:10054000A14208BF4FF400131360816A0022002902
:1005500080F82020D8D0BDE810400847002804BF0C
:10056000012070472DE9F04101684FF6F872CBF693
:10057000FD724CF6CD430A44CCF6CC43A2FB0323D8
:100580006FF0030707EA93030027C4F2020700F1A4
:10059000040E00F11008C0E90F739EE8045098E8BB
:1005A00070010B6843F6F077BB431A4342EA0C0232
:1005B00042EA0E0222432A43324342EA08020A6018
:1005C00000214FF4807281630284BDE8F041084647
:1005D00070470000B0B5044600F020F9054640F22F
:1005E0000000C2F200000078611C18BF044400BF84
:1005F00000F014F9401BA042FAD3B0BD2DE9F04F32
:1006000082B041F20002C4F201020E68032390425C
:1006100008BF0223002E009300F0EE8040F20C4C45
:100620004FF6FF7EC4F2010C00220124C1F2100E2D
:100630004FF0000B4FF000094AE000BF40F60044C5
:10064000C4F20104009DA04208BF012502F00C0481
:100650000F27A7402AEA070705FA04F43C4343F8AA
:100660002640D1F804A040F20045C4F201055FEA3B
:10067000CA332B6854BF23EA080343EA08032B60FC
:100680006B685FEA8A3454BF23EA080343EA08032D
:100690006B605FEACA24AB6854BF23EA080343EAED
:1006A00008035FEA8A24AB60DCF800304FF00104F5
:1006B00054BF23EA080343EA0803CCF800300E686D
:1006C0000BF1010B36FA0BF302F1040200F09480F7
:1006D00004FA0BF816EA080FF1D04E68764511DCE3
:1006E000122E55D8DFE806F0340A444854545454C6
:1006F0005454545454545454544C5000D1F80C9005
:1007000046E000BF4FF6FF73C1F221039E420FDCAB
:100710000023C1F211039E421AD00023C1F212033A
:100720009E4215D00023C1F221039E4210D02FE03B
:100730000023C1F222039E420AD00023C1F23103FA
:100740009E4205D00023C1F232039E4220D100BF59
:100750008B684BB1012B14BFC0F81480C0F8108017
:100760004FF0080914E000BF4FF0040910E000BF8B
:10077000CB6803F108090BE04FF0000908E000BF67
:10078000CB6803F1040903E0CB6803F10C0900BF57
:1007900013460546BBF1080F24BF203B04352E68E5
:1007A0000F279F40BE4309FA03F333432B60CB79F5
:1007B000DB067FF584AF41F21804C4F2020423681B
:1007C0004FEA9B0643F001032360236840F60004D0
:1007D00003F001030193019B40F20043C4F20103C3
:1007E000A3F57E7353F826A0C4F20104A0427FF45F
:1007F00025AF00252AE700BF02B0BDE8F08F00005A
:10080000C26802EA0103914341EA03410161704772
:10081000002A08BF090401617047000040F6D410A7
:10082000C2F200000068704770B5B8B3044690F893
:100830003D0028B9002084F83C00204600F0CEFCA2
:10084000242084F83D002068016821F00101016046
:10085000016841F400410160016821F40041016038
:1008600000F080FE48F28041C0F21E0140F6001305
:10087000D4F804E088424FF00001C0F23D0348F292
:10088000A16C4FF0000238BF01219842C0F2010C68
:1008900038BF0122E64538BF0A460AB1012070BDC3
:1008A0004DF68361C4F21B31A0FB01122168950C47
:1008B0004B684FF4967623F03F0343EA9243754327
:1008C00044F6D3564B60C1F262060B6AA5FB06568E
:1008D000B50923F03F03E64538BF950C6A1C1A435F
:1008E0000A62CA6948F2A0664CF6FF73C0F20106BC
:1008F000B64522EA03020BD801384FEA4E03B0FB9B
:10090000F3F001306FF31F30042898BF04201EE07D
:10091000A368013863B119230EFB03F3B0FBF3F0B6
:1009200001306FF31F3078B100F5804008E000BF60
:100930000EEB4E03B0FBF3F001306FF31F3028B124
:1009400000F5004003E000BF012000E0012010435B
:10095000C8610868D4E9072320F0C0001043184399
:100960000860886848F2FF3204F10C0690434CCED0
:1009700018431043A5698860C86820F0FF00304321
:100980002843C860086840F001000860002020216A
:10099000206484F83D10206384F83E0070BD0000A0
:1009A0002DE9F04F81B01D4690460E460446FFF7F4
:1009B00035FF94F83D10202918D107462168886931
:1009C00080070FD5FFF72AFFC01B1928F6D9002092
:1009D0002021206384F83D1084F83E00216C02251C
:1009E000C1E000BF94F83C00012805D1022528464B
:1009F00001B0BDE8F08F00BF012084F83C0008681A
:100A0000C00703D1086840F001000860086806F0DC
:100A1000FE0920F400600860242084F83D000020D6
:100A200020640020CFF6FF70012605F1010A4FF087
:100A3000A00BE062B8F1020F98BF4FF002080868FF
:100A400040F4807008604869C0070FD1BAF1000F08
:100A500056D0002D00F09C80FFF7E0FEC01BA8429E
:100A600000F2988021684869C007F5D0C1F810905D
:100A7000FFF7D4FE21684B694A6994F83D70A02FB6
:100A800007461ED013F0020008BF12F4806018D190
:100A9000FFF7C4FE35B1C01BA84288BF84F83DB043
:100AA00002E000BF84F83DB021684A69486994F8C3
:100AB0003D30A02B05D012F0020208BF10F4806078
:100AC000E6D0202084F83D0048690A68800742F497
:100AD00000720A6022D46FF48060486188698007E0
:100AE00009D500BFFFF79AFEC01B192832D821682C
:100AF00088698007F6D401364645A0D13CE000BFA6
:100B00004869C007B2D14869C00704BF48695FEAB5
:100B1000C070ABD14869C007F2D0A7E700250095A7
:100B2000486900908869009000988869800708D516
:100B3000FFF774FEC01B19280CD820688069800755
:100B4000F6D4202084F83D0084F83C50284601B0BB
:100B5000BDE8F08F00202021206384F83D1084F848
:100B60003E00216C012541F02001216484F83C0005
:100B7000284601B0BDE8F08F202084F83D00002019
:100B8000012584F83C00284601B0BDE8F08F00BF85
:100B9000FFF744FE00202021206384F83D1084F8F4
:100BA0003E00216C032541F020012164216884F876
:100BB0003C000868C00544BF4FF40070206428461C
:100BC00001B0BDE8F08F00002DE9F04F85B004467C
:100BD00000201E4617460D460490FFF71FFE94F8AE
:100BE0003D10202923D1804620688169890719D5C5
:100BF000FFF714FEA0EB08001928F5D900202021EA
:100C0000206384F83D1084F83E00206C04F13C0918
:100C100040F0200020640220002189F8001005B077
:100C2000BDE8F08FA14619F83C1F012904D102202C
:100C300005B0BDE8F08F00BF012289F800200368ED
:100C4000DDE90F1A0E9ADB0703D1036843F00103B5
:100C50000360036823F400630360222084F83D00EE
:100C6000402084F83E000020206462626185608D2F
:100C7000294620850020CFF6FF70E06220463A46E4
:100C80003346CDF800A0CDF8048001F03FF918B14B
:100C9000012005B0BDE8F08F208D022810D001287A
:100CA00024D0002838D100200390206841690391A6
:100CB000816903910399016841F40071016037E093
:100CC0002068016841F400610160EFF3108072B6A2
:100CD0000020039020684169039181690391039981
:100CE000016821F48061016062B621E0206801683A
:100CF00021F480610160EFF3108072B60020039050
:100D0000206841690391816903910399016841F465
:100D10000071016062B60BE02068016841F48061F7
:100D20000160002103914169039180690390039858
:100D3000208D002800F0238140F2080B4BF28957E8
:100D40000AF10105C2F2000BC1F2F847232680B276
:100D5000032819D8022845D001286FD1BAF1000F15
:100D600000F0FA802068014651F8142F520600F175
:100D7000F7800868C00600F12F81FFF74FFDA0EB58
:100D800008005045EED91CE1BAF1000F12D000BFA7
:100D90002068014651F8142F520610D40868C00686
:100DA00000F11A81FFF73AFDA0EB08005045EFD99A
:100DB00007E100BF20684169490640F1FB800069F6
:100DC000616A0870606A2268411C208D6162013886
:100DD0002085638D013B638553695B0740F1CC80BF
:100DE0001069BFE020684169490711D4002D00F067
:100DF0009380BAF1000F00F0E280FFF70FFDA0EB47
:100E00000800504500F2DD80206840694007F4D5B5
:100E1000EFF3108072B62068616A026842F40072D3
:100E2000026000690870606A218D01306062481EAE
:100E30002085608D0138608562B668E02068416970
:100E4000490710D4002D77D0BAF1000F00F0B78019
:100E5000FFF7E4FCA0EB0800504500F2B2802068E8
:100E600041694907F4D5016821F480610160EFF31D
:100E7000108072B62068616A00690870606A218D0E
:100E80000130013960622185618D01396185DBF8AE
:100E90000010C908A1FB0712110A714304910499BB
:100EA000013904910499002976D021684A695207D2
:100EB0001DD4049901390491049900296CD021684A
:100EC0004A69520713D404990139049104990029FD
:100ED00062D021684A69520709D404990139049102
:100EE0000499002958D021684A695207D7D50A6861
:100EF00042F400720A6009690170606A218D013054
:100F00006062481E2085608D0138608562B6206869
:100F1000616A006926E000BF416949073FF578AF83
:100F2000416949075CBF41695FEA41713FF570AFB4
:100F300041694907F0D56BE74169490793D4416995
:100F400049075CBF41695FEA41713FF58CAF416978
:100F50004907F1D587E700BF20684169490629D5CF
:100F60000069616A0870606A218D01306062481E04
:100F70002085618D0139618501047FF4E8AE202070
:100F800084F83D00002084F83E00002189F800101C
:100F900005B0BDE8F08F00BF00202021206384F859
:100FA0003D1084F83E00206C40F02000206462B6C2
:100FB0001EE000BF50F8141FC90601460CD4FFF70D
:100FC0002DFC00202021206384F83D1084F83E0091
:100FD000206C40F020000AE06FF010000860002054
:100FE0002021206384F83D1084F83E00206C2064AA
:100FF0000120002189F8001005B0BDE8F08F000045
:101000002DE9F04383B0994616460F460446FFF794
:1010100005FC94F83D1020291CD105462068816903
:10102000890713D5FFF7FAFB401B1928F6D90020D2
:101030002021206384F83D1084F83E00216C41F0AB
:101040002001216484F83C0004E000BF94F83C10C7
:10105000012903D1022003B0BDE8F083012284F806
:101060003C200368DDE90B180A9ADB0703D103680B
:1010700043F001030360036823F40063036021204D
:1010800084F83D00402084F83E0000202064626225
:101090006185608D394620850020CFF6FF70E062C3
:1010A000204632464B46CDF80080019501F0BEF84F
:1010B00020B1012003B0BDE8F08300BF208D0028DF
:1010C00050D0206808F10106014651F8142F12068D
:1010D0002CD49EB1B8F1000F5AD000BF086840056B
:1010E0005ED4FFF79BFB401B404556D82068014665
:1010F00051F8142F1206F1D518E000BF0A68520506
:101100004ED40A68120611D40A68520548D40A68F7
:1011100012060BD40A68520542D40A68120605D496
:101120000A6852053CD40A681206E7D5626A11467D
:1011300011F8013B0361238D6162591E2185678D82
:10114000013F678547697F070AD50F0408D05178AA
:101150000161911C6162991E2185628D013A62854F
:101160000904B1D1204641462A4601F099F938BB1D
:101170002068016841F400710160202084F83D007E
:10118000002084F83E0084F83C0003B0BDE8F08302
:101190000868400504D4FFF741FB202004E000BFAD
:1011A0006FF480600860042000212022216384F80D
:1011B0003D2084F83E10226C1043206484F83C10DB
:1011C000206C04287FF475AF2068016841F4007139
:1011D0000160012003B0BDE8F083000010B586B0C7
:1011E00045F200410268C4F2000100208A420590E5
:1011F00002D006B010BD00BF41F21804C4F20204D0
:10120000226842F008022260226802F0080201927D
:10121000019AC02202921222CDE9032001F5384042
:1012200002A9FFF7EBF9606840F4001060606068A5
:1012300000F400100190019806B010BD40F20000CB
:1012400040F6D411C2F20000C2F2000100780A6830
:10125000104408607047000080B542F20000C4F2FC
:101260000200016841F010010160032000F08AF8DB
:101270000F2000F005F800F027F8002080BD0000E6
:1012800070B540F20006C2F2000640F20801327862
:10129000C2F200014FF47A730968B3FBF2F204461C
:1012A000B1FBF2F1084600F05FFB0F2C4FF0010597
:1012B00008D838B94FF0FF3021460022002500F051
:1012C00035F87460284670BD82B041F21800C4F24F
:1012D00002000168022241F001010160016801F091
:1012E000010101910199416841F0805141604068DC
:1012F00000F08050009000980420C4F201000168C2
:1013000062F31A61016002B070470000002848BF14
:10131000704700F01F01012202FA01F14EF20012A3
:101320004009CEF2000242F82010704710B54EF688
:101330000C5CCEF2000CDCF80030C3F3022E8EF011
:101340000704042C28BF0424BEF103034FF0FF3E22
:101350000EFA04F438BF0023A14399400EFA03F3B8
:101360009A43114300F00F02043A624409010C321F
:1013700000F16043B0F1FF3FC8BF03F56442117054
:1013800010BD00004EF60C51CEF200010A684FF677
:10139000FF031A4060F30A2242F0806040F0FD70C3
:1013A000086070472DE9F04381B0002800F0858087
:1013B00042F20008C4F202080446D8F800000D46C4
:1013C00000F0070088420CD2D8F8000020F0070097
:1013D0002843C8F80000D8F8000000F00700A84231
:1013E0006BD1206841F204098107C4F2020917D5C4
:1013F000410705D5D9F8001041F4E061C9F80010A3
:10140000010705D5D9F8001041F46051C9F8001062
:10141000D9F80010A26821F0F0011143C9F80010BA
:10142000C00741D1D8F8000000F00700A8420CD94D
:10143000D8F8000020F007002843C8F80000D8F8CA
:10144000000000F00700A84237D12068410707D507
:10145000D9F80010E26821F4E0611143C9F80010E6
:10146000000708D5D9F80000216920F4605040EA4F
:10147000C100C9F80000D9F8002002F00C000828CB
:1014800041F20020C0F27A0050D142F67273C2F3EA
:101490008341C0F60003595CD2033BD440F60010F0
:1014A000C0F23D00484341E0606802280AD00128AC
:1014B0002AD159F8041C890308D4012001B0BDE8E1
:1014C000F08300BF59F8041C8901F6D5D9F8001043
:1014D00021F003010843C9F80000FFF79FF9064611
:1014E00041F28837D9F80000616800F00C00B0EBD9
:1014F000810F97D0FFF792F9801BB842F2D90320F1
:1015000001B0BDE8F08300BF59F8041C8907D4D5A9
:10151000DCE700BFD9F8002042F65873C2F340421E
:10152000C0F600039A5C4843B0FBF2F0D9F8001013
:1015300042F65A72C1F30311C0F60002515C40F248
:10154000080220FA01F140F20400C2F20000006833
:10155000C2F200021160FFF793FE002001B0BDE867
:10156000F083000040F2080041F20401C2F20000E2
:10157000C4F202010068096842F66A72C1F30221EE
:10158000C0F60002515CC8407047000040F20800FD
:1015900041F20401C2F20000C4F2020100680968CD
:1015A00042F66A72C1F3C221C0F60002515CC84023
:1015B000704700002DE9F04182B0002868D0044651
:1015C000007841F20006C007C4F2020625D0706818
:1015D00000F00C0004281BD0706800F00C000828F4
:1015E00002D17068C00313D46068002800F06881DD
:1015F000B0F5A02F00F07C81B0F5803F00F07C8139
:10160000306820F480303060306820F4802076E14B
:101610003068800301D56068D0B32078800718D582
:10162000706810F00C0F07D0706800F00C000828EC
:101630006ED17068C0036BD43068800702D5206912
:10164000012825D13068616920F0F80040EAC10026
:101650003060207800071FD42078400732D4E56935
:1016600095B1706800F00C00082840F08F80012DC3
:101670000ED07068216A00F480328A4208D1616A13
:1016800000F47010884203D1002002B0BDE8F08160
:10169000012002B0BDE8F081A069002862D00020DE
:1016A000C4F242200121C0F88014FFF7B7F80546C4
:1016B000706A800700F18C80FFF7B0F8401B0228A9
:1016C000F6D92AE1F06910F0805808D1F06940F0AD
:1016D0008050F061F06900F080500090009847F26F
:1016E0000007C4F200073868C00529D4386840F400
:1016F00080703860FFF792F8054600BF3868C00573
:101700001ED4FFF78BF8401B6428F7D905E100BF12
:101710002069002840F20000C4F2422000F08280DC
:1017200001210160FFF77AF8054600BF30688007A5
:101730003FF588AFFFF772F8401B0228F6D9ECE0BE
:10174000E068002800F08080052800F097800128DC
:1017500000F09880306A20F001003062306A20F09A
:10176000040092E00020C4F242200021C0F880145E
:10177000FFF754F8054600BF706A80077FF56CAF2D
:10178000FFF74CF8401B0228F6D9C6E00027C4F248
:10179000422700203866FFF741F8022D05460BD19D
:1017A0003068800140F1BE80FFF738F8401B022806
:1017B0004FF00300F4D968E7306880017FF564AF2B
:1017C000FFF72CF8401B02284FF00300F4D95CE728
:1017D00040F20800C2F20000006844F6D351C1F2A2
:1017E0006201A0FB0101480A019000BF00BF0198FF
:1017F000411E002801913FF42FAF00BF0198411E08
:10180000002801913FF428AF00BF0198411E002835
:1018100001913FF421AF00BF0198411E00280191C2
:10182000E4D119E700210160FEF7F8FF054600BF8B
:10183000306880077FF50DAFFEF7F0FF401B0228F0
:101840004FF00300F4D920E7306A20F00100306245
:10185000306A20F004003062FEF7E0FF054641F2F6
:10186000883700BF306A800720D5FEF7D7FF401BBE
:10187000B8424FF00300F5D907E700BF306A40F0E7
:1018800004003062306A40F001003062FEF7C6FFAB
:10189000054641F2883700BF306A800706D4FEF75C
:1018A000BDFF401BB842F7D937E000BFB8F1000FC9
:1018B0007FF4D5AEF06920F08050F061CFE600BF34
:1018C000306820F480303060306820F48020306050
:1018D000FEF7A4FF054600BF306880037FF59DAE8C
:1018E000FEF79CFF401B64284FF00300F4D9CCE6C0
:1018F000306840F480203060306840F480303060E0
:10190000FEF78CFF054600BF306880033FF585AECB
:10191000FEF784FF401B6428F6D9032002B0BDE81F
:10192000F08100BF206AB0F5803F05D17168A268E0
:1019300021F40031114371607168626A21F47411FD
:1019400010430843706001203866FEF767FF0446C5
:10195000306880013FF598AEFEF760FF001B02285B
:101960004FF00300F4D990E6411E0020B0EB116F58
:101970001CBF012070474EF21002CEF200025160EF
:101980004EF62351CEF20001F0230B700721906038
:10199000116070477047000070470000B0B582B01A
:1019A000026805461068D368546900F02F012029A9
:1019B00003F0200106D129B1284602B0BDE8B040AD
:1019C00001F070B85FEA007C1EBF04F0010E03F462
:1019D000907414EB0E0455D1296B012905D110F038
:1019E000100118BF13F0100136D1010622D513F0F3
:1019F00080011FD095F83D00212841D1A868B0F59D
:101A0000805F03D12869002800F0F680286A411C15
:101A1000296200785060E88C01380104E8842FD1F5
:101A2000D06820F08000D060D06840F04000D060E6
:101A300002B0B0BD400623D513F0400020D0D068DE
:101A4000202120F04000D060284685F83D1002B0EB
:101A5000BDE8B04000F04CBA002001901068019041
:101A60005068019001985069400613D4A88DE98D03
:101A7000EB8D002B1CBF401A5FEA004140F0A480B0
:101A800002B0B0BDC40718BF13F480732CD1430754
:101A900030D436E0A86B01684B689CB2002CEFD0C4
:101AA000A98D8C42ECD2EB858369202B17D0D168AD
:101AB00021F48071D160516921F0010151615169B6
:101AC00021F040015161202185F83E100021296359
:101AD000D16821F01001D160FEF7F8FBA98DE88DE7
:101AE000081A81B2284682E02B6C43F001032B6474
:101AF000430706D5BEF1000F03D02B6C43F0020361
:101B00002B64830706D5BEF1000F03D02B6C43F086
:101B100004032B64BCF1000F06D551EA0E0303D079
:101B20002B6C43F008032B642B6C002BA8D010F017
:101B3000200018BF002903D0284600F0B3FF2A6810
:101B40005069296C00F0400001F0080140182DD0C8
:101B5000D06820F49070D060506920F0010050618E
:101B6000286B012803D1D06820F01000D06020201D
:101B700085F83E0000202863506940061ED5506954
:101B800020F040005061A86BC0B142F69921C0F628
:101B900000014163FEF7BEFB00283FF471AFA86B64
:101BA000416B02B0BDE8B040084700BF2846FFF7D0
:101BB000F3FE0020286402B0B0BD00BF284602B08A
:101BC000BDE8B040FFF7E8BED16821F49071D16064
:101BD000516921F001015161202185F83E10002159
:101BE0002963D16821F0100381B22846D36002B086
:101BF000BDE8B040FFF7CEBE286A30F8021B6FF395
:101C00005F215160286206E7002804BF0120704769
:101C100010B5044690F83D0028B9002084F83C0037
:101C2000204600F05FF8242084F83D002068D4E9C5
:101C30000212C36823F40053C360036923F44053C2
:101C40001A430261D4E904231143C268194341F2E3
:101C50000C639A431143C1604169A26921F4407148
:101C6000114343F60002C4F201029042416103D0E5
:101C7000FFF778FC02E000BFFFF788FC62681921DB
:101C800048439100B0FBF1F048F21F51C5F2EB114F
:101C9000A0FB01235A096FF0630302FB0300322308
:101CA00003EB0010A0FB0101F02303EA51132068AD
:101CB00003EB0212C1F3431111448160016921F465
:101CC00090410161416921F02A014161C16841F4FB
:101CD0000051C16000202021206484F83D1084F868
:101CE0003E1010BD2DE9F04186B00446006844F274
:101CF0000041C4F20001002788420597CDE903772F
:101D0000029739D043F60001C4F20101884240F045
:101D10009C8041F21800C4F20200016840F6000401
:101D200041F4804101600168C4F2010401F4804182
:101D300001910199016802AD41F004010160006860
:101D4000294600F00400019001984FF400700290C1
:101D500002200390032005902046FEF74FFC4FF42D
:101D6000806002900020CDE9030020462946FEF75E
:101D700045FC252461E000BF41F21800C4F20200D6
:101D8000416840F6000541F4003141604168C4F209
:101D9000010501F4003101910199016802AE41F0A1
:101DA00004010160006840F26C0800F0040001903A
:101DB00001980420029002200390032005902846F9
:101DC0003146C4F20208FEF719FC0820CDE90207EB
:101DD000284631460497FEF711FC40F67005C2F222
:101DE00000054FF440508026C5E906702846C5E935
:101DF0000087C5E90276C5E90477FEF7AFFB002846
:101E000018BFFEF75DFAA5636C6240F6B40508F1F1
:101E10001400C2F200051021002285E84700284680
:101E2000C5E90422C5E90622FEF798FB002818BF81
:101E3000FEF746FA65636C622624204600210022E4
:101E4000FFF774FA2046FFF761FA06B0BDE8F081AB
:101E5000034690F83E0020280AD100294FF00100E7
:101E600018BF002A00D1704793F83C00012801D127
:101E70000220704700201863996222219A85DA8532
:101E8000186483F83E10196883F83C00CA6842F46D
:101E90008072CA604A6942F001024A61CA6842F02F
:101EA0002002CA607047000070470000034690F8A7
:101EB0003D0020280AD100294FF0010018BF002A58
:101EC00000D1704793F83C00012801D102207047EF
:101ED0001962002021219A84DA84186483F83D1065
:101EE000196883F83C00CA6842F08002CA607047F3
:101EF00040F64C1040F2A001C2F20000C2F2000114
:101F00004FF4FA62FFF7D2BFFEE700002DE9F0437D
:101F100083B00446006899460368904643F48062A3
:101F2000026002680B9D42F48072026042690A9E60
:101F3000D2070F461DD1711C11D0002E00F0368142
:101F4000FEF76CFC401BB04200F232812068416910
:101F5000C907F5D00DE000BF4169C90709D1416942
:101F6000C90706D14169C90704BF41695FEAC17168
:101F7000F2D007F0FE0707614169890738D441694B
:101F8000721C01F4806111D049BB002E00F03A812F
:101F9000FEF744FC401BB04200F2368120684169E4
:101FA000890725D441694905F2D518E0B9B94169D5
:101FB00089071DD44169490511D44169890717D49E
:101FC000416949050BD44169890711D44169490523
:101FD00005D4416989070BD441694905E7D50168F2
:101FE00041F4007101606FF48061416104200CE1F3
:101FF00000210291014651F8142F02924A68029280
:10200000029A0A68120620D4002E00F0AB80721CDF
:1020100051D10A68520500F1AD800A68120614D445
:102020000A68520500F1A6800A6812060DD40A68F3
:10203000520500F19F800A68120606D40A6852050C
:1020400000F198800A681206E3D5B9F1010F45D076
:102050004FEA18210161014651F8142F12063DD4B0
:10206000002E00F07F80721C2AD10A68520500F110
:1020700081800A68120631D40A6852057AD40A6847
:1020800012062BD40A68520574D40A68120625D4A5
:102090000A6852056ED40A681206E6D51EE000BF33
:1020A000FEF7BCFB401BB04261D82068014651F8E6
:1020B000142F1206C9D408684005F1D55AE000BFB4
:1020C0000868400556D4FEF7A9FB401BB0424ED825
:1020D0002068014651F8142F1206F1D55FFA88F1F5
:1020E0000161014651F8142F12061AD4D6B3721C9E
:1020F00033D10A6852053DD40A68120611D40A6821
:10210000520537D40A6812060BD40A68520531D436
:102110000A68120605D40A6852052BD40A6812060A
:10212000E7D50168002241F48071016020464FF03C
:1021300001113346009500F007FA002850D02068BE
:10214000006844E0FEF76AFB401BB0420FD82068ED
:10215000014651F8142F1206E3D408684005F1D562
:1021600008E000BF0868400504D4FEF757FB2020B4
:1021700004E000BF6FF4806008600420002120228A
:10218000216384F83D2084F83E10226C10432064C3
:1021900084F83C10206C042843D12068016841F485
:1021A00000710160012003B0BDE8F083FEF736FB4B
:1021B00000202021206384F83D1084F83E00216C2B
:1021C00041F020012164216884F83C000868C005C2
:1021D00044BF4FF400702064032003B0BDE8F083D7
:1021E000206847F0010101610221C0F2010120468F
:1021F00032462B4600F050FA002818BF012003B0E9
:10220000BDE8F083FEF70AFB202000212022216395
:1022100084F83D2084F83E10226C1043206484F83A
:102220003C10012003B0BDE8F08300002DE9F0432D
:1022300081B00446006890460268099D42F48072AD
:1022400002604269089E9946D2070F461DD1711C53
:1022500011D0002E00F0D280FEF7E0FA401BB04211
:1022600000F2CE8020684169C907F5D00DE000BFBB
:102270004169C90709D14169C90706D14169C9073F
:1022800004BF41695FEAC171F2D007F0FE0101614C
:102290004169890738D44169721C01F4806111D009
:1022A00049BB002E00F0E880FEF7B8FA401BB042B0
:1022B00000F2E48020684169890725D44169490515
:1022C000F2D518E0B9B9416989071DD441694905BA
:1022D00011D44169890717D4416949050BD4416973
:1022E000890711D44169490505D4416989070BD48F
:1022F00041694905E7D5016841F4007101606FF457
:10230000806141610420BAE000210091014651F84A
:10231000142F00924A680092009A0A6812061ED48E
:10232000002E00F08580721C4DD10A68520500F124
:1023300087800A68120612D40A68520500F180806C
:102340000A6812060BD40A68520579D40A68120684
:1023500005D40A68520573D40A681206E5D5B9F1A6
:10236000010F43D04FEA18210161014651F8142FA3
:1023700012063BD4002E5BD0721C29D10A6852058C
:102380005ED40A68120631D40A68520558D40A6825
:1023900012062BD40A68520552D40A68120625D4B4
:1023A0000A6852054CD40A681206E7D51EE000BF41
:1023B000FEF734FA401BB0423FD82068014651F87E
:1023C000142F1206CBD408684005F1D538E000BFC1
:1023D0000868400534D4FEF721FA401BB0422CD8DF
:1023E0002068014651F8142F1206F1D55FFA88F1E2
:1023F0000161002001B0BDE8F08300BFFEF70EFAD6
:1024000000202021206384F83D1084F83E00216CD8
:1024100041F020012164216884F83C000868C0056F
:1024200044BF4FF400702064032001B0BDE8F08386
:102430000868400504D4FEF7F1F9202004E000BF4D
:102440006FF480600860042000212022216384F85A
:102450003D2084F83E10226C1043206484F83C1028
:10246000206C042817D12068016841F400710160D4
:10247000012001B0BDE8F083FEF7D0F92020002153
:102480002022216384F83D2084F83E10226C104302
:10249000206484F83C10012001B0BDE8F083000006
:1024A00070B50368044653F8140F400737D40E463E
:1024B000F1B1701C24D100BF1868400532D41868EF
:1024C00040072CD4186840052CD41868400726D43F
:1024D0001868400526D41868400720D418684005BD
:1024E00020D4186840074FF0000048BF70BDE3E7F4
:1024F0001868400516D4FEF791F9202016E000BFB9
:10250000154600BF186840050CD4FEF787F9401B3C
:10251000B042F2D8236853F8140F4007F2D50020D8
:1025200070BD00BF6FF4806018600420002120227D
:10253000216384F83D2084F83E10226C104320640F
:10254000012084F83C1070BD2DE9F0410546144689
:10255000DDF8188001F47F002A681E46B0F5803F40
:102560008FB241D150693840C01BB0FA80F04009A9
:10257000A0427BD1701C2DD0002E7BD0FEF74EF9EF
:10258000A0EB0800B04277D8286840693840C01BEB
:10259000B0FA80F04009A042F0D00020BDE8F08100
:1025A00050693840C01BB0FA80F04009A0425DD1AC
:1025B00050693840C01BB0FA80F04009A04255D1A4
:1025C00050693840C01BB0FA80F04009A0424FF07B
:1025D00000005FD150693840C01BB0FA80F040095C
:1025E000A042DDD042E000BF90693840C01BB0FA85
:1025F00080F04009A04239D1701C1FD0D6B300BF73
:10260000FEF70CF9A0EB0800B04235D828688069C5
:102610003840C01BB0FA80F04009A042F0D0002042
:10262000BDE8F08190693840C01BB0FA80F04009E5
:10263000A0424FF0000018BFBDE8F081906938401B
:10264000C01BB0FA80F04009A0420FD19069384019
:10265000C01BB0FA80F04009A04207D19069384011
:10266000C01BB0FA80F04009A042DBD00020BDE8DA
:10267000F08100BFFEF7D2F800202021286385F802
:102680003D1085F83E00296C41F02001296485F851
:102690003C000120BDE8F081F0B581B0044600683F
:1026A0001D4643698FB203EA0701B94202D10020F7
:1026B00001B0F0BD41691646013201F480610FD0CE
:1026C00059BB9EB3FEF7AAF8401BB04230D8206831
:1026D00041693940B942EAD041694905F2D51CE067
:1026E000D9B941693940B942E1D04169490514D4A9
:1026F00041693940B942DAD0416949050DD441698F
:102700003940B942D3D04169490506D441693940BD
:10271000B942CCD041694905E3D5016841F4007163
:1027200001606FF480614161042002E0FEF776F8F9
:10273000202000212022216384F83D2084F83E10CF
:10274000226C1043206484F83C10012001B0F0BDDD
:102750002DE9F04385B040F27006C2F2000640F663
:10276000F8047188C2F200042046032264234FF06B
:102770006408FEF715F901200127FDF72BFF71888A
:102780000DF1120520460F220123CDE90057CDF8A7
:102790000880FEF719FA0120FDF71CFF9DF81200D2
:1027A000718830704C208DF81200204611220123D0
:1027B000CDE90057CDF80880FEF722FC0120FDF797
:1027C00009FF4A2071888DF812002046102201234B
:1027D000CDE90057CDF80880FEF712FC0120FDF787
:1027E000F9FE71884FF000092046162201238DF86A
:1027F0001290CDE90057CDF80880FEF701FC0120CA
:10280000FDF7E8FE092071888DF812002046172296
:102810000123CDE90057CDF80880FEF7F1FB012038
:10282000FDF7D8FE082071888DF8120020460D2291
:102830000123CDE90057CDF80880FEF7E1FB012028
:10284000FDF7C8FE202071888DF812002046132263
:102850000123CDE90057CDF80880FEF7D1FB012018
:10286000FDF7B8FE802071888DF8120020461A22EC
:102870000123CDE90057CDF80880FEF7C1FB012008
:10288000FDF7A8FE71882046152201238DF81290CD
:10289000CDE90057CDF80880FEF7B2FB0120FDF727
:1028A00099FE05B0BDE8F08380B582B041F2140016
:1028B000C4F202000168002241F0010101600068D9
:1028C000002100F00100019001981020FEF72EFD7C
:1028D0001020FEF71BFD112000210022FEF726FD2F
:1028E000112002B0BDE88040FEF710BD2DE9F04791
:1028F00084B041F21800C4F20200016840F60044BE
:1029000041F0100101600168C4F2010401F01001FE
:1029100000910099016804F5806641F02001016092
:102920000168002201F020010091009901684FF434
:10293000005541F00401016001684FF0000A01F008
:10294000040100910099016841F0080101600068EC
:102950004FF4005100F00800009000983046FDF759
:1029600057FF20464FF4406100224FF44068FDF7C6
:102970004FFF00956D464FF001090227304629466A
:10298000CDE9019A0397FDF739FEE020CDE9000774
:1029900003200390A4F580602946FDF72FFE204612
:1029A00029468DE800070397FDF728FE2020CDE992
:1029B000000A20462946CDF808A0FDF71FFE04B006
:1029C000BDE8F08780B540F6F80045F20041C2F25C
:1029D0000000C4F2000148F2A06200234FF4804CD2
:1029E000C0F2010280E80E00C0E9033CC0E90533F3
:1029F000C0E90733FDF718FF002808BF80BDBDE818
:102A00008040FDF75DBC000080B540F64C1043F6F9
:102A10000001C2F20000C4F2010100234FF00C0CCF
:102A20004FF4E13280E80E00C0E90333C0E905C38A
:102A3000C361FFF7E9F8002808BF80BDBDE880400A
:102A4000FDF73EBC80B540F6901044F20041C2F262
:102A50000000C4F2000100234FF00C0C4FF416529A
:102A600080E80E00C0E90333C0E905C3C361FFF786
:102A7000CBF8002808BF80BDBDE88040FDF720BC32
:102A8000FEE70000FEE7000070470000704700000E
:102A9000FEF7D4BB70470000406A0021C185C184A5
:102AA000FEF77ABF81B090F83E10222920D18368CA
:102AB000B3F5805F08D10169002941D000F12801F8
:102AC0000A6803685B680AE0014651F8282F13B9C9
:102AD0000369002BF5D003685B6803F07F03137074
:102AE0000A6801320A60C18D01390A04C18501D02A
:102AF00001B070470168CA6822F02002CA60CA6843
:102B000022F48072CA604A6922F001024A612022DE
:102B100080F83E20026B012A1CD100220263CB68A0
:102B200023F01003CB600B68DB0605D500920A6822
:102B30000092496800910099818D01B0FEF72ABF8B
:102B40000168826A49686FF35F2122F8021B826282
:102B5000C9E700BF01B0FFF7A7B9000010B540F604
:102B60004C14C2F200042046FEF718FF40F6004065
:102B7000C4F201004FF48061FDF742FE40F296017D
:102B8000C2F2000120460C22BDE81040FFF760B9F8
:102B900040F69010C2F20000FEF700BFFEE7000012
:102BA00080B584B040F27000C2F20000418801207C
:102BB0000DF10E02CDE9002040F6F8004FF0640C54
:102BC000C2F200001E220123CDF808C0FDF7FCFF71
:102BD0009DF80E0000F0010004B080BDB0B540F2D9
:102BE000700540F6F804C2F200050020C2F20004AD
:102BF000688000BF81B2204603226423FDF7D0FE27
:102C000040B16888013081B2FF29688028BFB0BD1B
:102C1000F0E700BF40F60040C4F201004FF48061CD
:102C2000FDF7EEFD0A20BDE8B040FDF7D3BC000083
:102C300090B0FEF711FB00240120CDE90B44CDE953
:102C4000094406900A904FF4E0104FF480310225B9
:102C50000F9006A8CDE90714CDE90D51FEF7AAFCA7
:102C600020B1EFF3108072B6FEE700BF0F20CDE970
:102C700001054FF48060CDE9040401A8022103940A
:102C8000FEF790FB20B1EFF3108072B6FEE700BFB5
:102C9000FFF72CFEFFF708FEFFF794FEFFF7B4FEE8
:102CA000FFF7D0FEFFF79AFF4FF47A70FDF792FC22
:102CB000FFF74EFD40F2A000C2F200004FF4FA61AF
:102CC0007822FDF781FA40F64C1040F29601C2F2EC
:102CD0000000C2F200010C22FFF7BAF841F2000432
:102CE000C4F201046420FDF775FCFFF759FF0028CA
:102CF000F8D020464FF40051FDF782FD00F002F8B5
:102D0000F0E7000010B584B040F27004C2F2000495
:102D1000062004F120026188CDE9002040F6F80089
:102D20004FF0640CC2F2000022220123CDF808C04B
:102D3000FDF74AFF0120FDF74DFC208C00F028F83C
:102D40004FF0814100F03CF84FF0605100F038F84E
:102D5000618C6060084600F01BF84FF0814100F084
:102D60002FF84FF0605100F02BF8A18CA0600846BE
:102D700000F00EF84FF0814100F022F84FF0605162
:102D800000F01EF801460120E16004B010BD000013
:102D900010F0004148BF4042B0FA80F310FA03F24D
:102DA000C3F19D030BD051EAC35101EB122053062E
:102DB00038BF704700F1010008BF20F001007047E4
:102DC0004FF47F0C1CEAD0121EBF1CEAD11392EA0A
:102DD0000C0F93EA0C0F00F0478090EA010F48BFF8
:102DE00042F480724FF0004C4CEA00204CEA012182
:102DF00002EB0302A0FB0113A2F50002002918BF99
:102E000043F001035B0028BF4FEA330342EB224249
:102E10005FEA132C4CEBC2502EBFBCEB436FB2F5F4
:102E20007C0F70474FEA036CBCF1004F08BF20F0E5
:102E30000100B2F57C0F38BF70470BD582F0FF025E
:102E400012F5803FC8BF704700F1C040D8BF00F006
:102E50000040704700F5000C5FEA4C0C48BF70471B
:102E6000B0F1C04000F073B80CEAD11390EA010F42
:102E700048BF42F48072624538BF634504D280EA9D
:102E8000010000F00040704710B500F01AF800BFD4
:102E90008900013E00F007B800F009B85FEA410C74
:102EA0005FEA1C6C08D080EA010000F050B85FEACD
:102EB000400C5FEA1C6CF6D14FF00040A0F580009A
:102EC00070470EF1020E2EF0030E5EF8044B244202
:102ED00004D44FEA4102B2F17F4F11D84FEA4003C8
:102EE000B3F17F4F0CD80ED14FEAD07C0CEB4C0CD9
:102EF0000CF1020CB2F17F4F08BF4CEBD17C04E027
:102F00004FF0080C01E04FEAD17C0CEB4C0324FAA3
:102F100003F404F00704B4F1040C06D20EEB840CA5
:102F2000BDE810404CF0010C6047DFE80CF00708EA
:102F300002024FF00040A0F5800010BD084642009C
:102F400018BFD2F1807288BF00F0004010BDFF2191
:102F500041EAD050C00570470102000000000000A7
:102F60000000010203040607080900000000010236
:102F7000030402030405060708090A0B0C0D0E0FD3
:102F800010100000A82F0008000000201000000012
:102F900028010008B82F000810000020C80F00000A
:102FA00044010008000000000100000010000000C3
:082FB0000024F4000000000001
:04000005080000ED02
:00000001FF
