:020000040800F2
:10000000900B00208901000871130008911200086C
:100010006D130008D5020008A528000800000000A4
:10002000000000000000000000000000F5270008AC
:10003000D90200080000000075130008F927000825
:10004000A3010008A3010008A3010008A301000800
:10005000A3010008A3010008A3010008A3010008F0
:10006000A3010008A3010008A3010008A3010008E0
:10007000A3010008A3010008A3010008A3010008D0
:10008000A3010008A3010008A3010008A3010008C0
:10009000A3010008A3010008A3010008A3010008B0
:1000A000A3010008A3010008A3010008A3010008A0
:1000B000A3010008A3010008A3010008A301000890
:1000C000A3010008A3010008A3010008A301000880
:1000D000A3010008A3010008A3010008A301000870
:1000E000A3010008A3010008A301000800F002F822
:1000F00000F03AF80AA090E8000C82448344AAF188
:100100000107DA4501D100F02FF8AFF2090EBAE885
:100110000F0013F0010F18BFFB1A43F0010318473B
:10012000804A0000A04A0000103A24BF78C878C175
:10013000FAD8520724BF30C830C144BF04680C60ED
:10014000704700000023002400250026103A28BF35
:1001500078C1FBD8520728BF30C148BF0B60704739
:100160001FB51FBD10B510BD00F07AF81146FFF79E
:10017000F7FF04F059F900F098F803B4FFF7F2FF25
:1001800003BC00F09FF80000094880470948004779
:10019000FEE7FEE7FEE7FEE7FEE7FEE7FEE7FEE737
:1001A000FEE7FEE704480549054A064B7047000094
:1001B00031280008ED00000890050020900B002079
:1001C00090070020900700204FF000020429C0F0A3
:1001D000128010F0030C00F01E80CCF1040CBCF176
:1001E000020F18BF00F8012BA8BF20F8022BA1EBCB
:1001F0000C0100F010B85FEAC17C24BF00F8012BAD
:1002000000F8012B48BF00F8012B7047704770477A
:1002100070474FF0000200B51346944696462039C9
:1002200022BFA0E80C50A0E80C50B1F12001BFF4AF
:10023000F7AF090728BFA0E80C5048BF0CC05DF815
:1002400004EB890028BF40F8042B08BF704748BF63
:1002500020F8022B11F0804F18BF00F8012B7047D7
:10026000754600F02BF8AE4605006946534620F06F
:100270000700854618B020B5FFF794FFBDE8204081
:100280004FF000064FF000074FF000084FF0000B52
:10029000AC46ACE8C009ACE8C009ACE8C009ACE8C1
:1002A000C00921F007018D46704710B50446AFF331
:1002B00000802046BDE81040FFF75FBF0048704750
:1002C0002800002001491820ABBEFEE726000200EE
:1002D00070470000FEE70000704700007047000014
:1002E00080B540F2C803C2F200035A7A012A84BFE3
:1002F000012080BD93F809C08646002003F80C0059
:100300005A7A03EB8202C2F804E05A7A1A44107255
:1003100093F809C00CF101025A720CF130020A7014
:1003200042F63A72A1F80120C87080BD2DE9F04F65
:1003300082B041F20042C4F201020E6804239042EE
:1003400008BF0323002E009300F0F68040F20C4E0D
:100350004FF6FF7CC4F2010E00220124C1F2100C02
:100360004FF0000A4FF0000943E000BF012502F002
:100370000C040F27A7402BEA070705FA04F43C43B7
:1003800043F82640D1F804B040F20045C4F201051C
:100390005FEACB332B6854BF23EA080343EA080320
:1003A0002B606B685FEA8B3454BF23EA080343EA8F
:1003B00008036B605FEACB24AB6854BF23EA0803F1
:1003C00043EA08035FEA8B24AB60DEF800304FF0AD
:1003D000010454BF23EA080343EA0803CEF80030BF
:1003E0000E680AF1010A36FA0AF302F1040200F07B
:1003F000A38004FA0AF816EA080FF1D04B686345A7
:1004000012DC122B56D8DFE803F0350B4549555561
:1004100055555555555555555555554D510000BFD8
:10042000D1F80C9046E000BF4FF6FF77C1F22107EC
:10043000BB420FDC0027C1F21107BB421AD00027D4
:10044000C1F21207BB4215D00027C1F22107BB42FF
:1004500010D02FE00027C1F22207BB420AD00027AC
:10046000C1F23107BB4205D00027C1F23207BB42BF
:1004700020D100BF8B684BB1012B14BFC0F8148092
:10048000C0F810804FF0080914E000BF4FF00409D5
:1004900010E000BFCB6803F108090BE04FF0000942
:1004A00008E000BFCB6803F1040903E0CB6803F167
:1004B0000C0900BF13460546BAF1080F24BF203BC4
:1004C00004352E680F279F40BE4309FA03F33343D8
:1004D0002B60CB79DB067FF583AF41F21804C4F2C1
:1004E000020423684FEA9A0643F00103236023685D
:1004F00040F6000403F001030193019B40F2004326
:10050000C4F20103A3F57E7353F826B0C4F20104CC
:10051000A0420FD040F60044C4F20104A0423FF4D0
:1005200025AF41F20004C4F20104009DA04208BFBF
:1005300002251CE700251AE702B0BDE8F08F000095
:10054000002A08BF090401617047000040F288508A
:10055000C2F200000068704740F2000040F288518B
:10056000C2F20000C2F2000100780A68104408607C
:100570007047000080B542F20000C4F2020001683A
:1005800041F010010160032000F07AF8002000F033
:1005900005F800F027F8002080BD000070B540F29B
:1005A0000006C2F2000640F20C013278C2F20001ED
:1005B0004FF47A730968B3FBF2F20446B1FBF2F12F
:1005C000084600F04FFE0F2C4FF0010508D838B94F
:1005D0004FF0FF3021460022002500F025F874601E
:1005E000284670BD82B041F21800C4F202000168D2
:1005F000022241F001010160016801F00101019155
:100600000199416841F080514160406800F080509C
:10061000009000980420C4F20100016862F31A619E
:10062000016002B07047000010B54EF60C5CCEF2CF
:10063000000CDCF80030C3F3022E8EF00704042C0B
:1006400028BF0424BEF103034FF0FF3E0EFA04F46A
:1006500038BF0023A14399400EFA03F39A43114394
:1006600000F00F02043A624409010C3200F16043C9
:10067000B0F1FF3FC8BF03F56442117010BD000028
:100680004EF60C51CEF200010A684FF6FF031A40F5
:1006900060F30A2242F0806040F0FD70086070470D
:1006A0002DE9F04381B0002800F0858042F2000877
:1006B000C4F202080446D8F800000D4600F0070016
:1006C00088420CD2D8F8000020F007002843C8F870
:1006D0000000D8F8000000F00700A8426BD12068A5
:1006E00041F204098107C4F2020917D5410705D573
:1006F000D9F8001041F4E061C9F80010010705D5F0
:10070000D9F8001041F46051C9F80010D9F8001070
:10071000A26821F0F0011143C9F80010C00741D1CF
:10072000D8F8000000F00700A8420CD9D8F8000063
:1007300020F007002843C8F80000D8F8000000F0B7
:100740000700A84237D12068410707D5D9F8001023
:10075000E26821F4E0611143C9F80010000708D5F0
:10076000D9F80000216920F4605040EAC100C9F8BE
:100770000000D9F8002002F00C00082841F2002007
:10078000C0F27A0050D144F64633C2F38341C0F63A
:100790000003595CD2033BD440F60010C0F23D0088
:1007A000484341E0606802280AD001282AD159F85C
:1007B000041C890308D4012001B0BDE8F08300BF08
:1007C00059F8041C8901F6D5D9F8001021F003016D
:1007D0000843C9F80000FFF7B9FE064641F2883722
:1007E000D9F80000616800F00C00B0EB810F97D0E1
:1007F000FFF7ACFE801BB842F2D9032001B0BDE880
:10080000F08300BF59F8041C8907D4D5DCE700BF8A
:10081000D9F8002044F6B423C2F34042C0F60003E6
:100820009A5C4843B0FBF2F0D9F8001044F6B622C7
:10083000C1F30311C0F60002515C40F20C0220FA31
:1008400001F140F20400C2F200000068C2F20002AE
:100850001160FFF7A3FE002001B0BDE8F0830000A7
:100860002DE9F04182B0002868D00446007841F2BA
:100870000006C007C4F2020625D0706800F00C0024
:1008800004281BD0706800F00C00082802D17068A2
:10089000C00313D46068002800F06881B0F5A02F71
:1008A00000F07C81B0F5803F00F07C81306820F45E
:1008B00080303060306820F4802076E1306880033A
:1008C00001D56068D0B32078800718D5706810F023
:1008D0000C0F07D0706800F00C0008286ED170680B
:1008E000C0036BD43068800702D52069012825D168
:1008F0003068616920F0F80040EAC100306020787B
:1009000000071FD42078400732D4E56995B170689C
:1009100000F00C00082840F08F80012D0ED0706888
:10092000216A00F480328A4208D1616A00F47010B2
:10093000884203D1002002B0BDE8F081012002B05E
:10094000BDE8F081A069002862D00020C4F24220F6
:100950000121C0F88014FFF7F9FD0546706A800791
:1009600000F18C80FFF7F2FD401B0228F6D92AE146
:10097000F06910F0805808D1F06940F08050F061C3
:10098000F06900F080500090009847F20007C4F230
:1009900000073868C00529D4386840F48070386092
:1009A000FFF7D4FD054600BF3868C0051ED4FFF729
:1009B000CDFD401B6428F7D905E100BF2069002860
:1009C00040F20000C4F2422000F082800121016068
:1009D000FFF7BCFD054600BF306880073FF588AFD4
:1009E000FFF7B4FD401B0228F6D9ECE0E0680028D0
:1009F00000F08080052800F09780012800F09880A2
:100A0000306A20F001003062306A20F0040092E089
:100A10000020C4F242200021C0F88014FFF796FDA8
:100A2000054600BF706A80077FF56CAFFFF78EFD4B
:100A3000401B0228F6D9C6E00027C4F24227002056
:100A40003866FFF783FD022D05460BD13068800123
:100A500040F1BE80FFF77AFD401B02284FF00300F3
:100A6000F4D968E7306880017FF564AFFFF76EFD69
:100A7000401B02284FF00300F4D95CE740F20C0061
:100A8000C2F20000006844F6D351C1F26201A0FB3B
:100A90000101480A019000BF00BF0198411E0028D3
:100AA00001913FF42FAF00BF0198411E0028019132
:100AB0003FF428AF00BF0198411E002801913FF488
:100AC00021AF00BF0198411E00280191E4D119E730
:100AD00000210160FFF73AFD054600BF306880073E
:100AE0007FF50DAFFFF732FD401B02284FF00300EA
:100AF000F4D920E7306A20F001003062306A20F03B
:100B000004003062FFF722FD054641F2883700BF3E
:100B1000306A800720D5FFF719FD401BB8424FF01F
:100B20000300F5D907E700BF306A40F004003062E7
:100B3000306A40F001003062FFF708FD054641F2DF
:100B4000883700BF306A800706D4FFF7FFFC401BE0
:100B5000B842F7D937E000BFB8F1000F7FF4D5AE47
:100B6000F06920F08050F061CFE600BF306820F4DB
:100B700080303060306820F480203060FFF7E6FC81
:100B8000054600BF306880037FF59DAEFFF7DEFCB1
:100B9000401B64284FF00300F4D9CCE6306840F4E1
:100BA00080203060306840F480303060FFF7CEFC49
:100BB000054600BF306880033FF585AEFFF7C6FCF1
:100BC000401B6428F6D9032002B0BDE8F08100BFC5
:100BD000206AB0F5803F05D17168A26821F4003128
:100BE000114371607168626A21F474111043084303
:100BF000706001203866FFF7A9FC04463068800168
:100C00003FF598AEFFF7A2FC001B02284FF003004F
:100C1000F4D990E690F851007047000070B598B391
:100C200000268662054690F8510020B9284685F8CE
:100C3000506000F02BF8022085F8510095E807106D
:100C40001143036841EA0C0123F0400303602A6961
:100C5000EC691143D5E90523114303F400721143F4
:100C60002A6A2143AC6A114321430160042101EA4D
:100C700013414160C16921F40061C16101206E65C9
:100C800085F85100304670BD012070BD70B586B04A
:100C900040F60004C4F20104006804F52051002667
:100CA0008842049602D006B070BD00BF41F2180021
:100CB000C4F20200016802AD41F480510160016894
:100CC00001F4805101910199016841F00401016032
:100CD0000068294600F0040001900198A0200290CD
:100CE00002200390032005902046FFF71FFB4020C1
:100CF000CDE90206204629460496FFF717FB06B009
:100D000070BD00002DE9F04381B0044690F850001A
:100D1000012803D1022001B0BDE8F0834FF00109A2
:100D20001D4616460F4684F85090FFF70FFC94F8C6
:100D3000511001295AD18046002F4FF0010018BFF1
:100D4000002E00F0FD800320002184F85100616531
:100D50002763A686E686A163A187E187A068216450
:100D6000B0F5004F2068616403D1016841F480410F
:100D700001600168490603D4016841F04001016047
:100D80006168731EE268B1FA81F1B3FA83F349092D
:100D90005B09B2F5006F41EA03013FD131B137F889
:100DA000021BC1602763E18E0139E186E18E0029D3
:100DB0006ED0691C22D000BF8168890706D4FFF776
:100DC000C5FBA0EB0800A84208D3C1E0216B31F8B5
:100DD000022BC2602163E08E0138E086E08E00289D
:100DE00056D0206881688907E9D5EFE70220A7E09F
:100DF000FFF7ACFBE08E70B94AE000BF816889075D
:100E0000F6D5216B31F8022BC2602163E08E0138E8
:100E1000E086E08EE0B32068F0E700BF39B13978B2
:100E20000173206B01302063E08E0138E086E08E94
:100E300070B3681C0BD11BE0216B09780173206B28
:100E400001302063E08E0138E086E08E00B3206838
:100E500081688907F0D4FFF779FBA0EB0800A8426E
:100E6000F3D303206CE000BFFFF770FBE08E78B196
:100E7000206881688907F7D5216B09780173206B99
:100E800001302063E08E0138E086E08E0028EFD14B
:100E900020688168090646D5691C0ED0FFF756FB0D
:100EA000A0EB08012068A94212D281680906F5D496
:100EB00039E000BF8168090635D58168090632D559
:100EC0008168090644BF81685FEA01612BD5F1E7BB
:100ED000416821F0E00141606168B1F5827F0AD18B
:100EE000A168B1F5004F02D0B1F5806F03D1016860
:100EF00021F040010160A16AB1F5005F07D10168EE
:100F000021F400510160016841F4005101600121A8
:100F100084F85110002184F85010616D41F02001D7
:100F2000616520216165A16831B900210091C16826
:100F30000091806800900098606D002818BF012023
:100F4000002184F8519084F8501001B0BDE8F0837E
:100F50000320F5E72DE9F04182B0044690F85000F7
:100F6000012803D1022002B0BDE8F08101201F4614
:100F700015460E4684F85000FFF7E8FA94F8511031
:100F8000804601290CD06068B0F5827F40F09E80D9
:100F9000A06800284FF0020008BF042940F09780A5
:100FA000002E4FF0010018BF002D00F09080002FA0
:100FB00000F08D8094F85100002104281CBF05200A
:100FC00084F851006165A563E787A7872663E786F4
:100FD0002068A786216461640168490603D401681A
:100FE00041F04001016061687B1EE268B1FA81F165
:100FF000B3FA83F3089D49095B09B2F5006F41EA32
:1010000003016DD131B136F8021BC1602663E08E59
:101010000138E0860126681C31D101E0FFF796FA1D
:10102000E08E18B9E08F002800F0C2802068816847
:1010300089070CD5E18E51B1012E08D1216B002614
:1010400031F8022BC2602163E18E0139E1868168AB
:10105000C907E3D0E18F0029E0D0C068A16B012669
:1010600021F8020BA163E08F0138E087D6E700BFCB
:10107000FFF76CFAA0EB0800A84280F0AB80E08E8E
:1010800018B9E08F002800F09380206881688907F4
:101090000CD5E18E51B1012E08D1216B002631F81B
:1010A000022BC2602163E18E0139E1868168C907A4
:1010B000DED0E18F0029DBD0C068A16B012621F8CA
:1010C000020BA163E08F0138E087D1E70220012104
:1010D00084F85110002184F8501002B0BDE8F0816E
:1010E00039B131780173206B01302063E08E013813
:1010F000E0860126681C33D102E000BFFFF726FA24
:10110000E08E10B9E08F002852D0206881688907EE
:101110000ED5E18E61B1012E0AD1216B002609782E
:101120000173216B206801312163E18E0139E18671
:101130008168C907E2D0E18F0029DFD0C068A16BC8
:1011400001260870A06B0130A063E08F0138E087B2
:10115000D4E700BFFFF7FAF9A0EB0800A8423BD2A2
:10116000E08E08B9E08F18B32068816889070ED532
:10117000E18E61B1012E0AD1216B0026097801733D
:10118000216B206801312163E18E0139E18681689C
:10119000C907DFD0E18F0029DCD0C068A16B012630
:1011A0000870A06B0130A063E08F0138E087D1E7C1
:1011B0002168886800061ED5681C12D0FFF7C6F9A2
:1011C000A0EB08002168A84222D288680006F5D466
:1011D00011E000BF03207AE7032078E78868000663
:1011E00009D58868000606D58868000644BF886867
:1011F0005FEA0060F2D4A06800284FF000007FF49E
:1012000066AF0190CA6801928968019101995EE711
:10121000486820F0E00048606068B0F5827F0AD13D
:10122000A068B0F5004F02D0B0F5806F03D1086818
:1012300020F040000860A06AB0F5005F07D10868A0
:1012400020F400500860086840F400500860012055
:1012500084F85100616D41F02001616520216165D4
:1012600035E70000411E0020B0EB116F1CBF0120CC
:1012700070474EF21002CEF2000251604EF623513A
:10128000CEF20001F0230B700721906011607047CF
:10129000FEE7000010B540F2A104C2F2000440F2E3
:1012A0001000611CC2F20000FFF71AF8207010BD98
:1012B00070B584B041F21800C4F20200016840F633
:1012C000004441F0200101600168C4F2010401F012
:1012D0002001009100990168002241F004010160A1
:1012E0000168012501F004010091009901680026C0
:1012F00041F0080101600068012100F00800009041
:1013000000982046FFF71CF902200390694620460A
:10131000CDE900550296FFF709F804B070BD000052
:1013200080B540F2305043F20001C2F20000C4F236
:1013300001014FF48272002380E80E0000F11401D5
:101340004FF4007C4FF0200E81E808500A21C0E9DC
:101350000333C0E90833C0E90A31FFF75FFC002816
:1013600008BF80BDBDE88040FEF7B8BFFEE70000C3
:1013700070470000704700002DE9F04F83B040F641
:101380000048C4F20108404601210122FFF7D8F8C5
:1013900040F23055FF20C2F200058DF8070000BF73
:1013A0002846FFF737FC0128FAD140F23055C2F247
:1013B00000050DF10701284601224FF47A73FFF76B
:1013C000A1FCFF208DF807002846FFF723FC012829
:1013D000FAD140F23055C2F200050DF1070128465E
:1013E00001224FF47A73FFF78DFCFF208DF8070080
:1013F0002846FFF70FFC0128FAD140F23055C2F21F
:1014000000050DF10701284601224FF47A73FFF71A
:1014100079FCFF208DF807002846FFF7FBFB012829
:10142000FAD140F23055C2F200050DF1070128460D
:1014300001224FF47A73FFF765FCFF208DF8070057
:101440002846FFF7E7FB0128FAD140F23055C2F2F7
:1014500000050DF10701284601224FF47A73FFF7CA
:1014600051FCFF208DF807002846FFF7D3FB012829
:10147000FAD140F23055C2F200050DF107012846BD
:1014800001224FF47A73FFF73DFCFF208DF807002F
:101490002846FFF7BFFB0128FAD140F23055C2F2CF
:1014A00000050DF10701284601224FF47A73FFF77A
:1014B00029FCFF208DF807002846FFF7ABFB012829
:1014C000FAD140F23055C2F200050DF1070128466D
:1014D00001224FF47A73FFF715FCFF208DF8070007
:1014E0002846FFF797FB0128FAD140F23055C2F2A7
:1014F00000050DF10701284601224FF47A73FFF72A
:1015000001FCFF208DF807002846FFF783FB012828
:10151000FAD140F23055C2F200050DF1070128461C
:1015200001224FF47A73FFF7EDFB404601210022C0
:10153000FFF706F840208DF8080000BF2846FFF7A7
:1015400069FB0128FAD140F23055C2F2000502A928
:10155000284601224FF47A73FFF7D4FB00208DF860
:10156000080000BF2846FFF755FB0128FAD140F2DA
:101570003055C2F2000502A9284601224FF47A73C1
:10158000FFF7C0FB00208DF8080000BF2846FFF7DA
:1015900041FB0128FAD140F23055C2F2000502A900
:1015A000284601224FF47A73FFF7ACFB00208DF838
:1015B000080000BF2846FFF72DFB0128FAD140F2B2
:1015C0003055C2F2000502A9284601224FF47A7371
:1015D000FFF798FB00208DF8080000BF2846FFF7B2
:1015E00019FB0128FAD140F23055C2F2000502A9D8
:1015F000284601224FF47A73FFF784FB95208DF87B
:10160000080000BF2846FFF705FB0128FAD140F289
:101610003055C2F2000502A9284601224FF47A7320
:101620004FF47A79FFF76EFB41F6FF744FF0FF0A33
:1016300000260DF10A0B0DF1090700BF8DF80AA075
:101640008DF809602846FFF7E5FA0128FAD1284607
:1016500059463A460123CDF80090FFF77BFC9DF8F0
:101660000910013C46F10000012918BF0028E5D10E
:10167000404601210122FEF763FF40F23054FF2073
:10168000C2F200048DF80B002046FFF7C3FA0128D0
:10169000FAD140F23050C2F200000DF10B010122EC
:1016A0004FF47A730124FFF72DFB40F29F00C2F242
:1016B0000000447003B0BDE8F08F00002DE9F04752
:1016C00082B040F29E08C2F20008322088F8000082
:1016D000FF2040F230548DF805000020C2F20004D3
:1016E0008DF804002046FFF795FA0128FAD140F260
:1016F0003054C2F200044FF47A790DF1050101AAC9
:1017000020460123CDF80090FFF724FC4FF0FF0A9C
:1017100000270DF107050DF1060600BF8DF807A0A3
:101720008DF806702046FFF775FA0128FAD1204699
:10173000294632460123CDF80090FFF70BFC9DF8B7
:101740000600FF2806D098F800100029E6D102B064
:10175000BDE8F087FF2002B0BDE8F0872DE9F04F2B
:1017600085B00C4640F29D0140F230568246C2F2EE
:1017700000010A20FF254FF0000BC2F200064FF4D3
:101780007A790DF10B080DF10A0708708DF80B50EE
:101790008DF80AB03046FFF73DFA0128FAD13046FD
:1017A00041463A460123CDF80090FFF7D3FB9DF860
:1017B0000A00FF2808D140F29D00C2F20000007824
:1017C0000028E3D17CE000BFFE2879D140F23056FA
:1017D000FF274FF00008C2F200064FF47A790DF1AE
:1017E0000E0B00BF8DF80D708DF80C803046FFF7A2
:1017F00011FA0128FAD130460DF10D0103AA012397
:10180000CDF80090FFF7A6FB9DF80C008DF80F7047
:101810008AF800008DF80E803046FFF7FBF90128AA
:10182000FAD130460DF10F015A4601230AF10205A3
:10183000CDF80090FFF78EFB9DF80E00023C8AF871
:101840000100AA46CED1FF2040F230548DF811009D
:101850000020C2F200048DF8100000BF2046FFF700
:10186000D9F90128FAD140F23054C2F200044FF401
:101870007A770DF1110104AA204601230097FFF7A2
:1018800069FBFF208DF8130000208DF8120000BFC7
:101890002046FFF7BFF90128FAD14FF47A70009083
:1018A00040F23050C2F200000DF113010DF11202AE
:1018B00001230124FFF74EFB204605B0BDE8F08F61
:1018C0000024204605B0BDE8F08F00002DE9F04F60
:1018D00087B040F29E0A0290C2F2000A32208AF8D3
:1018E0000000FF2040F2305489468DF80F000020A0
:1018F000C2F200048DF80E002046FFF78BF9012894
:10190000FAD140F23056C2F200064FF47A7B0DF164
:101910000F010DF10E0230460123CDF800B0FFF7A4
:1019200019FBFF254FF000080DF1110704AC00BFB3
:101930008DF811508DF810803046FFF76BF90128B3
:10194000FAD13046394622460123CDF800B0FFF7E0
:1019500001FB9DF81000FF2808D09AF8000000282D
:10196000E6D1FF20C0B207B0BDE8F08F029D40F283
:101970003054C2F200048DF8125000BF2046FFF729
:1019800049F90128FAD140F23054C2F200040DF1B5
:101990001201204601224FF47A73FFF7B3F94FEAA0
:1019A00019608DF8130000BF2046FFF733F90128B6
:1019B000FAD140F23054C2F200040DF11301204676
:1019C00001224FF47A73FFF79DF94FEA19408DF821
:1019D000140000BF2046FFF71DF90128FAD140F29C
:1019E0003054C2F2000405A9204601224FF47A7354
:1019F000FFF788F94FEA19208DF815002046FFF708
:101A000009F90128FAD140F23054C2F200040DF174
:101A10001501204601224FF47A73FFF773F98DF810
:101A2000169000BF2046FFF7F5F80128FAD140F2E2
:101A30003054C2F200040DF11601204601224FF489
:101A40007A73FFF75FF90020402D08BF6FF06A003E
:101A5000482D08BF6FF078008DF817002046FFF77B
:101A6000D9F80128FAD140F23050C2F200000DF14D
:101A7000170101224FF47A73FFF744F94C2D1BD163
:101A8000FF2040F230548DF819000020C2F200040B
:101A90008DF818002046FFF7BDF80128FAD140F272
:101AA00030504FF47A77C2F200000DF1190106AA06
:101AB00001230097FFF74EFAFF2040F230548DF8D3
:101AC0001B000020C2F200048DF81A002046FFF728
:101AD000A1F80128FAD140F230504FF47A77C2F2DF
:101AE00000000DF11B010DF11A0201230097FFF711
:101AF00031FA9DF91A00B0F1FF3F3FF733AFFF20F5
:101B000040F230548DF81B000020C2F200048DF822
:101B10001A0000BF2046FFF77DF80128FAD140F2F5
:101B200030504FF47A77C2F200000DF11B010DF135
:101B30001A0201230097FFF70DFA9DF91A00B0F180
:101B4000FF3F3FF70FAFFF2040F230548DF81B00EE
:101B50000020C2F200048DF81A0000BF2046FFF7F3
:101B600059F80128FAD140F230504FF47A77C2F296
:101B700000000DF11B010DF11A0201230097FFF780
:101B8000E9F99DF91A00B0F1FF3F3FF7EBAEFF20F6
:101B900040F230548DF81B000020C2F200048DF892
:101BA0001A0000BF2046FFF735F80128FAD140F2AD
:101BB00030504FF47A77C2F200000DF11B010DF1A5
:101BC0001A0201230097FFF7C5F99DF91A00B0F139
:101BD000FF3F3FF7C7AEFF2040F230548DF81B00A7
:101BE0000020C2F200048DF81A0000BF2046FFF763
:101BF00011F80128FAD140F230504FF47A77C2F24E
:101C000000000DF11B010DF11A0201230097FFF7EF
:101C1000A1F99DF91A00B0F1FF3F3FF7A3AEFF20F5
:101C200040F230548DF81B000020C2F200048DF801
:101C30001A002046FEF7EEFF0128FAD140F230509C
:101C40004FF47A77C2F200000DF11B010DF11A0278
:101C500001230097FFF77EF99DF91A00B0F1FF3FCD
:101C60003FF780AEFF2040F230548DF81B0000207B
:101C7000C2F200048DF81A002046FEF7CBFF0128BF
:101C8000FAD140F230504FF47A77C2F200000DF1F1
:101C90001B010DF11A0201230097FFF75BF99DF973
:101CA0001A00B0F1FF3F3FF75DAEFF2040F2305425
:101CB0008DF81B000020C2F200048DF81A002046A7
:101CC000FEF7A8FF0128FAD140F230504FF47A779E
:101CD000C2F200000DF11B010DF11A020123009761
:101CE000FFF738F99DF91A00B0F1FF3F3FF73AAE20
:101CF000FF2040F230548DF81B000020C2F2000497
:101D00008DF81A002046FEF785FF0128FAD140F22F
:101D100030504FF47A77C2F200000DF11B010DF143
:101D20001A0201230097FFF715F99DF91A00B0F187
:101D3000FF3F3FF717AEFF2040F230548DF81B00F5
:101D40000020C2F200048DF81A002046FEF762FF60
:101D50000128FAD140F230504FF47A77C2F20000F5
:101D60000DF11B010DF11A0201230097FFF7F2F8A4
:101D70009DF81A00C0B207B0BDE8F08F2DE9F04F12
:101D800087B040F29E090446C2F200093220029157
:101D900089F80000FF2040F230558DF80E00002039
:101DA000C2F200058DF80D002846FEF733FF01282A
:101DB000FAD140F23056C2F200064FF47A7A0DF1B1
:101DC0000E010DF10D0230460123CDF800A0FFF702
:101DD000C1F84FF0FF0B4FF0000804AF0DF10F05F5
:101DE0008DF810B08DF80F803046FEF713FF0128F4
:101DF000FAD1304639462A460123CDF800A0FFF734
:101E0000A9F89DF80F00FF2804D099F800000028D9
:101E1000E6D119E0029E40F23055C2F200058DF87D
:101E2000116000BF2846FEF7F5FE0128FAD140F206
:101E30003050C2F200000DF1110101224FF47A730B
:101E4000FEF760FFFD2E03D1002007B0BDE8F08F44
:101E500040F230550026C2F200050DF112080DF1D6
:101E6000130700BF20788DF8120000BF2846FEF748
:101E7000D1FE0128FAD12846414601224FF47A7357
:101E8000FEF740FF60788DF8130000BF2846FEF78C
:101E9000C1FE0128FAD12846394601224FF47A734F
:101EA0000234FEF72FFF013E3006DBD1FF2040F267
:101EB00030548DF815000020C2F200048DF8140093
:101EC0002046FEF7A7FE0128FAD140F23054C2F2B4
:101ED00000044FF47A770DF1150105AA204601237D
:101EE0000097FFF737F8FF208DF8170000208DF8D6
:101EF000160000BF2046FEF78DFE0128FAD140F201
:101F00003054C2F200044FF47A780DF117010DF14C
:101F1000160220460123CDF80080FFF71BF84FF092
:101F200000094FF0FF0A0DF1190B06AE002500BFA6
:101F30008DF819A08DF818902046FEF76BFE012849
:101F4000FAD12046594632460123CDF80080FFF7EA
:101F500001F89DF8180000F01F07052F03D0402D51
:101F600005F10105E4D340F230544FF0FF084FF083
:101F70000009C2F200044FF47A7A0DF11B050DF14D
:101F80001A0600BF8DF81B808DF81A902046FEF7C8
:101F900041FE0128FAD12046294632460123CDF8D8
:101FA00000A0FEF7D7FF9DF81A000028EAD0781F9E
:101FB000B0FA80F0400907B0BDE8F08F00281CBFE0
:101FC000012070472DE9F04383B040F20806C2F2C9
:101FD00000063078800700F1878140F60049C4F29E
:101FE0000109FFF7C9F94846012100224FF0000816
:101FF000FEF7A6FA40200021FFF768FC01284FF009
:10200000000540F0468140F29D07C2F200076420BF
:10201000387048204FF4D571FFF758FC012840F084
:102020000581FF2040F230558DF807000020C2F2F4
:1020300000058DF8060000BF2846FEF7EBFD0128DD
:10204000FAD140F23055C2F200054FF47A740DF126
:1020500007010DF10602284601230094FEF77AFFDE
:10206000FF208DF8070000208DF806002846FEF7B7
:10207000D1FD0128FAD140F23055C2F200054FF4EB
:102080007A740DF107010DF1060228460123009430
:10209000FEF760FFFF208DF8070000208DF8060096
:1020A0002846FEF7B7FD0128FAD140F23055C2F2BA
:1020B00000054FF47A740DF107010DF10602284670
:1020C00001230094FEF746FF9DF80640FF208DF89F
:1020D000070000208DF806002846FEF79BFD01282A
:1020E000FAD140F230504FF47A75C2F200000DF18F
:1020F00007010DF1060201230095FEF72BFF012CCD
:102100004FF0000540F0C5809DF80600AA2803D0D6
:10211000BFE000BF387860B177200021FFF7D6FB21
:102120000128F7D869204FF08041FFF7CFFB002846
:10213000F0D13878002800F0AB807A20002100250B
:10214000FFF7C4FB002840F0A4808DF8085040F24F
:102150003055FF20C2F200058DF809002846FEF731
:1021600059FD0128FAD140F23055C2F200054FF472
:102170007A770DF1090102AA284601230097FEF79C
:10218000E9FE9DF80870FF208DF8090000208DF809
:10219000080000BF2846FEF73DFD0128FAD140F2B5
:1021A0003055C2F200054FF47A740DF1090102AA0C
:1021B000284601230094FEF7CDFEFF208DF809008C
:1021C00000208DF8080000BF2846FEF723FD0128F7
:1021D000FAD140F23055C2F200054FF47A740DF195
:1021E000090102AA284601230094FEF7B3FEFF204E
:1021F0008DF8090000208DF8080000BF2846FEF782
:1022000009FD0128FAD140F230504FF47A75C2F23C
:1022100000000DF1090102AA01230095FEF79AFEC4
:102220000625780658BF022533E000BF772000213D
:10223000FFF74CFB012805D869200021FFF746FB7A
:10224000012815D941200021FFF740FB10B1387853
:102250000028F7D101253878D0B150204FF4007113
:10226000FFF734FB002818BF002512E0387858B17A
:1022700077200021FFF72AFB0128F7D869200021E9
:10228000FFF724FB0028F1D1022538780028E4D19B
:10229000002540F29F07C2F20007484601210122B3
:1022A0003D70FEF74DF940F23054FF20C2F20004B9
:1022B0008DF80B008DF80A802046FEF7ABFC012854
:1022C000FAD140F230504FF47A74C2F200000DF1AE
:1022D0000B010DF10A0201230094FEF73BFE3DB114
:1022E000307800F0FE003070307803B0BDE8F08345
:1022F00000207870307803B0BDE8F0832DE9F0411C
:1023000086B028B10426304606B0BDE8F08100BF93
:1023100015460F46052913D1287802283ED00128FA
:1023200048D00028EED140F29F00C2F20000417870
:102330000026012908BF4670304606B0BDE8F0818E
:1023400040F20800C2F200000078C00720D140F639
:102350000044C4F201042046012100224FF000088D
:10236000FEF7EEF80D2F4FF0040600F2E780DFE8ED
:1023700007F007294BE5E5E5E5E5E5E5E5515F67AC
:10238000FFF79CF9B0F1FF0618BF0126D6E000BFA9
:102390000326304606B0BDE8F08100BF40F29F0042
:1023A000C2F20000407800266870304606B0BDE8F2
:1023B000F08100BFFEF7E0FF0026304606B0BDE822
:1023C000F08100BF49200021FFF780FAB0BB0DF17A
:1023D00006001021FFF7C2F980B39DF8060000F057
:1023E000C000402840F0D0809DF80E009DF80F10EE
:1023F000800440EA81204FF6004100F58060C0F281
:10240000FF310840DFE000BF4FF400702880002655
:1024100094E000BF49200021FFF758FA70B9284620
:102420001021FFF79BF9B0FA80F0460986E000BF63
:102430004A200021FFF74AFA0028F0D001267DE06B
:102440007A2000210026FFF741FA002875D18DF887
:10245000176040F23056FF20C2F200068DF80600E9
:102460003046FEF7D7FB0128FAD140F23056C2F2CF
:1024700000064FF47A770DF106010DF11702304690
:1024800001230097FEF766FD9DF817002870FF20D6
:102490008DF8060000208DF817003046FEF7BAFBD5
:1024A0000128FAD140F23056C2F200064FF47A7792
:1024B0000DF106010DF11702304601230097FEF7DA
:1024C00049FD9DF817006870FF208DF80600002078
:1024D0008DF817003046FEF79DFB0128FAD140F237
:1024E0003056C2F200064FF47A770DF106010DF175
:1024F0001702304601230097FEF72CFD9DF81700C8
:10250000A870FF208DF8060000208DF817003046D7
:10251000FEF780FB0128FAD140F230504FF47A7771
:10252000C2F200000DF106010DF117020123009720
:10253000FEF710FD9DF81700E870042620460121E3
:102540000122FDF7FDFF40F23054FF20C2F20004EB
:102550008DF817008DF816802046FEF75BFB0128EA
:10256000FAD140F230504FF47A77C2F200000DF108
:1025700017010DF1160201230097FEF7EBFC304620
:1025800006B0BDE8F08100BF9DF80B009DF810304B
:1025900000F00F0000EBD3109DF80F309DF80E7087
:1025A0009DF80C109DF80D2003F0030300EB430091
:1025B000BB0901F0030143EA820242EA81210131B1
:1025C000073801FA00F0286021E70000F0B583B079
:1025D00000284FF0040070D11C46002B6DD040F253
:1025E0000800C2F200000078C00723D140F29F002B
:1025F000C2F20000007840F600451746C4F201051B
:1026000040070E4658BF5702284601210022FDF719
:1026100097FF012C12D151203946FFF757F990B995
:1026200030464FF40071FFF799F8B0FA80F0440992
:102630001DE000BF032003B0F0BD00BF52203946AB
:10264000FFF744F930B1012411E000BF013C06F569
:10265000007607D030464FF40071FFF77FF800286E
:10266000F4D100E000244C200021FFF72FF9284688
:1026700001210122FDF764FFFF2040F230558DF863
:102680000B000020C2F200058DF80A002846FEF774
:10269000C1FA0128FAD140F230504FF47A77C2F2F1
:1026A00000000DF10B010DF10A0201230097FEF766
:1026B00051FC002C18BF0124204603B0F0BD0000DF
:1026C00000281CBF0120704740F20800C2F2000041
:1026D000007870472DE9F04182B000284FF00400E7
:1026E00040F085801C46002B00F0818040F20800FD
:1026F000C2F200000E460178C90723D100784007D6
:1027000024D440F29F05C2F20005287840F6004824
:102710001746C4F20108400758BF5702404601213E
:102720000022FDF70DFF012C14D158203946FFF788
:10273000CDF8F8B93046FE21FFF720FBB0FA80F063
:1027400044092DE0032002B0BDE8F081022002B070
:10275000BDE8F0812878800707D577200021FFF7B2
:10276000B5F857202146FFF7B1F859203946FFF751
:10277000ADF828B1012413E0013C06F5007607D03E
:102780003046FC21FFF7FAFA0028F5D101E000BF3E
:1027900000240020FD21FFF7F1FA002808BF0124E2
:1027A000404601210122FDF7CBFEFF2040F23055CB
:1027B0008DF807000020C2F200058DF8060000BF6A
:1027C0002846FEF727FA0128FAD140F230504FF49C
:1027D0007A77C2F200000DF107010DF10602012324
:1027E0000097FEF7B7FB002C18BF0124204602B06B
:1027F000BDE8F0817047000040F29C00C2F200008A
:1028000001780131017001780A290ED3002101708D
:10281000417811B14178013941708178002908BFB0
:10282000FDF79ABE817801398170FDF795BE0000F1
:1028300041F20000C4F202000168002241F00101EF
:1028400001604168CFF6FF021140416001684FF618
:10285000FF72CFF6F66211400160016821F4802119
:102860000160416821F4FE0141604FF41F01816065
:102870004EF60850CEF200004FF000610160704744
:1028800080B5FFF79BFB40F20901C2F2000108701E
:10289000087880BDFFF732BDFFF798BEFFF710BF85
:1028A000FFF718BFFEE70000F0B581B00D46044603
:1028B00041B12046294601F04FFD02280AD20120ED
:1028C00001B0F0BDD4F80C726FB1D4F81402874295
:1028D00007D308E0411C1DD0D4F814122F468842BB
:1028E00031D3022F1AD2D4F8140203280ED30226B1
:1028F0002046314601F030FD411C24D030B3012880
:1029000021D0D4F8140201368642F1D3002001B060
:10291000F0BD00BF4FF0FF3001B0F0BD3E4600BF3C
:10292000D4F814020136864228BF022620463146DA
:1029300001F012FD411C06D040B1012803D0BE4277
:102940004FF00000ECD101B0F0BD00BF2046314691
:102950006FF0704201F038FE014635B129B92046CA
:102960002946324601F030FE014639B101200129E5
:1029700008BF4FF0FF3001B0F0BD00BFD4F8100227
:10298000C4F80C62411C08D094F805120138C4F850
:10299000100241F0010084F80502304601B0F0BD9C
:1029A0002DE9F0470446B0F80602471C38042FD042
:1029B000D4F8100260B317F00F050BD0D4F8000262
:1029C00000EB45100026C4F81402F0B2A4F8067219
:1029D000BDE8F0870E46D4F80C120130C4F810029E
:1029E00081B1D4F8000290F80222013A12EA171FCE
:1029F000E6D101F0B1FC02280ED20226F0B2BDE809
:102A0000F08700BFD4F80002B0F808128F42D7D385
:102A10000426F0B2BDE8F0878046013033D0D4F808
:102A20000002D0F8141288450ED2A8F1020902392A
:102A30008945C4F80C8266D290F80212D0F8282298
:102A400009FB012160E000BF002EE1D0D4F80C1298
:102A5000FFF72AFF8046013003280FD24FF6F871A6
:102A6000C0F2FF0101EAC00040F20171C0F20201B0
:102A700021FA00F6F0B2BDE8F08700BFD4F80002FA
:102A800001F09AFE20B10126F0B2BDE8F08700BF48
:102A9000D4F800024FF40071FDF796FBD4F8000261
:102AA000A8F10209D0F8141290F802328A1E91455A
:102AB00004D2D0F8282209FB032200E000224FF0C4
:102AC000000AC0F82C22ABB1012680F8046201F0A4
:102AD00073FE0028CED1D4F800020AF1010AD0F822
:102AE0002C124A1C90F80212C0F82C228A45ECD312
:102AF000D0F81412A2EB0A02C0F82C220239894540
:102B0000C4F80C8298D30021C4F8101258E70000D2
:102B100010B50021044600F04BF890B9D4F800023B
:102B2000D4F8101201F0FEFC58B9D4F81402007861
:102B300060B1E5280AD020460121FFF731FF0028C7
:102B4000ECD0042808BF072000B110BDD4F8000263
:102B5000D4F8101201F0E6FC002818BF10BDD4F81C
:102B600014120020C861886148610861C8608860EB
:102B700048600860D4E985210B7813704B78537056
:102B80008B789370CB78D3700B7913714B79537129
:102B90008B799371CB79D3710B7A13724B7A537211
:102BA000897A9172D4F80012012281F8042210BDB2
:102BB00070B5D0F80822A0F80612012A4ED00446BB
:102BC000D0F800020D46D0F814128A4246D29AB1CB
:102BD00090F80232B5EB031F2AD2931E02398B42C2
:102BE0003AD290F80212D0F8286203FB0161C4F8CF
:102BF0000C2299B932E000BF90F80022032A03D1D9
:102C0000D0F82422002AE3D1B0F80812A94225D92D
:102C1000D0F824120022C4F80C22F9B105F00F02FA
:102C200001EB151100EB4210C4E98410002070BDC7
:102C30001E0100BF114601F08FFB024601300FD08C
:102C4000022A0BD3D4F80002D0F814128A4205D21B
:102C5000AD1BB542EED2C0E7C4F80C22022070BD15
:102C6000012070BD40F2C801C2F200010A5C002AD6
:102C70001CBF0020704701230A180B5401EB800091
:102C80004168107A0968084740F2C80CC2F2000C8B
:102C90000CEB80035B686044007A1B6918470000F6
:102CA00080B540F2C80CC2F2000C0CEB800EDEF8CE
:102CB00004E06044007ADEF808C0BDE88040604768
:102CC00040F2C801C2F2000101EB800252680844E0
:102CD000007A51680847000080B540F2C80CC2F283
:102CE000000C0CEB800EDEF804E06044007ADEF8A5
:102CF0000CC0BDE88040604710B5044600F066FB9C
:102D0000002818BF10BD7CB3D4F8000260B390F85F
:102D1000001249B3B0F80612B4F80422914223D14C
:102D200090F80102FFF7CCFFC0071DD1D4F82802AC
:102D30000138012884BF022010BD40F2A80100EB39
:102D40004000C2F2000101EB8000418A21F4807250
:102D5000002A18BF4A1E1104428204BF002181606C
:102D60000020C4F8000210BD092010BD2DE9F04775
:102D700082B015468846019001A91046002200F055
:102D80003FFD18B102B0BDE8F08700BFD5F800A044
:102D9000DAE98474A01E874218D99AF80002012843
:102DA0001AD10027022605E00137DAF814020136AD
:102DB000864255D25046314601F0CEFA0028F3D073
:102DC000411C5BD00128F0D102204AE00020C8F865
:102DD000007002B0BDE8F087DAF8209200270228E0
:102DE00018D1002000210CE009F101094FF4007016
:102DF000514631F8022B0238002A08BF0137013C46
:102E00002ED00028F5D15046494601F08BFB002812
:102E1000EAD026E00020002118E000BF09F10109F6
:102E20004FF40070514611F8042B043811F8026C6D
:102E300011F8015C11F8033C360465F31B6646EAA1
:102E40000323D21808BF0137013C09D00028EAD17A
:102E50005046494601F066FB0028DFD001E000BF84
:102E600000209AF80512CAF8107241F001018AF8A0
:102E70000512C8F8007002B0BDE8F0870120F0E745
:102E800010B582B00190009131B34FF0FF3E00BF0A
:102E900001EB0E0C9CF80130212B21D33A2B1FD0D3
:102EA0009CF80230212B27D33A2B25D09CF80330F5
:102EB000212B39D33A2B37D09CF804400EF1040E65
:102EC000A4F13A03B3FA83F34FEA531C212C1AD32B
:102ED0003A2CDDD117E000BF0B21084602B010BD2F
:102EE0003A3BB3FA83F34FEA531C0EF1010EBCF1E7
:102EF000000F0BD122E000BF3A3BB3FA83F34FEA55
:102F0000531C0EF1020EBCF1000F17D00978A1F18D
:102F10003003092B36D8BEF1010F4FF00B0108BF6B
:102F2000002BDAD10AE000BF3A3BB3FA83F34FEA51
:102F3000531C0EF1030EBCF1000FE7D140F2A803C1
:102F4000C2F20003596861B19C688C4204BF00243E
:102F50009C605C698C4204BF00245C61002481F8A1
:102F60000042002190B1012A80F800125860B4D1CB
:102F700001A86946002200F043FC0146084602B061
:102F800010BD00BF0B21084602B010BD59600846B5
:102F900002B010BD2DE9F04FADF50D7D8C9198B1CB
:102FA00004460020C4F8000204A802F01E061546DC
:102FB00000F500708CA9324600F022FC50B10DF5EE
:102FC0000D7DBDE8F08F00BF09200DF50D7DBDE83A
:102FD000F08F00BF01A88C998A9004A805F01F0A01
:102FE00000F0B0FEDDF82492C0B11AF01C0F00F022
:102FF000A580002800F0D980042866D140F2A800FE
:10300000C2F20000816800294ED0406900284BD0F0
:1030100012204AF0080A00285CD0E7E0B9F1000F5E
:1030200036D040F2A80CC2F2000CDCF808208499DB
:10303000869FBDF816E25AB18A4209D1DCF80C30FD
:10304000BB4205D1BCF81030734501D100210FE01F
:10305000DCF81430002B00F0A5808B422ED1DCF878
:103060001810B9422AD1BCF81C10714526D1012193
:103070003EB941EA41010CEB8101498AB1F5807FFB
:10308000B3D11AF01C0F4FF010001ED156E000BF54
:103090001AF01C0F4FF0060050D04FF000094AF014
:1030A000080AB8B1A2E000BF04A8FFF731FDDDF8BF
:1030B00024924AF0080A68B198E000BF002A71D053
:1030C0001AF01C0F4FF0120038D04AF0080A0028FE
:1030D00040F08C801AF0080100F0888001F0A2F91D
:1030E000C9F80E00002089F80B00C9F81C00849D67
:1030F000B9F81AB095F80012032907D199F81510FC
:1031000099F814204BEA016141EA024BA9F81A0030
:10311000A9F814000120BBF1000F85F8040268D063
:10312000BBF1010F00F0B080D5F81402584540F211
:10313000AB80D5F82C825E4613E000BF00287FF4F8
:103140003EAF99F80B00C1063AD45FEA8A7150D5B8
:1031500010F001002ED14CE0D5F814023E46874213
:103160003CD22846314601F0F7F80746013000F01E
:10317000BF809FB3012F00F0878028463146002290
:1031800001F022FA00287FF41AAFD5F810020130BE
:10319000E2D295F80512C5F8100241F0010085F859
:1031A0000502D9E71AF01C0FCBD099F80B0010F0EC
:1031B000110F0BD007200DF50D7DBDE8F08F00BF7E
:1031C00004200DF50D7DBDE8F08F00BF082000EA5A
:1031D000450000283FF47EAF08E000BFABF10100DE
:1031E000C5F80C022846414601F09CF900287FF4FE
:1031F000E6AE40F2A8008499C2F200008268D1F8DD
:103200002C328A42C4F81C32C4F820920AD1C36816
:10321000869FBB4206D1038ABDF81672BB4201D11C
:1032200000221FE047698F420AD18369869EB3421C
:1032300006D1838BBDF81662B34201D1012211E0A1
:103240004FF0000312B1E7B9012200E0002242EA88
:103250004207869E00EB8707FE60BDF81662B960E4
:103260003E827B8242EA42070AF0080300EB8700B5
:103270004AEA830330F8127F022B01D201370BE0B8
:1032800047B10020C4F8280202200DF50D7DBDE8ED
:10329000F08F00BF4FF480770780501CC4F82802DD
:1032A000002084F8063284F8070291F80032B9F859
:1032B0001A20032B07D199F8153099F8147042EAB7
:1032C000036242EA0742C4F81022D9F81C20C4F86D
:1032D0001802C4E98202C4F82402C4F80012B1F84A
:1032E0000612A4F804120DF50D7DBDE8F08F00BFA5
:1032F00001200DF50D7DBDE8F08F00002DE9F047B0
:1033000094B004786F460022002C07F10C0A00915B
:10331000CDE901223ED0451C00224FF00D090DF1F0
:103320004C0807E00298324601300196029015F8E9
:10333000014B6CB30A2C17D1002A15D4561CB818AF
:103340003C2A80F80C900AD30098514632464346F6
:1033500000F0A8F81398861B18BF4FF0FF360298AC
:103360003246013001960290002AE0D4561CB8186B
:103370003C2A0473D6D3009851463246434600F0A7
:1033800091F81398861B18BF4FF0FF36CAE700BFAD
:10339000002A15D4009813AB514600F083F800289A
:1033A0004FF0FF3002D014B0BDE8F0871399DDE98B
:1033B00001238A4208BF184614B0BDE8F08700BF59
:1033C0004FF0FF3014B0BDE8F0870000B0B5B8B3DF
:1033D0000446D0F8000298B390F8001281B3B0F818
:1033E0000612B4F8042291422AD190F80102FFF7A4
:1033F00067FCC00724D194F8060281065CBF002058
:10340000B0BD400611D5D4F80002D4F8182290F8C7
:103410000102214601230125FFF75EFC68B994F8FB
:10342000060200F0BF0084F80602D4F80002D4F8C7
:103430001C1201F077F8054620B12846B0BD00BF48
:103440000920B0BDD4F82052E87A40F02000E8729C
:10345000D4F80C022877D4F80C02000A6877B4F884
:103460000E02A87794F80F02E877D4F81002688368
:10347000010C000E2975687500F0D4FFC5F8160020
:103480000020688294F80602012100F0DF0084F831
:103490000602D4F8000280F80412BDE8B04001F042
:1034A00015B900002DE9F047044600201860BCB3B0
:1034B000D4F80002A0B38A4690F8001281B31646F1
:1034C000B0F80612B4F80422914229D190F8010212
:1034D0001D46FFF7F5FBC00722D194F8070200282C
:1034E00018BFBDE8F08794F8060280075CBF07208C
:1034F000BDE8F087D4F80802721EC1438A4224D383
:10350000D4F80C12884288BFC4F80C0294F8060262
:1035100040F0200084F806020020BDE8F08700BFDC
:103520000920BDE8F08700BF94F8060240F0400093
:1035300084F80602D4F808022A688A4408440A4437
:10354000761AC4F808022A60DAD002466FF35F22C6
:10355000C2B1C2F50071B14288BF31460029E3D043
:1035600004EB020E11F00300A1F1010C53461BD035
:1035700013F8018B7246012802F8018B16D196468A
:10358000604658E0D4F8002292F8021201F1FF03DD
:1035900003EA50285FEA086314D094F80602400654
:1035A00000F18F80A0E000BF084644E09AF80120B7
:1035B00002288EF8012035D1881E0AF102030EF18F
:1035C000020E38E000284BD0D4F824C2BCF1000F22
:1035D0004CD0DCF80430002B92D0420AB2FBF1F15F
:1035E0000CF1240C994247D35CF8182C002A3FF4C4
:1035F00087AFC91A914243D35CF8103C002B3FF4CB
:103600007FAF891A99423FD35CF8082C002A3FF417
:1036100077AFC91A91423BD35CF8203B891A002B43
:10362000E0D16DE79AF80220C81E0AF103038EF874
:1036300002200EF1030EBCF1030FFFF475AF043B43
:10364000AEF1040213F8047F043802F8047F5F78B7
:1036500057709F789770DF78D770F3D164E700BF19
:10366000D4F81002C0B91046002102E0D4F81412B8
:103670001046FFF719F90FE0ACF11C000AE000BF9B
:10368000ACF1140006E000BFACF10C0002E000BF9A
:10369000ACF1040000680844411C00F0A780012838
:1036A00000F09E80002800F0A780D4F81012C4F823
:1036B0001402002908BFC4F8100294F8060240065C
:1036C00012D5D4F80002D4F8182290F8010221464D
:1036D0000123FFF701FB002840F0888094F80602E0
:1036E00000F0BF0084F80602D4F80002D4F81412E7
:1036F000D0F814328A1E991E8A4271D290F80212B2
:10370000D0F8283202FB0133002B69D05FFA88F22F
:103710005FEA562803EB02094AD002EB080390F84F
:1037200001028B4288BFA1EB020851464A4643463C
:10373000FFF7D2FA002859D1D4F81802A0EB0900FB
:10374000404531D20AEB402010386FF00F0100BF26
:1037500010F8103F62181374437810315374837853
:10376000B1F5F87F9374C378D374037913754379F3
:10377000537583799375C379D375037A1376437A36
:103780005376837A9376C37AD376037B1377437B1E
:103790005377837B9377C37BD377D9D194F8060291
:1037A00000F0BF0084F806024FEA4821C2E600BFDD
:1037B000D4F8181249450BD0D4E98212914207D2AD
:1037C00090F8010221464A460123FFF769FA68B9D9
:1037D000D4F80822C4F818926FF35F22B9E600BF4C
:1037E000022084F80702BDE8F08700BF012084F8BA
:1037F0000702BDE8F08700BFD4F8080280E60000A9
:103800002DE9F04385B0002303600B6803B3154630
:103810004FF0FF37DA195678212E1BD33A2E19D0E4
:103820009678212E1ED33A2E1CD0D678212E21D365
:103830003A2E1FD016790437A6F13A02B2FA82F274
:103840005209212E01D33A2EE4D192B319E000BFE0
:103850000B2221E0A6F13A02B2FA82F252090137B4
:103860007AB926E0A6F13A02B2FA82F25209023798
:10387000FAB106E0A6F13A02B2FA82F2520903372F
:10388000BAB11A78A2F13006092E09D8012F4FF0EB
:103890000B0208BF002E09D0104605B0BDE8F0832A
:1038A0000B22104605B0BDE8F08300BFDA190132E3
:1038B0000A6040F2A806C2F20006746894B304607D
:1038C00094F8000280B194F80102FFF7F9F9C107FA
:1038D0000AD140070A21002D18BF01EAE0752A46E7
:1038E000104605B0BDE8F0830020A4F800020020D7
:1038F000FFF7B8F9C1071BD1002D18BF10F0040065
:103900001CD1002084F804024FF0FF30C4F82C02D0
:103910002046002100F006FEB0B10122104605B09D
:10392000BDE8F0830C22104605B0BDE8F08300BF6F
:103930000322104605B0BDE8F08300BF0A221046FE
:1039400005B0BDE8F08300BFB4F8FE014AF655218A
:10395000884240F0D68194F8371094F8382094F8D3
:103960003600090244F2461741EA0241C0F2540708
:103970000844B8420CD094F8531094F8542094F8AA
:103980005200090241EA02410844B84240F0A480D2
:103990000025B4F80B00B0F5007F40F0B281E08A5A
:1039A000002808BF606A237CC4F81802591E012948
:1039B00084F8033200F2A581627B511E1140B2FAF5
:1039C00082F718BF01217F09394384F8022240F0B1
:1039D0009881677CA17C47EA01213F07A4F808127F
:1039E00040F08F81B4F81370002F08BF276AB4F835
:1039F0000E90B9F1000F00F0848100FB03FC0CEB8A
:103A000011134B449F42C0F07C81FF1A9742C0F0D3
:103A10007881B7FBF2F240F6F5774FF00108BA4231
:103A20004FF6F57788BF4FF00208BA424FF6F677A7
:103A300088BF4FF00308BA4202F1020E05EB0907F6
:103A40002B44C4F814E2C4E98757C4F82832C0F004
:103A50004381002940F0558140F2FF12E16A02EBF8
:103A60008E02B0EB522FC4F82412C0F04A814FF0FE
:103A7000FF30C4E98300208E8021012884F80512DC
:103A800040F04B81691C204600F04CFD002840F0BE
:103A90004481B4F8FE114AF655220020914284F880
:103AA000050240F03A81206845F25221C4F26111CA
:103AB000884240F03281D4F8E40147F27221C6F224
:103AC0004111884240F02981D4F8EC01D4F8E81182
:103AD000C4E9830121E100BF94F8C201002814BFAA
:103AE000D4F8C651002594F8D2010195002814BFDE
:103AF000D4F8D601002094F8E2110290002914BFF6
:103B0000D4F8E601002094F8F2110390002914BFC4
:103B1000D4F8F6010020049085B3002084F8040254
:103B20004FF0FF30C4F82C022046294600F0FAFC82
:103B300010B1032023E000BFB4F8FE014AF655217E
:103B400088421BD194F8371094F8382094F8360046
:103B5000090241EA02410844B8423FF41AAF94F81E
:103B6000531094F8542094F85200090241EA02419B
:103B70000844C01B18BF012001E000BF022000283C
:103B80007AD0029D85B3002084F804024FF0FF3004
:103B9000C4F82C022046294600F0C4FC10B10320D2
:103BA00023E000BFB4F8FE014AF6552188421BD13C
:103BB00094F8371094F8382094F83600090241EA56
:103BC00002410844B8423FF4E4AE94F8531094F82C
:103BD000542094F85200090241EA02410844C01BF3
:103BE00018BF012001E000BF0220002844D0039D3F
:103BF00085B3002084F804024FF0FF30C4F82C0293
:103C00002046294600F08EFC10B1032023E000BFBF
:103C1000B4F8FE014AF6552188421BD194F83710BA
:103C200094F8382094F83600090241EA0241084429
:103C3000B8423FF4AEAE94F8531094F8542094F880
:103C40005200090241EA02410844C01B18BF01208A
:103C500001E000BF022078B1049DDDB3002084F8AC
:103C600004024FF0FF30C4F82C022046294600F031
:103C700059FC68B1032000E0002000283FF489AE21
:103C800003283ED10122104605B0BDE8F08300BFF5
:103C9000B4F8FE014AF6552188421BD194F837103A
:103CA00094F8382094F83600090241EA02410844A9
:103CB000B8423FF46EAE94F8531094F8542094F840
:103CC0005200090241EA02410844C01B18BF01200A
:103CD000D3E700BF0220D0E799B10EEB4E0302F00C
:103CE000010202EB5302B8F1020F08BF4FEA4E0285
:103CF00002F2FF1207EB0C01B0EB522FC4F82412B2
:103D000004D20D22104605B0BDE8F0834FF0FF301D
:103D1000C4E98300802084F805023088B16801304E
:103D200084F800823080A142A4F8060204BF00207B
:103D3000B06070690022A04208BF7261104605B0F1
:103D4000BDE8F0832DE9F04F81B00D4609780446B7
:103D50005C2903D02F2908BF013500E0013500267A
:103D6000C4F808622878202808D220460021FEF7EF
:103D70001FFFC4F8146201B0BDE8F08F44F6C629F5
:103D80004FF0203AC0F600094FF0050828785C286B
:103D900004D100BF013528785C28FBD02F28F9D04A
:103DA000D4F81812C1F807A0C1F804A0C1F800A007
:103DB0002B78D8B22128C0F0AD824FF0000B052738
:103DC000D8B22E2800F07C802F2800F071805C286B
:103DD00000F06E800D2F00F09D825EB2B6F1FF3FC5
:103DE00006DDD8B2A0F122065D2E0CD940E000BF5E
:103DF000484410F8803C4BF0030BD8B2A0F12206E7
:103E00005D2E00F235800620DFE806F030323232D7
:103E10003232323230303032323232323232323288
:103E2000323232323030303030303232323232327E
:103E30003232323232323232323232323232323262
:103E40003232323232303230323232323232323256
:103E50003232323232323232323232323232323242
:103E60003232323232323032323000BF83E700BF7A
:103E7000A3F14100C0B2192802D84BF0020B07E0B1
:103E8000A3F16100C0B219289CBF4BF0010B203B8D
:103E9000C81900F8053CE81910F8043C0137D8B2FD
:103EA0002128BFF48DAF043F012304204EE100BF61
:103EB000052F00F02F82043F0123002046E100BFC0
:103EC00005EB070C1CF804EC4FEA8B0B5FFA8EF342
:103ED000212BA7F1030603D200230420374635E146
:103EE0002F2B4FF0000000F02F815C2B00F02C8175
:103EF0002E2B00F00F824FFA8EF0B0F1FF3F05DC61
:103F000003EB090010F880EC4BF0030B5FFA8EF026
:103F1000A0F122035D2B00F235800620DFE803F0DC
:103F20003032323232323232303030323232323279
:103F3000323232323232323230303030303032326D
:103F40003232323232323232323232323232323251
:103F50003232323232323232323032303232323245
:103F60003232323232323232323232323232323231
:103F7000323232323232323232323032323000BFCA
:103F8000F9E600BFAEF14100C0B21A2802D24BF0F0
:103F9000020B08E0AEF16100C0B219289CBF4BF0E3
:103FA000010BAEF1200E81F808E01CF803ECBE1EF8
:103FB0005FFA8EF3212BFFF48FAF2F2B4FF0000011
:103FC00000F0C2805C2B00F0BF802E2B00F0A2819D
:103FD0004FFA8EF0B0F1FF3F05DC03EB090010F85B
:103FE00080EC4BF0030B5FFA8EF0A0F122035D2B07
:103FF00000F234800620DFE803F02F313131313117
:1040000031312F2F2F3131313131313131313131A6
:1040100031312F2F2F2F2F2F31313131313131319C
:104020003131313131313131313131313131313180
:104030003131312F312F3131313131313131313174
:104040003131313131313131313131313131313160
:10405000313131312F31312F8DE600BFAEF14100CA
:10406000C0B21A2802D24BF0020B08E0AEF1610098
:10407000C0B219289CBF4BF0010BAEF1200E81F8A5
:1040800009E01CF802EC7E1E5FFA8EF3212BFFF490
:1040900023AF2F2B4FF0000000F056805C2B00F078
:1040A00053802E2B00F036814FFA8EF0B0F1FF3F97
:1040B00005DC03EB090010F880EC4BF0030B5FFA12
:1040C0008EF0A0F122035D2B00F234800620DFE8A1
:1040D00003F02F313131313131312F2F2F31313147
:1040E000313131313131313131312F2F2F2F2F2FCC
:1040F00031313131313131313131313131313131B0
:1041000031313131313131313131312F312F3131A3
:10411000313131313131313131313131313131318F
:104120003131313131313131313131312F31312F83
:10413000FFF721BEAEF14100C0B21A2880F0CC805A
:104140004BF0020BD1E000BF374600230A78E52A86
:1041500008BF81F80080002B18BF4FEA8B0B0BF0D3
:104160000302012A08BF10300BF00C02042A08BF1A
:104170000830C87220460021FEF71AFD002840F0E2
:10418000CD80D4F80002D4F8101200F0CBF900284A
:1041900040F0C4803D440CE0D4F8000200EB46122D
:1041A000A4F80672C4F8142200F0BCF9002840F00C
:1041B000B580D4F814020378002B00F0B280C17AE5
:1041C0000A072DD4D4F818221778DB1B26D14378A0
:1041D0005778DB1B22D183789778DB1B1ED1C378FD
:1041E000D778DB1B1AD103791779DB1B16D14379FA
:1041F0005779DB1B12D183799779DB1B0ED1C379F9
:10420000D779DB1B0AD1037A177ADB1B06D1437AF5
:10421000577ADB1B02D1837A977ADB1B002B41D0C4
:10422000B4F80602471C380400F07B80D4F8101262
:10423000002976D017F00F06AED1D4F80C22013148
:10424000C4F8101212B3D4F8000290F80232013B05
:1042500013EA171FA2D1114600F07EF802286BD393
:10426000014601306CD0D4F80002D0F814229142FB
:1042700057D28B1E023A9342C4F80C120ED290F819
:104280000212D0F8282203FB012108E0D4F8000232
:10429000B0F808229742FFF481AF42E00021C4F851
:1042A00010127BE7D27A52074ED4C90650D5D4F803
:1042B000001291F80022418B032A05D1427D007D36
:1042C00041EA026141EA0041C4F8081228785C28FA
:1042D0007FF464ADFFF75EBDAEF16100C0B2192896
:1042E0009CBF4BF0010BAEF1200E81F80AE01CF8E8
:1042F000010CC3B2212B03D20023042026E700BF08
:104300002F2B4FF000003FF420AF5C2B4FF0000349
:104310003FF41CAF062001B0BDE8F08F04287FF405
:104320002AADD4F81802C07A40074FF0040058BFF5
:10433000052001B0BDE8F08F022001B0BDE8F08F8C
:10434000012001B0BDE8F08F002001B0BDE8F08F82
:10435000052001B0BDE8F08FF0B581B0022931D35E
:104360000446D0F814020D4688422BD994F8000276
:1043700003282BD0022843D0012823D1D4F82002CF
:1043800005EB550700EB5721204600F0CBF800283D
:104390003ED1D4F820027E1C6FF35F27E75D00EB6F
:1043A0005621204600F0BEF890BB6FF35F26A05D5B
:1043B000EA0747EA002108466FF31F3018BF0809D3
:1043C00001B0F0BD012001B0F0BD00BFD4F8200263
:1043D00000EBD511204600F0A5F8C8B905F07F0024
:1043E00004EB80018B784A78C9781B0414F820000C
:1043F00061F31B6343EA0221084401B0F0BD00BF32
:10440000D4F8200200EB1521204600F08BF818B1FB
:104410004FF0FF3001B0F0BDE8B234F8100001B049
:10442000F0BD00000020704790B0FCF7A3F8002416
:104430000120CDE90B44CDE9094406900A904FF4E0
:10444000E0104FF4803102250F9006A8CDE9071443
:10445000CDE90D51FCF704FA0F20CDE901054FF429
:104460008060CDE9040401A802210394FCF718F947
:10447000FCF71EFFFCF754FFFCF70CFF40F2003086
:10448000C2F2000023A10122FEF7FAFC40F28805E7
:10449000C2F20005287044F69D30291D05F108027E
:1044A000C0F60000FEF762FCD5E90160D0F81412F6
:1044B00090F80272881E784300F0EBF90024C3F6EE
:1044C000E0740022234600F0F7F900F0B5F9E86047
:1044D00006FB07F000F0DDF90022234600F0ECF9BE
:1044E00000F0AAF940F2D404C2F2000428610AA143
:1044F00020461322FEF74EFD287044F65630C0F6D3
:1045000000002146FEF7FAFE2046FEF7F5FB287074
:10451000FEE700BF2F00000066696C65312E7478DD
:1045200074000000F0B581B0D0F82C628E4203D147
:104530000027384601B0F0BD044690F804020D464D
:1045400078B394F801022146324601230127FEF791
:10455000C3FB0028EDD1D4F82022D4F81812B21AE7
:1045600000208A4284F804021BD294F80372022FBE
:1045700017D394F801020E44214632460123FEF778
:10458000ABFB013F022F0CD3D4F8181294F80102B0
:104590000E44214632460123FEF79EFB013F012FC8
:1045A000F2D894F8010221462A460123FEF778FB4F
:1045B000074600281CBF4FF0FF350127C4F82C52D6
:1045C000384601B0F0BD00002DE9F041022921D3A9
:1045D0000446D0F814020E4688421BD994F8000213
:1045E000154603281AD0022836D0012812D1D4F853
:1045F000200206EB560700EB57212046FFF792FFFB
:10460000D0BB07F1010816F001066FF35F2735D123
:10461000E8B238E00220BDE8F08100BFD4F8200203
:1046200000EBD6112046FFF77DFF002818BFBDE83C
:10463000F08106F07F0004EB8001CA7804F8205076
:1046400002F0F002280A45EA02624870280C8870DD
:10465000100EC8700BE000BFD4F8200200EB16214A
:104660002046FFF75FFF38B9F0B224F8105004F588
:104670000170012101700020BDE8F081E05D00F0D3
:104680000F0065F30B10D4F82012E055012084F8D8
:10469000040201EB58212046FFF744FF0028EBD12C
:1046A00004F501706FF35F2856B914F80810C5F3CC
:1046B000032201F0F001114404F80810D9E700BF0B
:1046C000C5F3071104F80810D3E7000070B50446DD
:1046D00090F8040298B3D4F82C5294F801022146C1
:1046E0002A4601230126FEF7F7FA08B1304670BDCD
:1046F000D4F82022D4F81812AA1A00208A4284F88A
:1047000004021CD294F80362022E18D394F801021A
:104710000D4421462A460123FEF7DEFA013E022E11
:104720000DD300BFD4F8181294F801020D442146AD
:104730002A460123FEF7D0FA013E012EF2D894F862
:10474000000203282BD194F80502012827D1201D4F
:104750004FF4FD71FBF738FD4AF65520A4F8FE0131
:1047600045F25220C4F26110206047F27220C6F276
:104770004110C4F8E401D4E983100123C4F8E8012E
:10478000D4F81C02C4F8EC11421C94F80102214632
:10479000C4F82C22FEF7A0FA002084F8050294F851
:1047A000010200210022FEF76FFA0646002818BF1A
:1047B0000126304670BD0000F0B581B0044690F887
:1047C0000402A8B3D4F82C5294F8010221462A46D8
:1047D00001230126FEF780FA38BBD4F82002D4F872
:1047E0001812281A0026884284F804621DD294F810
:1047F0000362022E1CD394F801020D4421462A467E
:104800000123FEF769FA771E0026022F0DD300BFA1
:10481000D4F8181294F801020D4421462A460123C7
:10482000FEF75AFA013F012FF2D8304601B0F0BD31
:104830000026304601B0F0BD4FEA1153A3F5806366
:10484000D3F11E03A8BFD3F1200C08DB4FF00042C8
:1048500042EAC12252EA505232FA03F0704709424A
:104860000BD4102BC4BF0020704703F5787CBCF13B
:10487000FF3F05D04FF0FF3070474FF0000070470A
:1048800070B500F0C3F800BF499224800020704743
:10489000F0E7B0FA80F310FA03F10AD0C3F11D0378
:1048A00003F580634FEA03524FEA415002EBD121F6
:1048B00070474FF00000704770B5DFF848C11CEA40
:1048C000111E1EBF1CEA13159EEA0C0F95EA0C0F71
:1048D00000F06F8081EA03044EEAD47EAE4421EA00
:1048E0004C1123EA4C1341F4801143F48013AEF1D0
:1048F0007F7EA1FB024CA0FB0365361955EB0C052E
:10490000A1FB034C4CF10003A0FB021C16EB0C06B0
:10491000654153F10003094218BF46F0010613F444
:10492000007F0BD14FEA03314FEA053041EA1551C0
:1049300040EA165034036FF003020AE04FEAC32145
:104940004FEAC52041EA555140EA5650F4026FF053
:10495000020202EB2E4201EB025585EACE710AD02B
:104960005FEA440C18BF24F0004450F1000041F10C
:10497000000120EAD47040F2FE7C624500D270BD96
:10498000A84214BF4FF080444FF04044002E08BFAF
:104990000024BEF1806FA8BFA1F1C041BDE8704006
:1049A00080F2828001F1C04101F000414FF000002F
:1049B00070470CEA13159EEA0C0F18BF95EA0C0F0E
:1049C00006D081EA030E4FF000000EF0004170BDEA
:1049D00000F01CF88900013E00F007B800F009B8AB
:1049E0004FEA430C5FEA5C5C08D081EA030100F007
:1049F0005BB84FEA410C5FEA5C5CF6D102494FF0CC
:104A0000000070470000FF070000F87F0EF1020E63
:104A10002EF0030E5EF8046B364205D4012A43EBF8
:104A2000030515F5001F12D8012841EB010C1CF5F8
:104A3000001F0CD80ED14FEAD17C0CEB4C0C0CF1C2
:104A4000020C15F5001F08BF4CEBD37C04E04FF0BF
:104A5000080C01E04FEAD37C0CEB4C0526FA05F676
:104A600006F00706B6F1040C06D20EEB860CBDE884
:104A700070404CF0010C6047DFE80CF0090B0202BB
:104A80004FF00041A1F500214FF0000070BD194624
:104A90001046012851EB010418BFD4F5001484BF5F
:104AA000002001F0004170BD0808A0F500114FEA98
:104AB0003101704701020000000000000000010207
:104AC000030406070809809A90B68EB78F80D2D368
:104AD000D4D8D7DE8E8F909292E299E3EAEB59997F
:104AE0009A9D9C9D9E9FB5D6E0E9A5A5A6A7A8A9DD
:104AF000AAABAC21AEAFB0B1B2B3B4B5B6B7B8B92A
:104B0000BABBBCBDBEBFC0C1C2C3C4C5C7C7C8C98C
:104B1000CACBCCCDCECFD0D1D2D3D4D5D6D7D8D97D
:104B2000DADBDCDDDEDFE0E1E2E3E5E5E6E7E7E96D
:104B3000EAEBEDEDEEEFF0F1F2F3F4F5F6F7F8F95C
:104B4000FAFBFCFDFEFF02030405060708090A0B39
:104B50000C0D0E0F1010546869732064617461208D
:104B600069732066726F6D207468652046494C45F4
:104B7000312E7478742E20416E6420697420776120
:104B800073207772697474656E207573696E67201F
:104B90002E2E2E665F707574732E2E2E2000000050
:104BA000C04B000800000020280000002801000879
:104BB000E84B000828000020680B000044010008B2
:104BC0000100000010000000010100000024F400BA
:104BD000812800089D28000899280008A1280008BD
:084BE000952800080000000008
:04000005080000ED02
:00000001FF
