:020000040800F2
:100000004007002089010008A10F0008850E0008A4
:100010009D0F0008450200081510000800000000B0
:10002000000000000000000000000000A90F000810
:100030004902000800000000A50F0008AD0F0008ED
:10004000A3010008A3010008A3010008A301000800
:10005000A3010008A3010008A3010008A3010008F0
:10006000A3010008A3010008A3010008A3010008E0
:10007000A3010008A3010008A3010008A3010008D0
:10008000A3010008A3010008A3010008A3010008C0
:10009000A3010008A3010008A3010008A3010008B0
:1000A000A3010008A3010008A3010008A3010008A0
:1000B000A3010008A3010008A3010008A301000890
:1000C000A3010008A3010008A3010008A301000880
:1000D000A3010008A3010008A3010008A301000870
:1000E000A3010008A3010008A301000800F002F822
:1000F00000F03AF80AA090E8000C82448344AAF188
:100100000107DA4501D100F02FF8AFF2090EBAE885
:100110000F0013F0010F18BFFB1A43F0010318473B
:10012000940F0000B40F0000103A24BF78C878C1C3
:10013000FAD8520724BF30C830C144BF04680C60ED
:10014000704700000023002400250026103A28BF35
:1001500078C1FBD8520728BF30C148BF0B60704739
:100160001FB51FBD10B510BD00F031F81146FFF7E7
:10017000F7FF00F051FF00F04FF803B4FFF7F2FF74
:1001800003BC00F057F800000948804709480047C1
:10019000FEE7FEE7FEE7FEE7FEE7FEE7FEE7FEE737
:1001A000FEE7FEE704480549054A064B7047000094
:1001B000E50F0008ED000008400100204007002086
:1001C0004003002040030020704770477047754689
:1001D00000F02CF8AE4605006946534620F00700B3
:1001E000854618B020B5FFF7DDFFBDE820404FF091
:1001F00000064FF000074FF000084FF0000BAC4630
:10020000ACE8C009ACE8C009ACE8C009ACE8C0097A
:1002100021F007018D46704710B50446AFF300800A
:100220002046BDE81040FFF7A8BF00000048704717
:100230002800002001491820ABBEFEE7260002007E
:1002400070470000FEE7000070470000EFF31080E9
:1002500072B600BFFEE7000080B540F29003C2F224
:1002600000035A7A012A84BF012080BD93F809C097
:100270008646002003F80C005A7A03EB8202C2F88B
:1002800004E05A7A1A44107293F809C00CF1010282
:100290005A720CF130020A7042F63A72A1F801204B
:1002A000C87080BD2DE9F04F82B041F20042C4F227
:1002B00001020E680423904208BF0323002E00931E
:1002C00000F0F68040F20C4E4FF6FF7CC4F2010EB7
:1002D00000220124C1F2100C4FF0000A4FF0000977
:1002E00043E000BF012502F00C040F27A7402BEAD2
:1002F000070705FA04F43C4343F82640D1F804B05C
:1003000040F20045C4F201055FEACB332B6854BFCD
:1003100023EA080343EA08032B606B685FEA8B3427
:1003200054BF23EA080343EA08036B605FEACB2467
:10033000AB6854BF23EA080343EA08035FEA8B244F
:10034000AB60DEF800304FF0010454BF23EA08032D
:1003500043EA0803CEF800300E680AF1010A36FAC3
:100360000AF302F1040200F0A38004FA0AF816EA84
:10037000080FF1D04B68634512DC122B56D8DFE82A
:1003800003F0350B4549555555555555555555555A
:100390005555554D510000BFD1F80C9046E000BFB7
:1003A0004FF6FF77C1F22107BB420FDC0027C1F2F5
:1003B0001107BB421AD00027C1F21207BB4215D069
:1003C0000027C1F22107BB4210D02FE00027C1F265
:1003D0002207BB420AD00027C1F23107BB4205D039
:1003E0000027C1F23207BB4220D100BF8B684BB15E
:1003F000012B14BFC0F81480C0F810804FF008091A
:1004000014E000BF4FF0040910E000BFCB6803F117
:1004100008090BE04FF0000908E000BFCB6803F1CA
:10042000040903E0CB6803F10C0900BF134605463D
:10043000BAF1080F24BF203B04352E680F279F40D8
:10044000BE4309FA03F333432B60CB79DB067FF518
:1004500083AF41F21804C4F2020423684FEA9A06FB
:1004600043F001032360236840F6000403F0010316
:100470000193019B40F20043C4F20103A3F57E7394
:1004800053F826B0C4F20104A0420FD040F6004455
:10049000C4F20104A0423FF425AF41F20004C4F2CB
:1004A0000104009DA04208BF02251CE700251AE7B1
:1004B00002B0BDE8F08F0000002A08BF0904016106
:1004C0007047000040F23810C2F200000068704728
:1004D00040F2000040F23811C2F20000C2F2000106
:1004E00000780A68104408607047000080B542F246
:1004F0000000C4F20200016841F010010160032015
:1005000000F07AF80F2000F005F800F027F800203E
:1005100080BD000070B540F20006C2F2000640F255
:100520000C013278C2F200014FF47A730968B3FB10
:10053000F2F20446B1FBF2F1084600F0E1FB0F2CA9
:100540004FF0010508D838B94FF0FF30214600229E
:10055000002500F025F87460284670BD82B041F295
:100560001800C4F202000168022241F0010101609A
:10057000016801F0010101910199416841F0805148
:100580004160406800F08050009000980420C4F260
:100590000100016862F31A61016002B07047000057
:1005A00010B54EF60C5CCEF2000CDCF80030C3F354
:1005B000022E8EF00704042C28BF0424BEF103038E
:1005C0004FF0FF3E0EFA04F438BF0023A1439940D8
:1005D0000EFA03F39A43114300F00F02043A624407
:1005E00009010C3200F16043B0F1FF3FC8BF03F5D1
:1005F0006442117010BD00004EF60C51CEF20001A5
:100600000A684FF6FF031A4060F30A2242F0806046
:1006100040F0FD70086070472DE9F04381B000287C
:1006200000F0858042F20008C4F202080446D8F8BF
:1006300000000D4600F0070088420CD2D8F80000F8
:1006400020F007002843C8F80000D8F8000000F0A8
:100650000700A8426BD1206841F204098107C4F267
:10066000020917D5410705D5D9F8001041F4E0611A
:10067000C9F80010010705D5D9F8001041F4605100
:10068000C9F80010D9F80010A26821F0F001114358
:10069000C9F80010C00741D1D8F8000000F00700E9
:1006A000A8420CD9D8F8000020F007002843C8F869
:1006B0000000D8F8000000F00700A84237D12068F9
:1006C000410707D5D9F80010E26821F4E061114331
:1006D000C9F80010000708D5D9F80000216920F4F6
:1006E000605040EAC100C9F80000D9F8002002F0CB
:1006F0000C00082841F20020C0F27A0050D141F2EB
:10070000A403C2F38341C0F60003595CD2033BD477
:1007100040F60010C0F23D00484341E06068022806
:100720000AD001282AD159F8041C890308D40120D1
:1007300001B0BDE8F08300BF59F8041C8901F6D56B
:10074000D9F8001021F003010843C9F80000FFF7B1
:10075000B9FE064641F28837D9F80000616800F01A
:100760000C00B0EB810F97D0FFF7ACFE801BB842B6
:10077000F2D9032001B0BDE8F08300BF59F8041C92
:100780008907D4D5DCE700BFD9F8002041F28A03FD
:10079000C2F34042C0F600039A5C4843B0FBF2F05B
:1007A000D9F8001041F28C02C1F30311C0F6000227
:1007B000515C40F20C0220FA01F140F20400C2F256
:1007C00000000068C2F200021160FFF7A3FE0020E3
:1007D00001B0BDE8F083000040F20C0041F20401DA
:1007E000C2F20000C4F202010068096841F29C02F2
:1007F000C1F30221C0F60002515CC84070470000FE
:1008000040F20C0041F20401C2F20000C4F2020105
:100810000068096841F29C02C1F3C221C0F60002DF
:10082000515CC840704700002DE9F04182B00028BB
:1008300068D00446007841F20006C007C4F2020600
:1008400025D0706800F00C0004281BD0706800F000
:100850000C00082802D17068C00313D46068002817
:1008600000F06881B0F5A02F00F07C81B0F5803FEA
:1008700000F07C81306820F480303060306820F4F3
:10088000802076E13068800301D56068D0B320789D
:10089000800718D5706810F00C0F07D0706800F052
:1008A0000C0008286ED17068C0036BD430688007D4
:1008B00002D52069012825D13068616920F0F8004F
:1008C00040EAC1003060207800071FD4207840073C
:1008D00032D4E56995B1706800F00C00082840F04A
:1008E0008F80012D0ED07068216A00F480328A4218
:1008F00008D1616A00F47010884203D1002002B070
:10090000BDE8F081012002B0BDE8F081A0690028B7
:1009100062D00020C4F242200121C0F88014FFF709
:10092000D1FD0546706A800700F18C80FFF7CAFD93
:10093000401B0228F6D92AE1F06910F0805808D14E
:10094000F06940F08050F061F06900F08050009054
:10095000009847F20007C4F200073868C00529D4A0
:10096000386840F480703860FFF7ACFD054600BF82
:100970003868C0051ED4FFF7A5FD401B6428F7D9D1
:1009800005E100BF2069002840F20000C4F24220C7
:1009900000F0828001210160FFF794FD054600BF51
:1009A000306880073FF588AFFFF78CFD401B0228B9
:1009B000F6D9ECE0E068002800F08080052800F01F
:1009C0009780012800F09880306A20F001003062A2
:1009D000306A20F0040092E00020C4F2422000219E
:1009E000C0F88014FFF76EFD054600BF706A8007EF
:1009F0007FF56CAFFFF766FD401B0228F6D9C6E015
:100A00000027C4F2422700203866FFF75BFD022D65
:100A100005460BD13068800140F1BE80FFF752FDE2
:100A2000401B02284FF00300F4D968E730688001CA
:100A30007FF564AFFFF746FD401B02284FF003002F
:100A4000F4D95CE740F20C00C2F20000006844F602
:100A5000D351C1F26201A0FB0101480A019000BF1D
:100A600000BF0198411E002801913FF42FAF00BF45
:100A70000198411E002801913FF428AF00BF019862
:100A8000411E002801913FF421AF00BF0198411E93
:100A900000280191E4D119E700210160FFF712FD60
:100AA000054600BF306880077FF50DAFFFF70AFDF0
:100AB000401B02284FF00300F4D920E7306A20F0F1
:100AC00001003062306A20F004003062FFF7FAFC67
:100AD000054641F2883700BF306A800720D5FFF70E
:100AE000F1FC401BB8424FF00300F5D907E700BF07
:100AF000306A40F004003062306A40F00100306239
:100B0000FFF7E0FC054641F2883700BF306A8007F6
:100B100006D4FFF7D7FC401BB842F7D937E000BF37
:100B2000B8F1000F7FF4D5AEF06920F08050F0618D
:100B3000CFE600BF306820F480303060306820F4A9
:100B400080203060FFF7BEFC054600BF30688003A0
:100B50007FF59DAEFFF7B6FC401B64284FF0030005
:100B6000F4D9CCE6306840F480203060306840F43E
:100B700080303060FFF7A6FC054600BF3068800378
:100B80003FF585AEFFF79EFC401B6428F6D9032095
:100B900002B0BDE8F08100BF206AB0F5803F05D10A
:100BA0007168A26821F40031114371607168626A52
:100BB00021F4741110430843706001203866FFF778
:100BC00081FC0446306880013FF598AEFFF77AFC5F
:100BD000001B02284FF00300F4D990E670B538B13D
:100BE0000446406A30B10020206104F1140007E09F
:100BF000012070BD6068B0F5827F03D004F11C0055
:100C0000002101600026A66294F8510020B9204618
:100C100084F8506000F038F8022084F8510094E81D
:100C2000071001F48271036802F4044223F04003C8
:100C30000360236911440CF40062114403F00202C2
:100C40006369114403F00102A369E569114403F4E7
:100C50000072114405F03802256A114405F0800243
:100C6000A56A114305F4005211430160042101EA11
:100C700013414160C16921F40061C16101206665D1
:100C800084F85100304670BD70B586B040F600045F
:100C9000C4F20104006804F520510026884204963D
:100CA00002D006B070BD00BF41F21800C4F20200CD
:100CB000016802AD41F480510160016801F4805186
:100CC00001910199016841F0040101600068294621
:100CD00000F0040001900198A020029002200390EF
:100CE000032005902046FFF7DDFA4020CDE90206FB
:100CF000204629460496FFF7D5FA06B070BD0000DD
:100D0000411E0020B0EB116F1CBF012070474EF256
:100D10001002CEF2000251604EF62351CEF20001D5
:100D2000F0230B700721906011607047002804BF0A
:100D30000120704710B5044690F83D0028B9002006
:100D400084F83C00204600F05FF8242084F83D0041
:100D50002068D4E90212C36823F40053C360036916
:100D600023F440531A430261D4E904231143C268B7
:100D7000194341F20C639A431143C1604169A2696E
:100D800021F44071114343F60002C4F20102904283
:100D9000416103D0FFF720FD02E000BFFFF730FD07
:100DA0006268192148439100B0FBF1F048F21F51ED
:100DB000C5F2EB11A0FB01235A096FF0630302FB9C
:100DC0000300322303EB0010A0FB0101F02303EA30
:100DD0005113206803EB0212C1F3431111448160E7
:100DE000016921F490410161416921F02A014161C9
:100DF000C16841F40051C16000202021206484F8C2
:100E00003D1084F83E1010BD70B586B040F6000469
:100E1000C4F20104006804F540510026884204969B
:100E200002D006B070BD00BF41F21800C4F202004B
:100E3000016802AD41F480410160016801F4804124
:100E400001910199016841F004010160006829469F
:100E500000F00400019001984FF40070029002200D
:100E60000390032005902046FFF71CFA4FF48060A2
:100E7000CDE90206204629460496FFF713FA06B08C
:100E800070BD0000FEE7000010B540F28B04C2F216
:100E9000000440F21000611CC2F20000FFF7DCF910
:100EA000207010BD70B584B041F21800C4F2020089
:100EB000016840F6004441F0200101600168C4F27D
:100EC000010401F02001009100990168002241F025
:100ED000040101600168012501F0040100910099FD
:100EE0000168002641F0080101600068012100F05E
:100EF0000800009000982046FFF7DEFA02200390D9
:100F000069462046CDE900550296FFF7CBF904B0BB
:100F100070BD000080B540F29C0043F20001C2F2B7
:100F20000000C4F201014FF48272002380E80E0039
:100F300000F114014FF4007C4FF0200E81E80850BE
:100F40000A21C0E90333C0E90833C0E90A31FFF7D9
:100F500045FE002808BF80BDBDE88040FFF776B998
:100F600080B540F2F40043F60001C2F20000C4F282
:100F7000010100234FF00C0C4FF4E13280E80E0029
:100F8000C0E90333C0E905C3C361FFF7CFFE002802
:100F900008BF80BDBDE88040FFF758B9FEE70000FC
:100FA000FEE70000704700007047000040F2880034
:100FB000C2F2000001780131017001780A290ED3D4
:100FC00000210170417811B1417801394170817877
:100FD000002908BFFFF77CBA817801398170FFF7DB
:100FE00077BA00007047000040F20800C2F200002B
:100FF0000121017000787047012070470020704780
:1010000040F20800C2F20000012101700078704730
:1010100000207047FEE7000090B0FFF767FA002459
:101020000120CDE90B44CDE9094406900A904FF424
:10103000E0104FF4803102250F9006A8CDE9071487
:10104000CDE90D51FFF7F0FB20B1EFF3108072B640
:10105000FEE700BF0F20CDE901054FF48060CDE928
:10106000040401A802210394FFF7D6FA20B1EFF39C
:10107000108072B6FEE700BFFFF714FFFFF74AFFCC
:10108000FFF76EFFFFF700FFFEE701020000000020
:101090000000000001020304060708090000000028
:1010A0000102030402030405060708090A0B0C0DDC
:1010B0000E0F1010D81000080000002028000000BB
:1010C000280100080011000828000020180700006F
:1010D00044010008000000000100000010000000B2
:1010E000010000000024F400E90F000801100008CE
:1010F000FD0F000811100008F90F000800000000A3
:04000005080000ED02
:00000001FF
