:020000040800F2
:10000000380800208901000827160008CD140008D0
:10001000251600087F030008D11900080000000021
:100020000000000000000000000000002B16000887
:100030000304000800000000291600082D1600081F
:10004000A3010008A3010008A3010008A301000800
:10005000A3010008A3010008A3010008A3010008F0
:10006000A3010008A3010008A3010008A3010008E0
:10007000A3010008A3010008A9030008B5030008B4
:10008000C1030008CD030008A3010008A301000874
:10009000A3010008A3010008A3010008A3010008B0
:1000A000A3010008A3010008A3010008A3010008A0
:1000B000A3010008A301000800000000A30100083C
:1000C000A30100080000000000000000A3010008D8
:1000D00000000000B9190008C51900080000000060
:1000E000A3010008A3010008A301000800F002F822
:1000F00000F03AF80AA090E8000C82448344AAF188
:100100000107DA4501D100F02FF8AFF2090EBAE885
:100110000F0013F0010F18BFFB1A43F0010318473B
:10012000281C0000481C0000103A24BF78C878C181
:10013000FAD8520724BF30C830C144BF04680C60ED
:10014000704700000023002400250026103A28BF35
:1001500078C1FBD8520728BF30C148BF0B60704739
:100160001FB51FBD10B510BD00F0CFF81146FFF749
:10017000F7FF01F073FC00F0EDF803B4FFF7F2FFB6
:1001800003BC00F0F5F80000094880470948004723
:10019000FEE7FEE7FEE7FEE7FEE7FEE7FEE7FEE737
:1001A000FEE7FEE704480549054A064B7047000094
:1001B0008F160008ED0000083802002038080020E3
:1001C0003804002038040020032A40F2308010F068
:1001D000030C00F0158011F8013BBCF1020F6244E2
:1001E00098BF11F801CB00F8013B38BF11F8013B73
:1001F000A2F1040298BF00F801CB38BF00F8013B20
:1002000011F0030300F04F80083AC0F0088051F865
:10021000043B083A51F804CBA0E80810F5E7121D9A
:100220005CBF51F8043B40F8043BAFF30080D207B9
:1002300024BF11F8013B11F801CB48BF11F8012B85
:1002400024BF00F8013B00F801CB48BF00F8012BA8
:1002500070474FF0000200B5134694469646203989
:1002600022BFA0E80C50A0E80C50B1F12001BFF46F
:10027000F7AF090728BFA0E80C5048BF0CC05DF8D5
:1002800004EB890028BF40F8042B08BF704748BF23
:1002900020F8022B11F0804F18BF00F8012B704797
:1002A00070477047704710B5203AC0F00B80B1E836
:1002B0001850203AA0E81850B1E81850A0E818509B
:1002C000BFF4F5AF5FEA027C24BFB1E81850A0E8A4
:1002D000185044BF18C918C0BDE810405FEA827CBE
:1002E00024BF51F8043B40F8043B08BF7047D207D5
:1002F00028BF31F8023B48BF11F8012B28BF20F876
:10030000023B48BF00F8012B7047754600F02CF8FF
:10031000AE4605006946534620F00700854618B0F2
:1003200020B5FFF73FFFBDE820404FF000064FF03B
:1003300000074FF000084FF0000B21F00701AC461A
:10034000ACE8C009ACE8C009ACE8C009ACE8C00939
:100350008D46704710B50446AFF300802046BDE8D7
:100360001040FFF70ABF000000487047D40100208A
:1003700001491820ABBEFEE7260002007047FEE7E9
:1003800030B502464FF6FF70064D07E012F8013B0C
:10039000040A4340DBB235F813006040491EC9B27D
:1003A000F4D230BD301B0008014800F09DB80000B9
:1003B000C4000020014800F097B8000008010020A8
:1003C000014800F091B800004C010020014800F005
:1003D0008BB800009001002030B590F84050012407
:1003E000AC40C56B6C60046863604368102B0368A5
:1003F00003D099600068C26030BD9A600068C16037
:1004000030BD704772B6FEE710B590F8211000229B
:10041000022905D00421816380F82020012010BD2D
:1004200001680B6823F00E030B6001680B6823F072
:1004300001030B6090F84030C46B012101FA03F313
:10044000636080F8211080F82020104610BD000065
:1004500010B590F821100024022903D004218163F3
:1004600001243DE001680A6822F00E020A6001687A
:100470000A6822F001020A601A4A0168914201D119
:10048000012121E0174A1432914201D110211BE0D1
:10049000144A2832914201D1891515E0114A3C32A3
:1004A000914201D189140FE00E4A5032914202D19B
:1004B0004FF4803108E00B4A6432914202D14FF48C
:1004C000801101E04FF08071064A083A5160012125
:1004D00080F82110002180F82010416B01B188477D
:1004E000204610BD080002402DE9F05FC16B0C688A
:1004F00001680B68D0F840C0042202FA0CF2494DA2
:10050000DFF824A1494E4A4FDFF828B1DFF828E18F
:1005100022422CD05A072AD50A68920603D40A68C8
:1005200022F004020A600168A94201D1042219E004
:10053000514501D1402215E0B14202D14FF4806211
:1005400010E0B94202D14FF480420BE0594502D18C
:100550004FF4802206E0714502D14FF4800201E0A1
:100560004FF080622F4908394A60C16A3BE04FF082
:10057000020808FA0CF818EA040F4FF000094FF0CF
:10058000010235D05FEA837832D50B689B0605D42B
:100590000B6823F00A030B6080F821200168A94250
:1005A00001D1022219E0514501D1202215E0B142CA
:1005B00002D14FF4007210E0B94202D14FF4005260
:1005C0000BE0594502D14FF4003206E0714502D1EB
:1005D0004FF4001201E04FF00072124908394A60EE
:1005E00080F82090816A00291AD0BDE8F05F0847A2
:1005F000082505FA0CF5254212D01B0710D50B680B
:1006000023F00E030B6090F84010C36B02FA01F167
:100610005960826380F8212080F82090016BE2E726
:10062000BDE8F09F080002401C000240300002407C
:1006300044000240580002406C00024030B528B32C
:1006400008C8134914221944B1FBF2F18900C163AF
:1006500010498163022141771A6843F6F0718A4399
:10066000D0E900142143D0E902452C432143046919
:1006700021434469214384692143114319600021C6
:100680004163012242770177084630BD012030BD29
:10069000F8FFFDBF0000024070B5044690F820004E
:1006A000002501280CD0012084F8200094F8216056
:1006B0000020012E06D084F820000225284670BDB7
:1006C000022070BD022684F82160A06320680668BD
:1006D00026F0010606602046FFF77EFEE06A00284D
:1006E0002068016802D041F00E0106E021F004010B
:1006F00001602068016841F00A010160206801681A
:1007000041F001010160D9E72DE9F84FDFF89C9134
:10071000002409F1040A0AF1040B23460F270BF108
:10072000040EBBE00125A5402A40AA4276D1DFF89D
:1007300080C14E68A6EB0C0866452BD00DDC032E5D
:1007400034D005DC36B3012E19D0022E2FD11BE098
:10075000112E16D0122E2AD119E0B8F5881F19D003
:1007600006DCB8F5803F15D0B8F5801F1FD111E029
:10077000B8F5001F0ED0B8F5041F18D10AE0CB68F9
:1007800015E0CB681B1D12E0CB6808330FE0CB6887
:100790000C330CE08B682BB1012B4FF0080303D016
:1007A000456104E0042302E0056100E00023FF2A24
:1007B00001D8064601E000F104064FEA840501D99C
:1007C000A5F12005D6F8008007FA05FC28EA0C08F8
:1007D00003FA05F548EA0508C6F800804D68ED0003
:1007E0005BD5344DAE6946F00106AE61AD6924F0CB
:1007F000030605F0010500952F4D06EB050CDCF80E
:100800000850A607360F07FA06F825EA0805DFF8AC
:10081000AC80404503D14FF0000810E03DE0DFF828
:10082000A080404502D14FF0010808E0DFF8948035
:10083000404502D14FF0020801E04FF0030808FAEA
:1008400006F848EA0508CCF808804D68D9F8006039
:10085000ED034D4601D5164300E096432E604D68EA
:10086000DAF80060AD03554601D5164300E0964323
:100870002E604D68DBF80060ED025D4601D5164341
:1008800000E096432E604D68DEF80060AD027546CC
:1008900001D5164300E096432E60641C0A6832FAC4
:1008A00004F57FF43FAFBDE8F88F0000000401407D
:1008B000000011100010024000000140000801403B
:1008C000000C0140001001408068084000D0012069
:1008D00070470AB1016170470904FBE7014880686D
:1008E0007047000018000020024881680278114417
:1008F0008160704718000020074810B5016841F07A
:1009000010010160032000F075F80F2000F006F8D8
:1009100000F024F8002010BD0020024070B50D4DFD
:1009200004464FF47A712878B1FBF0F00A4909685F
:10093000B1FBF0F000F0ECFA48B9102C07D200221D
:100940002146501E00F036F800206C6070BD01207A
:1009500070BD000018000020240000200C4808B5DD
:10096000816941F001018161816901F0010100911A
:10097000C16941F08051C161C06900F080500090B0
:100980000448416821F0E06141F00071416008BD18
:100990000010024000000140002809DB00F01F02A7
:1009A000012191404009800000F1E020C0F80011D1
:1009B00070470000F0B40E4B1B680C46C3F30223D3
:1009C000C3F10705042D00D90425191D072901D2FB
:1009D000002300E0DB1E012606FA05F1491E214036
:1009E00099409E40761E16403143F0BC00F0F1BFA6
:1009F0000CED00E0064900F0070208684FF6FF031F
:100A0000184040EA0220034A104308607047000083
:100A10000CED00E00000FA052DE9F0470F46050057
:100A200061D0434E306800F00700B84209D2306808
:100A300020F0070038433060306800F00700B8420B
:100A400051D128683B4C810712D5400703D5606817
:100A500040F4E06060602878000703D5606840F4E7
:100A6000605060606068A96820F0F0000843606032
:100A70002878C00728D06868012810D0216802288B
:100A800010D0890700292EDA616821F003010143A3
:100A90006160FFF723FF804641F288390DE021684D
:100AA0008903EFE78901EDE7FFF718FFA0EB0801E5
:100AB000494502D90320BDE8F0876068696800F005
:100AC0000C00B0EB810FEFD1306800F00700B842A6
:100AD0000BD9306820F0070038433060306800F0F0
:100AE0000700B84201D00120E5E72878400705D586
:100AF0006068E96820F4E0600843606028780007D7
:100B000006D56068296920F4605040EAC100606041
:100B100000F038F86168084AC1F30311515CC8401D
:100B20000649086006480068FFF7F8FE0020C2E7A3
:100B30000020024000100240301D00082400002068
:100B40001C0000200448054900684968044AC1F3B4
:100B50000221515CC8407047240000200010024070
:100B6000401D00080448054900684968044AC1F36B
:100B7000C221515CC8407047240000200010024090
:100B8000401D000812A185B00FC98DE80F0014A008
:100B9000144A006804905168134801F00C03042BB8
:100BA00010D0082B0ED1C1F38343C9031DF80300F5
:100BB0000AD5516804AAC1F34041515C0A4A504326
:100BC000B0FBF1F005B0704708494843FAE7000070
:100BD00002030405060708090A0B0C0D0E0F10107E
:100BE000010200000010024000127A0000093D00DE
:100BF0002DE9F84F040070D02078C04DC00749D0CF
:100C00006868C0F38100012807D06868C0F38100DC
:100C1000022809D16868C00306D52868800339D541
:100C200060680028E7D035E06068B0F5803F0BD001
:100C300010B1B0F5A02F11D0286820F480302860C2
:100C4000286820F4802002E0286840F48030286082
:100C5000606890B1FFF742FE06460AE0286840F45B
:100C600080202860F0E700BFFFF738FE801B642873
:100C700073D828688003F7D50CE0FFF72FFE0646EF
:100C800005E000BFFFF72AFE801B6428F0D8286823
:100C90008003F7D420789A4E80074FF001094FF077
:100CA000000839D5686810F00C0F07D06868C0F3E9
:100CB0008100022809D16868C00306D4286880072B
:100CC00014D52069012808D110E02069B0B1C6F818
:100CD0000090FFF703FE074605E00AE1FFF7FEFD7F
:100CE000C01B0228C4D828688007F7D52868616926
:100CF00020F0F80040EAC10028600DE0C6F800804E
:100D0000FFF7ECFD074604E0FFF7E8FDC01B0228F3
:100D100023D828688007F7D4207800072CD5794895
:100D2000A169D9B1C0F80090FFF7D8FD074604E0EB
:100D3000FFF7D4FDC01B02280FD8686A8007F7D5DB
:100D400071484FF4FA510068B0FBF1F0009000BF19
:100D50000098411E0091FAD20EE080E0C0F80080B9
:100D6000FFF7BCFD074604E0FFF7B8FDC01B0228F3
:100D700075D8686A8007F7D42078400760D5E8699D
:100D80000027C00008D4E86940F08050E861E869B5
:100D9000012700F0805000905C480168C90513D419
:100DA0000168834641F480710160FFF797FD824638
:100DB00006E000BFFFF792FDA0EB0A0064284ED8C2
:100DC000DBF80000C005F5D5E06801280AD008B1BD
:100DD000052813D0286A20F001002862286A20F034
:100DE000040002E0286A40F001002862E06841F255
:100DF000883B98B1FFF772FD82460BE0286A40F00D
:100E000004002862EEE700BFFFF768FDA0EB0A01CF
:100E100059455AD8286A8007F6D50CE0FFF75EFDE1
:100E2000824605E0FFF75AFDA0EB0A0159454CD870
:100E3000286A8007F6D41FB1E86920F08050E86185
:100E4000E06988B36968C1F38101022944D00228AE
:100E5000C6F8608004D0FFF741FD044638E034E076
:100E6000FFF73CFD074604E0FFF738FDC01B0228F2
:100E70002BD828688001F7D4206AB0F5803F05D1CF
:100E80006868A16820F4003008436860D4E908016C
:100E90000843696821F4741108436860C6F86090DB
:100EA000FFF71CFD044606E025E000BFFFF716FD36
:100EB000001B022809D828688001F7D51BE000BF75
:100EC000FFF70CFD001B022802D90320BDE8F88FB4
:100ED00028688001F4D40EE00128F7D06868226AFF
:100EE00000F48031914204D1616A00F470108842AC
:100EF00001D00120EAE70020E8E7000000100240EE
:100F00000000424280044242240000200070004061
:100F100010B5401EB0F1807F01D3012010BD4FF00D
:100F2000E02460610F21601700F053FD0020A061F4
:100F300007202061002010BD38B5044690F83E001F
:100F400020281CD181B17AB194F83C00012816D038
:100F5000012084F83C002063204600F0F5FC0028C6
:100F600003D1216B012901D0012038BD21680A6815
:100F70004A680092CA6842F01002CA6038BD022076
:100F800038BD000010B50068264A904208D10A46D4
:100F90002549081DFFF718F90422234923483CE09E
:100FA000234A90423DD10A46224901F10A00FFF747
:100FB0000BF920480A30017859292BD14178592959
:100FC00028D18378C27804799918B23121444479C0
:100FD000214484792144C4790C441349091F0C80AD
:100FE000007AE4B2A04215D103EB022048801249F6
:100FF0000D4C083409782170062161700721A17019
:10100000010AE170207105212046FFF7B9F9010AB4
:101010006171A071074909480A22BDE81040FFF735
:101020008BBF10BD0044004006000020800000205F
:101030000038014028000020000000203C00002073
:1010400070470000F8B5026804461068D16853691B
:1010500010F00F0F4FF0000553D003F0010601F41C
:10106000907737435FD0C20705D0CA0503D5226CFD
:1010700042F001022264420705D5DA0703D0226C50
:1010800042F002022264820705D5DA0703D0226CFF
:1010900042F004022264020707D501F02002324325
:1010A00003D0226C42F008022264226C002A34D061
:1010B000800604D5880602D5204600F08DFB206806
:1010C0004069216CC0F38010090700D430B320467A
:1010D00000F061FB2068416949061BD5416921F098
:1010E00040014161A06BA8B158494163A06BFFF773
:1010F000AFF9002811D0A06B416B01B0BDE8F04002
:10110000084783060FD58B060DD52046BDE8F8406D
:1011100000F062BB2046FFF793FFF8BD2046FFF7C3
:101120008FFF2564F8BD266B2023012E52D1C60601
:1011300050D5CE064ED510685068009050694006D4
:101140002AD5A16B086840680004000CEAD0A68D7F
:101150008642E7D9E0858869202818D0D06820F435
:101160008070D0602068416921F0010141612068F0
:10117000416921F04001416184F83E3025632068D7
:10118000C16821F01001C160A06BFFF73DF9A08D8F
:10119000E18D401A81B219E0A08DE18D401A81B233
:1011A000E08D0028BED00029BCD0D06820F490701B
:1011B000D0602068426922F00102426184F83E302A
:1011C00025632068C26822F01002C2602046FFF743
:1011D000D9FEF8BD05062BD50D0629D594F83D009E
:1011E0002128F6D1A068B0F5805F01D12069B0B1A7
:1011F000206A411C2162216800784860E08C401E12
:101200000004000CE084E4D12068C16821F0800172
:10121000C1602068C16841F04001C160F8BD206A2A
:101220000088C0F308005060206A801C2062E5E757
:101230004006F3D54806F1D5D168204621F040019B
:10124000D16084F83D3000F03FF9F8BD91160008F8
:1012500070B5040004D094F83D00002510B106E0FC
:10126000012070BD84F83C50204600F023F8242073
:1012700084F83D002068C16821F40051C160204617
:1012800000F006FB2068016921F4904101612068AB
:10129000416921F02A0141612068C16841F400518F
:1012A000C1602564202084F83D0084F83E000020C1
:1012B00070BD00002DE9F04186B000250095019534
:1012C000029503950446DFF864C10368584802217B
:1012D0000322584F80264FF0100863454ED1836992
:1012E00043F480438361836903F4804304938369F7
:1012F00043F0040383618069039200F004000490CA
:101300000802CDE9000169463846FFF7FDF9F00013
:10131000CDE90005694638460295FFF7F5F9474FD4
:101320004548C7E902563D617D61C7E900084FF4B1
:101330000058C7E906583846FFF780F908B1FFF7AB
:1013400061F867637C623D4F3B4844371430C7E91E
:101350000005C7E902563D617D61C7E90658384678
:10136000FFF76CF908B1FFF74DF8A76300221146AB
:1013700025207C62FFF71EFB252051E0DFF8C0C06E
:1013800063454FD1C36943F40033C361C36903F4B8
:1013900000330493836943F00403836180690392FB
:1013A00000F0040004900420CDE9000169463846AD
:1013B000FFF7AAF90820CDE90005694638460295ED
:1013C000FFF7A2F91D4F1C4888372830C7E90005F0
:1013D000C7E902563D617D61BD613846FD61FFF799
:1013E0002DF908B1FFF70EF8A7637C62134F12487E
:1013F000CC373C30C7E902563D617D61BD61FD617E
:10140000C7E900083846FFF719F908B1FEF7FAFFF7
:1014100067630022114626207C62FFF7CBFA262064
:10142000FFF7BAFA06B0BDE8F081000000380140CD
:10143000001002400008014044000240C4000020A7
:10144000004400407047704770B5044690F83D0076
:10145000202830D169B362B394F83C0001282AD027
:10146000012084F83C002162A284E28400252564E6
:10147000212084F83D00636B10489862636B10482C
:10148000D862636B0F481863606B13464563266828
:10149000606B321DFFF700F921686FF040000860B3
:1014A00084F83C502068416941F08001416100208E
:1014B00070BD012070BD022070BD00005F170008E4
:1014C0008D170008A116000870477047FEE700005E
:1014D000154808B5416941F00101416140690022A8
:1014E00000F00100009011460E20FFF763FA0E2075
:1014F000FFF752FA002211460F20FFF75BFA0F2088
:10150000FFF74AFA002211461020FFF753FA102085
:10151000FFF742FA002211461120FFF74BFABDE80F
:1015200008401120FFF738BA0010024070B586B0AD
:1015300000241D480094019402940394816941F0B1
:1015400020018161816901F020010491816941F0EC
:1015500004018161816901F004010491816941F014
:10156000080181618069114E00F008004FF40165A7
:101570000490002229463046FFF7ABF90120009580
:10158000CDE901040220039069463046FFF7BCF81C
:101590004FF47040CDE90004694605480294FFF716
:1015A000B3F806B070BD0000001002400008014012
:1015B000000C01400C4810B50A4901604FF4E131BC
:1015C0004160002181600C22C160C0E90412816188
:1015D000C161FFF73DFE002803D0BDE81040FEF7D3
:1015E00011BF10BD003801403C0000200C4810B570
:1015F0000A4901604FF4E1314160002181600C2211
:10160000C160C0E904128161C161FFF721FE0028B9
:1016100003D0BDE81040FEF7F5BE10BD0044004009
:1016200080000020FEE7FEE770477047FFF75CB9D7
:1016300030B58FB028216846FEF70BFE14210AA8AA
:10164000FEF707FE01210804CDE9001000240294F2
:1016500002250491CDE907504FF4E0100990684647
:10166000FFF7C6FA08B172B6FEE70F20CDE90A050A
:101670004FF48060CDE90C4002210AA80E94FFF7D8
:10168000CBF9002801D072B6FEE70FB030BD70472D
:1016900010B5406A0021C185C184FFF7D1FC10BD9F
:1016A00070B5446A2068406994F83D10C0F3C010DA
:1016B0000025212904D118B1E584204600F083F8E3
:1016C0002068406994F83E10C0F38010222904D1AC
:1016D00018B1E585204600F05EF8206C40F010005F
:1016E00020642046FFF7ACFC70BD10B50146406A8F
:1016F0000968096889061BD40021C1850168CA6888
:1017000022F48072CA6001684A6922F001024A61CB
:1017100001684A6922F040024A61202180F83E10A7
:10172000016B012904D10168CA6822F01002CA6065
:10173000016B012902D0FFF785FE10BD818DFFF7F7
:1017400021FC10BD10B5406A016B012902D0FFF7E2
:101750007AFE10BD818D4908FFF714FC10BD10B54D
:101760000146406A0968096889060CD40021C184D1
:1017700001684A6922F080024A610068C16841F04C
:101780004001C16010BDFFF79FFE10BD10B5406A5B
:10179000FFF79BFE10BD0168CA6822F49072CA6010
:1017A00001684A6922F001024A61016B012904D1F2
:1017B0000168CA6822F01002CA60202180F83E1039
:1017C0000021016370470168CA6822F0C002CA6044
:1017D000202180F83D10704708B590F83E1022296E
:1017E00001D0022008BD82684FF480539A4201D193
:1017F000016921B1816A9A421BD04AB10AE00268AC
:10180000816A5268C2F308020A80816A891C08E072
:10181000026972B10268526802F07F020A70816A3E
:10182000491C8162C18D491E0904090CC18503D080
:1018300019E002685268F1E70168CA6822F02002E4
:10184000CA600168CA6822F48072CA6001684A6985
:1018500022F001024A61202180F83E10016B01292B
:1018600003D0FFF7EFFD002008BD002101630168F0
:10187000CA6822F01002CA6001680A68D20602D55E
:101880000A6849680091818DFFF77CFBEBE7000057
:1018900070B5044600680169E26821F440511143C3
:1018A00001612169A0680843616908432168CA6829
:1018B00041F20C639A430243CA6020684169A269FD
:1018C00021F44071114341611E492068884202D1D0
:1018D000FFF748F901E0FFF735F900EBC00101EB34
:1018E0000012606864218000B2FBF0F3B3FBF1F3F7
:1018F0006FF018067343B2FBF0F5B2FBF0F605EBA0
:101900008305322303EB0515B5FBF1F5B6FBF1F6C4
:1019100005F0F00505EB0615B2FBF0F6B2FBF0F0B2
:10192000B0FBF1F06FF01802504306EB800003EBC0
:101930000010B0FBF1F0216800F00F00284488602F
:1019400070BD00000038014038B5816282850025F5
:10195000134604460564222084F83E00A26B134817
:101960009062A26B1248D062A26B12481063A06B07
:101970000A4645632168A06B091DFEF78DFE2068AD
:1019800001684168009184F83C50C16841F480715D
:10199000C1602068416941F00101416120684169ED
:1019A00041F040014161002038BD0000EB16000805
:1019B00045170008A11600080148FFF743BB0000C7
:1019C0003C0000200148FFF73DBB000080000020E4
:1019D000FEE70907090E002804DB00F1E02080F88B
:1019E0000014704700F00F0000F1E02080F8141D93
:1019F0007047000070B5174D4FF480512846FEF730
:101A000063FF154C012803D1207840F001002070BD
:101A10004FF400512846FEF757FF012803D12078E4
:101A200040F0020020704FF480412846FEF74CFF42
:101A3000012803D1207840F0040020704FF40041C9
:101A40002846FEF741FF012803D1207840F0080026
:101A5000207070BD000C014000000020FEF74CFF1C
:101A6000FFF7E6FDFFF762FDFFF732FDFFF7A2FD8E
:101A7000FFF7BCFDFFF7BEFF0A2210491048FFF731
:101A80005BFA10480068016821F00401016004223B
:101A90000D490E48FFF750FA0D480068016821F023
:101AA00004010160002210210A48FEF712FF0648D7
:101AB0000421001D00F010F8F9E7000028000020C4
:101AC0003C000020080100200600002080000020CB
:101AD0004C0100200008014010B51048104A017860
:101AE0001278914219D14088022144BA0B48FEF77E
:101AF00047FCA04211D10B4C012210212046FEF7D9
:101B0000E8FE072208490948FFF79EFC204600220C
:101B1000BDE810401021FEF7DCBE10BD0A00002019
:101B200000000020000801400E000020800000207E
:101B30000000C1C081C1400101C3C003800241C295
:101B400001C6C006800741C70005C1C581C4400465
:101B500001CCC00C800D41CD000FC1CF81CE400E15
:101B6000000AC1CA81CB400B01C9C009800841C825
:101B700001D8C018801941D9001BC1DB81DA401A95
:101B8000001EC1DE81DF401F01DDC01D801C41DC65
:101B90000014C1D481D5401501D7C017801641D695
:101BA00001D2C012801341D30011C1D181D04010A5
:101BB00001F0C030803141F10033C1F381F2403295
:101BC0000036C1F681F7403701F5C035803441F465
:101BD000003CC1FC81FD403D01FFC03F803E41FE15
:101BE00001FAC03A803B41FB0039C1F981F8403825
:101BF0000028C1E881E9402901EBC02B802A41EA95
:101C000001EEC02E802F41EF002DC1ED81EC402C64
:101C100001E4C024802541E50027C1E781E6402694
:101C20000022C1E281E3402301E1C021802041E0A4
:101C300001A0C060806141A10063C1A381A2406294
:101C40000066C1A681A7406701A5C065806441A464
:101C5000006CC1AC81AD406D01AFC06F806E41AE14
:101C600001AAC06A806B41AB0069C1A981A8406824
:101C70000078C1B881B9407901BBC07B807A41BA94
:101C800001BEC07E807F41BF007DC1BD81BC407C64
:101C900001B4C074807541B50077C1B781B6407694
:101CA0000072C1B281B3407301B1C071807041B0A4
:101CB0000050C190819140510193C0538052419294
:101CC0000196C056805741970055C1958194405464
:101CD000019CC05C805D419D005FC19F819E405E14
:101CE000005AC19A819B405B0199C0598058419824
:101CF0000188C04880494189004BC18B818A404A94
:101D0000004EC18E818F404F018DC04D804C418C63
:101D10000044C184818540450187C0478046418693
:101D20000182C042804341830041C18181804040A3
:101D3000000000000000000001020304060708097B
:101D40000000000001020304681D000800000020DC
:101D50002800000028010008901D0008280000202D
:101D6000100800004401000800000000000000000E
:101D70000000000000000000000000000000000063
:101D80000100000010000000000000000024F4002A
:04000005080000ED02
:00000001FF
