:020000040800F2
:10000000600C002091010008711800084D180008CC
:100010006D180008C5050008752C000800000000D8
:10002000000000000000000000000000D52B0008C8
:10003000C90500080000000075180008D92B000849
:10004000AB010008AB010008AB010008AB010008E0
:10005000AB010008AB010008AB010008AB010008D0
:10006000AB010008AB010008AB010008AB010008C0
:10007000AB010008AB010008AB010008AB010008B0
:10008000AB010008AB010008AB010008AB010008A0
:10009000AB010008AB010008AB010008AB01000890
:1000A000AB010008AB010008AB010008AB01000880
:1000B000AB010008AB010008AB010008AB01000870
:1000C000AB010008AB010008AB010008AB01000860
:1000D000AB010008AB010008AB010008AB01000850
:1000E000AB010008AB010008AB01000800F002F80A
:1000F00000F03FF80AA090E8000C82448344AAF183
:100100000107DA4501D100F034F8AFF2090EBAE880
:100110000F0013F0010F18BFFB1A43F0010318473B
:10012000405F0000605F0000103A24BF78C878C1CB
:10013000FAD8520724BF30C830C144BF04680C60ED
:10014000704700000023002400250026103A28BF35
:1001500078C1FBD8520728BF30C148BF0B60704739
:10016000752900F04980002070471FB51FBD10B5EC
:1001700010BD00F0ECF91146FFF7F7FF05F056F857
:1001800000F00AFA03B4FFF7F2FF03BC00F012FA22
:100190000948804709480047FEE7FEE7FEE7FEE71B
:1001A000FEE7FEE7FEE7FEE7FEE7FEE70448054957
:1001B000054A064B70470000112C0008ED000008AE
:1001C00060060020600C002060080020600800200D
:1001D0000FB41CB5074B06AA7B44694600900598EE
:1001E00000F09DF90020694600F0ACF91CBC5DF8F8
:1001F00014FB0000690300002DE9F04106460024CD
:1002000010687529314616A510D0AFF3008000287C
:1002100002DA404213A507E031688A0701D512A52A
:1002200002E0490704D511A5012401E0AFF30080E5
:1002300000210A2206F1240709E0B0FBF2FCB0FB22
:10024000F2F302FB1C00303078541846491C002899
:10025000F3D123462A463046BDE8F04100F001B90B
:10026000000000002D0000002B0000002000000016
:100270002DE9F0410F460546002028622846E9682E
:10028000884770B3252805D0D5E901219047286A11
:10029000401CF2E7E9682846002688476C28044697
:1002A0000AD0682C08D04C2C35D06A2C31D0742C54
:1002B00031D07A2C2FD016E0E968064628468847C8
:1002C000B042044608D16C2E23D04FF480662846F5
:1002D000E9688847044606E06C2E03D04FF4807628
:1002E00001E01EE04026E4B1A4F14100192802D843
:1002F000203446F400663A46214628462E60FFF731
:100300002FFF60B1012808D0FF1D27F0070708372D
:10031000B4E78026DBE70026D9E73F1DAEE720469D
:10032000B2E7286ABDE8F08110B5431C02E010F87E
:10033000011B71B18107FAD14FF0013202C88C1A4A
:100340008C4314EAC211F9D0C01A0A0603D0C01EA9
:1003500010BDC01A10BD0A0401D0801E10BD0902D4
:10036000FCD0401E10BD10B5203AC0F00B80B1E8A3
:100370001850A0E81850B1E81850A0E81850203ADA
:10038000BFF4F5AF5FEA027C24BFB1E81850A0E8E3
:10039000185044BF18C918C0BDE810405FEA827CFD
:1003A00024BF51F8043B40F8043B08BF7047D20714
:1003B00028BF31F8023B48BF11F8012B28BF20F8B5
:1003C000023B48BF00F8012B70474FF000020429A0
:1003D000C0F0128010F0030C00F01B80CCF1040C74
:1003E000BCF1020F18BF00F8012BA8BF20F8022BA8
:1003F000A1EB0C0100F00DB85FEAC17C24BF00F84E
:10040000012B00F8012B48BF00F8012B70474FF07B
:10041000000200B5134694469646203922BFA0E854
:100420000C50A0E80C50B1F12001BFF4F7AF090760
:1004300028BFA0E80C5048BF0CC05DF804EB890051
:1004400028BF40F8042B08BF704748BF20F8022B94
:1004500011F0804F18BF00F8012B704770477047AC
:1004600070472DE9F0470D4699469246044600F143
:1004700024080168880604D5E06921F01001216094
:1004800000E00120A84201DD471B00E00027A16930
:100490007A1902EB0900081AA0612078C00602D47C
:1004A0002046AFF30080002608E0D4E901211AF8C5
:1004B00006009047206A401C761C20624E45F4DB03
:1004C0002078C0060AD52046AFF3008006E0D4E9C4
:1004D000012130209047206A401C2062381EA7F17D
:1004E0000107F4DC07E0D4E9012118F80500904782
:1004F000206A401C2062281EA5F10105F3DC20467D
:10050000AFF300802078000602D50220BDE8F08716
:100510000120FBE701694A1C02610878704700B5B9
:100520008FB0CDE901310021059105497944CDE92C
:10053000031011466846FFF79BFE0FB000BD000098
:10054000E5FFFFFF0A6802F8010B0A607047754675
:1005500000F02CF8AE4605006946534620F007002F
:10056000854618B020B5FFF721FEBDE820404FF0CA
:1005700000064FF000074FF000084FF0000BAC46AC
:10058000ACE8C009ACE8C009ACE8C009ACE8C009F7
:1005900021F007018D46704710B50446AFF3008087
:1005A0002046BDE81040FFF7EDBD00000048704751
:1005B0002800002001491820ABBEFEE726000200FB
:1005C00070470000FEE700007047000080B540F271
:1005D0009813C2F200035A7A012A84BF012080BD19
:1005E00093F809C08646002003F80C005A7A03EB02
:1005F0008202C2F804E05A7A1A44107293F809C0D1
:100600000CF101025A720CF130020A7042F63A7291
:10061000A1F80120C87080BDB0B5044600F020F9F3
:10062000054640F20000C2F200000078611C18BFCD
:10063000044400BF00F014F9401BA042FAD3B0BD3F
:100640002DE9F04F82B041F20042C4F201020E687F
:100650000423904208BF0323002E009300F0F6808D
:1006600040F20C4E4FF6FF7CC4F2010E0022012432
:10067000C1F2100C4FF0000A4FF0000943E000BF38
:10068000012502F00C040F27A7402BEA070705FA03
:1006900004F43C4343F82640D1F804B040F200454E
:1006A000C4F201055FEACB332B6854BF23EA080389
:1006B00043EA08032B606B685FEA8B3454BF23EA7C
:1006C000080343EA08036B605FEACB24AB6854BFBE
:1006D00023EA080343EA08035FEA8B24AB60DEF8F1
:1006E00000304FF0010454BF23EA080343EA080333
:1006F000CEF800300E680AF1010A36FA0AF302F168
:10070000040200F0A38004FA0AF816EA080FF1D0F8
:100710004B68634512DC122B56D8DFE803F0350B2B
:100720004549555555555555555555555555554D9D
:10073000510000BFD1F80C9046E000BF4FF6FF77A4
:10074000C1F22107BB420FDC0027C1F21107BB42F7
:100750001AD00027C1F21207BB4215D00027C1F200
:100760002107BB4210D02FE00027C1F22207BB4275
:100770000AD00027C1F23107BB4205D00027C1F2E1
:100780003207BB4220D100BF8B684BB1012B14BF95
:10079000C0F81480C0F810804FF0080914E000BFC2
:1007A0004FF0040910E000BFCB6803F108090BE02B
:1007B0004FF0000908E000BFCB6803F1040903E033
:1007C000CB6803F10C0900BF13460546BAF1080FC8
:1007D00024BF203B04352E680F279F40BE4309FAF3
:1007E00003F333432B60CB79DB067FF583AF41F214
:1007F0001804C4F2020423684FEA9A0643F0010386
:100800002360236840F6000403F001030193019B79
:1008100040F20043C4F20103A3F57E7353F826B0FF
:10082000C4F20104A0420FD040F60044C4F2010417
:10083000A0423FF425AF41F20004C4F20104009D40
:10084000A04208BF02251CE700251AE702B0BDE858
:10085000F08F0000002A08BF090401617047000002
:1008600040F25860C2F200000068704740F2000099
:1008700040F25861C2F20000C2F2000100780A683A
:10088000104408607047000080B542F20000C4F2D6
:100890000200016841F010010160032000F07AF8C5
:1008A000002000F005F800F027F8002080BD0000CF
:1008B00070B540F20006C2F2000640F20C01327838
:1008C000C2F200014FF47A730968B3FBF2F20446F6
:1008D000B1FBF2F1084600F01FFE0F2C4FF00105AE
:1008E00008D838B94FF0FF3021460022002500F02B
:1008F00025F87460284670BD82B041F21800C4F239
:1009000002000168022241F001010160016801F06A
:10091000010101910199416841F0805141604068B5
:1009200000F08050009000980420C4F2010001689B
:1009300062F31A61016002B07047000010B54EF614
:100940000C5CCEF2000CDCF80030C3F3022E8EF00B
:100950000704042C28BF0424BEF103034FF0FF3E1C
:100960000EFA04F438BF0023A14399400EFA03F3B2
:100970009A43114300F00F02043A624409010C3219
:1009800000F16043B0F1FF3FC8BF03F5644211704E
:1009900010BD00004EF60C51CEF200010A684FF671
:1009A000FF031A4060F30A2242F0806040F0FD70BD
:1009B000086070472DE9F04381B0002800F0858081
:1009C00042F20008C4F202080446D8F800000D46BE
:1009D00000F0070088420CD2D8F8000020F0070091
:1009E0002843C8F80000D8F8000000F00700A8422B
:1009F0006BD1206841F204098107C4F2020917D5BE
:100A0000410705D5D9F8001041F4E061C9F800109C
:100A1000010705D5D9F8001041F46051C9F800105C
:100A2000D9F80010A26821F0F0011143C9F80010B4
:100A3000C00741D1D8F8000000F00700A8420CD947
:100A4000D8F8000020F007002843C8F80000D8F8C4
:100A5000000000F00700A84237D12068410707D501
:100A6000D9F80010E26821F4E0611143C9F80010E0
:100A7000000708D5D9F80000216920F4605040EA49
:100A8000C100C9F80000D9F8002002F00C000828C5
:100A900041F20020C0F27A0050D145F6F253C2F381
:100AA0008341C0F60003595CD2033BD440F60010EA
:100AB000C0F23D00484341E0606802280AD00128A6
:100AC0002AD159F8041C890308D4012001B0BDE8DB
:100AD000F08300BF59F8041C8901F6D5D9F800103D
:100AE00021F003010843C9F80000FFF7B9FE0646EC
:100AF00041F28837D9F80000616800F00C00B0EBD3
:100B0000810F97D0FFF7ACFE801BB842F2D90320CB
:100B100001B0BDE8F08300BF59F8041C8907D4D5A3
:100B2000DCE700BFD9F8002045F65853C2F3404235
:100B3000C0F600039A5C4843B0FBF2F0D9F800100D
:100B400045F65A52C1F30311C0F60002515C40F25F
:100B50000C0220FA01F140F20400C2F20000006829
:100B6000C2F200021160FFF7A3FE002001B0BDE851
:100B7000F083000040F20C0041F20401C2F20000D8
:100B8000C4F202010068096845F66A52C1F3022105
:100B9000C0F60002515CC8407047000040F20C00F3
:100BA00041F20401C2F20000C4F2020100680968C7
:100BB00045F66A52C1F3C221C0F60002515CC8403A
:100BC000704700002DE9F04182B0002868D004464B
:100BD000007841F20006C007C4F2020625D0706812
:100BE00000F00C0004281BD0706800F00C000828EE
:100BF00002D17068C00313D46068002800F06881D7
:100C0000B0F5A02F00F07C81B0F5803F00F07C8132
:100C1000306820F480303060306820F4802076E145
:100C20003068800301D56068D0B32078800718D57C
:100C3000706810F00C0F07D0706800F00C000828E6
:100C40006ED17068C0036BD43068800702D520690C
:100C5000012825D13068616920F0F80040EAC10020
:100C60003060207800071FD42078400732D4E5692F
:100C700095B1706800F00C00082840F08F80012DBD
:100C80000ED07068216A00F480328A4208D1616A0D
:100C900000F47010884203D1002002B0BDE8F0815A
:100CA000012002B0BDE8F081A069002862D00020D8
:100CB000C4F242200121C0F88014FFF7D1FD05469F
:100CC000706A800700F18C80FFF7CAFD401B022884
:100CD000F6D92AE1F06910F0805808D1F06940F0A7
:100CE0008050F061F06900F080500090009847F269
:100CF0000007C4F200073868C00529D4386840F4FA
:100D000080703860FFF7ACFD054600BF3868C0054D
:100D10001ED4FFF7A5FD401B6428F7D905E100BFED
:100D20002069002840F20000C4F2422000F08280D6
:100D300001210160FFF794FD054600BF3068800780
:100D40003FF588AFFFF78CFD401B0228F6D9ECE099
:100D5000E068002800F08080052800F097800128D6
:100D600000F09880306A20F001003062306A20F094
:100D7000040092E00020C4F242200021C0F8801458
:100D8000FFF76EFD054600BF706A80077FF56CAF08
:100D9000FFF766FD401B0228F6D9C6E00027C4F223
:100DA000422700203866FFF75BFD022D05460BD178
:100DB0003068800140F1BE80FFF752FD401B0228E1
:100DC0004FF00300F4D968E7306880017FF564AF25
:100DD000FFF746FD401B02284FF00300F4D95CE703
:100DE00040F20C00C2F20000006844F6D351C1F298
:100DF0006201A0FB0101480A019000BF00BF0198F9
:100E0000411E002801913FF42FAF00BF0198411E01
:100E1000002801913FF428AF00BF0198411E00282F
:100E200001913FF421AF00BF0198411E00280191BC
:100E3000E4D119E700210160FFF712FD054600BF6C
:100E4000306880077FF50DAFFFF70AFD401B0228D1
:100E50004FF00300F4D920E7306A20F0010030623F
:100E6000306A20F004003062FFF7FAFC054641F2D8
:100E7000883700BF306A800720D5FFF7F1FC401BA0
:100E8000B8424FF00300F5D907E700BF306A40F0E1
:100E900004003062306A40F001003062FFF7E0FC8D
:100EA000054641F2883700BF306A800706D4FFF755
:100EB000D7FC401BB842F7D937E000BFB8F1000FAC
:100EC0007FF4D5AEF06920F08050F061CFE600BF2E
:100ED000306820F480303060306820F4802030604A
:100EE000FFF7BEFC054600BF306880037FF59DAE6E
:100EF000FFF7B6FC401B64284FF00300F4D9CCE6A2
:100F0000306840F480203060306840F480303060D9
:100F1000FFF7A6FC054600BF306880033FF585AEAD
:100F2000FFF79EFC401B6428F6D9032002B0BDE801
:100F3000F08100BF206AB0F5803F05D17168A268DA
:100F400021F40031114371607168626A21F47411F7
:100F500010430843706001203866FFF781FC0446A7
:100F6000306880013FF598AEFFF77AFC001B02283D
:100F70004FF00300F4D990E670B538B10446406AEA
:100F800030B10020206104F1140007E0012070BDA1
:100F90006068B0F5827F03D004F11C00002101607D
:100FA0000026A66294F8510020B9204684F85060CB
:100FB00000F038F8022084F8510094E8071001F49A
:100FC0008271036802F4044223F040030360236942
:100FD00011440CF40062114403F0020263691144ED
:100FE00003F00102A369E569114403F4007211449E
:100FF00005F03802256A114405F08002A56A114304
:1010000005F4005211430160042101EA13414160DB
:10101000C16921F40061C1610120666584F8510055
:10102000304670BD70B586B040F60004C4F20104CD
:10103000006804F5205100268842049602D006B0CC
:1010400070BD00BF41F21800C4F20200016802AD99
:1010500041F480510160016801F4805101910199CE
:10106000016841F0040101600068294600F00400B5
:1010700001900198A0200290022003900320059087
:101080002046FFF7DDFA4020CDE90206204629463A
:101090000496FFF7D5FA06B070BD00002DE9F043C5
:1010A00081B0044690F85000012803D1022001B01D
:1010B000BDE8F0834FF001091D4616460F4684F83F
:1010C0005090FFF7CDFB94F85110012972D1804662
:1010D000002F4FF0010018BF002E00F0C280032047
:1010E000002184F8510061652763A686E686A16326
:1010F000A187E187A0682164B0F5004F2068616492
:1011000007D1016821F040010160016841F480418C
:1011100001600168490603D4016841F040010160A3
:101120006168731EE268B1FA81F1B3FA83F3490989
:101130005B09B2F5006F41EA03013DD131B137F8E7
:10114000021BC1602763E18E0139E186E18E00292F
:101150006CD0691C1BD000BF8168890706D4FFF7DB
:101160007FFBA0EB0800A84208D348E0216B31F8D0
:10117000022BC2602163E08E0138E086E08E0028F9
:1011800054D0206881688907E9D5EFE72068816835
:10119000890703D4FFF764FB08E000BF216B31F837
:1011A000022BC2602163E08E0138E086E08E0028C9
:1011B000ECD13BE0022054E039B139780173206B67
:1011C00001302063E08E0138E086E08E70B3681C49
:1011D0000BD11BE0216B09780173206B0130206378
:1011E000E08E0138E086E08E00B3206881688907D0
:1011F000F0D4FFF735FBA0EB0800A842F3D303209F
:101200002FE000BFFFF72CFBE08E78B120688168EB
:101210008907F7D5216B09780173206B01302063B2
:10122000E08E0138E086E08E0028EFD12046802154
:101230002A46434601F05CFC28B1606D40F0200076
:10124000606520206065A06838B9002000902068A3
:10125000C1680091806800900098606D002818BFF8
:101260000120002184F8519084F8501001B0BDE8AD
:10127000F08300002DE9F04381B0044690F850005F
:10128000012803D1022001B0BDE8F08301201E46F1
:1012900015460F4684F85000FFF7E2FA94F8511013
:1012A000814601290CD06068B0F5827F40F0A080B3
:1012B000A06800284FF0020008BF042940F0998080
:1012C000002F4FF0010018BF002D00F09280002E7B
:1012D00000F08F8094F85100002104281CBF0520E5
:1012E00084F851006165A563E687A6872763E686D3
:1012F0002068A686216461640168490603D40168F8
:1013000041F0400101606168731EE268B1FA81F149
:10131000B3FA83F3DDF8208049095B09B2F5006F69
:1013200041EA03016ED131B137F8021BC160276376
:10133000E08E0138E086012518F1010031D101E08D
:10134000FFF78EFAE08E18B9E08F002800F0C28017
:101350002068816889070CD5E18E51B1012D08D133
:10136000216B002531F8022BC2602163E18E013927
:10137000E1868168C907E3D0E18F0029E0D0C06829
:10138000A16B012521F8020BA163E08F0138E087F2
:10139000D6E700BFFFF764FAA0EB0900404580F0F4
:1013A000A980E08E18B9E08F002800F093802068B3
:1013B000816889070CD5E18E51B1012D08D1216BCF
:1013C000002531F8022BC2602163E18E0139E186EC
:1013D0008168C907DED0E18F0029DBD0C068A16B2E
:1013E000012521F8020BA163E08F0138E087D1E7E6
:1013F0000220012184F85110002184F8501001B01E
:10140000BDE8F08339B139780173206B0130206376
:10141000E08E0138E086012518F1010032D101E0AB
:10142000FFF71EFAE08E10B9E08F002852D0206836
:10143000816889070ED5E18E61B1012D0AD1216B3A
:10144000002509780173216B206801312163E18E49
:101450000139E1868168C907E2D0E18F0029DFD038
:10146000C068A16B01250870A06B0130A063E08FFC
:101470000138E087D4E700BFFFF7F2F9A0EB0900DD
:10148000404539D2E08E08B9E08F18B320688168F2
:1014900089070ED5E18E61B1012D0AD1216B00259E
:1014A00009780173216B206801312163E18E0139D4
:1014B000E1868168C907DFD0E18F0029DCD0C068F0
:1014C000A16B01250870A06B0130A063E08F01388B
:1014D000E087D1E72046802142464B4601F008FBD9
:1014E00060B1606D40F020006065202060650120E3
:1014F0007FE700BF03207CE703207AE7A06800288D
:101500004FF000007FF475AF00902168CA68009228
:101510008968009100996CE7411E0020B0EB116FC3
:101520001CBF012070474EF21002CEF20002516043
:101530004EF62351CEF20001F0230B70072190608C
:1015400011607047002804BF0120704710B50446A1
:1015500090F83D0028B9002084F83C00204600F0B7
:101560005FF8242084F83D002068D4E90212C368A3
:1015700023F40053C360036923F440531A43026108
:10158000D4E904231143C268194341F20C639A431E
:101590001143C1604169A26921F44071114343F6CE
:1015A0000002C4F201029042416103D0FFF7E2FA67
:1015B00002E000BFFFF7F2FA626819214843910088
:1015C000B0FBF1F048F21F51C5F2EB11A0FB012373
:1015D0005A096FF0630302FB0300322303EB001090
:1015E000A0FB0101F02303EA5113206803EB021270
:1015F000C1F3431111448160016921F490410161FB
:10160000416921F02A014161C16841F40051C16082
:1016100000202021206484F83D1084F83E1010BD85
:1016200070B586B040F60004C4F20104006804F509
:10163000405100268842049602D006B070BD00BF1B
:1016400041F21800C4F20200016802AD41F4804189
:101650000160016801F4804101910199016841F044
:10166000040101600068294600F00400019001981F
:101670004FF4007002900220039003200590204652
:10168000FEF7DEFF4FF48060CDE9020620462946D2
:101690000496FEF7D5FF06B070BD00002DE9F043BB
:1016A00081B0044690F83D0020280DD10F46002956
:1016B0004FF0010000F092801646002A00F08E8064
:1016C00094F83C00012803D1022001B0BDE8F0836A
:1016D000012084F83C004FF0000921201D46C4F889
:1016E000409084F83D00FFF7BBF8A684E684A1682B
:1016F0008046B1F5805F25D1206900281CBF38469F
:101700004F463E46074684F83C90E08C00B3681C88
:1017100020D0002D66D120680BE000BF36F8021BF8
:1017200000276FF35F214160E18C0139E184E18C96
:1017300081B30168090675D5002FEFD017F8011B9A
:10174000F1E700BF002684F83C90E08C0028DED151
:1017500020681FE0206802E00168090609D40168DA
:10176000090606D4016809065CBF01685FEA0161E9
:10177000F2D51FB117F8011B05E000BF36F8021BB8
:1017800000276FF35F214160E18C0139E184E18C36
:101790000029E4D1016849061CD4002D42D0691CFF
:1017A0000ED10168490615D4016849065CBF01687D
:1017B0005FEA41610ED401684906F2D50AE000BF34
:1017C000FFF74EF8A0EB08012068A9422AD800686C
:1017D0004006F5D5202084F83D00002001B0BDE88A
:1017E000F08300BF206800BF0168090608D4FFF736
:1017F00037F8A0EB08012068A942F5D912E000BF34
:1018000017B117F8011B04E036F8021B00276FF32D
:101810005F214160E18C0139E184E18C0029E3D151
:10182000B8E700BFC16821F4D071C160416921F0FF
:1018300001014161202084F83D0084F83E00002031
:1018400084F83C00032001B0BDE8F083FEE700000F
:1018500010B540F2F004C2F2000440F21000611C26
:10186000C2F20000FEF7B2FE207010BDFEE70000DD
:1018700070470000704700002DE9F04F85B040F63A
:101880000048C4F20108404601210122FEF7E2FFB0
:101890000120FEF7C1FE40F20069C2F20009D9F84A
:1018A0000000FF218DF810108168890709D4816834
:1018B00089075CBF81685FEA817102D4816889070A
:1018C000F2D504A9484601226423FFF7E7FBD9F8C3
:1018D0000000FF218DF810108168890709D4816804
:1018E00089075CBF81685FEA817102D481688907DA
:1018F000F2D504A9484601226423FFF7CFFBD9F8AB
:101900000000FF218DF810108168890709D48168D3
:1019100089075CBF81685FEA817102D481688907A9
:10192000F2D504A9484601226423FFF7B7FBD9F892
:101930000000FF218DF810108168890709D48168A3
:1019400089075CBF81685FEA817102D48168890779
:10195000F2D504A9484601226423FFF79FFBD9F87A
:101960000000FF218DF810108168890709D4816873
:1019700089075CBF81685FEA817102D48168890749
:10198000F2D504A9484601226423FFF787FBD9F862
:101990000000FF218DF810108168890709D4816843
:1019A00089075CBF81685FEA817102D48168890719
:1019B000F2D504A9484601226423FFF76FFBD9F84A
:1019C0000000FF218DF810108168890709D4816813
:1019D00089075CBF81685FEA817102D481688907E9
:1019E000F2D504A9484601226423FFF757FBD9F832
:1019F0000000FF218DF810108168890709D48168E3
:101A000089075CBF81685FEA817102D481688907B8
:101A1000F2D504A9484601226423FFF73FFBD9F819
:101A20000000FF218DF810108168890709D48168B2
:101A300089075CBF81685FEA817102D48168890788
:101A4000F2D504A9484601226423FFF727FBD9F801
:101A50000000FF218DF810108168890709D4816882
:101A600089075CBF81685FEA817102D48168890758
:101A7000F2D504A9484601226423FFF70FFB404634
:101A8000012100220024FEF7E5FE0120FEF7C4FD3F
:101A900040208DF80A00D9F800009521CDF80B40C0
:101AA0008DF80F108168890709D4816889075CBFA8
:101AB00081685FEA817102D481688907F2D50DF1EE
:101AC0000A014846062264234FF0640AFFF7E6FA4B
:101AD00041F6FF754FF0FF0B0DF112060DF11107E6
:101AE000002410E0484631463A460123CDF800A0D4
:101AF000FFF7C0FB9DF81110013D44F100000129E2
:101B000018BF002812D0D9F800008DF812B08168F3
:101B10008907E7D4816889075CBF81685FEA8171C2
:101B2000E0D481688907F2D5DCE700BF4046012197
:101B30000122FEF78FFE0120FEF76EFDD9F80000AE
:101B4000FF218DF813108168890709D481688907FE
:101B50005CBF81685FEA817102D481688907F2D530
:101B600040F20060C2F200000DF113010122642373
:101B70000124FFF793FA40F2EE00C2F20000447035
:101B800005B0BDE8F08F00002DE9F04383B040F2CE
:101B9000EC0840F20064C2F200084FF4FA704FF013
:101BA000FF09C2F2000464270DF10B050DF10A06CE
:101BB000A8F8000020688DF80B908168890709D487
:101BC000816889075CBF81685FEA817102D481689E
:101BD0008907F2D520462946324601230097FFF7B0
:101BE00049FB9DF80A00FF2806D0B8F8001000292C
:101BF000E0D103B0BDE8F083FF2003B0BDE8F0837F
:101C00002DE9F04F83B040F2EA0940F200640E463D
:101C10000546C2F20009C8204FF0FF0AC2F20004D4
:101C20004FF0640B0DF1050801AFA9F8000000BFEB
:101C300020688DF805A08168890709D48168890723
:101C40005CBF81685FEA817102D481688907F2D53F
:101C5000204641463A460123CDF800B0FFF70AFB83
:101C60009DF80400FF2805D1B9F800000028DFD155
:101C70002EE000BFFE282BD14FF0FF094FF0640A81
:101C80000DF107080DF1060710E000BF20464146A0
:101C90003A460123CDF800A0FFF7ECFA9DF80600C4
:101CA000002E05F8010BA6F1010617D020688DF86B
:101CB000079081688907E9D4816889075CBF8168DA
:101CC0005FEA8171E2D481688907F2D5DEE700BF5F
:101CD0000024204603B0BDE8F08F00BF2068FF213C
:101CE0008DF809108168890709D4816889075CBF6C
:101CF00081685FEA817102D481688907F2D564271F
:101D00000DF1090102AA204601230097FFF7B2FA5C
:101D10002068FF218DF80B108168890709D481683C
:101D200089075CBF81685FEA817102D48168890795
:101D3000F2D56420009040F20060C2F200000DF184
:101D40000B010DF10A0201230124FFF793FA20464B
:101D500003B0BDE8F08F00002DE9F04F85B040F2F0
:101D6000EC0B40F2006A89468046C2F2000B4FF449
:101D7000FA70FF25C2F2000A64260DF1090702ACD1
:101D8000ABF80000DAF800008DF809508168890787
:101D90000AD4816889075CBF81685FEA817103D4D6
:101DA00081688907F2D500BF504639462246012393
:101DB0000096FFF75FFA9DF80800FF2806D0BBF8F1
:101DC00000000028DED1FF20EEE000BFDAF80000BE
:101DD0008DF80A808168890709D4816889075CBF0A
:101DE00081685FEA817102D481688907F2D50DF1BB
:101DF0000A01504601226423FFF750F9DAF8000087
:101E00004FEA19618DF80B108168890709D4816840
:101E100089075CBF81685FEA817102D481688907A4
:101E2000F2D50DF10B01504601226423FFF736F97C
:101E3000DAF800004FEA19418DF80C108168890723
:101E400009D4816889075CBF81685FEA817102D427
:101E500081688907F2D503A9504601226423FFF760
:101E60001DF9DAF800004FEA19218DF80D1081688C
:101E7000890709D4816889075CBF81685FEA81713D
:101E800002D481688907F2D50DF10D015046012277
:101E90006423FFF703F9DAF800008DF80E908168EB
:101EA000890709D4816889075CBF81685FEA81710D
:101EB00002D481688907F2D50DF10E015046012246
:101EC00064230124FFF7EAF8B8F1480F08BF6FF068
:101ED0007804B8F1400F08BF6FF06A04DAF8000028
:101EE0008DF80F408168890709D4816889075CBF34
:101EF00081685FEA817102D481688907F2D540F276
:101F00000065C2F200050DF10F012846012264238D
:101F10004FF06409FFF7C2F8B8F14C0F1CD12868E4
:101F2000FF218DF811108168890709D4816889071C
:101F30005CBF81685FEA817102D481688907F2D54C
:101F400040F200606427C2F200000DF1110104AA02
:101F500001230097FFF78EF90A274FF0FF080DF1D4
:101F600013040DF1120600BF28688DF813808168F4
:101F7000890709D4816889075CBF81685FEA81713C
:101F800002D481688907F2D52846214632460123CA
:101F9000CDF80090FFF76EF99DF91200B0F1FF3F08
:101FA00002DC013F3906DFD1C0B205B0BDE8F08FD9
:101FB0002DE9F04F85B040F2EC0A40F2006489460A
:101FC0008046C2F2000A4FF4FA704FF0FF0BC2F2E3
:101FD000000464260DF10A070DF10905AAF80000B6
:101FE00020688DF80AB08168890709D4816889075B
:101FF0005CBF81685FEA817102D481688907F2D58C
:10200000204639462A4601230096FFF733F99DF80A
:102010000900FF2804D0BAF800000028E0D11DE034
:1020200020688DF80B908168890709D48168890739
:102030005CBF81685FEA817102D481688907F2D54B
:1020400040F20064C2F200040DF10B0120460122AF
:102050006423FFF723F8B9F1FD0F03D1002005B089
:10206000BDE8F08F20688168890709D481688907F5
:102070005CBF81685FEA817102D481688907F2D50B
:10208000204641464FF400726423FFF707F82068AA
:10209000FF218DF80D108168890709D481688907AF
:1020A0005CBF81685FEA817102D481688907F2D5DB
:1020B00064270DF10D0103AA204601230097FFF7C5
:1020C000D9F82068FF218DF80F108168890709D49D
:1020D000816889075CBF81685FEA817102D4816889
:1020E0008907F2D54FF064080DF10F010DF10E02D2
:1020F00020460123CDF80080FFF7BCF800254FF003
:10210000FF0A0DF1110904AE20688DF811A0816855
:10211000890709D4816889075CBF81685FEA81719A
:1021200002D481688907F2D5204649463246012308
:10213000CDF80080FFF79EF89DF8100000F01F0713
:10214000052F03D0402D05F10105DDD34FF0FF0829
:102150004FF064090DF113050DF112060BE000BFFD
:102160002046294632460123CDF80090FFF782F839
:102170009DF8120080B920688DF813808168890766
:10218000EED4816889075CBF81685FEA8171E7D41A
:1021900081688907F2D5E3E7781FB0FA80F040093B
:1021A00005B0BDE8F08F000000281CBF012070477B
:1021B0002DE9F04784B040F20807C2F200073878F2
:1021C000800700F19F8140F60049C4F20109FFF742
:1021D00053FB4846012100220024FEF73BFB01206F
:1021E000FEF71AFA40200021FFF7B6FD40F2006A20
:1021F0000128C2F2000A40F0548140F2EA06C2F21D
:1022000000064FF47A70308048204FF4D571FFF704
:10221000A3FD012840F01281DAF80000FF218DF8BB
:102220000B108168890709D4816889075CBF8168C0
:102230005FEA817102D481688907F2D564240DF1C7
:102240000B010DF10A02504601230094FFF712F82A
:10225000DAF80000FF218DF80B108168890709D496
:10226000816889075CBF81685FEA817102D48168F7
:102270008907F2D564240DF10B010DF10A025046D5
:1022800001230094FEF7F6FFDAF80000FF218DF835
:102290000B108168890709D4816889075CBF816850
:1022A0005FEA817102D481688907F2D564240DF157
:1022B0000B010DF10A02504601230094FEF7DAFFEC
:1022C0009DF80A40DAF80000FF218DF80B108168B4
:1022D000890709D4816889075CBF81685FEA8171D9
:1022E00002D481688907F2D540F20068C2F2000882
:1022F00064250DF10B010DF10A0240460123009502
:10230000FEF7B8FF012C4FF0000440F0CA809DF8A2
:102310000A00AA2802D0C4E0308860B177200021EA
:10232000FFF71AFD0128F7D869204FF08041FFF729
:1023300013FD0028F0D13088002800F0B1807A2009
:1023400000210024FFF708FD002840F0AA80D8F8FB
:102350000000FF218DF80D108168890709D481687C
:1023600089075CBF81685FEA817102D4816889074F
:10237000F2D564260DF10D0103AA40460123009613
:10238000FEF778FF9DF80C40D8F80000FF218DF88B
:102390000D108168890709D4816889075CBF81684D
:1023A0005FEA817102D481688907F2D564260DF154
:1023B0000D0103AA404601230096FEF75BFFD8F803
:1023C0000000FF218DF80D108168890709D481680C
:1023D00089075CBF81685FEA817102D481688907DF
:1023E000F2D564260DF10D0103AA404601230096A3
:1023F000FEF740FFD8F80000FF218DF80D1081682E
:10240000890709D4816889075CBF81685FEA8171A7
:1024100002D481688907F2D540F200606426C2F2D6
:1024200000000DF10D0103AA01230096FEF722FF23
:1024300060064FF00C0458BF042432E077200021DE
:10244000FFF78AFC012805D869200021FFF784FCEA
:10245000012815D941200021FFF77EFC10B13088FA
:102460000028F7D101243088D0B150204FF40071FA
:10247000FFF772FC002818BF002412E0308858B122
:1024800077200021FFF768FC0128F7D86920002198
:10249000FFF762FC0028F1D1022430880028E4D143
:1024A000002440F2EE06C2F2000648460121012255
:1024B0003470FEF7CFF90120FEF7AEF8DAF800002D
:1024C000FF218DF80F108168890709D48168890779
:1024D0005CBF81685FEA817102D481688907F2D5A7
:1024E00040F200606425C2F200000DF10F010DF111
:1024F0000E0201230095FEF7BDFE3CB1387800F0D6
:10250000FE003870387804B0BDE8F08700207070A5
:10251000387804B0BDE8F0872DE9F04186B028B1E5
:102520000427384606B0BDE8F08100BF16460D46C8
:10253000052911D13078022848D0012852D000282E
:10254000EED140F2EE00C2F200000027477038469C
:1025500006B0BDE8F08100BF40F20800C2F2000002
:102560000078C0072CD140F60044C4F20104204694
:1025700001210022FEF76EF90120FEF74DF840F22E
:10258000006804270D2DC2F2000800F2F780DFE892
:1025900015F00F0031005300F500F500F500F500CF
:1025A000F500F500F500F500590067006F0000BF69
:1025B000FFF7EAFAB0F1FF0718BF0127DEE000BF1E
:1025C0000327384606B0BDE8F08100BF40F2EE00B8
:1025D000C2F20000407800277070384606B0BDE8AF
:1025E000F08100BFFFF748F90027384606B0BDE884
:1025F000F08100BF49200021FFF7AEFBB0BB0DF119
:1026000006001021FFF7FCFA80B39DF8060000F0E9
:10261000C000402840F0DE809DF80E009DF80F10AD
:10262000800440EA81204FF6004100F58060C0F24E
:10263000FF310840EDE000BF4FF40070308000270C
:102640009CE000BF49200021FFF786FB70B93046AF
:102650001021FFF7D5FAB0FA80F047098EE000BFED
:102660004A200021FFF778FB0028F0D0012785E001
:102670007A200021FFF770FB00287ED1D8F80000F7
:10268000FF218DF806108168890709D481688907C0
:102690005CBF81685FEA817102D481688907F2D5E5
:1026A00064270DF106010DF1170240460123009742
:1026B000FEF7E0FD9DF81700FF213070D8F800000C
:1026C0008DF806108168890709D4816889075CBF85
:1026D00081685FEA817102D481688907F2D5642735
:1026E0000DF106010DF11702404601230097FEF798
:1026F000C1FD9DF81700FF217070D8F800008DF81B
:1027000006108168890709D4816889075CBF8168E0
:102710005FEA817102D481688907F2D564270DF1DF
:1027200006010DF11702404601230097FEF7A2FDB6
:102730009DF81700FF21B070D8F800008DF8061042
:102740008168890709D4816889075CBF81685FEA6D
:10275000817102D481688907F2D540F20060642754
:10276000C2F200000DF106010DF1170201230097DE
:10277000FEF780FD9DF81700F07004272046012128
:102780000122FEF767F80120FDF746FFD8F80000A8
:10279000FF218DF817108168890709D4816889079E
:1027A0005CBF81685FEA817102D481688907F2D5D4
:1027B00040F200606426C2F200000DF117010DF135
:1027C000160201230096FEF755FD384606B0BDE817
:1027D000F08100BF9DF80B009DF8103000F00F0055
:1027E00000EBD3109DF80F309DF80E709DF80C1083
:1027F0009DF80D2003F0030300EB4300BB0901F03B
:10280000030143EA820242EA81210131073801FAD9
:1028100000F0306013E700002DE9F04182B04FF086
:10282000040780BB1D4673B340F20800C2F20000EB
:102830000078C00726D140F2EE00C2F20000007816
:1028400040F600481446C4F2010840070E4658BF3F
:102850005402404601210022FDF7FCFF0120FDF754
:10286000DBFE012D14D151202146FFF775FAA0B9E6
:1028700030464FF40071FFF7C3F9B0FA80F0470912
:1028800020E000BF0327384602B0BDE8F08100BF5A
:1028900052202146FFF760FA30B1012712E000BF55
:1028A000013D06F5007607D030464FF40071FFF782
:1028B000A7F90028F4D100E000254C200021FFF703
:1028C0004BFA2F46404601210122FDF7C3FF0120AC
:1028D000FDF7A2FE40F20060C2F200000068FF2196
:1028E0008DF807108168890709D4816889075CBF62
:1028F00081685FEA817102D481688907F2D540F26C
:1029000000606426C2F200000DF107010DF106021D
:1029100001230096FEF7AEFC002F18BF01273846B2
:1029200002B0BDE8F081000000281CBF0120704704
:1029300040F20800C2F20000007870472DE9F0472D
:1029400084B04FF00404B0BB1F46A3B340F20800AC
:10295000C2F200000E460178C9072BD1007840076B
:102960002ED440F2EE04C2F20004207840F6004873
:102970001546C4F20108400758BF550240460121E0
:102980000022FDF767FF0120FDF746FE40F20069D7
:10299000012FC2F2000919D158202946FFF7DCF9AE
:1029A00000285AD13046FE21FFF702FBB0FA80F032
:1029B000440953E00324204604B0BDE8F08700BF7B
:1029C0000224204604B0BDE8F08700BF20788007CD
:1029D00007D577200021FFF7BFF957203946FFF7C9
:1029E000BBF959202946FFF7B7F9B0BB3046FC21A7
:1029F000FFF7DEFA18B1013F06F50076F6D140F296
:102A0000EC0AC2F2000A4FF4FA70FF27642603AC06
:102A10000DF10B05AAF80000D9F800008DF80C7034
:102A2000816889070AD4816889075CBF81685FEA89
:102A3000817103D481688907F2D500BF48462146D9
:102A40002A4601230096FEF715FC9DF80B00FF288F
:102A500030D0BAF800000028DED101244046012120
:102A60000122FDF7F7FE0120FDF7D6FDD9F80000A1
:102A7000FF218DF80F108168890709D481688907C3
:102A80005CBF81685FEA817102D481688907F2D5F1
:102A900040F200606427C2F200000DF10F010DF159
:102AA0000E0201230097FEF7E5FB204604B0BDE8C7
:102AB000F08700BFD9F80000FD218DF80D10816866
:102AC000890709D4816889075CBF81685FEA8171E1
:102AD00002D481688907F2D540F20060C2F200009A
:102AE0000DF10D01012264230124FEF7D7FAB5E7A9
:102AF0002DE9F04182B01E4690460D460446FDF792
:102B0000AFFE301A00EB0807FDF7AAFE40F20C01F9
:102B1000C2F200010968C1F3CB3179430191216808
:102B20008A682A40AA4227D1064618F101001FD020
:102B3000FDF796FE801BB84222D201980199002829
:102B4000A1F1010101912168896808BF074601EAE6
:102B50000500A842ECD00FE088682840A8420BD1BD
:102B600088682840A84207D188682840A84203D135
:102B700088682840A842EFD0002002B0BDE8F0816C
:102B8000D4E900014268B1F5827F22F0E0024260A0
:102B90000AD1A168B1F5004F02D0B1F5806F03D121
:102BA000016821F040010160A16AB1F5005F07D121
:102BB000016821F400510160016841F40051016095
:102BC000012084F85100002084F85000032002B056
:102BD000BDE8F0817047000040F2E800C2F200005A
:102BE00001780131017001780A290ED300210170AA
:102BF000418811B14188013941808188002908BF8D
:102C0000FDF734BE818801398180FDF72FBE0000B9
:102C100041F20000C4F202000168002241F001010B
:102C200001604168CFF6FF021140416001684FF634
:102C3000FF72CFF6F66211400160016821F4802135
:102C40000160416821F4FE0141604FF41F01816081
:102C50004EF60850CEF200004FF000610160704760
:102C6000FFF7A2BAFFF758BCFFF7D6BDFFF75CBE6F
:102C7000FFF764BEFEE70000F0B581B00D460446E4
:102C800041B12046294602F069FA02280AD2012001
:102C900001B0F0BDD4F80C726FB1D4F814028742C1
:102CA00007D308E0411C1DD0D4F814122F468842E7
:102CB00031D3022F1AD2D4F8140203280ED30226DD
:102CC0002046314602F04AFA411C24D030B3012894
:102CD00021D0D4F8140201368642F1D3002001B08D
:102CE000F0BD00BF4FF0FF3001B0F0BD3E4600BF69
:102CF000D4F814020136864228BF02262046314607
:102D000002F02CFA411C06D040B1012803D0BE428B
:102D10004FF00000ECD101B0F0BD00BF20463146BD
:102D20006FF0704202F0A2FD014635B129B920468C
:102D30002946324602F09AFD014639B101200129A7
:102D400008BF4FF0FF3001B0F0BD00BFD4F8100253
:102D5000C4F80C62411C08D094F805120138C4F87C
:102D6000100241F0010084F80502304601B0F0BDC8
:102D70002DE9F0470446B0F80602471C38042FD06E
:102D8000D4F8100260B317F00F050BD0D4F800028E
:102D900000EB45100026C4F81402F0B2A4F8067245
:102DA000BDE8F0870E46D4F80C120130C4F81002CA
:102DB00081B1D4F8000290F80222013A12EA171FFA
:102DC000E6D102F0CBF902280ED20226F0B2BDE81D
:102DD000F08700BFD4F80002B0F808128F42D7D3B2
:102DE0000426F0B2BDE8F0878046013033D0D4F835
:102DF0000002D0F8141288450ED2A8F10209023957
:102E00008945C4F80C8266D290F80212D0F82822C4
:102E100009FB012160E000BF002EE1D0D4F80C12C4
:102E2000FFF72AFF8046013003280FD24FF6F871D2
:102E3000C0F2FF0101EAC00040F20171C0F20201DC
:102E400021FA00F6F0B2BDE8F08700BFD4F8000226
:102E500002F004FE20B10126F0B2BDE8F08700BF09
:102E6000D4F800024FF40071FDF7AFFAD4F8000275
:102E7000A8F10209D0F8141290F802328A1E914586
:102E800004D2D0F8282209FB032200E000224FF0F0
:102E9000000AC0F82C22ABB1012680F8046202F0CF
:102EA000DDFD0028CED1D4F800020AF1010AD0F8E5
:102EB0002C124A1C90F80212C0F82C228A45ECD33E
:102EC000D0F81412A2EB0A02C0F82C22023989456C
:102ED000C4F80C8298D30021C4F8101258E70000FF
:102EE000F0B581B0D0F810520446002D68D0D4F867
:102EF000000229460AE000BFD4F8000200EB4712A6
:102F00000029A4F80662C4F8142261D002F05CFC27
:102F100000286ED1D4F814120878002852D0C97A4B
:102F200001F03F020F2A18BF2E2835D1B4F806024F
:102F3000461C300448D0D4F81012002946D016F0B0
:102F40000F07D9D1D4F80C220131C4F810125AB3AA
:102F5000D4F8000290F80232013B13EA161FCDD1DB
:102F6000114602F0FBF802283ED3014601303DD065
:102F7000D4F80002D0F81432994239D28A1E023BAA
:102F80009A42C4F80C1217D290F80212D0F82832E4
:102F900002FB013111E000BFE528C7D001F01F009E
:102FA0000828C3D01CE000BFD4F80002B0F8082203
:102FB0009642A3D312E000BF0021C4F810129DE78F
:102FC000042016E0042014E0042012E0042010E0A5
:102FD0004FF000006DB101B0F0BD00BF042008E06B
:102FE000002001B0F0BD00BF022002E0012000E09F
:102FF00004200021C4F8101201B0F0BD10B500216A
:10300000044600F04BF890B9D4F80002D4F810123E
:1030100002F0DAFB58B9D4F81402007860B1E52860
:103020000AD020460121FFF7A3FE0028ECD0042897
:1030300008BF072000B110BDD4F80002D4F8101268
:1030400002F0C2FB002818BF10BDD4F814120020F3
:10305000C861886148610861C8608860486008602C
:10306000D4E985210B7813704B7853708B7893706B
:10307000CB78D3700B7913714B7953718B79937132
:10308000CB79D3710B7A13724B7A5372897A91721E
:10309000D4F80012012281F8042210BD70B5D0F8D6
:1030A0000822A0F80612012A4ED00446D0F80002E9
:1030B0000D46D0F814128A4246D29AB190F80232E4
:1030C000B5EB031F2AD2931E02398B423AD290F8F5
:1030D0000212D0F8286203FB0161C4F80C2299B9EE
:1030E00032E000BF90F80022032A03D1D0F8242256
:1030F000002AE3D1B0F80812A94225D9D0F8241249
:103100000022C4F80C22F9B105F00F0201EB1511F1
:1031100000EB4210C4E98410002070BD1E0100BF06
:10312000114602F01BF8024601300FD0022A0BD3E1
:10313000D4F80002D0F814128A4205D2AD1BB54271
:10314000EED2C0E7C4F80C22022070BD012070BD91
:1031500040F29811C2F200010A5C002A1CBF002054
:10316000704701230A180B5401EB80004168107A64
:103170000968084740F2981CC2F2000C0CEB80036F
:103180005B686044007A1B691847000080B540F214
:10319000981CC2F2000C0CEB800EDEF804E06044D8
:1031A000007ADEF808C0BDE88040604740F2981120
:1031B000C2F2000101EB800252680844007A5168B3
:1031C0000847000080B540F2981CC2F2000C0CEBDE
:1031D000800EDEF804E06044007ADEF80CC0BDE842
:1031E0008040604710B5044600F0D0FE002818BFAC
:1031F00010BD7CB3D4F8000260B390F8001249B35C
:10320000B0F80612B4F80422914223D190F80102DA
:10321000FFF7CCFFC0071DD1D4F8280201380128E0
:1032200084BF022010BD40F2F80100EB4000C2F262
:10323000000101EB8000418A21F48072002A18BF4E
:103240004A1E1104428204BF002181600020C4F89C
:10325000000210BD092010BD2DE9F04782B01546CF
:103260008846019001A91046002201F0CBF918B15F
:1032700002B0BDE8F08700BFD5F800A0DAE9847499
:10328000A01E874218D99AF8000201281AD10027F7
:10329000022605E00137DAF814020136864255D2DB
:1032A0005046314601F05AFF0028F3D0411C5BD054
:1032B0000128F0D102204AE00020C8F8007002B0D6
:1032C000BDE8F087DAF820920027022818D1002004
:1032D00000210CE009F101094FF40070514631F86A
:1032E000022B0238002A08BF0137013C2ED00028EB
:1032F000F5D15046494602F067FA0028EAD026E0A8
:103300000020002118E000BF09F101094FF400700E
:10331000514611F8042B043811F8026C11F8015CC5
:1033200011F8033C360465F31B6646EA0323D21802
:1033300008BF0137013C09D00028EAD15046494670
:1033400002F042FA0028DFD001E000BF00209AF826
:103350000512CAF8107241F001018AF80512C8F886
:10336000007002B0BDE8F0870120F0E72DE9F047DA
:1033700082B08046481E154620EAE07900240DF10F
:1033800006066F46C2464C451BD000BF2846314654
:1033900001223B4600F070FC0098012810D19DF8F6
:1033A00006000D28F2D00AF8010B0A2804F10104E6
:1033B000E9D100208AF80000404602B0BDE8F0875D
:1033C000A14600208AF80000B9F1000F08BFC846E6
:1033D000404602B0BDE8F0872DE9F047D0B1044681
:1033E000D0F80002B0B10D4690F8001291B1B0F8DB
:1033F0000612B4F8042291420CD190F80102FFF7B2
:10340000D5FEC00706D194F807623EB13046BDE84C
:10341000F08700BF0920BDE8F08700BFD4F8243250
:10342000B3B3681C44D0D4F80C02A84238BF054698
:10343000002DC4F8085200F075815F68D4F80002CE
:10344000A5F1010117B390F802224E0AB6FBF2F281
:103450002433BA42C0F0C28053F8186CB6B1D21B04
:10346000B242C0F0BD8053F8107C7FB1921BBA42CB
:10347000C0F0B88053F8086C46B1D21BB242C0F01D
:10348000B38053F8207B921B002FE2D10022AEE0E4
:10349000D4F80C02A8423DD294F8061289073AD516
:1034A000D4F8081204F502760020C4F808023DE0C2
:1034B0009A46D4F810025AF8048B0226F8B18146D5
:1034C000023600270546D4F80002294601F046FEE0
:1034D000012840F2E580411C00F07E80691C013724
:1034E00088420546EFD0464598BFEAE80279D4F80D
:1034F0000012D1F814128842E1D3D4F824324645A0
:103500001E608FBF11200026CAF800603046BDE85B
:10351000F08700BF2846D4F8081200260028C4F817
:1035200008623FF473AF04F502760546D4F8000252
:1035300090F802224FEA422739B16A1E0139B2FBE4
:10354000F7F2B1FBF7F39A4206D2D4F81012B9B3EE
:10355000C4F8141207E000BF78420840D4F81412EF
:10356000C4F808022D1A49B3BD4240F2818094F894
:103570000622D4F80002920704D401F0EFFD0146C0
:1035800005E000BFFFF778FB014600286ED0481C1D
:1035900022D00229C0F08480D4F80002D0F81402AE
:1035A000814280F07D80D4F80802ED1B3844BD4292
:1035B000C4F81412C4F80802D9D859E0306875E08C
:1035C0000021FFF759FB0146013005D0012967D0E2
:1035D000C4F81012BCE700BF012662E01C3B04E007
:1035E000143B02E00C3B00E0043B1B681A44D0F89B
:1035F0001472931E023FBB42C4F8142250D290F8BA
:103600000222D0F8287203FB0273002B48D0EF058A
:1036100000F08880013A02EA5121D4F81822CD182E
:10362000954200F07F8094F8061249060FD590F875
:103630000102214601230126FFF7C4FD88BB94F84F
:10364000060200F0BF01D4F8000284F8061290F8D8
:10365000010221462A4601230126FFF797FD00BB00
:103660000020C4F81852BDE8F08700BF00213D4695
:103670003068EA052844306018D0D4F800220239B6
:10368000D2F81432023B99420AD292F80232D2F8AE
:10369000282201FB032119B101EB552507E000BFEA
:1036A0000226304684F80762BDE8F0870025C10590
:1036B00028D0D4F81822954224D094F80602400667
:1036C00010D5D4F80002214690F80102012301260A
:1036D000FFF778FD0028E4D194F8060200F0BF005F
:1036E00084F80602D4F80002214690F801022A4626
:1036F00001230126FFF74AFD0028D2D1D4F80802A1
:10370000C4F81852D4F80C1288420BD994F8061257
:10371000C4F80C0241F02000002684F8060230466E
:10372000BDE8F0870020BDE8F087000010B582B04A
:103730000190009131B34FF0FF3E00BF01EB0E0C42
:103740009CF80130212B21D33A2B1FD09CF802305A
:10375000212B27D33A2B25D09CF80330212B39D3AA
:103760003A2B37D09CF804400EF1040EA4F13A0332
:10377000B3FA83F34FEA531C212C1AD33A2CDDD130
:1037800017E000BF0B21084602B010BD3A3BB3FA68
:1037900083F34FEA531C0EF1010EBCF1000F0BD165
:1037A00022E000BF3A3BB3FA83F34FEA531C0EF119
:1037B000020EBCF1000F17D00978A1F13003092BDC
:1037C00036D8BEF1010F4FF00B0108BF002BDAD144
:1037D0000AE000BF3A3BB3FA83F34FEA531C0EF101
:1037E000030EBCF1000FE7D140F2F803C2F2000370
:1037F000596861B19C688C4204BF00249C605C697C
:103800008C4204BF00245C61002481F80042002146
:1038100090B1012A80F800125860B4D101A869461D
:10382000002200F0EFFE0146084602B010BD00BFC6
:103830000B21084602B010BD5960084602B010BD09
:103840002DE9F04FADF50D7D8C9198B10446002027
:10385000C4F8000204A802F01E06154600F5007028
:103860008CA9324600F0CEFE50B10DF50D7DBDE8BD
:10387000F08F00BF09200DF50D7DBDE8F08F00BF72
:1038800001A88C998A9004A805F01F0A01F05CF940
:10389000DDF82492C0B11AF01C0F00F0A5800028BA
:1038A00000F0D980042866D140F2F800C2F200008E
:1038B000816800294ED0406900284BD012204AF080
:1038C000080A00285CD0E7E0B9F1000F36D040F2DA
:1038D000F80CC2F2000CDCF808208499869FBDF831
:1038E00016E25AB18A4209D1DCF80C30BB4205D14C
:1038F000BCF81030734501D100210FE0DCF8143022
:10390000002B00F0A5808B422ED1DCF81810B942B4
:103910002AD1BCF81C10714526D101213EB941EADB
:1039200041010CEB8101498AB1F5807FB3D11AF0D6
:103930001C0F4FF010001ED156E000BF1AF01C0FF4
:103940004FF0060050D04FF000094AF0080AB8B115
:10395000A2E000BF04A8FFF751FBDDF824924AF073
:10396000080A68B198E000BF002A71D01AF01C0F55
:103970004FF0120038D04AF0080A002840F08C803E
:103980001AF0080100F0888001F04EFCC9F80E0022
:10399000002089F80B00C9F81C00849DB9F81AB002
:1039A00095F80012032907D199F8151099F81420F9
:1039B0004BEA016141EA024BA9F81A00A9F8140088
:1039C0000120BBF1000F85F8040268D0BBF1010FA4
:1039D00000F0B080D5F81402584540F2AB80D5F81D
:1039E0002C825E4613E000BF00287FF43EAF99F8BA
:1039F0000B00C1063AD45FEA8A7150D510F001007D
:103A00002ED14CE0D5F814023E4687423CD22846DF
:103A1000314601F0A3FB0746013000F0BF809FB3A1
:103A2000012F00F0878028463146002201F01EFF5A
:103A300000287FF41AAFD5F810020130E2D295F8D1
:103A40000512C5F8100241F0010085F80502D9E71A
:103A50001AF01C0FCBD099F80B0010F0110F0BD0FF
:103A600007200DF50D7DBDE8F08F00BF04200DF59A
:103A70000D7DBDE8F08F00BF082000EA450000285A
:103A80003FF47EAF08E000BFABF10100C5F80C02C7
:103A90002846414601F098FE00287FF4E6AE40F249
:103AA000F8008499C2F200008268D1F82C328A4270
:103AB000C4F81C32C4F820920AD1C368869FBB4266
:103AC00006D1038ABDF81672BB4201D100221FE065
:103AD00047698F420AD18369869EB34206D1838BA0
:103AE000BDF81662B34201D1012211E04FF000038C
:103AF00012B1E7B9012200E0002242EA4207869EA5
:103B000000EB8707FE60BDF81662B9603E827B82DB
:103B100042EA42070AF0080300EB87004AEA8303FF
:103B200030F8127F022B01D201370BE047B10020A1
:103B3000C4F8280202200DF50D7DBDE8F08F00BF0E
:103B40004FF480770780501CC4F82802002084F8C6
:103B5000063284F8070291F80032B9F81A20032BD4
:103B600007D199F8153099F8147042EA036242EAD5
:103B70000742C4F81022D9F81C20C4F81802C4E97E
:103B80008202C4F82402C4F80012B1F80612A4F8A4
:103B900004120DF50D7DBDE8F08F00BF01200DF57D
:103BA0000D7DBDE8F08F00002DE9F04794B004785A
:103BB0006F460022002C07F10C0A0091CDE901228A
:103BC0003ED0451C00224FF00D090DF14C0807E0D6
:103BD0000298324601300196029015F8014B6CB301
:103BE0000A2C17D1002A15D4561CB8183C2A80F884
:103BF0000C900AD3009851463246434600F054FBDD
:103C00001398861B18BF4FF0FF36029832460130DA
:103C100001960290002AE0D4561CB8183C2A04737E
:103C2000D6D3009851463246434600F03DFB1398E8
:103C3000861B18BF4FF0FF36CAE700BF002A15D415
:103C4000009813AB514600F02FFB00284FF0FF30D7
:103C500002D014B0BDE8F0871399DDE901238A4250
:103C600008BF184614B0BDE8F08700BF4FF0FF3022
:103C700014B0BDE8F08700002DE9F04F81B0044694
:103C80000020186034B3D4F80002E8B1884690F8F8
:103C90000012C9B11646B0F80612B4F804229142D7
:103CA00012D190F801021D46FFF780FAC0070BD130
:103CB00094F807727FB994F80602C00710D107275D
:103CC000384601B0BDE8F08F0927384601B0BDE89D
:103CD000F08F00BF0927384601B0BDE8F08F00BF64
:103CE000D4E98210401AB04238BF0646002E00F0D8
:103CF0003781A4F1100A0DE00020D4F808122A68D8
:103D0000804401440244361A4FF00007C4F80812F8
:103D10002A60E0D00A466FF35F22BAB1C2F50070A4
:103D2000B04288BF30460028E6D0A31810F0030147
:103D3000A0F1010C18D01A4612F801EB47460129F0
:103D400007F801EB14D1614653E000BFD4F800023C
:103D500090F8023203F1FF0202EA51295FEA096298
:103D600010D0D4F8141276E01A464746014640E0D7
:103D70005A78022988F8012034D1811E9A1C08F152
:103D8000020736E0002949D0D4F82472002F49D028
:103D90007A68002A00F0EA80480AB0FBF3F007F1E5
:103DA0002401904244D351F8183C002B00F0DE80EF
:103DB000801A98423ED351F8102C002A00F0D68089
:103DC000C01A904238D351F8083C002B00F0CE8046
:103DD000801A984232D351F8202BC01A002AE0D121
:103DE000C4E000BFDA1C9B78C11E08F1030788F805
:103DF0000230BCF1030FFFF480AF043A3B1F00BF59
:103E000012F8047F043903F8047F57785F709778BD
:103E10009F70D778DF70F3D16FE700BFD4F810122E
:103E20000FE000BFD4F8141201F098F9014608E041
:103E30001C3904E0143902E00C3900E00439096847
:103E400001440229C0F09280481C00F09780D4F809
:103E50000002C4F81412D0F814328A1E991E8A4245
:103E600080F0848090F80212D0F8283202FB0133EF
:103E7000002B7BD05FFA89F25FEA562B03EB020935
:103E800046D002EB0B0390F801028B4288BFA1EBF6
:103E9000020B41464A465B46FFF778F900286DD190
:103EA00094F80602400630D5D4F81802A0EB0900B9
:103EB00058452AD208EB40206FF00F01524612F805
:103EC000107F43181F74577810315F749778B1F5DD
:103ED000F87F9F74D778DF7417791F7557795F75EE
:103EE00097799F75D779DF75177A1F76577A5F763E
:103EF000977A9F76D77ADF76177B1F77577B5F7726
:103F0000977B9F77D77BDF77D9D14FEA4B20F4E6B9
:103F1000D4F818224A451CD094F8061249060FD549
:103F200090F80102214601230127FFF74BF9F0B970
:103F300094F8060200F0BF01D4F8000284F80612DB
:103F400090F8010221464A4601230127FFF71EF996
:103F500068B9D4F80822C4F818926FF35F22DDE63E
:103F60000027384601B0BDE8F08F00BF022784F873
:103F70000772384601B0BDE8F08F00BF012784F812
:103F80000772384601B0BDE8F08F0000B0B5B8B395
:103F90000446D0F8000298B390F8001281B3B0F84C
:103FA0000612B4F8042291422AD190F80102FFF7D8
:103FB000FDF8C00724D194F8060281065CBF0020FA
:103FC000B0BD400611D5D4F80002D4F8182290F8FC
:103FD0000102214601230125FFF7F4F868B994F89E
:103FE000060200F0BF0084F80602D4F80002D4F8FC
:103FF0001C1201F0E9FB054620B12846B0BD00BF08
:104000000920B0BDD4F82052E87A40F02000E872D0
:10401000D4F80C022877D4F80C02000A6877B4F8B8
:104020000E02A87794F80F02E877D4F8100268839C
:10403000010C000E2975687501F0F6F8C5F8160038
:104040000020688294F80602012100F0DF0084F865
:104050000602D4F8000280F80412BDE8B04001F076
:1040600087BC00002DE9F041ADF58A6DCDF84C0418
:104070008BA800F500700DF24C41012200F0C2FA4D
:1040800040B96846DDF84C14CDF844048BA800F024
:104090005BFD18B10DF58A6DBDE8F08140F2F800C6
:1040A000C2F200008168DDF82C44DDF83464BDF80C
:1040B000325439B1A14205D1C168B14202D1018A5D
:1040C000A94209D0416969B1A1420BD18169B142CC
:1040D00008D1808BA84205D110200DF58A6DBDE86E
:1040E000F08100BFDDF8401471B3C87AC20731D146
:1040F00094F80022B1F81A80032A05D14A7D097D7F
:1041000048EA026242EA0148B8F1000F18BF10F015
:10411000100025D1012E00F08F80D4F814028642C1
:1041200080F08A80B6B394F80212B5EB011F6FD20B
:10413000B11E0238814280F07D8094F80202D4F8EA
:10414000282201FB002033E006200DF58A6DBDE832
:10415000F08100BF07200DF58A6DBDE8F08100BF3A
:1041600003AF8BA938464FF40872FCF7FCF83846C9
:104170000221CDF81482FEF791FF00287FF48AAF68
:1041800003A8FEF7ADFE002808BF07200428C1D011
:1041900080E700BF94F80012032903D1D4F8246209
:1041A000002EC0D1B4F80802A84245D9D4F82402A0
:1041B000002841D000EB15112046CDF83C1401F049
:1041C00003FB00287FF466AF05F00F0004EB4010FE
:1041D0000021C161C0F81910C0F81510C0F8111005
:1041E000C0F80D10C0F80910C0F80510C0F8011093
:1041F000E52101700120B8F1000F84F804024BD0D2
:10420000B8F1010F18D0D4F81402404514D91EE0BB
:104210000F012046314600F0A1FF0646013035D09F
:10422000022E09D3D4F81402864205D2ED1BBD42FA
:10423000EFD27DE7CDF8386402200DF58A6DBDE838
:10424000F08100BFD4F81402B046864224D2204642
:10425000414600F083FF0646013017D0E6B1012E3B
:10426000EAD020464146002201F000FB00287FF4FE
:1042700011AFD4F810020130E4D294F80512C4F85A
:10428000100241F0010084F80502DBE701200DF582
:104290008A6DBDE8F08100BF204601F069FB0DF595
:1042A0008A6DBDE8F08100002DE9F047044600204A
:1042B0001860BCB3D4F80002A0B38A4690F800128C
:1042C00081B31646B0F80612B4F80422914229D1FF
:1042D00090F801021D46FEF769FFC00722D194F84D
:1042E0000702002818BFBDE8F08794F8060280078F
:1042F0005CBF0720BDE8F087D4F80802721EC143F6
:104300008A4224D3D4F80C12884288BFC4F80C0225
:1043100094F8060240F0200084F806020020BDE870
:10432000F08700BF0920BDE8F08700BF94F80602BF
:1043300040F0400084F80602D4F808022A688A4453
:1043400008440A44761AC4F808022A60DAD0024601
:104350006FF35F22C2B1C2F50071B14288BF31462E
:104360000029E3D004EB020E11F00300A1F1010CCF
:1043700053461BD013F8018B7246012802F8018BBB
:1043800016D19646604658E0D4F8002292F8021200
:1043900001F1FF0303EA50285FEA086314D094F8A0
:1043A0000602400600F18F80A0E000BF084644E00E
:1043B0009AF8012002288EF8012035D1881E0AF1D2
:1043C00002030EF1020E38E000284BD0D4F824C2CC
:1043D000BCF1000F4CD0DCF80430002B92D0420A24
:1043E000B2FBF1F10CF1240C994247D35CF8182C84
:1043F000002A3FF487AFC91A914243D35CF8103CBE
:10440000002B3FF47FAF891A99423FD35CF8082C08
:10441000002A3FF477AFC91A91423BD35CF8203BA6
:10442000891A002BE0D16DE79AF80220C81E0AF124
:1044300003038EF802200EF1030EBCF1030FFFF40C
:1044400075AF043BAEF1040213F8047F043802F8A0
:10445000047F5F7857709F789770DF78D770F3D1BB
:1044600064E700BFD4F81002C0B91046002102E092
:10447000D4F814121046FEF7FFFB0FE0ACF11C005D
:104480000AE000BFACF1140006E000BFACF10C0084
:1044900002E000BFACF1040000680844411C00F0D9
:1044A000A780012800F09E80002800F0A780D4F8A3
:1044B0001012C4F81402002908BFC4F8100294F8BE
:1044C0000602400612D5D4F80002D4F8182290F85B
:1044D000010221460123FEF775FE002840F0888086
:1044E00094F8060200F0BF0084F80602D4F8000237
:1044F000D4F81412D0F814328A1E991E8A4271D24E
:1045000090F80212D0F8283202FB0133002B69D058
:104510005FFA88F25FEA562803EB02094AD002EB01
:10452000080390F801028B4288BFA1EB02085146B4
:104530004A464346FEF746FE002859D1D4F81802F1
:10454000A0EB0900404531D20AEB402010386FF053
:104550000F0100BF10F8103F621813744378103138
:1045600053748378B1F5F87F9374C378D374037967
:1045700013754379537583799375C379D375037A2A
:104580001376437A5376837A9376C37AD376037B12
:104590001377437B5377837B9377C37BD377D9D1CF
:1045A00094F8060200F0BF0084F806024FEA4821A2
:1045B000C2E600BFD4F8181249450BD0D4E98212E4
:1045C000914207D290F8010221464A460123FEF7A4
:1045D000DDFD68B9D4F80822C4F818926FF35F22A1
:1045E000B9E600BF022084F80702BDE8F08700BFEB
:1045F000012084F80702BDE8F08700BFD4F8080264
:1046000080E600002DE9F04385B0002303600B68CD
:1046100003B315464FF0FF37DA195678212E1BD316
:104620003A2E19D09678212E1ED33A2E1CD0D67849
:10463000212E21D33A2E1FD016790437A6F13A0243
:10464000B2FA82F25209212E01D33A2EE4D192B36A
:1046500019E000BF0B2221E0A6F13A02B2FA82F281
:10466000520901377AB926E0A6F13A02B2FA82F28B
:1046700052090237FAB106E0A6F13A02B2FA82F222
:1046800052090337BAB11A78A2F13006092E09D8B7
:10469000012F4FF00B0208BF002E09D0104605B0C5
:1046A000BDE8F0830B22104605B0BDE8F08300BFE3
:1046B000DA1901320A6040F2F806C2F200067468A4
:1046C00094B3046094F8000280B194F80102FEF7FC
:1046D0006DFDC1070AD140070A21002D18BF01EA6C
:1046E000E0752A46104605B0BDE8F0830020A4F826
:1046F00000020020FEF72CFDC1071BD1002D18BFC2
:1047000010F004001CD1002084F804024FF0FF30A8
:10471000C4F82C022046002101F056F8B0B1012265
:10472000104605B0BDE8F0830C22104605B0BDE888
:10473000F08300BF0322104605B0BDE8F08300BF40
:104740000A22104605B0BDE8F08300BFB4F8FE01B0
:104750004AF65521884240F0D68194F8371094F8F3
:10476000382094F83600090244F2461741EA024123
:10477000C0F254070844B8420CD094F8531094F88F
:10478000542094F85200090241EA02410844B84218
:1047900040F0A4800025B4F80B00B0F5007F40F095
:1047A000B281E08A002808BF606A237CC4F818023E
:1047B000591E012984F8033200F2A581627B511E43
:1047C0001140B2FA82F718BF01217F09394384F8FA
:1047D000022240F09881677CA17C47EA01213F07D3
:1047E000A4F8081240F08F81B4F81370002F08BFAE
:1047F000276AB4F80E90B9F1000F00F0848100FB35
:1048000003FC0CEB11134B449F42C0F07C81FF1A58
:104810009742C0F07881B7FBF2F240F6F5774FF09F
:104820000108BA424FF6F57788BF4FF00208BA4246
:104830004FF6F67788BF4FF00308BA4202F1020E36
:1048400005EB09072B44C4F814E2C4E98757C4F800
:104850002832C0F04381002940F0558140F2FF1218
:10486000E16A02EB8E02B0EB522FC4F82412C0F0C2
:104870004A814FF0FF30C4E98300208E8021012857
:1048800084F8051240F04B81691C204600F09CFF23
:10489000002840F04481B4F8FE114AF65522002069
:1048A000914284F8050240F03A81206845F2522195
:1048B000C4F26111884240F03281D4F8E40147F239
:1048C0007221C6F24111884240F02981D4F8EC01EE
:1048D000D4F8E811C4E9830121E100BF94F8C201D2
:1048E000002814BFD4F8C651002594F8D2010195D0
:1048F000002814BFD4F8D601002094F8E2110290E9
:10490000002914BFD4F8E601002094F8F2110390B6
:10491000002914BFD4F8F6010020049085B30020CC
:1049200084F804024FF0FF30C4F82C0220462946D8
:1049300000F04AFF10B1032023E000BFB4F8FE01ED
:104940004AF6552188421BD194F8371094F8382044
:1049500094F83600090241EA02410844B8423FF4A3
:104960001AAF94F8531094F8542094F852000902A6
:1049700041EA02410844C01B18BF012001E000BF0A
:10498000022000287AD0029D85B3002084F804021A
:104990004FF0FF30C4F82C022046294600F014FFE7
:1049A00010B1032023E000BFB4F8FE014AF6552100
:1049B00088421BD194F8371094F8382094F83600C8
:1049C000090241EA02410844B8423FF4E4AE94F8D7
:1049D000531094F8542094F85200090241EA02411D
:1049E0000844C01B18BF012001E000BF02200028BE
:1049F00044D0039D85B3002084F804024FF0FF30BB
:104A0000C4F82C022046294600F0DEFE10B1032037
:104A100023E000BFB4F8FE014AF6552188421BD1BD
:104A200094F8371094F8382094F83600090241EAD7
:104A300002410844B8423FF4AEAE94F8531094F8E3
:104A4000542094F85200090241EA02410844C01B74
:104A500018BF012001E000BF022078B1049DDDB342
:104A6000002084F804024FF0FF30C4F82C022046E6
:104A7000294600F0A9FE68B1032000E000200028CC
:104A80003FF489AE03283ED10122104605B0BDE8AF
:104A9000F08300BFB4F8FE014AF6552188421BD1CD
:104AA00094F8371094F8382094F83600090241EA57
:104AB00002410844B8423FF46EAE94F8531094F8A3
:104AC000542094F85200090241EA02410844C01BF4
:104AD00018BF0120D3E700BF0220D0E799B10EEB49
:104AE0004E0302F0010202EB5302B8F1020F08BFBD
:104AF0004FEA4E0202F2FF1207EB0C01B0EB522F0D
:104B0000C4F8241204D20D22104605B0BDE8F0838B
:104B10004FF0FF30C4E98300802084F8050230881C
:104B2000B168013084F800823080A142A4F8060206
:104B300004BF0020B06070690022A04208BF72610B
:104B4000104605B0BDE8F0832DE9F04F81B00D4669
:104B5000097804465C2903D02F2908BF013500E0FD
:104B600001350026C4F808622878202808D220469B
:104B70000021FEF793FAC4F8146201B0BDE8F08F8B
:104B800045F672594FF0203AC0F600094FF005087B
:104B900028785C2804D100BF013528785C28FBD038
:104BA0002F28F9D0D4F81812C1F807A0C1F804A032
:104BB000C1F800A02B78D8B22128C0F0AD824FF008
:104BC000000B0527D8B22E2800F07C802F2800F09B
:104BD00071805C2800F06E800D2F00F09D825EB227
:104BE000B6F1FF3F06DDD8B2A0F122065D2E0CD94A
:104BF00040E000BF484410F8803C4BF0030BD8B2B3
:104C0000A0F122065D2E00F235800620DFE806F0D6
:104C1000303232323232323230303032323232327C
:104C20003232323232323232303030303030323270
:104C30003232323232323232323232323232323254
:104C40003232323232323232323032303232323248
:104C50003232323232323232323232323232323234
:104C6000323232323232323232323032323000BFCD
:104C700083E700BFA3F14100C0B2192802D84BF06E
:104C8000020B07E0A3F16100C0B219289CBF4BF0F2
:104C9000010B203BC81900F8053CE81910F8043C4A
:104CA0000137D8B22128BFF48DAF043F012304207F
:104CB0004EE100BF052F00F02F82043F01230020AA
:104CC00046E100BF05EB070C1CF804EC4FEA8B0B28
:104CD0005FFA8EF3212BA7F1030603D200230420F1
:104CE000374635E12F2B4FF0000000F02F815C2B71
:104CF00000F02C812E2B00F00F824FFA8EF0B0F1D5
:104D0000FF3F05DC03EB090010F880EC4BF0030BD0
:104D10005FFA8EF0A0F122035D2B00F235800620B1
:104D2000DFE803F030323232323232323030303279
:104D3000323232323232323232323232303030305B
:104D40003030323232323232323232323232323247
:104D50003232323232323232323232323230323037
:104D60003232323232323232323232323232323223
:104D70003232323232323232323232323232303215
:104D8000323000BFF9E600BFAEF14100C0B21A28D0
:104D900002D24BF0020B08E0AEF16100C0B219285C
:104DA0009CBF4BF0010BAEF1200E81F808E01CF81F
:104DB00003ECBE1E5FFA8EF3212BFFF48FAF2F2B77
:104DC0004FF0000000F0C2805C2B00F0BF802E2B63
:104DD00000F0A2814FFA8EF0B0F1FF3F05DC03EB4B
:104DE000090010F880EC4BF0030B5FFA8EF0A0F195
:104DF00022035D2B00F234800620DFE803F02F3120
:104E00003131313131312F2F2F3131313131313198
:104E10003131313131312F2F2F2F2F2F313131318E
:104E20003131313131313131313131313131313172
:104E3000313131313131312F312F31313131313166
:104E40003131313131313131313131313131313152
:104E500031313131313131312F31312F8DE600BFD8
:104E6000AEF14100C0B21A2802D24BF0020B08E0AA
:104E7000AEF16100C0B219289CBF4BF0010BAEF13E
:104E8000200E81F809E01CF802EC7E1E5FFA8EF31A
:104E9000212BFFF423AF2F2B4FF0000000F05680A2
:104EA0005C2B00F053802E2B00F036814FFA8EF0F1
:104EB000B0F1FF3F05DC03EB090010F880EC4BF08C
:104EC000030B5FFA8EF0A0F122035D2B00F2348019
:104ED0000620DFE803F02F313131313131312F2F0E
:104EE0002F313131313131313131313131312F2FB8
:104EF0002F2F2F2F313131313131313131313131AA
:104F00003131313131313131313131313131312F93
:104F1000312F313131313131313131313131313183
:104F20003131313131313131313131313131313171
:104F30002F31312FFFF721BEAEF14100C0B21A2848
:104F400080F0CC804BF0020BD1E000BF374600234D
:104F50000A78E52A08BF81F80080002B18BF4FEAC5
:104F60008B0B0BF00302012A08BF10300BF00C0270
:104F7000042A08BF0830C87220460021FEF78EF8C8
:104F8000002840F0CD80D4F80002D4F8101200F0D0
:104F90001BFC002840F0C4803D440CE0D4F8000223
:104FA00000EB4612A4F80672C4F8142200F00CFCC0
:104FB000002840F0B580D4F814020378002B00F0EC
:104FC000B280C17A0A072DD4D4F818221778DB1BD7
:104FD00026D143785778DB1B22D183789778DB1B67
:104FE0001ED1C378D778DB1B1AD103791779DB1B65
:104FF00016D143795779DB1B12D183799779DB1B63
:105000000ED1C379D779DB1B0AD1037A177ADB1B60
:1050100006D1437A577ADB1B02D1837A977ADB1B5E
:10502000002B41D0B4F80602471C380400F07B8006
:10503000D4F81012002976D017F00F06AED1D4F8AC
:105040000C220131C4F8101212B3D4F8000290F807
:105050000232013B13EA171FA2D1114600F07EF87D
:1050600002286BD3014601306CD0D4F80002D0F88E
:105070001422914257D28B1E023A9342C4F80C126A
:105080000ED290F80212D0F8282203FB012108E08A
:10509000D4F80002B0F808229742FFF481AF42E052
:1050A0000021C4F810127BE7D27A52074ED4C90609
:1050B00050D5D4F8001291F80022418B032A05D173
:1050C000427D007D41EA026141EA0041C4F80812D4
:1050D00028785C287FF464ADFFF75EBDAEF1610017
:1050E000C0B219289CBF4BF0010BAEF1200E81F825
:1050F0000AE01CF8010CC3B2212B03D200230420C8
:1051000026E700BF2F2B4FF000003FF420AF5C2BB1
:105110004FF000033FF41CAF062001B0BDE8F08F54
:1051200004287FF42AADD4F81802C07A40074FF063
:10513000040058BF052001B0BDE8F08F022001B087
:10514000BDE8F08F012001B0BDE8F08F002001B074
:10515000BDE8F08F052001B0BDE8F08FF0B581B05B
:10516000022931D30446D0F814020D4688422BD9C7
:1051700094F8000203282BD0022843D0012823D121
:10518000D4F8200205EB550700EB5721204600F02C
:105190001BFB00283ED1D4F820027E1C6FF35F2752
:1051A000E75D00EB5621204600F00EFB90BB6FF34D
:1051B0005F26A05DEA0747EA002108466FF31F302B
:1051C00018BF080901B0F0BD012001B0F0BD00BF5B
:1051D000D4F8200200EBD511204600F0F5FAC8B94A
:1051E00005F07F0004EB80018B784A78C9781B04B6
:1051F00014F8200061F31B6343EA0221084401B064
:10520000F0BD00BFD4F8200200EB1521204600F0CD
:10521000DBFA18B14FF0FF3001B0F0BDE8B234F85E
:10522000100001B0F0BD00000020704790B0FBF707
:105230002BFB00254FF480300227CDE90705CDE98F
:105240000D704FF4E01001260F9006A8CDE90B5524
:10525000CDE9095506960A96FBF7B4FC0F20CDE977
:1052600001074FF48060CDE9040501A802210395F0
:10527000FBF7A0FB41F21800C4F20200016840F6FF
:10528000004441F0200101600168C4F2010401F012
:105290002001069106990168002241F00401016095
:1052A000016801F0040106910699016841F00801C6
:1052B00001600068012100F0080006900698204671
:1052C000FBF7C8FA06A92046CDE90666CDE90857DE
:1052D000FBF7B6F940F2006004F51051C2F200008D
:1052E0004FF482724FF40073102780E826000A21E1
:1052F000C0E90355C0E90553C761C0E90855C0E9D5
:105300000A51FBF739FE40F28808C2F2000804F5A2
:105310003050444644F81C0F4FF4E1300C21C8E9EA
:1053200008052046C8E90A55C8E90C15C8F83850E0
:10533000FCF708F9FCF78CFA4FF4FA70FBF76CF9FC
:1053400040F2D03045F6BE71C2F20000C0F6000156
:105350000122FEF7EBF90FF2E4320FF2044188F874
:105360000000002808BF1146204621224FF0FF33DD
:10537000FCF794F946F2050008F1040108F108026F
:10538000C0F60000FDF768FFD8F80800D0F8141246
:1053900090F802020239484300F0CDFB0026C3F624
:1053A000E0760022334600F0D9FB00F097FB40F294
:1053B0001815C2F200050246C8F80C000FF2C431FD
:1053C0002846FAF705FF2846FAF7AEFFC2B2204694
:1053D00029464FF0FF33FCF761F928468021FBF79F
:1053E00016F8D8E9011090F80202484300F0A3FB38
:1053F0000022334600F0B2FB00F070FB0246C8F812
:105400001000E7A12846FAF7E3FE2846FAF78CFFDA
:10541000C2B2204629464FF0FF33FCF73FF9284639
:105420008021FAF7F4FF40F2A416C2F2000645F616
:10543000F171C0F6000130461322FEF701FA88F838
:10544000000045F67670C0F600003146FEF7ACFB72
:105450003046FDF7C7FE88F8000050B945F60561F3
:1054600008F11C00C0F600012B224FF0FF33FCF7BF
:1054700015F945F6F171C0F6000130460122FEF73C
:10548000DFF9D6F80C1288F8000028463246FDF7FE
:105490006DFF08F11C0445F60A71C0F600012046B4
:1054A0003C224FF0FF33FCF7F9F82846FAF73CFFAF
:1054B000C2B2204629464FF0FF33FCF7EFF845F61D
:1054C0000261C0F60001204602224FF0FF3302279E
:1054D000FCF7E4F83046FDF785FE28468021FAF710
:1054E00096FF45F6FC71C0F6000130460A22FEF731
:1054F000A7F946F2080188F80000C0F60001284626
:105500005722FAF730FF00BFE85D70B1E819417823
:1055100041B1817841B1C07804370028F4D1013F0E
:1055200003E000BF013700E0023740F2A41540F26B
:105530001816C2F20005C2F2000608F1140328464C
:1055400031463A46FEF7B0FE45F69A6188F800000B
:10555000C0F60001204626224FF0FF33FCF79EF8EC
:105560002846FDF73FFE30468021FAF750FF45F60A
:10557000FC71C0F6000128460122FEF761F988F8A7
:10558000000048B945F64771C0F6000120462E22BA
:105590004FF0FF33FCF782F840F21817D5F80C22D1
:1055A00008F11806C2F20007284639463346FEF7CE
:1055B00063FB3846FAF7B8FEC2B2204639464FF0D0
:1055C000FF33FCF76BF845F60261C0F60001204698
:1055D00002224FF0FF33FCF761F82846FDF702FE88
:1055E00038468021FAF713FF45F6FC71C0F600013A
:1055F00028460322FEF724F9D5F80C1288F800009B
:105600002846FDF7E9FE88F8000048B945F6EB6149
:10561000C0F6000120461E224FF0FF33FCF73EF893
:1056200045F6C070C0F600002946FEF7BDFA88F8BE
:1056300000002846FDF7D6FD40F21817C2F2000719
:1056400038468021FAF7E3FE45F6FC71C0F600010A
:1056500028460122FEF7F4F8D5F80C2288F800005D
:10566000284639463346FEF707FB88F8000048B95C
:1056700045F6C161C0F60001204629224FF0FF33F4
:10568000FCF70CF840F21815C2F200052846FAF7AC
:105690004BFEC2B2204629464FF0FF33FBF7FEFF18
:1056A00045F60261C0F60001204602224FF0FF33AA
:1056B000FBF7F4FF40F2A410C2F20000FDF792FDE8
:1056C00028468021FAF7A3FE3CA0FEF7CBFC88F821
:1056D000000048B945F65461C0F600012046222278
:1056E0004FF0FF33FBF7DAFF45F6FB70C0F6000022
:1056F000FEF7B8FC88F8000048B945F67761C0F6B7
:105700000001204622224FF0FF33FBF7C7FF45F68A
:10571000BE71C0F6000100200122FEF707F888F8EC
:10572000000048B945F63161C0F60001204622224A
:105730004FF0FF33FBF7B2FFFEE700BF53442043B7
:10574000415244206D6F756E746564207375636398
:1057500065737366756C6C792E2E2E0A0A00000034
:105760004552524F5221212120696E206D6F756E76
:1057700074696E6720534420434152442E2E2E0AF2
:105780000A0000005344204341524420546F746186
:105790006C2053697A653A2009256C750A0000006F
:1057A0005344204341524420467265652053706142
:1057B00063653A2009256C750A0A00002F66696C3A
:1057C00065312E7478740000F0B581B0D0F82C6289
:1057D0008E4203D10027384601B0F0BD044690F850
:1057E00004020D4678B394F80102214632460123A3
:1057F0000127FDF7E7FC0028EDD1D4F82022D4F8EA
:105800001812B21A00208A4284F804021BD294F8BB
:105810000372022F17D394F801020E442146324638
:105820000123FDF7CFFC013F022F0CD3D4F818124F
:1058300094F801020E44214632460123FDF7C2FCD2
:10584000013F012FF2D894F8010221462A46012394
:10585000FDF79CFC074600281CBF4FF0FF350127D1
:10586000C4F82C52384601B0F0BD00002DE9F041DB
:10587000022921D30446D0F814020E4688421BD9CF
:1058800094F80002154603281AD0022836D00128C1
:1058900012D1D4F8200206EB560700EB5721204620
:1058A000FFF792FFD0BB07F1010816F001066FF376
:1058B0005F2735D1E8B238E00220BDE8F08100BFB3
:1058C000D4F8200200EBD6112046FFF77DFF002818
:1058D00018BFBDE8F08106F07F0004EB8001CA78B4
:1058E00004F8205002F0F002280A45EA02624870EB
:1058F000280C8870100EC8700BE000BFD4F820028E
:1059000000EB16212046FFF75FFF38B9F0B224F80C
:10591000105004F50170012101700020BDE8F081F4
:10592000E05D00F00F0065F30B10D4F82012E05595
:10593000012084F8040201EB58212046FFF744FFC0
:105940000028EBD104F501706FF35F2856B914F805
:105950000810C5F3032201F0F001114404F8081007
:10596000D9E700BFC5F3071104F80810D3E700001A
:1059700070B5044690F8040298B3D4F82C5294F809
:10598000010221462A4601230126FDF71BFC08B12E
:10599000304670BDD4F82022D4F81812AA1A00207C
:1059A0008A4284F804021CD294F80362022E18D3AF
:1059B00094F801020D4421462A460123FDF702FC1A
:1059C000013E022E0DD300BFD4F8181294F8010244
:1059D0000D4421462A460123FDF7F4FB013E012E2A
:1059E000F2D894F8000203282BD194F8050201287C
:1059F00027D1201D4FF4FD71FAF7E7FC4AF6552038
:105A0000A4F8FE0145F25220C4F26110206047F272
:105A10007220C6F24110C4F8E401D4E983100123D6
:105A2000C4F8E801D4F81C02C4F8EC11421C94F844
:105A300001022146C4F82C22FDF7C4FB002084F8A3
:105A4000050294F8010200210022FDF793FB0646AF
:105A5000002818BF0126304670BD0000F0B581B0A7
:105A6000044690F80402A8B3D4F82C5294F801022A
:105A700021462A4601230126FDF7A4FB38BBD4F8B2
:105A80002002D4F81812281A0026884284F80462EA
:105A90001DD294F80362022E1CD394F801020D4427
:105AA00021462A460123FDF78DFB771E0026022F93
:105AB0000DD300BFD4F8181294F801020D4421460A
:105AC0002A460123FDF77EFB013F012FF2D8304625
:105AD00001B0F0BD0026304601B0F0BD4FEA1153D1
