:020000040800F2
:10000000602A002091010008711800084D180008AE
:100010006D180008C5050008752C000800000000D8
:10002000000000000000000000000000D52B0008C8
:10003000C90500080000000075180008D92B000849
:10004000AB010008AB010008AB010008AB010008E0
:10005000AB010008AB010008AB010008AB010008D0
:10006000AB010008AB010008AB010008AB010008C0
:10007000AB010008AB010008AB010008AB010008B0
:10008000AB010008AB010008AB010008AB010008A0
:10009000AB010008AB010008AB010008AB01000890
:1000A000AB010008AB010008AB010008AB01000880
:1000B000AB010008AB010008AB010008AB01000870
:1000C000AB010008AB010008AB010008AB01000860
:1000D000AB010008AB010008AB010008AB01000850
:1000E000AB010008AB010008AB01000800F002F80A
:1000F00000F03FF80AA090E8000C82448344AAF183
:100100000107DA4501D100F034F8AFF2090EBAE880
:100110000F0013F0010F18BFFB1A43F0010318473B
:100120005473000074730000103A24BF78C878C17B
:10013000FAD8520724BF30C830C144BF04680C60ED
:10014000704700000023002400250026103A28BF35
:1001500078C1FBD8520728BF30C148BF0B60704739
:10016000752900F04980002070471FB51FBD10B5EC
:1001700010BD00F0ECF91146FFF7F7FF05F09CFF0A
:1001800000F00AFA03B4FFF7F2FF03BC00F012FA22
:100190000948804709480047FEE7FEE7FEE7FEE71B
:1001A000FEE7FEE7FEE7FEE7FEE7FEE70448054957
:1001B000054A064B70470000112C0008ED000008AE
:1001C00060240020602A0020602600206026002095
:1001D0000FB41CB5074B06AA7B44694600900598EE
:1001E00000F09DF90020694600F0ACF91CBC5DF8F8
:1001F00014FB0000690300002DE9F04106460024CD
:1002000010687529314616A510D0AFF3008000287C
:1002100002DA404213A507E031688A0701D512A52A
:1002200002E0490704D511A5012401E0AFF30080E5
:1002300000210A2206F1240709E0B0FBF2FCB0FB22
:10024000F2F302FB1C00303078541846491C002899
:10025000F3D123462A463046BDE8F04100F001B90B
:10026000000000002D0000002B0000002000000016
:100270002DE9F0410F460546002028622846E9682E
:10028000884770B3252805D0D5E901219047286A11
:10029000401CF2E7E9682846002688476C28044697
:1002A0000AD0682C08D04C2C35D06A2C31D0742C54
:1002B00031D07A2C2FD016E0E968064628468847C8
:1002C000B042044608D16C2E23D04FF480662846F5
:1002D000E9688847044606E06C2E03D04FF4807628
:1002E00001E01EE04026E4B1A4F14100192802D843
:1002F000203446F400663A46214628462E60FFF731
:100300002FFF60B1012808D0FF1D27F0070708372D
:10031000B4E78026DBE70026D9E73F1DAEE720469D
:10032000B2E7286ABDE8F08110B5431C02E010F87E
:10033000011B71B18107FAD14FF0013202C88C1A4A
:100340008C4314EAC211F9D0C01A0A0603D0C01EA9
:1003500010BDC01A10BD0A0401D0801E10BD0902D4
:10036000FCD0401E10BD10B5203AC0F00B80B1E8A3
:100370001850A0E81850B1E81850A0E81850203ADA
:10038000BFF4F5AF5FEA027C24BFB1E81850A0E8E3
:10039000185044BF18C918C0BDE810405FEA827CFD
:1003A00024BF51F8043B40F8043B08BF7047D20714
:1003B00028BF31F8023B48BF11F8012B28BF20F8B5
:1003C000023B48BF00F8012B70474FF000020429A0
:1003D000C0F0128010F0030C00F01B80CCF1040C74
:1003E000BCF1020F18BF00F8012BA8BF20F8022BA8
:1003F000A1EB0C0100F00DB85FEAC17C24BF00F84E
:10040000012B00F8012B48BF00F8012B70474FF07B
:10041000000200B5134694469646203922BFA0E854
:100420000C50A0E80C50B1F12001BFF4F7AF090760
:1004300028BFA0E80C5048BF0CC05DF804EB890051
:1004400028BF40F8042B08BF704748BF20F8022B94
:1004500011F0804F18BF00F8012B704770477047AC
:1004600070472DE9F0470D4699469246044600F143
:1004700024080168880604D5E06921F01001216094
:1004800000E00120A84201DD471B00E00027A16930
:100490007A1902EB0900081AA0612078C00602D47C
:1004A0002046AFF30080002608E0D4E901211AF8C5
:1004B00006009047206A401C761C20624E45F4DB03
:1004C0002078C0060AD52046AFF3008006E0D4E9C4
:1004D000012130209047206A401C2062381EA7F17D
:1004E0000107F4DC07E0D4E9012118F80500904782
:1004F000206A401C2062281EA5F10105F3DC20467D
:10050000AFF300802078000602D50220BDE8F08716
:100510000120FBE701694A1C02610878704700B5B9
:100520008FB0CDE901310021059105497944CDE92C
:10053000031011466846FFF79BFE0FB000BD000098
:10054000E5FFFFFF0A6802F8010B0A607047754675
:1005500000F02CF8AE4605006946534620F007002F
:10056000854618B020B5FFF721FEBDE820404FF0CA
:1005700000064FF000074FF000084FF0000BAC46AC
:10058000ACE8C009ACE8C009ACE8C009ACE8C009F7
:1005900021F007018D46704710B50446AFF3008087
:1005A0002046BDE81040FFF7EDBD00000048704751
:1005B0002800002001491820ABBEFEE726000200FB
:1005C00070470000FEE700007047000080B540F271
:1005D0009833C2F200035A7A012A84BF012080BDF9
:1005E00093F809C08646002003F80C005A7A03EB02
:1005F0008202C2F804E05A7A1A44107293F809C0D1
:100600000CF101025A720CF130020A7042F63A7291
:10061000A1F80120C87080BDB0B5044600F020F9F3
:10062000054640F20000C2F200000078611C18BFCD
:10063000044400BF00F014F9401BA042FAD3B0BD3F
:100640002DE9F04F82B041F20042C4F201020E687F
:100650000423904208BF0323002E009300F0F6808D
:1006600040F20C4E4FF6FF7CC4F2010E0022012432
:10067000C1F2100C4FF0000A4FF0000943E000BF38
:10068000012502F00C040F27A7402BEA070705FA03
:1006900004F43C4343F82640D1F804B040F200454E
:1006A000C4F201055FEACB332B6854BF23EA080389
:1006B00043EA08032B606B685FEA8B3454BF23EA7C
:1006C000080343EA08036B605FEACB24AB6854BFBE
:1006D00023EA080343EA08035FEA8B24AB60DEF8F1
:1006E00000304FF0010454BF23EA080343EA080333
:1006F000CEF800300E680AF1010A36FA0AF302F168
:10070000040200F0A38004FA0AF816EA080FF1D0F8
:100710004B68634512DC122B56D8DFE803F0350B2B
:100720004549555555555555555555555555554D9D
:10073000510000BFD1F80C9046E000BF4FF6FF77A4
:10074000C1F22107BB420FDC0027C1F21107BB42F7
:100750001AD00027C1F21207BB4215D00027C1F200
:100760002107BB4210D02FE00027C1F22207BB4275
:100770000AD00027C1F23107BB4205D00027C1F2E1
:100780003207BB4220D100BF8B684BB1012B14BF95
:10079000C0F81480C0F810804FF0080914E000BFC2
:1007A0004FF0040910E000BFCB6803F108090BE02B
:1007B0004FF0000908E000BFCB6803F1040903E033
:1007C000CB6803F10C0900BF13460546BAF1080FC8
:1007D00024BF203B04352E680F279F40BE4309FAF3
:1007E00003F333432B60CB79DB067FF583AF41F214
:1007F0001804C4F2020423684FEA9A0643F0010386
:100800002360236840F6000403F001030193019B79
:1008100040F20043C4F20103A3F57E7353F826B0FF
:10082000C4F20104A0420FD040F60044C4F2010417
:10083000A0423FF425AF41F20004C4F20104009D40
:10084000A04208BF02251CE700251AE702B0BDE858
:10085000F08F0000002A08BF090401617047000002
:1008600042F25840C2F200000068704740F20000B7
:1008700042F25841C2F20000C2F2000100780A6858
:10088000104408607047000080B542F20000C4F2D6
:100890000200016841F010010160032000F07AF8C5
:1008A000002000F005F800F027F8002080BD0000CF
:1008B00070B540F20006C2F2000640F20C01327838
:1008C000C2F200014FF47A730968B3FBF2F20446F6
:1008D000B1FBF2F1084600F01FFE0F2C4FF00105AE
:1008E00008D838B94FF0FF3021460022002500F02B
:1008F00025F87460284670BD82B041F21800C4F239
:1009000002000168022241F001010160016801F06A
:10091000010101910199416841F0805141604068B5
:1009200000F08050009000980420C4F2010001689B
:1009300062F31A61016002B07047000010B54EF614
:100940000C5CCEF2000CDCF80030C3F3022E8EF00B
:100950000704042C28BF0424BEF103034FF0FF3E1C
:100960000EFA04F438BF0023A14399400EFA03F3B2
:100970009A43114300F00F02043A624409010C3219
:1009800000F16043B0F1FF3FC8BF03F5644211704E
:1009900010BD00004EF60C51CEF200010A684FF671
:1009A000FF031A4060F30A2242F0806040F0FD70BD
:1009B000086070472DE9F04381B0002800F0858081
:1009C00042F20008C4F202080446D8F800000D46BE
:1009D00000F0070088420CD2D8F8000020F0070091
:1009E0002843C8F80000D8F8000000F00700A8422B
:1009F0006BD1206841F204098107C4F2020917D5BE
:100A0000410705D5D9F8001041F4E061C9F800109C
:100A1000010705D5D9F8001041F46051C9F800105C
:100A2000D9F80010A26821F0F0011143C9F80010B4
:100A3000C00741D1D8F8000000F00700A8420CD947
:100A4000D8F8000020F007002843C8F80000D8F8C4
:100A5000000000F00700A84237D12068410707D501
:100A6000D9F80010E26821F4E0611143C9F80010E0
:100A7000000708D5D9F80000216920F4605040EA49
:100A8000C100C9F80000D9F8002002F00C000828C5
:100A900041F20020C0F27A0050D146F64663C2F31C
:100AA0008341C0F60003595CD2033BD440F60010EA
:100AB000C0F23D00484341E0606802280AD00128A6
:100AC0002AD159F8041C890308D4012001B0BDE8DB
:100AD000F08300BF59F8041C8901F6D5D9F800103D
:100AE00021F003010843C9F80000FFF7B9FE0646EC
:100AF00041F28837D9F80000616800F00C00B0EBD3
:100B0000810F97D0FFF7ACFE801BB842F2D90320CB
:100B100001B0BDE8F08300BF59F8041C8907D4D5A3
:100B2000DCE700BFD9F8002046F6AC43C2F34042F0
:100B3000C0F600039A5C4843B0FBF2F0D9F800100D
:100B400046F6AE42C1F30311C0F60002515C40F21A
:100B50000C0220FA01F140F20400C2F20000006829
:100B6000C2F200021160FFF7A3FE002001B0BDE851
:100B7000F083000040F20C0041F20401C2F20000D8
:100B8000C4F202010068096846F6BE42C1F30221C0
:100B9000C0F60002515CC8407047000040F20C00F3
:100BA00041F20401C2F20000C4F2020100680968C7
:100BB00046F6BE42C1F3C221C0F60002515CC840F5
:100BC000704700002DE9F04182B0002868D004464B
:100BD000007841F20006C007C4F2020625D0706812
:100BE00000F00C0004281BD0706800F00C000828EE
:100BF00002D17068C00313D46068002800F06881D7
:100C0000B0F5A02F00F07C81B0F5803F00F07C8132
:100C1000306820F480303060306820F4802076E145
:100C20003068800301D56068D0B32078800718D57C
:100C3000706810F00C0F07D0706800F00C000828E6
:100C40006ED17068C0036BD43068800702D520690C
:100C5000012825D13068616920F0F80040EAC10020
:100C60003060207800071FD42078400732D4E5692F
:100C700095B1706800F00C00082840F08F80012DBD
:100C80000ED07068216A00F480328A4208D1616A0D
:100C900000F47010884203D1002002B0BDE8F0815A
:100CA000012002B0BDE8F081A069002862D00020D8
:100CB000C4F242200121C0F88014FFF7D1FD05469F
:100CC000706A800700F18C80FFF7CAFD401B022884
:100CD000F6D92AE1F06910F0805808D1F06940F0A7
:100CE0008050F061F06900F080500090009847F269
:100CF0000007C4F200073868C00529D4386840F4FA
:100D000080703860FFF7ACFD054600BF3868C0054D
:100D10001ED4FFF7A5FD401B6428F7D905E100BFED
:100D20002069002840F20000C4F2422000F08280D6
:100D300001210160FFF794FD054600BF3068800780
:100D40003FF588AFFFF78CFD401B0228F6D9ECE099
:100D5000E068002800F08080052800F097800128D6
:100D600000F09880306A20F001003062306A20F094
:100D7000040092E00020C4F242200021C0F8801458
:100D8000FFF76EFD054600BF706A80077FF56CAF08
:100D9000FFF766FD401B0228F6D9C6E00027C4F223
:100DA000422700203866FFF75BFD022D05460BD178
:100DB0003068800140F1BE80FFF752FD401B0228E1
:100DC0004FF00300F4D968E7306880017FF564AF25
:100DD000FFF746FD401B02284FF00300F4D95CE703
:100DE00040F20C00C2F20000006844F6D351C1F298
:100DF0006201A0FB0101480A019000BF00BF0198F9
:100E0000411E002801913FF42FAF00BF0198411E01
:100E1000002801913FF428AF00BF0198411E00282F
:100E200001913FF421AF00BF0198411E00280191BC
:100E3000E4D119E700210160FFF712FD054600BF6C
:100E4000306880077FF50DAFFFF70AFD401B0228D1
:100E50004FF00300F4D920E7306A20F0010030623F
:100E6000306A20F004003062FFF7FAFC054641F2D8
:100E7000883700BF306A800720D5FFF7F1FC401BA0
:100E8000B8424FF00300F5D907E700BF306A40F0E1
:100E900004003062306A40F001003062FFF7E0FC8D
:100EA000054641F2883700BF306A800706D4FFF755
:100EB000D7FC401BB842F7D937E000BFB8F1000FAC
:100EC0007FF4D5AEF06920F08050F061CFE600BF2E
:100ED000306820F480303060306820F4802030604A
:100EE000FFF7BEFC054600BF306880037FF59DAE6E
:100EF000FFF7B6FC401B64284FF00300F4D9CCE6A2
:100F0000306840F480203060306840F480303060D9
:100F1000FFF7A6FC054600BF306880033FF585AEAD
:100F2000FFF79EFC401B6428F6D9032002B0BDE801
:100F3000F08100BF206AB0F5803F05D17168A268DA
:100F400021F40031114371607168626A21F47411F7
:100F500010430843706001203866FFF781FC0446A7
:100F6000306880013FF598AEFFF77AFC001B02283D
:100F70004FF00300F4D990E670B538B10446406AEA
:100F800030B10020206104F1140007E0012070BDA1
:100F90006068B0F5827F03D004F11C00002101607D
:100FA0000026A66294F8510020B9204684F85060CB
:100FB00000F038F8022084F8510094E8071001F49A
:100FC0008271036802F4044223F040030360236942
:100FD00011440CF40062114403F0020263691144ED
:100FE00003F00102A369E569114403F4007211449E
:100FF00005F03802256A114405F08002A56A114304
:1010000005F4005211430160042101EA13414160DB
:10101000C16921F40061C1610120666584F8510055
:10102000304670BD70B586B040F60004C4F20104CD
:10103000006804F5205100268842049602D006B0CC
:1010400070BD00BF41F21800C4F20200016802AD99
:1010500041F480510160016801F4805101910199CE
:10106000016841F0040101600068294600F00400B5
:1010700001900198A0200290022003900320059087
:101080002046FFF7DDFA4020CDE90206204629463A
:101090000496FFF7D5FA06B070BD00002DE9F043C5
:1010A00081B0044690F85000012803D1022001B01D
:1010B000BDE8F0834FF001091D4616460F4684F83F
:1010C0005090FFF7CDFB94F85110012972D1804662
:1010D000002F4FF0010018BF002E00F0C280032047
:1010E000002184F8510061652763A686E686A16326
:1010F000A187E187A0682164B0F5004F2068616492
:1011000007D1016821F040010160016841F480418C
:1011100001600168490603D4016841F040010160A3
:101120006168731EE268B1FA81F1B3FA83F3490989
:101130005B09B2F5006F41EA03013DD131B137F8E7
:10114000021BC1602763E18E0139E186E18E00292F
:101150006CD0691C1BD000BF8168890706D4FFF7DB
:101160007FFBA0EB0800A84208D348E0216B31F8D0
:10117000022BC2602163E08E0138E086E08E0028F9
:1011800054D0206881688907E9D5EFE72068816835
:10119000890703D4FFF764FB08E000BF216B31F837
:1011A000022BC2602163E08E0138E086E08E0028C9
:1011B000ECD13BE0022054E039B139780173206B67
:1011C00001302063E08E0138E086E08E70B3681C49
:1011D0000BD11BE0216B09780173206B0130206378
:1011E000E08E0138E086E08E00B3206881688907D0
:1011F000F0D4FFF735FBA0EB0800A842F3D303209F
:101200002FE000BFFFF72CFBE08E78B120688168EB
:101210008907F7D5216B09780173206B01302063B2
:10122000E08E0138E086E08E0028EFD12046802154
:101230002A46434601F05CFC28B1606D40F0200076
:10124000606520206065A06838B9002000902068A3
:10125000C1680091806800900098606D002818BFF8
:101260000120002184F8519084F8501001B0BDE8AD
:10127000F08300002DE9F04381B0044690F850005F
:10128000012803D1022001B0BDE8F08301201E46F1
:1012900015460F4684F85000FFF7E2FA94F8511013
:1012A000814601290CD06068B0F5827F40F0A080B3
:1012B000A06800284FF0020008BF042940F0998080
:1012C000002F4FF0010018BF002D00F09280002E7B
:1012D00000F08F8094F85100002104281CBF0520E5
:1012E00084F851006165A563E687A6872763E686D3
:1012F0002068A686216461640168490603D40168F8
:1013000041F0400101606168731EE268B1FA81F149
:10131000B3FA83F3DDF8208049095B09B2F5006F69
:1013200041EA03016ED131B137F8021BC160276376
:10133000E08E0138E086012518F1010031D101E08D
:10134000FFF78EFAE08E18B9E08F002800F0C28017
:101350002068816889070CD5E18E51B1012D08D133
:10136000216B002531F8022BC2602163E18E013927
:10137000E1868168C907E3D0E18F0029E0D0C06829
:10138000A16B012521F8020BA163E08F0138E087F2
:10139000D6E700BFFFF764FAA0EB0900404580F0F4
:1013A000A980E08E18B9E08F002800F093802068B3
:1013B000816889070CD5E18E51B1012D08D1216BCF
:1013C000002531F8022BC2602163E18E0139E186EC
:1013D0008168C907DED0E18F0029DBD0C068A16B2E
:1013E000012521F8020BA163E08F0138E087D1E7E6
:1013F0000220012184F85110002184F8501001B01E
:10140000BDE8F08339B139780173206B0130206376
:10141000E08E0138E086012518F1010032D101E0AB
:10142000FFF71EFAE08E10B9E08F002852D0206836
:10143000816889070ED5E18E61B1012D0AD1216B3A
:10144000002509780173216B206801312163E18E49
:101450000139E1868168C907E2D0E18F0029DFD038
:10146000C068A16B01250870A06B0130A063E08FFC
:101470000138E087D4E700BFFFF7F2F9A0EB0900DD
:10148000404539D2E08E08B9E08F18B320688168F2
:1014900089070ED5E18E61B1012D0AD1216B00259E
:1014A00009780173216B206801312163E18E0139D4
:1014B000E1868168C907DFD0E18F0029DCD0C068F0
:1014C000A16B01250870A06B0130A063E08F01388B
:1014D000E087D1E72046802142464B4601F008FBD9
:1014E00060B1606D40F020006065202060650120E3
:1014F0007FE700BF03207CE703207AE7A06800288D
:101500004FF000007FF475AF00902168CA68009228
:101510008968009100996CE7411E0020B0EB116FC3
:101520001CBF012070474EF21002CEF20002516043
:101530004EF62351CEF20001F0230B70072190608C
:1015400011607047002804BF0120704710B50446A1
:1015500090F83D0028B9002084F83C00204600F0B7
:101560005FF8242084F83D002068D4E90212C368A3
:1015700023F40053C360036923F440531A43026108
:10158000D4E904231143C268194341F20C639A431E
:101590001143C1604169A26921F44071114343F6CE
:1015A0000002C4F201029042416103D0FFF7E2FA67
:1015B00002E000BFFFF7F2FA626819214843910088
:1015C000B0FBF1F048F21F51C5F2EB11A0FB012373
:1015D0005A096FF0630302FB0300322303EB001090
:1015E000A0FB0101F02303EA5113206803EB021270
:1015F000C1F3431111448160016921F490410161FB
:10160000416921F02A014161C16841F40051C16082
:1016100000202021206484F83D1084F83E1010BD85
:1016200070B586B040F60004C4F20104006804F509
:10163000405100268842049602D006B070BD00BF1B
:1016400041F21800C4F20200016802AD41F4804189
:101650000160016801F4804101910199016841F044
:10166000040101600068294600F00400019001981F
:101670004FF4007002900220039003200590204652
:10168000FEF7DEFF4FF48060CDE9020620462946D2
:101690000496FEF7D5FF06B070BD00002DE9F043BB
:1016A00081B0044690F83D0020280DD10F46002956
:1016B0004FF0010000F092801646002A00F08E8064
:1016C00094F83C00012803D1022001B0BDE8F0836A
:1016D000012084F83C004FF0000921201D46C4F889
:1016E000409084F83D00FFF7BBF8A684E684A1682B
:1016F0008046B1F5805F25D1206900281CBF38469F
:101700004F463E46074684F83C90E08C00B3681C88
:1017100020D0002D66D120680BE000BF36F8021BF8
:1017200000276FF35F214160E18C0139E184E18C96
:1017300081B30168090675D5002FEFD017F8011B9A
:10174000F1E700BF002684F83C90E08C0028DED151
:1017500020681FE0206802E00168090609D40168DA
:10176000090606D4016809065CBF01685FEA0161E9
:10177000F2D51FB117F8011B05E000BF36F8021BB8
:1017800000276FF35F214160E18C0139E184E18C36
:101790000029E4D1016849061CD4002D42D0691CFF
:1017A0000ED10168490615D4016849065CBF01687D
:1017B0005FEA41610ED401684906F2D50AE000BF34
:1017C000FFF74EF8A0EB08012068A9422AD800686C
:1017D0004006F5D5202084F83D00002001B0BDE88A
:1017E000F08300BF206800BF0168090608D4FFF736
:1017F00037F8A0EB08012068A942F5D912E000BF34
:1018000017B117F8011B04E036F8021B00276FF32D
:101810005F214160E18C0139E184E18C0029E3D151
:10182000B8E700BFC16821F4D071C160416921F0FF
:1018300001014161202084F83D0084F83E00002031
:1018400084F83C00032001B0BDE8F083FEE700000F
:1018500010B540F2F204C2F2000440F21000611C24
:10186000C2F20000FEF7B2FE207010BDFEE70000DD
:1018700070470000704700002DE9F04F85B040F63A
:101880000048C4F20108404601210122FEF7E2FFB0
:101890000120FEF7C1FE42F20049C2F20009D9F868
:1018A0000000FF218DF810108168890709D4816834
:1018B00089075CBF81685FEA817102D4816889070A
:1018C000F2D504A9484601226423FFF7E7FBD9F8C3
:1018D0000000FF218DF810108168890709D4816804
:1018E00089075CBF81685FEA817102D481688907DA
:1018F000F2D504A9484601226423FFF7CFFBD9F8AB
:101900000000FF218DF810108168890709D48168D3
:1019100089075CBF81685FEA817102D481688907A9
:10192000F2D504A9484601226423FFF7B7FBD9F892
:101930000000FF218DF810108168890709D48168A3
:1019400089075CBF81685FEA817102D48168890779
:10195000F2D504A9484601226423FFF79FFBD9F87A
:101960000000FF218DF810108168890709D4816873
:1019700089075CBF81685FEA817102D48168890749
:10198000F2D504A9484601226423FFF787FBD9F862
:101990000000FF218DF810108168890709D4816843
:1019A00089075CBF81685FEA817102D48168890719
:1019B000F2D504A9484601226423FFF76FFBD9F84A
:1019C0000000FF218DF810108168890709D4816813
:1019D00089075CBF81685FEA817102D481688907E9
:1019E000F2D504A9484601226423FFF757FBD9F832
:1019F0000000FF218DF810108168890709D48168E3
:101A000089075CBF81685FEA817102D481688907B8
:101A1000F2D504A9484601226423FFF73FFBD9F819
:101A20000000FF218DF810108168890709D48168B2
:101A300089075CBF81685FEA817102D48168890788
:101A4000F2D504A9484601226423FFF727FBD9F801
:101A50000000FF218DF810108168890709D4816882
:101A600089075CBF81685FEA817102D48168890758
:101A7000F2D504A9484601226423FFF70FFB404634
:101A8000012100220024FEF7E5FE0120FEF7C4FD3F
:101A900040208DF80A00D9F800009521CDF80B40C0
:101AA0008DF80F108168890709D4816889075CBFA8
:101AB00081685FEA817102D481688907F2D50DF1EE
:101AC0000A014846062264234FF0640AFFF7E6FA4B
:101AD00041F6FF754FF0FF0B0DF112060DF11107E6
:101AE000002410E0484631463A460123CDF800A0D4
:101AF000FFF7C0FB9DF81110013D44F100000129E2
:101B000018BF002812D0D9F800008DF812B08168F3
:101B10008907E7D4816889075CBF81685FEA8171C2
:101B2000E0D481688907F2D5DCE700BF4046012197
:101B30000122FEF78FFE0120FEF76EFDD9F80000AE
:101B4000FF218DF813108168890709D481688907FE
:101B50005CBF81685FEA817102D481688907F2D530
:101B600042F20040C2F200000DF113010122642391
:101B70000124FFF793FA40F28800C2F2000044709B
:101B800005B0BDE8F08F00002DE9F04383B040F2CE
:101B9000F00842F20044C2F200084FF4FA704FF02D
:101BA000FF09C2F2000464270DF10B050DF10A06CE
:101BB000A8F8000020688DF80B908168890709D487
:101BC000816889075CBF81685FEA817102D481689E
:101BD0008907F2D520462946324601230097FFF7B0
:101BE00049FB9DF80A00FF2806D0B8F8001000292C
:101BF000E0D103B0BDE8F083FF2003B0BDE8F0837F
:101C00002DE9F04F83B040F2EE0942F200440E4657
:101C10000546C2F20009C8204FF0FF0AC2F20004D4
:101C20004FF0640B0DF1050801AFA9F8000000BFEB
:101C300020688DF805A08168890709D48168890723
:101C40005CBF81685FEA817102D481688907F2D53F
:101C5000204641463A460123CDF800B0FFF70AFB83
:101C60009DF80400FF2805D1B9F800000028DFD155
:101C70002EE000BFFE282BD14FF0FF094FF0640A81
:101C80000DF107080DF1060710E000BF20464146A0
:101C90003A460123CDF800A0FFF7ECFA9DF80600C4
:101CA000002E05F8010BA6F1010617D020688DF86B
:101CB000079081688907E9D4816889075CBF8168DA
:101CC0005FEA8171E2D481688907F2D5DEE700BF5F
:101CD0000024204603B0BDE8F08F00BF2068FF213C
:101CE0008DF809108168890709D4816889075CBF6C
:101CF00081685FEA817102D481688907F2D564271F
:101D00000DF1090102AA204601230097FFF7B2FA5C
:101D10002068FF218DF80B108168890709D481683C
:101D200089075CBF81685FEA817102D48168890795
:101D3000F2D56420009042F20040C2F200000DF1A2
:101D40000B010DF10A0201230124FFF793FA20464B
:101D500003B0BDE8F08F00002DE9F04F85B040F2F0
:101D6000F00B42F2004A89468046C2F2000B4FF463
:101D7000FA70FF25C2F2000A64260DF1090702ACD1
:101D8000ABF80000DAF800008DF809508168890787
:101D90000AD4816889075CBF81685FEA817103D4D6
:101DA00081688907F2D500BF504639462246012393
:101DB0000096FFF75FFA9DF80800FF2806D0BBF8F1
:101DC00000000028DED1FF20EEE000BFDAF80000BE
:101DD0008DF80A808168890709D4816889075CBF0A
:101DE00081685FEA817102D481688907F2D50DF1BB
:101DF0000A01504601226423FFF750F9DAF8000087
:101E00004FEA19618DF80B108168890709D4816840
:101E100089075CBF81685FEA817102D481688907A4
:101E2000F2D50DF10B01504601226423FFF736F97C
:101E3000DAF800004FEA19418DF80C108168890723
:101E400009D4816889075CBF81685FEA817102D427
:101E500081688907F2D503A9504601226423FFF760
:101E60001DF9DAF800004FEA19218DF80D1081688C
:101E7000890709D4816889075CBF81685FEA81713D
:101E800002D481688907F2D50DF10D015046012277
:101E90006423FFF703F9DAF800008DF80E908168EB
:101EA000890709D4816889075CBF81685FEA81710D
:101EB00002D481688907F2D50DF10E015046012246
:101EC00064230124FFF7EAF8B8F1480F08BF6FF068
:101ED0007804B8F1400F08BF6FF06A04DAF8000028
:101EE0008DF80F408168890709D4816889075CBF34
:101EF00081685FEA817102D481688907F2D542F274
:101F00000045C2F200050DF10F01284601226423AD
:101F10004FF06409FFF7C2F8B8F14C0F1CD12868E4
:101F2000FF218DF811108168890709D4816889071C
:101F30005CBF81685FEA817102D481688907F2D54C
:101F400042F200406427C2F200000DF1110104AA20
:101F500001230097FFF78EF90A274FF0FF080DF1D4
:101F600013040DF1120600BF28688DF813808168F4
:101F7000890709D4816889075CBF81685FEA81713C
:101F800002D481688907F2D52846214632460123CA
:101F9000CDF80090FFF76EF99DF91200B0F1FF3F08
:101FA00002DC013F3906DFD1C0B205B0BDE8F08FD9
:101FB0002DE9F04F85B040F2F00A42F20044894624
:101FC0008046C2F2000A4FF4FA704FF0FF0BC2F2E3
:101FD000000464260DF10A070DF10905AAF80000B6
:101FE00020688DF80AB08168890709D4816889075B
:101FF0005CBF81685FEA817102D481688907F2D58C
:10200000204639462A4601230096FFF733F99DF80A
:102010000900FF2804D0BAF800000028E0D11DE034
:1020200020688DF80B908168890709D48168890739
:102030005CBF81685FEA817102D481688907F2D54B
:1020400042F20044C2F200040DF10B0120460122CD
:102050006423FFF723F8B9F1FD0F03D1002005B089
:10206000BDE8F08F20688168890709D481688907F5
:102070005CBF81685FEA817102D481688907F2D50B
:10208000204641464FF400726423FFF707F82068AA
:10209000FF218DF80D108168890709D481688907AF
:1020A0005CBF81685FEA817102D481688907F2D5DB
:1020B00064270DF10D0103AA204601230097FFF7C5
:1020C000D9F82068FF218DF80F108168890709D49D
:1020D000816889075CBF81685FEA817102D4816889
:1020E0008907F2D54FF064080DF10F010DF10E02D2
:1020F00020460123CDF80080FFF7BCF800254FF003
:10210000FF0A0DF1110904AE20688DF811A0816855
:10211000890709D4816889075CBF81685FEA81719A
:1021200002D481688907F2D5204649463246012308
:10213000CDF80080FFF79EF89DF8100000F01F0713
:10214000052F03D0402D05F10105DDD34FF0FF0829
:102150004FF064090DF113050DF112060BE000BFFD
:102160002046294632460123CDF80090FFF782F839
:102170009DF8120080B920688DF813808168890766
:10218000EED4816889075CBF81685FEA8171E7D41A
:1021900081688907F2D5E3E7781FB0FA80F040093B
:1021A00005B0BDE8F08F000000281CBF012070477B
:1021B0002DE9F04784B040F20807C2F200073878F2
:1021C000800700F19F8140F60049C4F20109FFF742
:1021D00053FB4846012100220024FEF73BFB01206F
:1021E000FEF71AFA40200021FFF7B6FD42F2004A3E
:1021F0000128C2F2000A40F0548140F2EE06C2F219
:1022000000064FF47A70308048204FF4D571FFF704
:10221000A3FD012840F01281DAF80000FF218DF8BB
:102220000B108168890709D4816889075CBF8168C0
:102230005FEA817102D481688907F2D564240DF1C7
:102240000B010DF10A02504601230094FFF712F82A
:10225000DAF80000FF218DF80B108168890709D496
:10226000816889075CBF81685FEA817102D48168F7
:102270008907F2D564240DF10B010DF10A025046D5
:1022800001230094FEF7F6FFDAF80000FF218DF835
:102290000B108168890709D4816889075CBF816850
:1022A0005FEA817102D481688907F2D564240DF157
:1022B0000B010DF10A02504601230094FEF7DAFFEC
:1022C0009DF80A40DAF80000FF218DF80B108168B4
:1022D000890709D4816889075CBF81685FEA8171D9
:1022E00002D481688907F2D542F20048C2F20008A0
:1022F00064250DF10B010DF10A0240460123009502
:10230000FEF7B8FF012C4FF0000440F0CA809DF8A2
:102310000A00AA2802D0C4E0308860B177200021EA
:10232000FFF71AFD0128F7D869204FF08041FFF729
:1023300013FD0028F0D13088002800F0B1807A2009
:1023400000210024FFF708FD002840F0AA80D8F8FB
:102350000000FF218DF80D108168890709D481687C
:1023600089075CBF81685FEA817102D4816889074F
:10237000F2D564260DF10D0103AA40460123009613
:10238000FEF778FF9DF80C40D8F80000FF218DF88B
:102390000D108168890709D4816889075CBF81684D
:1023A0005FEA817102D481688907F2D564260DF154
:1023B0000D0103AA404601230096FEF75BFFD8F803
:1023C0000000FF218DF80D108168890709D481680C
:1023D00089075CBF81685FEA817102D481688907DF
:1023E000F2D564260DF10D0103AA404601230096A3
:1023F000FEF740FFD8F80000FF218DF80D1081682E
:10240000890709D4816889075CBF81685FEA8171A7
:1024100002D481688907F2D542F200406426C2F2F4
:1024200000000DF10D0103AA01230096FEF722FF23
:1024300060064FF00C0458BF042432E077200021DE
:10244000FFF78AFC012805D869200021FFF784FCEA
:10245000012815D941200021FFF77EFC10B13088FA
:102460000028F7D101243088D0B150204FF40071FA
:10247000FFF772FC002818BF002412E0308858B122
:1024800077200021FFF768FC0128F7D86920002198
:10249000FFF762FC0028F1D1022430880028E4D143
:1024A000002440F28806C2F20006484601210122BB
:1024B0003470FEF7CFF90120FEF7AEF8DAF800002D
:1024C000FF218DF80F108168890709D48168890779
:1024D0005CBF81685FEA817102D481688907F2D5A7
:1024E00042F200406425C2F200000DF10F010DF12F
:1024F0000E0201230095FEF7BDFE3CB1387800F0D6
:10250000FE003870387804B0BDE8F08700207070A5
:10251000387804B0BDE8F0872DE9F04186B028B1E5
:102520000427384606B0BDE8F08100BF16460D46C8
:10253000052911D13078022848D0012852D000282E
:10254000EED140F28800C2F2000000274770384602
:1025500006B0BDE8F08100BF40F20800C2F2000002
:102560000078C0072CD140F60044C4F20104204694
:1025700001210022FEF76EF90120FEF74DF842F22C
:10258000004804270D2DC2F2000800F2F780DFE8B2
:1025900015F00F0031005300F500F500F500F500CF
:1025A000F500F500F500F500590067006F0000BF69
:1025B000FFF7EAFAB0F1FF0718BF0127DEE000BF1E
:1025C0000327384606B0BDE8F08100BF40F288001E
:1025D000C2F20000407800277070384606B0BDE8AF
:1025E000F08100BFFFF748F90027384606B0BDE884
:1025F000F08100BF49200021FFF7AEFBB0BB0DF119
:1026000006001021FFF7FCFA80B39DF8060000F0E9
:10261000C000402840F0DE809DF80E009DF80F10AD
:10262000800440EA81204FF6004100F58060C0F24E
:10263000FF310840EDE000BF4FF40070308000270C
:102640009CE000BF49200021FFF786FB70B93046AF
:102650001021FFF7D5FAB0FA80F047098EE000BFED
:102660004A200021FFF778FB0028F0D0012785E001
:102670007A200021FFF770FB00287ED1D8F80000F7
:10268000FF218DF806108168890709D481688907C0
:102690005CBF81685FEA817102D481688907F2D5E5
:1026A00064270DF106010DF1170240460123009742
:1026B000FEF7E0FD9DF81700FF213070D8F800000C
:1026C0008DF806108168890709D4816889075CBF85
:1026D00081685FEA817102D481688907F2D5642735
:1026E0000DF106010DF11702404601230097FEF798
:1026F000C1FD9DF81700FF217070D8F800008DF81B
:1027000006108168890709D4816889075CBF8168E0
:102710005FEA817102D481688907F2D564270DF1DF
:1027200006010DF11702404601230097FEF7A2FDB6
:102730009DF81700FF21B070D8F800008DF8061042
:102740008168890709D4816889075CBF81685FEA6D
:10275000817102D481688907F2D542F20040642772
:10276000C2F200000DF106010DF1170201230097DE
:10277000FEF780FD9DF81700F07004272046012128
:102780000122FEF767F80120FDF746FFD8F80000A8
:10279000FF218DF817108168890709D4816889079E
:1027A0005CBF81685FEA817102D481688907F2D5D4
:1027B00042F200406426C2F200000DF117010DF153
:1027C000160201230096FEF755FD384606B0BDE817
:1027D000F08100BF9DF80B009DF8103000F00F0055
:1027E00000EBD3109DF80F309DF80E709DF80C1083
:1027F0009DF80D2003F0030300EB4300BB0901F03B
:10280000030143EA820242EA81210131073801FAD9
:1028100000F0306013E700002DE9F04182B04FF086
:10282000040780BB1D4673B340F20800C2F20000EB
:102830000078C00726D140F28800C2F2000000787C
:1028400040F600481446C4F2010840070E4658BF3F
:102850005402404601210022FDF7FCFF0120FDF754
:10286000DBFE012D14D151202146FFF775FAA0B9E6
:1028700030464FF40071FFF7C3F9B0FA80F0470912
:1028800020E000BF0327384602B0BDE8F08100BF5A
:1028900052202146FFF760FA30B1012712E000BF55
:1028A000013D06F5007607D030464FF40071FFF782
:1028B000A7F90028F4D100E000254C200021FFF703
:1028C0004BFA2F46404601210122FDF7C3FF0120AC
:1028D000FDF7A2FE42F20040C2F200000068FF21B4
:1028E0008DF807108168890709D4816889075CBF62
:1028F00081685FEA817102D481688907F2D542F26A
:1029000000406426C2F200000DF107010DF106023D
:1029100001230096FEF7AEFC002F18BF01273846B2
:1029200002B0BDE8F081000000281CBF0120704704
:1029300040F20800C2F20000007870472DE9F0472D
:1029400084B04FF00404B0BB1F46A3B340F20800AC
:10295000C2F200000E460178C9072BD1007840076B
:102960002ED440F28804C2F20004207840F60048D9
:102970001546C4F20108400758BF550240460121E0
:102980000022FDF767FF0120FDF746FE42F20049F5
:10299000012FC2F2000919D158202946FFF7DCF9AE
:1029A00000285AD13046FE21FFF702FBB0FA80F032
:1029B000440953E00324204604B0BDE8F08700BF7B
:1029C0000224204604B0BDE8F08700BF20788007CD
:1029D00007D577200021FFF7BFF957203946FFF7C9
:1029E000BBF959202946FFF7B7F9B0BB3046FC21A7
:1029F000FFF7DEFA18B1013F06F50076F6D140F296
:102A0000F00AC2F2000A4FF4FA70FF27642603AC02
:102A10000DF10B05AAF80000D9F800008DF80C7034
:102A2000816889070AD4816889075CBF81685FEA89
:102A3000817103D481688907F2D500BF48462146D9
:102A40002A4601230096FEF715FC9DF80B00FF288F
:102A500030D0BAF800000028DED101244046012120
:102A60000122FDF7F7FE0120FDF7D6FDD9F80000A1
:102A7000FF218DF80F108168890709D481688907C3
:102A80005CBF81685FEA817102D481688907F2D5F1
:102A900042F200406427C2F200000DF10F010DF177
:102AA0000E0201230097FEF7E5FB204604B0BDE8C7
:102AB000F08700BFD9F80000FD218DF80D10816866
:102AC000890709D4816889075CBF81685FEA8171E1
:102AD00002D481688907F2D542F20040C2F20000B8
:102AE0000DF10D01012264230124FEF7D7FAB5E7A9
:102AF0002DE9F04182B01E4690460D460446FDF792
:102B0000AFFE301A00EB0807FDF7AAFE40F20C01F9
:102B1000C2F200010968C1F3CB3179430191216808
:102B20008A682A40AA4227D1064618F101001FD020
:102B3000FDF796FE801BB84222D201980199002829
:102B4000A1F1010101912168896808BF074601EAE6
:102B50000500A842ECD00FE088682840A8420BD1BD
:102B600088682840A84207D188682840A84203D135
:102B700088682840A842EFD0002002B0BDE8F0816C
:102B8000D4E900014268B1F5827F22F0E0024260A0
:102B90000AD1A168B1F5004F02D0B1F5806F03D121
:102BA000016821F040010160A16AB1F5005F07D121
:102BB000016821F400510160016841F40051016095
:102BC000012084F85100002084F85000032002B056
:102BD000BDE8F0817047000040F2EC00C2F2000056
:102BE00001780131017001780A290ED300210170AA
:102BF000418811B14188013941808188002908BF8D
:102C0000FDF734BE818801398180FDF72FBE0000B9
:102C100041F20000C4F202000168002241F001010B
:102C200001604168CFF6FF021140416001684FF634
:102C3000FF72CFF6F66211400160016821F4802135
:102C40000160416821F4FE0141604FF41F01816081
:102C50004EF60850CEF200004FF000610160704760
:102C6000FFF7A2BAFFF758BCFFF7D6BDFFF75CBE6F
:102C7000FFF764BEFEE7000010B5044641F2040011
:102C80000023221823544FF0FF309062204603F0B7
:102C9000FDFC00281CBF032010BDB4F8FE014AF65D
:102CA000552188421CBF022010BD94F8372094F8AB
:102CB000383094F83610120244F2461042EA0342C9
:102CC000C0F254001144814204BF002010BD94F8AA
:102CD000532094F8543094F85210120242EA0342FE
:102CE0001144081A18BF012010BD00002DE9F0435F
:102CF00081B0054641F20500894605EB000849B15F
:102D00002846494603F05EF902280DD2012001B0A1
:102D1000BDE8F083D8F807401CB1D8F80F00844212
:102D200009D308F10F070AE0411C1FD0D8F80F1093
:102D30004C46884234D3022C08F10F071CD2386865
:102D400003280ED3022600BF2846314603F03AF985
:102D5000411C25D040B3012822D038680136864274
:102D6000F2D3002001B0BDE8F08300BF4FF0FF3088
:102D700001B0BDE8F08300BF264600BF38680136C9
:102D8000864228BF02262846314603F01BF9411C23
:102D900006D048B1012803D0A6424FF00000EDD183
:102DA00001B0BDE8F08300BF284631466FF07042A5
:102DB00003F0BCFCB9F1000F014606D029B9284642
:102DC0004946324603F0B2FC014639B101200129DF
:102DD00008BF4FF0FF3001B0BDE8F083D8F80B001A
:102DE000C8F80760411C08D098F800100138C8F8EE
:102DF0000B0041F0010088F80000304601B0BDE84A
:102E0000F08300002DE9F04F83B00021834600F0ED
:102E100091FF18B103B0BDE8F08F00BF0BF58056ED
:102E20004FF6FF7AFF274FF00D09FF25A6F824A0E3
:102E30003068316903F02AFC0028EBD174692078EE
:102E4000E52809D0002800F02582E17A0A0701F080
:102E50003F010BD50F2909D0A6F824A0FF2758461B
:102E6000002100F01FFA0028E2D0D3E70F290FD18C
:102E7000D6F82080B8F1000FF1D0410600F1808033
:102E8000F9B28842EAD1607BE9B28142E6D181E0C1
:102E9000390642D14108627841EAC011A378114451
:102EA000C9B203EBC112E77802EB5101C9B207EBDB
:102EB000C112AC46257902EB5101C9B205EBC11232
:102EC00002EB51016279C9B202EBC11202EB51016E
:102ED000A279C9B202EBC11202EB5101E279C9B287
:102EE00002EBC11202EB5101227AC9B202EBC1120C
:102EF00002EB5101627AC9B202EBC11202EB51013D
:102F0000C9B24A08A37A42EAC1111944C9B25FFAA8
:102F10008CF265468A4200F0C181B169CA7AD20753
:102F20009AD10A78801A26D160784A78801A22D1FC
:102F3000A0788A78801A1ED1E078CA78801A1AD1CF
:102F400020790A79801A16D160794A79801A12D1CB
:102F5000A0798A79801A0ED1E079CA79801A0AD1CB
:102F6000207A0A7A801A06D1607A4A7A801A02D1C7
:102F7000A07A897A401A00287FF46EAF8EE100BFF4
:102F8000F188657B00F0BF07B184607BE9B28142C4
:102F90007FF464AF2078029500F0BF0000FB09F1D8
:102FA000B4F801000191A1F10D0902F067FAB9F13D
:102FB000FE0F00F23D81054638F8190002F05EFA76
:102FC000854240F03581B4F80300002D00F0FA800E
:102FD0000199A1F10C0502F051FAFE2D4FF00D09F7
:102FE00000F2EE80014638F815000D4602F046FA70
:102FF000854240F0E580B4F80500002D294600F038
:10300000EB800199A1F10B0502F038FAFE2D00F2D8
:10301000D780014638F815000D4602F02FFA854298
:1030200040F0CE80B4F80700002D294600F006815C
:103030000199A1F10A0502F021FAFE2D00F2C080EB
:10304000014638F815000D4602F018FA854240F0A6
:10305000B780B4F80900002D294600F0F5800199E9
:10306000A1F1090502F00AFAFE2D00F2E180814685
:1030700038F8150002F002FA814540F0D980E08965
:10308000B9F1000F00F0E6800199A1F1080502F006
:10309000F5F9FE2D00F2CC80814638F8150002F0DB
:1030A000EDF9814540F0C480208AB9F1000F00F0AD
:1030B000D9800199CD1F02F0E1F9FE2D00F2B88010
:1030C000814638F8150002F0D9F9814540F0B0800A
:1030D000608AB9F1000F00F0CD8001998D1F02F0D8
:1030E000CDF9FE2D00F2A480814638F8150002F0DB
:1030F000C5F9814540F09C80A08AB9F1000F00F02D
:10310000C18001994D1F02F0B9F9FE2D00F29080A7
:10311000814638F8150002F0B1F9814540F0888009
:10312000E08AB9F1000F76D001990D1F02F0A6F9DF
:10313000FE2D00F27D80814638F8150002F09EF9E0
:10314000814575D1208BB9F1000F67D00199CD1E53
:1031500002F094F9FE2D6BD8814638F8150002F084
:103160008DF9814564D1A08BB9F1000F59D0019937
:103170008D1E02F083F9FE2D5AD8814638F81500CD
:1031800002F07CF9814553D1E08BB9F1000F4BD0AF
:1031900001994D1E02F072F9FE2D49D8814638F88A
:1031A000150002F06BF9814542D1207840063DD5EB
:1031B000B9F1000F3AD0019838F81000C0BB35E0E3
:1031C000029D4BE6029D50454FF00D097FF446AE3F
:1031D000B4F8050001E000BF029D50457FF43EAE0B
:1031E000B4F8070050457FF439AEB4F809005045F3
:1031F0007FF434AEE08950457FF430AE208A5045EC
:103200007FF42CAE608A50457FF428AEA08A5045EA
:103210007FF424AEE08A50450AD1208B504507D177
:10322000A08B504504D1E08B504501D1013F00E017
:10323000FF27029D4FF00D0911E600BF029D50458A
:103240007FF40CAED1E700BF029D50457FF406AE7F
:10325000D0E700BF029D4FF00D0950457FF4FEAD51
:10326000CCE700BF029D4FF00D0950457FF4F6AD4D
:10327000C8E700BF029D4FF00D0950457FF4EEAD49
:10328000C4E700BF029D4FF00D0950457FF4E6AD45
:10329000C0E700BF042003B0BDE8F08F002003B0FA
:1032A000BDE8F08F2DE9F04F81B041F20602825A5D
:1032B000561C320466D000F580573A69002A61D066
:1032C00038680D4641F20A01415A4909B6FBF1F34B
:1032D00003FB1161E1B941F202014418F9680132BE
:1032E0003A6189B122784FF6FF74C0F2010422449A
:1032F0001A420CD102F066FE022813D20225E8B26F
:1033000001B0BDE8F08F00BFE1888E423AD20021C3
:1033100000EB4110FE8078610025E8B201B0BDE805
:10332000F08F00BF0446013040D0386841F21401EC
:1033300041588C420ED2A4F1020841F20202023935
:1033400002448845FC6023D21178D2F8263008FB6D
:1033500001331EE0B5B1F968FFF7C8FC044601303F
:1033600003281FD24FF6F871C0F2FF0101EAC00036
:1033700040F20171C0F2020121FA00F5E8B201B099
:10338000BDE8F08F0425E8B201B0BDE8F08F00BFC2
:10339000002311893B614909B6FBF1F202FB11617F
:1033A000B6E700BF386803F001FB28B10125E8B299
:1033B00001B0BDE8F08F00BF386841F20A01415A00
:1033C00011B1FDF702F8386841F202054319D3F84C
:1033D0001210A4F102088A1E455D904504D2D3F86C
:1033E000262008FB052200E000224FF00009C3F868
:1033F0002A20DDB141F2040A41F2020B012500F856
:103400000A5003F0D3FA00287FF487AF386809F137
:10341000010900EB0B01D1F82A2010F80B30013222
:103420009945C1F82A20EAD3D1F81210A2EB09027B
:1034300041F22C03C25080E72DE9F04F81B00446E1
:1034400041F2100054F8008004F58055B8F1000FE7
:1034500000F00C814FF0FF0B4FF00D094FF6FF7A93
:103460004146FF26286803F011F9002840F0FF804C
:10347000686901782E2900F0E980E52900F0E680EE
:10348000002900F0F380C27A02F01F03082B00F03D
:10349000DD8002F03F020F2A40F0F4804A0609D492
:1034A000F2B2914240F0D280417B8B4540F0CE8019
:1034B0000AE000BF90F80DB0EA8801F0BF06AA84C8
:1034C000417B8B4540F0C280017801F03F0101FB58
:1034D00009F3A3F10D01FE2900F2B880D5F820C050
:1034E000B0F80170A3F10C0E2CF81170B0F80320A5
:1034F000002F7DD0BEF1FE0F00F2A8802CF81E2018
:10350000B0F80510002AA3F10B0E75D0BEF1FE0F26
:1035100000F29C802CF81E10B0F807200029A3F1BF
:103520000A0E6DD0BEF1FE0F00F290802CF81E2026
:10353000B0F80910002AA3F1090E65D0BEF1FE0F04
:1035400000F284802CF81E10C2890029A3F1080E15
:103550005DD0BEF1FE0F79D82CF81E20018A002A1A
:10356000A3F1070E56D0BEF1FE0F6FD82CF81E1037
:10357000428A0029A3F1060E4FD0BEF1FE0F65D896
:103580002CF81E20818A0027002AA3F1050E47D0BF
:10359000BEF1FE0F5AD82CF81E10C28A0029A3F1E2
:1035A000040E40D0BEF1FE0F50D82CF81E20018B27
:1035B000A3F1030ED2B3BEF1FE0F47D82CF81E10B4
:1035C000828BA3F1020EA1B3BEF1FE0F3ED82CF800
:1035D0001E20C18BA3F1010E7AB3BEF1FE0F35D8C8
:1035E0002CF81E109E46007840062BD43CE000BF0D
:1035F00052452BD1B0F80510514527D1B0F807201E
:10360000524523D1B0F8091051451FD1C289524506
:103610001CD1018A514519D1428A524516D1818A5D
:10362000514513D1C28A524510D1018B51450DD15C
:10363000828B52450AD1C18B0027514506D10078B3
:10364000400611D5BEF1FE0F0CD900BFFF26204663
:103650000021FFF727FE50B9296900297FF402AF46
:103660000AE000BF2CF81E70013EF0E704200021A4
:10367000296101B0BDE8F08FB8F1000F4FF00000F4
:10368000F7D1F4E7310603D103F0E2F8834502D025
:103690004FF0FF30A884002001B0BDE8F08F00009B
:1036A0002DE9F04F91B0814641F2180059F80070B1
:1036B0004FF48150FA7A59F800A0D00709F58051EB
:1036C000039105D1900700F1BE810125DDE100BF26
:1036D000387841F2210B0E907878C0F2010B0D90F2
:1036E000B87801250C90F8780DF13C080B903879EA
:1036F00001920A9078790990B8790890F879079042
:10370000387A0690787A0590B87A04900020F8729A
:103710000862AAF1020002900E98062D38700D98EA
:103720002A4678700C98B8700B98F8700A9838711F
:10373000099878710898B8710798F87106983872E6
:10374000059878720498B872C0F08D80BAF80000BD
:103750002A46002800F0878002992A4600F00103DB
:1037600043EA4203120448BF83EA0B03C0F340025A
:1037700042EA43021B0448BF82EA0B02C0F3800303
:1037800043EA4203120448BF83EA0B03C0F3C002BA
:1037900042EA43021B0448BF82EA0B02C0F3001353
:1037A00043EA4203120448BF83EA0B03C0F340120A
:1037B00042EA43021B0448BF82EA0B02C0F38013B3
:1037C00043EA4203120448BF83EA0B03C0F3C0126A
:1037D00042EA43021B0448BF82EA0B02C0F3002303
:1037E00043EA4203120448BF83EA0B03C0F34022BA
:1037F00042EA43021B0448BF82EA0B02C0F3802363
:1038000043EA4203120448BF83EA0B03C0F3C02219
:1038100042EA43021B0448BF82EA0B02C0F30033B2
:1038200043EA4203120448BF83EA0B03C0F3403269
:1038300042EA43021B0448BF82EA0B02C0F3803312
:1038400043EA4203120448BF83EA0B035A0042EAE8
:10385000D0321804888848BF82EA0B02002801F1A0
:1038600002017FF47BAF072002F00F0101F130036A
:10387000392B88BF01F13703102A08F800304BD3E9
:10388000C2F3031101F13004392C88BF01F1370470
:1038900008EB0001130A01F8014C00F0A98003F0C5
:1038A0000F0303F13004392C88BF03F13704130BE5
:1038B00001F8024C00F0A68003F00F0303F130047E
:1038C000392C88BF03F137040438120C01F8034C7B
:1038D000CAD14FF07E0108F8001020B34242002107
:1038E0007B5C202B20D053185C1C13D07C1866788E
:1038F000202E00F091809E1C0CD0A678202E00F087
:103900008D80033306D0E378202B00F089800431CA
:103910005318E5D1014607E0013800284FF07E0139
:1039200008F80010DAD10021072801F101029ABF3E
:1039300018F8003001302023072A7B544ED807287E
:1039400001F102039ABF18F8004001302024072B30
:10395000BC5443D8072801F103029ABF18F800406D
:1039600001302024072AFC5438D8072801F1040329
:103970009ABF18F8004001302024072BBC542DD8E2
:10398000072801F105029ABF18F8004001302024F1
:10399000072AFC5422D8072801F106039ABF18F819
:1039A000004001302024072BBC5417D8072801F110
:1039B00007029ABF18F8004001302024072AFC545F
:1039C0000CD8072894BF18F80000202011F1080F28
:1039D000B85422BF01F10800202139544846FFF7AE
:1039E00011FAF8B90135642D7FF496AE1CE000BFE2
:1039F000023800284FF07E0108F800107FF46EAF07
:103A000091E700BF033800284FF07E0108F800104E
:103A10007FF464AF87E700BF013185E7023183E7B8
:103A2000033181E7642D03D1072011B0BDE8F08F89
:103A30000399042840F04B81019AFA72C1F820A042
:103A400090077FF542AE0020062100BF0AEB01027D
:103A500032F8062C8AB10AEB4002538853B192889F
:103A600052B13AF801200430002A01F10801EDD1E9
:103A7000013802E0013000E002304EF64F411930CB
:103A8000C4F6C461A0FB01018D084846002100F086
:103A900051F948B1042808BF072008B3039C002847
:103AA00040F015810EE100BF039C002609E000BF35
:103AB0000136AE4214D048460121FFF7F3FB00283F
:103AC000E8D12068216902F0E1FD0028E2D16069B7
:103AD0000078E528ECD00028EAD00026EBE700BF0C
:103AE000039C013D00F0EE80E088411B484600F059
:103AF00021F9002840F0EB80A06941F2040B017825
:103B000042784E0846EAC11183781144C9B203EBEA
:103B1000C112C77802EB5101C9B207EBC11202EB27
:103B200051010279C9B202EBC11202EB5101427993
:103B3000C9B202EBC11202EB51018279C9B202EBA8
:103B4000C11202EB5101C279C9B202EBC11202EB00
:103B50005101027AC9B202EBC11202EB5101427A61
:103B6000C9B202EBC11202EB5101C9B24A08807A14
:103B700042EAC11100EB010A4FF6FF774FF001084E
:103B8000039C2068216902F081FD002840F09F809D
:103B900060690F22216AA0F80B2000224283EAB25A
:103BA0000D235A4380F80DA001EB420333F81A4C61
:103BB000661CB6B2012EA0F8014003D8A0F803702D
:103BC00008E000BF33F8186C741CA4B2012CA0F8F4
:103BD00003601FD8A0F80570A0F80770A0F809705E
:103BE000C781078247828782C78207838783C7830B
:103BF00045F04001017003980021006800F80B8037
:103C00004846FFF74FFB00287FF448AF013DB7D18E
:103C100044E700BF33F8166C741CA4B2012CA0F862
:103C20000560D9D933F8146C741CA4B2012CA0F827
:103C30000760D3D933F8126C741CA4B2012CA0F81D
:103C40000960CDD933F8106C741CA4B2012CC68164
:103C5000C7D933F80E6C741CA4B2012C0682C1D9EA
:103C600033F80C6C741CA4B2012C4682BBD933F817
:103C70000A6C741CA4B2012C8682B5D933F8086C86
:103C8000741CA4B2012CC682AFD933F8066C741C24
:103C9000A4B2012C0683A9D933F8046C741CA4B215
:103CA000012C8683A3D933F8023C5E1CB6B2022EE7
:103CB000C3839DD331F812100029294608BF45F06F
:103CC000400197E72068216902F0E0FC10B111B0D3
:103CD000BDE8F08F61690020C861886148610861B2
:103CE000C860886048600860D4E905210B781370CB
:103CF0004B7853708B789370CB78D3700B791371AA
:103D00004B7953718B799371CB79D3710B7A137291
:103D10004B7A5372897A01239172A1696269C97AD7
:103D200001F018011173216841F204028B5411B0A3
:103D3000BDE8F08FF0B581B00C4641F20801415862
:103D400041F206020129845251D000F580552868BD
:103D500041F214028258914249D200F58053A9B130
:103D60005F899B787F0907FB03F6A6422CD98B1E3F
:103D7000023A93423AD241F2020202441778D2F850
:103D8000262003FB0722E9606AB930E0197803298D
:103D900002D1596A0029E3D11989A14227D95A6A67
:103DA0000021E9601AB341F20A01415A4909B4FB02
:103DB000F1F303FB11411A4400EB4110C5E9042063
:103DC000002001B0F0BD00BF41F2140702F0FAF884
:103DD000014601300ED0022909D32868C259914208
:103DE00005D2A41BB442F1D2C1E700BFE9600220B2
:103DF00001B0F0BD012001B0F0BD000040F29831EB
:103E0000C2F200010A5C002A1CBF00207047012397
:103E10000A180B5401EB80004168107A09680847C2
:103E200040F2983CC2F2000C0CEB80035B686044EB
:103E3000007A1B691847000080B540F2983CC2F236
:103E4000000C0CEB800EDEF804E06044007ADEF833
:103E500008C0BDE88040604740F29831C2F20001DE
:103E600001EB800252680844007A5168084700005C
:103E700080B540F2983CC2F2000C0CEB800EDEF8EC
:103E800004E06044007ADEF80CC0BDE88040604782
:103E900010B5044600F020FF002818BF10BD6CB319
:103EA00004F58054206848B300F58050017829B3A8
:103EB000C188A288914221D14078FFF7CDFFC00789
:103EC0001CD1A06A0138012884BF022010BD40F235
:103ED000F80100EB4000C2F2000101EB8000418AD2
:103EE00021F48072002A18BF4A1E1104428204BFC6
:103EF000002181600020206010BD00BF092010BD9E
:103F00002DE9F04F81B0154688460090694610466D
:103F1000002201F0FFFA18B101B0BDE8F08F00BF38
:103F2000D5F800B00BF5805ADAE90446B01E844299
:103F300018D99AF8000001281AD10024022605E0B9
:103F40000134DAF814000136864255D2584631461B
:103F500002F038F80028F3D0411C5BD00128F0D1E2
:103F600002204AE00020C8F8004001B0BDE8F08F10
:103F7000DAF820900024022818D1002000210CE05B
:103F8000BAF80A0009F10109594631F8022B023842
:103F9000002A08BF0134013E2ED00028F5D1584632
:103FA000494602F073FB0028EAD026E000200021F9
:103FB00018E000BFBAF80A0009F10109594611F8E2
:103FC000042B043811F8027C11F8015C11F8033C51
:103FD0003F0465F31B6747EA0323D21808BF013487
:103FE000013E09D00028EAD15846494602F04EFB6E
:103FF0000028DFD001E000BF00209AF80510CAF8C1
:10400000104041F001018AF80510C8F8004001B0E5
:10401000BDE8F08F0120F0E72DE9F04782B080463F
:10402000481E154620EAE07900240DF106066F4689
:10403000C2464C451BD000BF2846314601223B46B4
:1040400000F0ACFC0098012810D19DF806000D2866
:10405000F2D00AF8010B0A2804F10104E9D100208A
:104060008AF80000404602B0BDE8F087A146002073
:104070008AF80000B9F1000F08BFC846404602B0F8
:10408000BDE8F0872DE9F04F81B000285CD000F545
:10409000805704463868002850D000F580500D46FF
:1040A000017800294AD0C188BA88914246D1407827
:1040B000FFF7D2FEC00741D1FE79002E45D17A6AC2
:1040C000002A47D0681C53D0F868A84238BF05467C
:1040D000002DBD6000F09281D7F800E0506841F2F9
:1040E0000101A5F1010C714428B3B1F809304E78F3
:1040F000BCFBF3F3B3FBF6F302F124068342C0F0FA
:10410000C78056F8182CB2B11B1A9342C0F0C48075
:1041100056F8100C78B19B1A8342C0F0C18056F853
:10412000082C42B11B1A9342C0F0BE8056F8200BF7
:104130009B1A0028E2D10020B9E000BF09263046D2
:1041400001B0BDE8F08F00BF0926304601B0BDE8E0
:10415000F08F00BFFA68AA423AD2B879800738D502
:10416000B84658F8081F0020C8F800003BE000BF20
:10417000934638695BF8048B0226E8B141F21409D2
:1041800082460236002504463868214601F01AFFAF
:10419000012840F2EF80411C74D0611C0135884237
:1041A0000446F1D0464598BFEBE8025A396851F809
:1041B00009108842E4D37A6A464516608EBF1126FC
:1041C0000026CBF80060304601B0BDE8F08F00BF9C
:1041D0002A46B84658F8081F0020002A1546C8F895
:1041E000000000F0CD80386841F202028318825C42
:1041F0001B8903FB02F639B16A1E0139B2FBF6F2E4
:10420000B1FBF6F39A4203D2396989B3796104E0CC
:10421000704208407969B8602D1A29B3B54240F25E
:104220008B8041F21408BA793868920704D401F0FF
:10423000C9FE014605E000BFFEF758FD0146002813
:1042400078D0481C1ED00229C0F09480386850F8FD
:104250000800814280F08E80B868AD1B3044B542C2
:104260007961B860DFD867E0D8F8000088E000BF67
:104270000021FEF73BFD0146013003D0012979D032
:104280003961C3E70126FE71304601B0BDE8F08F09
:10429000A6F11C0009E000BFA6F1140005E000BF74
:1042A000A6F10C0001E000BF301F00681844D1F8EF
:1042B0001320831E023A934278615BD24A78D1F888
:1042C000270003FB0200002854D0B1F80930B5FBE9
:1042D000F3F606FB1355002D00F09080BCFBF3F3C2
:1042E000013A1340BA691D18954200F08780B879E9
:1042F00040060DD50878214601230126FFF7B8FDB9
:10430000002866D1B879D7F800E000F0BF00B87196
:1043100041F201001EF8000021462A460123012631
:10432000FFF78AFD002854D1BD610026304601B058
:10433000BDE8F08F002135463B6841F20A00185A6B
:10434000BE68B5FBF0FC0CFB10527019B860BAB136
:1043500041F202021344D3F812200239023A914288
:1043600008D21A78D3F8263001FB023111B10CEBD8
:10437000010506E00226FE71304601B0BDE8F08F6F
:104380000025396841F20A028A5AB0FBF2F303FBB6
:1043900012022AB3BA69954222D0B87940060ED5E6
:1043A00041F2010008440078214601230126FFF76D
:1043B0005FFD70B9B879396800F0BF00B87141F29B
:1043C0000100085C21462A4601230126FFF734FD3F
:1043D00020B1FE71304601B0BDE8F08FB868BD6114
:1043E000F96888420AD9B979F86041F020000026BE
:1043F000B871304601B0BDE8F08F00BF00263046EE
:1044000001B0BDE8F08F000010B582B001900091BE
:1044100031B34FF0FF3E00BF01EB0E0C9CF80130B2
:10442000202B21D33A2B1FD09CF80230202B27D3EE
:104430003A2B25D09CF80330202B39D33A2B37D098
:104440009CF804400EF1040EA4F13A03B3FA83F38E
:104450004FEA531C202C1AD33A2CDDD117E000BFB1
:104460000B21084602B010BD3A3BB3FA83F34FEA82
:10447000531C0EF1010EBCF1000F0BD122E000BF66
:104480003A3BB3FA83F34FEA531C0EF1020EBCF130
:10449000000F17D00978A1F13003092B38D8BEF1ED
:1044A000010F4FF00B0108BF002BDAD10AE000BF6B
:1044B0003A3BB3FA83F34FEA531C0EF1030EBCF1FF
:1044C000000FE7D140F2F803C2F20003596871B15E
:1044D0009C684FF4805C8C4204BF00249C605C6943
:1044E0008C4204BF00245C61002401F80C4098B1A8
:1044F0004FF480540021012A01555860B1D101A820
:104500006946002201F006F80146084602B010BDD7
:104510000B21084602B010BD00215960084602B0C8
:1045200010BD00002DE9F04FADF5825D81B00DF5B5
:1045300082573960B0B100F5805906A800F5805463
:10454000002002F01E061546C9F800000DF5825144
:104550002046324600F0DEFF50B10DF5825D01B01D
:10456000BDE8F08F09200DF5825D01B0BDE8F08F48
:1045700003A8A06140F21810C2F20000396820625E
:1045800006A805F01F0801F04BFAD4F814A0C8B132
:1045900018F01C0F00F0AA80002800F0EE8004281C
:1045A00068D140F2F800C2F20000816800294FD0C3
:1045B000406900284CD0122048F0080800285ED03E
:1045C000FEE000BFBAF1000F36D040F2F80CC2F2A4
:1045D000000CDCF808202168A768B4F806E05AB19E
:1045E0008A4209D1DCF80C30BB4205D1BCF810304E
:1045F000734501D100210FE0DCF81430002B00F0EE
:10460000B9808B422ED1DCF81810B9422AD1BCF8FF
:104610001C10714526D101213EB941EA41010CEB44
:104620008101498AB1F5807FB2D118F01C0F4FF09B
:1046300010001FD15AE000BF18F01C0F4FF0060009
:1046400054D04FF0000A48F00808C0B1B8E000BFED
:1046500006A8FFF725F8D4F814A048F0080870B1B0
:10466000AEE000BF002A00F0858018F01C0F4FF06C
:1046700012003BD048F00808002840F0A18018F054
:10468000080100F09D80CDF8088001F013FDCAF804
:104690000E0000208AF80B00CAF81C0025684FF4B1
:1046A0008051695CBAF81A80032905F5805B07D14F
:1046B0009AF815109AF8142048EA016141EA024874
:1046C000AAF81A00AAF814000120B8F1000F8BF81C
:1046D00004004BD0B8F1010F42D0DBF81400404584
:1046E0003ED9DBF82C004646019018E000287FF404
:1046F00034AF9AF80B00C1064AD45FEA887162D5DC
:1047000010F001005FD007200DF5825D01B0BDE81B
:10471000F08F00BFDBF814003E46874246D22846A1
:10472000314601F04FFC0746013000F0C980002FF0
:104730003CD0012F14D028463146002201F0F6FF6C
:1047400000287FF40AAFDBF810000130E2D29BF8BA
:104750000510CBF8100041F001008BF80500D9E7F7
:1047600002200DF5825D01B0BDE8F08FDDF8088014
:1047700029E000BF18F01C0FBBD09AF80B0010F016
:10478000110F0BD007200DF5825D01B0BDE8F08F51
:1047900004200DF5825D01B0BDE8F08F082000EA2D
:1047A000450000283FF46BAF0AE000BFA8F101000C
:1047B0000199CBF80C00284601F068FFDDF808806D
:1047C00000287FF4CAAE216841F22C000858C9E9DC
:1047D000070A40F2F800C2F2000082688A4209D15A
:1047E000C368A768BB4205D1038AE788BB4201D1F1
:1047F00000221EE047698F420AD18369A668B3424E
:1048000006D1838BE688B34202D1012211E000BFBA
:104810004FF0000312B1E7B9012200E0002242EAA2
:104820004207A668E58800EB8707B960FE603D8215
:104830007B8208F0080348EA830742EA420300EB60
:10484000830030F8123F022F02D25E1C0CE000BF42
:1048500043B10020C9F8280002200DF5825D01B0A7
:10486000BDE8F08F4FF480760680501CC9F8280010
:10487000002001F5805389F8067089F807001F7839
:10488000BAF81A20032F07D19AF815709AF8146015
:1048900042EA076242EA0642C9F81020DAF81C2010
:1048A000C9F81800C9E90202C9F82400C9F80010C3
:1048B000D988A9F804100DF5825D01B0BDE8F08F2C
:1048C00001200DF5825D01B0BDE8F08F2DE9F047C4
:1048D00094B004786F460022002C07F10C0A009176
:1048E000CDE901223ED0451C00224FF00D090DF10B
:1048F0004C0807E00298324601300196029015F804
:10490000014B6CB30A2C17D1002A15D4561CB818C9
:104910003C2A80F80C900AD3009851463246434610
:1049200000F054FB1398861B18BF4FF0FF36029817
:104930003246013001960290002AE0D4561CB81885
:104940003C2A0473D6D3009851463246434600F0C1
:104950003DFB1398861B18BF4FF0FF36CAE700BF18
:10496000002A15D4009813AB514600F02FFB002805
:104970004FF0FF3002D014B0BDE8F0871399DDE9A5
:1049800001238A4208BF184614B0BDE8F08700BF73
:104990004FF0FF3014B0BDE8F08700002DE9F04F74
:1049A00083B007460020186027B307F580552868B4
:1049B000D0B100F5805089460178A9B19346C188ED
:1049C000AA88914210D140781C46FFF745FAC007EB
:1049D0000AD1EE797EB9A879C00711D107263046F1
:1049E00003B0BDE8F08F00BF0926304603B0BDE834
:1049F000F08F00BF0926304603B0BDE8F08F00BF3E
:104A0000D5E90210401A584538BF8346BBF1000F64
:104A100000F05081781C0290B81C0190F81C41F203
:104A20000A0A00900DE000BF0020A96822688144B6
:104A300001440244BBEB000B4FF00006A96022606A
:104A4000D9D0286830F80A30B1FBF3F606FB131210
:104A5000B2B1981A584588BF58460028E4D0BB1810
:104A600010F00301A0F1010C18D01A4612F801EB66
:104A70004E46012906F801EB14D161464FE000BF14
:104A800041F202020244137803F1FF0202EA06082F
:104A90005FEA086210D069696FE000BF1A464E46AF
:104AA00001463CE05A78022989F8012030D1811E64
:104AB0009A1C09F1020632E0002945D0696A0029F2
:104AC00044D04A68002A00F0FB80B6FBF3F02431A2
:104AD000904241D351F8183C002B00F0F180801A2D
:104AE00098423BD351F8102C002A00F0E980C01AFC
:104AF000904235D351F8083C002B00F0E180801A39
:104B000098422FD351F8202BC01A002AE0D1D7E0C9
:104B1000DA1C9B78C11E09F1030689F80230BCF14A
:104B2000030FFFF482AF043A331F00BF12F8046F83
:104B3000043903F8046F56785E7096789E70D678C4
:104B4000DE70F3D171E700BF29690EE0696901F0F9
:104B500039FA014609E000BF1C3904E0143902E0CB
:104B60000C3900E00439096801440229C0F0A8802A
:104B7000481C00F0AB802868696141F21402825839
:104B80008B1E911E8B4280F09B8041F201010144FB
:104B90004A78D1F8276003FB0266002E00F090806F
:104BA000B1F809305FFA88FC9B4506EB0C0A2BD262
:104BB000AA6952451ED0AB795B060CD508783946F8
:104BC00001230126FFF754F900287AD1A87900F0D3
:104BD000BF012868A97141F20101405C3946524683
:104BE00001230126FFF728F900286AD1286841F23D
:104BF0000A01435AA868C5F818A0B0FBF3F141F2C6
:104C00000A0A01FB130224E7BBFBF3F808EB0C00D4
:104C10009042087888BFA2EB0C08494652464346AA
:104C2000FFF70AF9002851D1A87940063AD5A869BA
:104C3000A0EB0A01414535D2286841F20A02805AA8
:104C400080B301FB009110F00303A0F1010207D033
:104C50003E78012B01F8016B04D1029B104611E054
:104C60003B460FE0029E022B367801F8016B03D120
:104C7000019B023806E000BF019B03381B7801F856
:104C8000013B009B032A0DD31A1F043912F8043F7D
:104C9000043801F8043F53784B7093788B70D378C5
:104CA000CB70F3D1286841F20A0A30F80A0008FBF9
:104CB00000F0BAE60026304603B0BDE8F08F00BF32
:104CC0000226EE71304603B0BDE8F08F0126EE718A
:104CD000304603B0BDE8F08FB0B578B300F580552D
:104CE0000446286850B300F58050017831B3C1887C
:104CF000AA88914222D14078FFF7AEF8C0071DD1B3
:104D0000A87981065CBF0020B0BD40060ED528689A
:104D100041F20101AA69405C214601230124FFF709
:104D2000A7F848B9A87900F0BF00A8712868E96918
:104D300001F0ACFC044618B12046B0BD0920B0BD5E
:104D40002C6AE07A40F02000E072E8682077E8689A
:104D5000000A6077E889A077E87BE07728696083BC
:104D6000010C000E2175607501F0A4F9C4F816005D
:104D700000206082A979286841F20402012301F031
:104D8000DF018354A971BDE8B04001F0A3BD00006C
:104D90002DE9F04FADF5015D89B00DF1200E0EF556
:104DA00001550DF1180E0EF5815101F580540DF1EC
:104DB000200E28600EF501512046012200F0AAFBCA
:104DC00070B901A8A06140F21810C2F20000296871
:104DD0000DF1180E20620EF5815000F021FE28B171
:104DE0000DF5015D09B0BDE8F08F00BF40F2F8019C
:104DF000C2F200018B682068A268E5883BB183425B
:104E000005D1CB68934202D10B8AAB4209D04B69E2
:104E100073B183420CD18B69934209D1898BA9422A
:104E200006D110200DF5015D09B0BDE8F08F00BF7F
:104E30006269002A6AD0D17ACB076DD14FF48053D2
:104E4000C05CB2F81A80032805D1507D127D48EA73
:104E5000006040EA0248B8F1000F18BF11F01000DE
:104E600060D1A18C4FF6FF700DF1180E81420EF546
:104E7000815008BF2946FEF75DFF0028B0D10DF133
:104E8000180E4FF0E50941F2040A01260EF5815B88
:104E900027682169384601F0F9FBF0B9E0886169BB
:104EA000A8424FF00000C1F80100C1F80500C1F8A8
:104EB0000900C1F80D00C1F81100C1F81500C1F8D2
:104EC0001900C86181F8009007F80A6008D25846B6
:104ED0000021FEF7E7F90028DAD0042808BF0220F5
:104EE000002861D1B8F1000F5ED0B8F1020F07D3EE
:104EF000246841F205002518D5F80F00404536D842
:104F000002200DF5015D09B0BDE8F08F06200DF51A
:104F1000015D09B0BDE8F08F07200DF5015D09B016
:104F2000BDE8F08F04AE0DF1180E0EF5815130463C
:104F300041F22802FBF717FA41F2080046F8008018
:104F400030460221FEF7F6FE00287FF449AF04A8A0
:104F5000FEF772FA002808BF072004283FF481AF4B
:104F60003EE700BFD5F80F00B046864220D220466B
:104F7000414601F027F80646013021D0C6B1012E86
:104F8000BED020464146002201F0D0FB00287FF42D
:104F900027AFD5F80B000130E4D22978C5F80B0013
:104FA00041F001002870DDE700287FF419AF246884
:104FB000204601F08FFC0DF5015D09B0BDE8F08FD2
:104FC00001200DF5015D09B0BDE8F08F2DE9F04F2E
:104FD00083B0074600201860C7B107F580563068D7
:104FE000A0B100F580508A46017879B19346C18816
:104FF000B28891420AD140781C46FEF72DFFC007C7
:1050000004D1F07930B103B0BDE8F08F092003B0CE
:10501000BDE8F08FB079800704D4072003B0BDE865
:10502000F08F00BFD6F808C0ABF101016FEA0C00A9
:10503000814280F07B81781C0290B81C0190F81CA2
:1050400041F20A090090326832F80910BCFBF1F312
:1050500003FB11C0C0B1091A594588BF5946002940
:105060007AD007EB000E11F00300A1F1010C5346BA
:1050700048D013F8018B7246012802F8018B43D106
:105080009646604655E000BF41F2020010440078A9
:1050900000F1FF0101EA03085FEA086140F0978030
:1050A000BCF1000F6AD0D6F824E0BEF1000F6BD03F
:1050B000DEF80420002A00F03981B3FBF0F10EF194
:1050C0002403914266D353F8180C002800F02E8177
:1050D000891A814262D353F8102C002A00F02681ED
:1050E000091A91425ED353F8080C002800F01E8183
:1050F000891A81425AD353F8202B091A002AE0D189
:1051000014E100BF084614E09AF8012002288EF846
:10511000012005D1881E0AF102030EF1020E08E0FB
:105120009AF80220C81E0AF103038EF802200EF13D
:10513000030EBCF1030F0FD3043BAEF1040200BF1A
:1051400013F8045F043802F8045F5D7855709D78A9
:105150009570DD78D570F3D1B07940F04000B07132
:10516000B0688A4400EB010C2068BBEB010B0844DB
:10517000C6F808C020607FF466AFD7E03069C0B9D8
:105180001046002102E000BF71691046FDF7AEFD38
:105190000FE000BFA3F11C0009E000BFA3F1140061
:1051A00005E000BFA3F10C0001E000BF181F00687C
:1051B0000844411C00F0B280012800F0AD800028B6
:1051C00000F0B28031697061002908BF3061B079A8
:1051D00040060FD5306841F20101B269405C3946A2
:1051E0000123FEF745FE002840F09880B07900F0DA
:1051F000BF00B071306841F21402716982580239FF
:10520000023A914280F0888041F2010210444278D3
:10521000D0F8273001FB0233002B00F07D80B0F87E
:1052200009105FFA88FC41F20A058B4503EB0C0973
:105230001AD2B2694A450DD0D6E902239A4209D260
:10524000007839464A460123FEF7F6FD002865D16D
:105250003068415BB068C6F81890B0FBF1F241F2DB
:105260000A0902FB1100F6E6BBFBF1F8007808EB37
:105270000C01914288BFA2EB0C0851464A464346B6
:10528000FEF7F6FD002849D1B069A0EB09014145C0
:1052900041F20A0939D2306830F8090088B301FBBD
:1052A00000A110F00303A0F1010C07D011F8012BAD
:1052B000012B3A7004D1029B604611E03B460FE09F
:1052C00011F8012B022B029B1A7003D1019B0238AB
:1052D00006E000BF11F8012B019B03381A70009BF8
:1052E000BCF1030F0DD304391A1F11F8043F043821
:1052F00002F8043F4B7853708B789370CB78D3705F
:10530000F3D1B07900F0BF00B071306830F8090017
:1053100008FB00F124E700BF022000E00120F0714B
:1053200003B0BDE8F08F00BFD6F808C0F068844530
:1053300088BFC6F80CC0B07940F02000B0710020E2
:1053400003B0BDE8F08F000080B580280246C0F0B1
:10535000928069B1FF2884BF002080BD46F6465187
:10536000C0F6000101EB40006FF0FF01405A80BD24
:1053700046F6465C4FF0000E1E23C0F6000C0CEB08
:10538000030232F81E2C824272D00CEB4E0251887E
:10539000814233D09188814234D0D188814235D046
:1053A0001189814236D05189814237D09189814219
:1053B00038D0D189814239D0118A81423AD0518A7C
:1053C00081423BD0918A81423CD0D18A81423DD0FA
:1053D000118B81423ED0518B81423FD0918B8142D3
:1053E00040D03CF80310814240D00EF1100E203323
:1053F000BEF1800F4FF00002C1D13CE00EF1010E72
:1054000036E000BF0EF1020E32E000BF0EF1030ED7
:105410002EE000BF0EF1040E2AE000BF0EF1050ED3
:1054200026E000BF0EF1060E22E000BF0EF1070ECF
:105430001EE000BF0EF1080E1AE000BF0EF1090ECB
:1054400016E000BF0EF10A0E12E000BF0EF10B0EC7
:105450000EE000BF0EF10C0E0AE000BF0EF10D0EC3
:1054600006E000BF0EF10E0E02E000BF0EF10F0EBF
:105470000EF18000C2B2104680BD000080B547F238
:10548000942C4FF0000E0622C0F6000C0CEB020329
:1054900033F8063C834218D00CEB4E035988814206
:1054A0001AD09988814221D0BEF1EC0F08BF80BD8F
:1054B0003CF80210814223D00EF1040E08320CEBAE
:1054C000020333F8063C8342E6D147F2B400C0F64B
:1054D000000030F81E0080BD0EF1010E47F2B4004E
:1054E000C0F6000030F81E0080BD00BF0EF1020EB5
:1054F00047F2B400C0F6000030F81E0080BD00BFC7
:105500000EF1030E47F2B400C0F6000030F81E00A2
:1055100080BD00002DE9F04F85B0002303600B68CB
:1055200003B315464FF0FF37DA195678202E1BD3F8
:105530003A2E19D09678202E1ED33A2E1CD0D6782B
:10554000202E21D33A2E1FD016790437A6F13A0225
:10555000B2FA82F25209202E01D33A2EE4D192B34C
:1055600019E000BF0B2221E0A6F13A02B2FA82F262
:10557000520901377AB926E0A6F13A02B2FA82F26C
:1055800052090237FAB106E0A6F13A02B2FA82F203
:1055900052090337BAB11A78A2F13006092E09D898
:1055A000012F4FF00B0208BF002E09D0104605B0A6
:1055B000BDE8F08F0B22104605B0BDE8F08F00BFAC
:1055C000DA1901320A6040F2F807C2F200077C687B
:1055D000B4B304F580560460307878B17078FEF783
:1055E0003BFCC1070AD140070A21002D18BF01EA80
:1055F000E0752A46104605B0BDE8F08F00203080E7
:105600000020FEF7FBFBC10720D1002D18BF10F0D2
:10561000040021D1707806F10A0502212A46FEF71E
:10562000FFFB38B9288841F20101401A6FF460612C
:10563000884217D20122104605B0BDE8F08F00BFA6
:105640000C22104605B0BDE8F08F00BF03221046C3
:1056500005B0BDE8F08F00BF0A22104605B0BDE8D6
:10566000F08F00BF204600214FF00008FDF704FB3B
:10567000012840F0DE8094F8C201002814BFD4F85D
:10568000C6814FF0000894F8D201CDF804800028BC
:1056900014BFD4F8D601002094F8E211029000293A
:1056A00014BFD4F8E601002094F8F2110390002909
:1056B00014BFD4F8F6010020B8F1000F049031D0E7
:1056C000002030714FF0FF30F0622046414600F07C
:1056D000DDFF08B1032026E0B4F8FE014AF65521AB
:1056E00088421FD194F8372094F8383094F8361057
:1056F000120244F2461042EA0342C0F2540011443E
:10570000814200F0B58094F8532094F8543094F816
:105710005210120242EA03421144081A18BF012033
:1057200001E000BF0220002800F08280DDF8088040
:10573000B8F1000F30D0002030714FF0FF30F06230
:105740002046414600F0A2FF10B1032025E000BF33
:10575000B4F8FE014AF6552188421DD194F837204D
:1057600094F8383094F83610120244F2461042EAA7
:105770000342C0F254001144814279D094F853207E
:1057800094F8543094F85210120242EA0342114441
:10579000081A18BF012000E00220002848D0DDF8D8
:1057A0000C80B8F1000F2FD0002030714FF0FF3087
:1057B000F0622046414600F069FF08B1032024E072
:1057C000B4F8FE014AF6552188421DD194F83720DD
:1057D00094F8383094F83610120244F2461042EA37
:1057E0000342C0F254001144814241D094F8532046
:1057F00094F8543094F85210120242EA03421144D1
:10580000081A18BF012000E0022088B1DDF81080DE
:10581000B8F1000F5ED0002030714FF0FF30F06221
:105820002046414600F032FF60B1032001E000BF96
:105830000020E8B1032814BF0D220122104605B054
:10584000BDE8F08FB4F8FE014AF65521884241D1F7
:1058500094F8372094F8383094F83610120244F255
:10586000461042EA0342C0F25400114481426FD113
:10587000B4F80BE02B889E4527D1B4F816B0BBF1E5
:10588000000F08BFD4F824B0257CC6F818B06A1EF3
:10589000012AF57019D8627B511EB2FA82F01140CC
:1058A0004FEA501018BF01210843B2700DD1B4F86F
:1058B00011C058091FFA8CF183B2B1FBF3F3A6F8BB
:1058C00008C003FB10C0000406D00D22104605B02E
:1058D000BDE8F08F0220ACE7B4F81390B9F1000FE7
:1058E00008BFD4F82090B4F80EA0BAF1000FECD0A5
:1058F0000BFB05F000EB0A01CD18A945E5D3A9EB98
:1059000005039342E1D3B3FBF2F240F6F5714FF099
:1059100001098A424FF6F57188BF4FF002098A42A9
:105920004FF6F67188BF4FF003098A4202F1020177
:1059300008EB0A0345447161C6E90783B56215D3D4
:105940005FEA0C40C1D1E06A8B0070621DE000BFCD
:1059500094F8532094F8543094F85210120242EA0A
:1059600003421144081A18BF012062E75FEA0C45A0
:10597000ABD01844B9F1020F70620FBF4B0001EBBE
:10598000410002F0010101EB50030EEB030001386E
:10599000B0FBFEF0834598D34FF0FF304FF6F67121
:1059A000C6E9030080208A42707125D3208E012829
:1059B00022D108F10101204600F068FEE0B9B4F8F8
:1059C000FE114AF6552200209142707114D12068D0
:1059D00045F25221C4F2611188420DD1D4F8E4019C
:1059E00047F27221C6F24111884205D1D4F8EC0188
:1059F000D4F8E811C6E9030186F80090388800223F
:105A000001303880F080B868A04204BF0020B86040
:105A10007869A04208BF7A61104605B0BDE8F08FF2
:105A20002DE9F04F85B08B46097804465C2900F5D6
:105A3000805805D02F2908BF0BF1010B02E000BFF1
:105A40000BF1010B0027C8F808709BF80000202814
:105A500008D220460021FEF76DF9C8F8147005B091
:105A6000BDE8F08F40F201160125C3F2005601E0B7
:105A70000BF1010B9BF800005C28F9D02F28F7D020
:105A80002028C0F08982D8F820900BF101074FF050
:105A9000000A09E029F81A1017F80A000AF10101B2
:105AA000C2B2202A8A462DD3C0B22F2820D05C282B
:105AB0001ED0BAF1FF0F00F06F820121FFF744FC06
:105AC000002800F0698201467F28E3D8A1F1220274
:105AD0001D2A4FF0060004D805FA02F2324240F0C7
